{
	"contracts/User_Interaction.sol": {
		"User": {
			"abi": [
				{
					"inputs": [
						{
							"internalType": "address",
							"name": "userAddress",
							"type": "address"
						},
						{
							"internalType": "string",
							"name": "username",
							"type": "string"
						}
					],
					"name": "createUser",
					"outputs": [],
					"stateMutability": "nonpayable",
					"type": "function"
				},
				{
					"inputs": [
						{
							"internalType": "address",
							"name": "",
							"type": "address"
						}
					],
					"name": "players",
					"outputs": [
						{
							"internalType": "address",
							"name": "playerAddress",
							"type": "address"
						},
						{
							"internalType": "string",
							"name": "username",
							"type": "string"
						},
						{
							"internalType": "uint256",
							"name": "score",
							"type": "uint256"
						}
					],
					"stateMutability": "view",
					"type": "function"
				}
			],
			"devdoc": {
				"kind": "dev",
				"methods": {},
				"version": 1
			},
			"evm": {
				"assembly": "    /* \"contracts/User_Interaction.sol\":62:621  contract User {... */\n  mstore(0x40, 0x80)\n  callvalue\n  dup1\n  iszero\n  tag_1\n  jumpi\n  0x00\n  dup1\n  revert\ntag_1:\n  pop\n  dataSize(sub_0)\n  dup1\n  dataOffset(sub_0)\n  0x00\n  codecopy\n  0x00\n  return\nstop\n\nsub_0: assembly {\n        /* \"contracts/User_Interaction.sol\":62:621  contract User {... */\n      mstore(0x40, 0x80)\n      callvalue\n      dup1\n      iszero\n      tag_1\n      jumpi\n      0x00\n      dup1\n      revert\n    tag_1:\n      pop\n      jumpi(tag_2, lt(calldatasize, 0x04))\n      shr(0xe0, calldataload(0x00))\n      dup1\n      0xe2eb41ff\n      eq\n      tag_3\n      jumpi\n      dup1\n      0xf9bcd545\n      eq\n      tag_4\n      jumpi\n    tag_2:\n      0x00\n      dup1\n      revert\n        /* \"contracts/User_Interaction.sol\":195:236  mapping(address => Player) public players */\n    tag_3:\n      tag_5\n      0x04\n      dup1\n      calldatasize\n      sub\n      dup2\n      add\n      swap1\n      tag_6\n      swap2\n      swap1\n      tag_7\n      jump\t// in\n    tag_6:\n      tag_8\n      jump\t// in\n    tag_5:\n      mload(0x40)\n      tag_9\n      swap4\n      swap3\n      swap2\n      swap1\n      tag_10\n      jump\t// in\n    tag_9:\n      mload(0x40)\n      dup1\n      swap2\n      sub\n      swap1\n      return\n        /* \"contracts/User_Interaction.sol\":245:618  function createUser(address userAddress, string memory username) external {... */\n    tag_4:\n      tag_11\n      0x04\n      dup1\n      calldatasize\n      sub\n      dup2\n      add\n      swap1\n      tag_12\n      swap2\n      swap1\n      tag_13\n      jump\t// in\n    tag_12:\n      tag_14\n      jump\t// in\n    tag_11:\n      stop\n        /* \"contracts/User_Interaction.sol\":195:236  mapping(address => Player) public players */\n    tag_8:\n      mstore(0x20, 0x00)\n      dup1\n      0x00\n      mstore\n      keccak256(0x00, 0x40)\n      0x00\n      swap2\n      pop\n      swap1\n      pop\n      dup1\n      0x00\n      add\n      0x00\n      swap1\n      sload\n      swap1\n      0x0100\n      exp\n      swap1\n      div\n      0xffffffffffffffffffffffffffffffffffffffff\n      and\n      swap1\n      dup1\n      0x01\n      add\n      dup1\n      sload\n      tag_15\n      swap1\n      tag_16\n      jump\t// in\n    tag_15:\n      dup1\n      0x1f\n      add\n      0x20\n      dup1\n      swap2\n      div\n      mul\n      0x20\n      add\n      mload(0x40)\n      swap1\n      dup2\n      add\n      0x40\n      mstore\n      dup1\n      swap3\n      swap2\n      swap1\n      dup2\n      dup2\n      mstore\n      0x20\n      add\n      dup3\n      dup1\n      sload\n      tag_17\n      swap1\n      tag_16\n      jump\t// in\n    tag_17:\n      dup1\n      iszero\n      tag_18\n      jumpi\n      dup1\n      0x1f\n      lt\n      tag_19\n      jumpi\n      0x0100\n      dup1\n      dup4\n      sload\n      div\n      mul\n      dup4\n      mstore\n      swap2\n      0x20\n      add\n      swap2\n      jump(tag_18)\n    tag_19:\n      dup3\n      add\n      swap2\n      swap1\n      0x00\n      mstore\n      keccak256(0x00, 0x20)\n      swap1\n    tag_20:\n      dup2\n      sload\n      dup2\n      mstore\n      swap1\n      0x01\n      add\n      swap1\n      0x20\n      add\n      dup1\n      dup4\n      gt\n      tag_20\n      jumpi\n      dup3\n      swap1\n      sub\n      0x1f\n      and\n      dup3\n      add\n      swap2\n    tag_18:\n      pop\n      pop\n      pop\n      pop\n      pop\n      swap1\n      dup1\n      0x02\n      add\n      sload\n      swap1\n      pop\n      dup4\n      jump\t// out\n        /* \"contracts/User_Interaction.sol\":245:618  function createUser(address userAddress, string memory username) external {... */\n    tag_14:\n        /* \"contracts/User_Interaction.sol\":384:385  0 */\n      0x00\n        /* \"contracts/User_Interaction.sol\":338:386  players[userAddress].playerAddress == address(0) */\n      0xffffffffffffffffffffffffffffffffffffffff\n      and\n        /* \"contracts/User_Interaction.sol\":338:345  players */\n      0x00\n        /* \"contracts/User_Interaction.sol\":338:358  players[userAddress] */\n      dup1\n        /* \"contracts/User_Interaction.sol\":346:357  userAddress */\n      dup5\n        /* \"contracts/User_Interaction.sol\":338:358  players[userAddress] */\n      0xffffffffffffffffffffffffffffffffffffffff\n      and\n      0xffffffffffffffffffffffffffffffffffffffff\n      and\n      dup2\n      mstore\n      0x20\n      add\n      swap1\n      dup2\n      mstore\n      0x20\n      add\n      0x00\n      keccak256\n        /* \"contracts/User_Interaction.sol\":338:372  players[userAddress].playerAddress */\n      0x00\n      add\n      0x00\n      swap1\n      sload\n      swap1\n      0x0100\n      exp\n      swap1\n      div\n      0xffffffffffffffffffffffffffffffffffffffff\n      and\n        /* \"contracts/User_Interaction.sol\":338:386  players[userAddress].playerAddress == address(0) */\n      0xffffffffffffffffffffffffffffffffffffffff\n      and\n      eq\n        /* \"contracts/User_Interaction.sol\":330:410  require(players[userAddress].playerAddress == address(0), \"User already exists\") */\n      tag_22\n      jumpi\n      mload(0x40)\n      0x08c379a000000000000000000000000000000000000000000000000000000000\n      dup2\n      mstore\n      0x04\n      add\n      tag_23\n      swap1\n      tag_24\n      jump\t// in\n    tag_23:\n      mload(0x40)\n      dup1\n      swap2\n      sub\n      swap1\n      revert\n    tag_22:\n        /* \"contracts/User_Interaction.sol\":423:446  Player memory newPlayer */\n      0x00\n        /* \"contracts/User_Interaction.sol\":449:565  Player({... */\n      mload(0x40)\n      dup1\n      0x60\n      add\n      0x40\n      mstore\n      dup1\n        /* \"contracts/User_Interaction.sol\":486:497  userAddress */\n      dup5\n        /* \"contracts/User_Interaction.sol\":449:565  Player({... */\n      0xffffffffffffffffffffffffffffffffffffffff\n      and\n      dup2\n      mstore\n      0x20\n      add\n        /* \"contracts/User_Interaction.sol\":522:530  username */\n      dup4\n        /* \"contracts/User_Interaction.sol\":449:565  Player({... */\n      dup2\n      mstore\n      0x20\n      add\n        /* \"contracts/User_Interaction.sol\":552:553  0 */\n      0x00\n        /* \"contracts/User_Interaction.sol\":449:565  Player({... */\n      dup2\n      mstore\n      pop\n        /* \"contracts/User_Interaction.sol\":423:565  Player memory newPlayer = Player({... */\n      swap1\n      pop\n        /* \"contracts/User_Interaction.sol\":601:610  newPlayer */\n      dup1\n        /* \"contracts/User_Interaction.sol\":578:585  players */\n      0x00\n        /* \"contracts/User_Interaction.sol\":578:598  players[userAddress] */\n      dup1\n        /* \"contracts/User_Interaction.sol\":586:597  userAddress */\n      dup6\n        /* \"contracts/User_Interaction.sol\":578:598  players[userAddress] */\n      0xffffffffffffffffffffffffffffffffffffffff\n      and\n      0xffffffffffffffffffffffffffffffffffffffff\n      and\n      dup2\n      mstore\n      0x20\n      add\n      swap1\n      dup2\n      mstore\n      0x20\n      add\n      0x00\n      keccak256\n        /* \"contracts/User_Interaction.sol\":578:610  players[userAddress] = newPlayer */\n      0x00\n      dup3\n      add\n      mload\n      dup2\n      0x00\n      add\n      exp(0x0100, 0x00)\n      dup2\n      sload\n      dup2\n      0xffffffffffffffffffffffffffffffffffffffff\n      mul\n      not\n      and\n      swap1\n      dup4\n      0xffffffffffffffffffffffffffffffffffffffff\n      and\n      mul\n      or\n      swap1\n      sstore\n      pop\n      0x20\n      dup3\n      add\n      mload\n      dup2\n      0x01\n      add\n      swap1\n      dup2\n      tag_25\n      swap2\n      swap1\n      tag_26\n      jump\t// in\n    tag_25:\n      pop\n      0x40\n      dup3\n      add\n      mload\n      dup2\n      0x02\n      add\n      sstore\n      swap1\n      pop\n      pop\n        /* \"contracts/User_Interaction.sol\":319:618  {... */\n      pop\n        /* \"contracts/User_Interaction.sol\":245:618  function createUser(address userAddress, string memory username) external {... */\n      pop\n      pop\n      jump\t// out\n        /* \"#utility.yul\":7:82   */\n    tag_27:\n        /* \"#utility.yul\":40:46   */\n      0x00\n        /* \"#utility.yul\":73:75   */\n      0x40\n        /* \"#utility.yul\":67:76   */\n      mload\n        /* \"#utility.yul\":57:76   */\n      swap1\n      pop\n        /* \"#utility.yul\":7:82   */\n      swap1\n      jump\t// out\n        /* \"#utility.yul\":88:205   */\n    tag_28:\n        /* \"#utility.yul\":197:198   */\n      0x00\n        /* \"#utility.yul\":194:195   */\n      dup1\n        /* \"#utility.yul\":187:199   */\n      revert\n        /* \"#utility.yul\":211:328   */\n    tag_29:\n        /* \"#utility.yul\":320:321   */\n      0x00\n        /* \"#utility.yul\":317:318   */\n      dup1\n        /* \"#utility.yul\":310:322   */\n      revert\n        /* \"#utility.yul\":334:460   */\n    tag_30:\n        /* \"#utility.yul\":371:378   */\n      0x00\n        /* \"#utility.yul\":411:453   */\n      0xffffffffffffffffffffffffffffffffffffffff\n        /* \"#utility.yul\":404:409   */\n      dup3\n        /* \"#utility.yul\":400:454   */\n      and\n        /* \"#utility.yul\":389:454   */\n      swap1\n      pop\n        /* \"#utility.yul\":334:460   */\n      swap2\n      swap1\n      pop\n      jump\t// out\n        /* \"#utility.yul\":466:562   */\n    tag_31:\n        /* \"#utility.yul\":503:510   */\n      0x00\n        /* \"#utility.yul\":532:556   */\n      tag_75\n        /* \"#utility.yul\":550:555   */\n      dup3\n        /* \"#utility.yul\":532:556   */\n      tag_30\n      jump\t// in\n    tag_75:\n        /* \"#utility.yul\":521:556   */\n      swap1\n      pop\n        /* \"#utility.yul\":466:562   */\n      swap2\n      swap1\n      pop\n      jump\t// out\n        /* \"#utility.yul\":568:690   */\n    tag_32:\n        /* \"#utility.yul\":641:665   */\n      tag_77\n        /* \"#utility.yul\":659:664   */\n      dup2\n        /* \"#utility.yul\":641:665   */\n      tag_31\n      jump\t// in\n    tag_77:\n        /* \"#utility.yul\":634:639   */\n      dup2\n        /* \"#utility.yul\":631:666   */\n      eq\n        /* \"#utility.yul\":621:684   */\n      tag_78\n      jumpi\n        /* \"#utility.yul\":680:681   */\n      0x00\n        /* \"#utility.yul\":677:678   */\n      dup1\n        /* \"#utility.yul\":670:682   */\n      revert\n        /* \"#utility.yul\":621:684   */\n    tag_78:\n        /* \"#utility.yul\":568:690   */\n      pop\n      jump\t// out\n        /* \"#utility.yul\":696:835   */\n    tag_33:\n        /* \"#utility.yul\":742:747   */\n      0x00\n        /* \"#utility.yul\":780:786   */\n      dup2\n        /* \"#utility.yul\":767:787   */\n      calldataload\n        /* \"#utility.yul\":758:787   */\n      swap1\n      pop\n        /* \"#utility.yul\":796:829   */\n      tag_80\n        /* \"#utility.yul\":823:828   */\n      dup2\n        /* \"#utility.yul\":796:829   */\n      tag_32\n      jump\t// in\n    tag_80:\n        /* \"#utility.yul\":696:835   */\n      swap3\n      swap2\n      pop\n      pop\n      jump\t// out\n        /* \"#utility.yul\":841:1170   */\n    tag_7:\n        /* \"#utility.yul\":900:906   */\n      0x00\n        /* \"#utility.yul\":949:951   */\n      0x20\n        /* \"#utility.yul\":937:946   */\n      dup3\n        /* \"#utility.yul\":928:935   */\n      dup5\n        /* \"#utility.yul\":924:947   */\n      sub\n        /* \"#utility.yul\":920:952   */\n      slt\n        /* \"#utility.yul\":917:1036   */\n      iszero\n      tag_82\n      jumpi\n        /* \"#utility.yul\":955:1034   */\n      tag_83\n      tag_28\n      jump\t// in\n    tag_83:\n        /* \"#utility.yul\":917:1036   */\n    tag_82:\n        /* \"#utility.yul\":1075:1076   */\n      0x00\n        /* \"#utility.yul\":1100:1153   */\n      tag_84\n        /* \"#utility.yul\":1145:1152   */\n      dup5\n        /* \"#utility.yul\":1136:1142   */\n      dup3\n        /* \"#utility.yul\":1125:1134   */\n      dup6\n        /* \"#utility.yul\":1121:1143   */\n      add\n        /* \"#utility.yul\":1100:1153   */\n      tag_33\n      jump\t// in\n    tag_84:\n        /* \"#utility.yul\":1090:1153   */\n      swap2\n      pop\n        /* \"#utility.yul\":1046:1163   */\n      pop\n        /* \"#utility.yul\":841:1170   */\n      swap3\n      swap2\n      pop\n      pop\n      jump\t// out\n        /* \"#utility.yul\":1176:1294   */\n    tag_34:\n        /* \"#utility.yul\":1263:1287   */\n      tag_86\n        /* \"#utility.yul\":1281:1286   */\n      dup2\n        /* \"#utility.yul\":1263:1287   */\n      tag_31\n      jump\t// in\n    tag_86:\n        /* \"#utility.yul\":1258:1261   */\n      dup3\n        /* \"#utility.yul\":1251:1288   */\n      mstore\n        /* \"#utility.yul\":1176:1294   */\n      pop\n      pop\n      jump\t// out\n        /* \"#utility.yul\":1300:1399   */\n    tag_35:\n        /* \"#utility.yul\":1352:1358   */\n      0x00\n        /* \"#utility.yul\":1386:1391   */\n      dup2\n        /* \"#utility.yul\":1380:1392   */\n      mload\n        /* \"#utility.yul\":1370:1392   */\n      swap1\n      pop\n        /* \"#utility.yul\":1300:1399   */\n      swap2\n      swap1\n      pop\n      jump\t// out\n        /* \"#utility.yul\":1405:1574   */\n    tag_36:\n        /* \"#utility.yul\":1489:1500   */\n      0x00\n        /* \"#utility.yul\":1523:1529   */\n      dup3\n        /* \"#utility.yul\":1518:1521   */\n      dup3\n        /* \"#utility.yul\":1511:1530   */\n      mstore\n        /* \"#utility.yul\":1563:1567   */\n      0x20\n        /* \"#utility.yul\":1558:1561   */\n      dup3\n        /* \"#utility.yul\":1554:1568   */\n      add\n        /* \"#utility.yul\":1539:1568   */\n      swap1\n      pop\n        /* \"#utility.yul\":1405:1574   */\n      swap3\n      swap2\n      pop\n      pop\n      jump\t// out\n        /* \"#utility.yul\":1580:1826   */\n    tag_37:\n        /* \"#utility.yul\":1661:1662   */\n      0x00\n        /* \"#utility.yul\":1671:1784   */\n    tag_90:\n        /* \"#utility.yul\":1685:1691   */\n      dup4\n        /* \"#utility.yul\":1682:1683   */\n      dup2\n        /* \"#utility.yul\":1679:1692   */\n      lt\n        /* \"#utility.yul\":1671:1784   */\n      iszero\n      tag_92\n      jumpi\n        /* \"#utility.yul\":1770:1771   */\n      dup1\n        /* \"#utility.yul\":1765:1768   */\n      dup3\n        /* \"#utility.yul\":1761:1772   */\n      add\n        /* \"#utility.yul\":1755:1773   */\n      mload\n        /* \"#utility.yul\":1751:1752   */\n      dup2\n        /* \"#utility.yul\":1746:1749   */\n      dup5\n        /* \"#utility.yul\":1742:1753   */\n      add\n        /* \"#utility.yul\":1735:1774   */\n      mstore\n        /* \"#utility.yul\":1707:1709   */\n      0x20\n        /* \"#utility.yul\":1704:1705   */\n      dup2\n        /* \"#utility.yul\":1700:1710   */\n      add\n        /* \"#utility.yul\":1695:1710   */\n      swap1\n      pop\n        /* \"#utility.yul\":1671:1784   */\n      jump(tag_90)\n    tag_92:\n        /* \"#utility.yul\":1818:1819   */\n      0x00\n        /* \"#utility.yul\":1809:1815   */\n      dup5\n        /* \"#utility.yul\":1804:1807   */\n      dup5\n        /* \"#utility.yul\":1800:1816   */\n      add\n        /* \"#utility.yul\":1793:1820   */\n      mstore\n        /* \"#utility.yul\":1642:1826   */\n      pop\n        /* \"#utility.yul\":1580:1826   */\n      pop\n      pop\n      pop\n      jump\t// out\n        /* \"#utility.yul\":1832:1934   */\n    tag_38:\n        /* \"#utility.yul\":1873:1879   */\n      0x00\n        /* \"#utility.yul\":1924:1926   */\n      0x1f\n        /* \"#utility.yul\":1920:1927   */\n      not\n        /* \"#utility.yul\":1915:1917   */\n      0x1f\n        /* \"#utility.yul\":1908:1913   */\n      dup4\n        /* \"#utility.yul\":1904:1918   */\n      add\n        /* \"#utility.yul\":1900:1928   */\n      and\n        /* \"#utility.yul\":1890:1928   */\n      swap1\n      pop\n        /* \"#utility.yul\":1832:1934   */\n      swap2\n      swap1\n      pop\n      jump\t// out\n        /* \"#utility.yul\":1940:2317   */\n    tag_39:\n        /* \"#utility.yul\":2028:2031   */\n      0x00\n        /* \"#utility.yul\":2056:2095   */\n      tag_95\n        /* \"#utility.yul\":2089:2094   */\n      dup3\n        /* \"#utility.yul\":2056:2095   */\n      tag_35\n      jump\t// in\n    tag_95:\n        /* \"#utility.yul\":2111:2182   */\n      tag_96\n        /* \"#utility.yul\":2175:2181   */\n      dup2\n        /* \"#utility.yul\":2170:2173   */\n      dup6\n        /* \"#utility.yul\":2111:2182   */\n      tag_36\n      jump\t// in\n    tag_96:\n        /* \"#utility.yul\":2104:2182   */\n      swap4\n      pop\n        /* \"#utility.yul\":2191:2256   */\n      tag_97\n        /* \"#utility.yul\":2249:2255   */\n      dup2\n        /* \"#utility.yul\":2244:2247   */\n      dup6\n        /* \"#utility.yul\":2237:2241   */\n      0x20\n        /* \"#utility.yul\":2230:2235   */\n      dup7\n        /* \"#utility.yul\":2226:2242   */\n      add\n        /* \"#utility.yul\":2191:2256   */\n      tag_37\n      jump\t// in\n    tag_97:\n        /* \"#utility.yul\":2281:2310   */\n      tag_98\n        /* \"#utility.yul\":2303:2309   */\n      dup2\n        /* \"#utility.yul\":2281:2310   */\n      tag_38\n      jump\t// in\n    tag_98:\n        /* \"#utility.yul\":2276:2279   */\n      dup5\n        /* \"#utility.yul\":2272:2311   */\n      add\n        /* \"#utility.yul\":2265:2311   */\n      swap2\n      pop\n        /* \"#utility.yul\":2032:2317   */\n      pop\n        /* \"#utility.yul\":1940:2317   */\n      swap3\n      swap2\n      pop\n      pop\n      jump\t// out\n        /* \"#utility.yul\":2323:2400   */\n    tag_40:\n        /* \"#utility.yul\":2360:2367   */\n      0x00\n        /* \"#utility.yul\":2389:2394   */\n      dup2\n        /* \"#utility.yul\":2378:2394   */\n      swap1\n      pop\n        /* \"#utility.yul\":2323:2400   */\n      swap2\n      swap1\n      pop\n      jump\t// out\n        /* \"#utility.yul\":2406:2524   */\n    tag_41:\n        /* \"#utility.yul\":2493:2517   */\n      tag_101\n        /* \"#utility.yul\":2511:2516   */\n      dup2\n        /* \"#utility.yul\":2493:2517   */\n      tag_40\n      jump\t// in\n    tag_101:\n        /* \"#utility.yul\":2488:2491   */\n      dup3\n        /* \"#utility.yul\":2481:2518   */\n      mstore\n        /* \"#utility.yul\":2406:2524   */\n      pop\n      pop\n      jump\t// out\n        /* \"#utility.yul\":2530:3063   */\n    tag_10:\n        /* \"#utility.yul\":2699:2703   */\n      0x00\n        /* \"#utility.yul\":2737:2739   */\n      0x60\n        /* \"#utility.yul\":2726:2735   */\n      dup3\n        /* \"#utility.yul\":2722:2740   */\n      add\n        /* \"#utility.yul\":2714:2740   */\n      swap1\n      pop\n        /* \"#utility.yul\":2750:2821   */\n      tag_103\n        /* \"#utility.yul\":2818:2819   */\n      0x00\n        /* \"#utility.yul\":2807:2816   */\n      dup4\n        /* \"#utility.yul\":2803:2820   */\n      add\n        /* \"#utility.yul\":2794:2800   */\n      dup7\n        /* \"#utility.yul\":2750:2821   */\n      tag_34\n      jump\t// in\n    tag_103:\n        /* \"#utility.yul\":2868:2877   */\n      dup2\n        /* \"#utility.yul\":2862:2866   */\n      dup2\n        /* \"#utility.yul\":2858:2878   */\n      sub\n        /* \"#utility.yul\":2853:2855   */\n      0x20\n        /* \"#utility.yul\":2842:2851   */\n      dup4\n        /* \"#utility.yul\":2838:2856   */\n      add\n        /* \"#utility.yul\":2831:2879   */\n      mstore\n        /* \"#utility.yul\":2896:2974   */\n      tag_104\n        /* \"#utility.yul\":2969:2973   */\n      dup2\n        /* \"#utility.yul\":2960:2966   */\n      dup6\n        /* \"#utility.yul\":2896:2974   */\n      tag_39\n      jump\t// in\n    tag_104:\n        /* \"#utility.yul\":2888:2974   */\n      swap1\n      pop\n        /* \"#utility.yul\":2984:3056   */\n      tag_105\n        /* \"#utility.yul\":3052:3054   */\n      0x40\n        /* \"#utility.yul\":3041:3050   */\n      dup4\n        /* \"#utility.yul\":3037:3055   */\n      add\n        /* \"#utility.yul\":3028:3034   */\n      dup5\n        /* \"#utility.yul\":2984:3056   */\n      tag_41\n      jump\t// in\n    tag_105:\n        /* \"#utility.yul\":2530:3063   */\n      swap5\n      swap4\n      pop\n      pop\n      pop\n      pop\n      jump\t// out\n        /* \"#utility.yul\":3069:3186   */\n    tag_42:\n        /* \"#utility.yul\":3178:3179   */\n      0x00\n        /* \"#utility.yul\":3175:3176   */\n      dup1\n        /* \"#utility.yul\":3168:3180   */\n      revert\n        /* \"#utility.yul\":3192:3309   */\n    tag_43:\n        /* \"#utility.yul\":3301:3302   */\n      0x00\n        /* \"#utility.yul\":3298:3299   */\n      dup1\n        /* \"#utility.yul\":3291:3303   */\n      revert\n        /* \"#utility.yul\":3315:3495   */\n    tag_44:\n        /* \"#utility.yul\":3363:3440   */\n      0x4e487b7100000000000000000000000000000000000000000000000000000000\n        /* \"#utility.yul\":3360:3361   */\n      0x00\n        /* \"#utility.yul\":3353:3441   */\n      mstore\n        /* \"#utility.yul\":3460:3464   */\n      0x41\n        /* \"#utility.yul\":3457:3458   */\n      0x04\n        /* \"#utility.yul\":3450:3465   */\n      mstore\n        /* \"#utility.yul\":3484:3488   */\n      0x24\n        /* \"#utility.yul\":3481:3482   */\n      0x00\n        /* \"#utility.yul\":3474:3489   */\n      revert\n        /* \"#utility.yul\":3501:3782   */\n    tag_45:\n        /* \"#utility.yul\":3584:3611   */\n      tag_110\n        /* \"#utility.yul\":3606:3610   */\n      dup3\n        /* \"#utility.yul\":3584:3611   */\n      tag_38\n      jump\t// in\n    tag_110:\n        /* \"#utility.yul\":3576:3582   */\n      dup2\n        /* \"#utility.yul\":3572:3612   */\n      add\n        /* \"#utility.yul\":3714:3720   */\n      dup2\n        /* \"#utility.yul\":3702:3712   */\n      dup2\n        /* \"#utility.yul\":3699:3721   */\n      lt\n        /* \"#utility.yul\":3678:3696   */\n      0xffffffffffffffff\n        /* \"#utility.yul\":3666:3676   */\n      dup3\n        /* \"#utility.yul\":3663:3697   */\n      gt\n        /* \"#utility.yul\":3660:3722   */\n      or\n        /* \"#utility.yul\":3657:3745   */\n      iszero\n      tag_111\n      jumpi\n        /* \"#utility.yul\":3725:3743   */\n      tag_112\n      tag_44\n      jump\t// in\n    tag_112:\n        /* \"#utility.yul\":3657:3745   */\n    tag_111:\n        /* \"#utility.yul\":3765:3775   */\n      dup1\n        /* \"#utility.yul\":3761:3763   */\n      0x40\n        /* \"#utility.yul\":3754:3776   */\n      mstore\n        /* \"#utility.yul\":3544:3782   */\n      pop\n        /* \"#utility.yul\":3501:3782   */\n      pop\n      pop\n      jump\t// out\n        /* \"#utility.yul\":3788:3917   */\n    tag_46:\n        /* \"#utility.yul\":3822:3828   */\n      0x00\n        /* \"#utility.yul\":3849:3869   */\n      tag_114\n      tag_27\n      jump\t// in\n    tag_114:\n        /* \"#utility.yul\":3839:3869   */\n      swap1\n      pop\n        /* \"#utility.yul\":3878:3911   */\n      tag_115\n        /* \"#utility.yul\":3906:3910   */\n      dup3\n        /* \"#utility.yul\":3898:3904   */\n      dup3\n        /* \"#utility.yul\":3878:3911   */\n      tag_45\n      jump\t// in\n    tag_115:\n        /* \"#utility.yul\":3788:3917   */\n      swap2\n      swap1\n      pop\n      jump\t// out\n        /* \"#utility.yul\":3923:4231   */\n    tag_47:\n        /* \"#utility.yul\":3985:3989   */\n      0x00\n        /* \"#utility.yul\":4075:4093   */\n      0xffffffffffffffff\n        /* \"#utility.yul\":4067:4073   */\n      dup3\n        /* \"#utility.yul\":4064:4094   */\n      gt\n        /* \"#utility.yul\":4061:4117   */\n      iszero\n      tag_117\n      jumpi\n        /* \"#utility.yul\":4097:4115   */\n      tag_118\n      tag_44\n      jump\t// in\n    tag_118:\n        /* \"#utility.yul\":4061:4117   */\n    tag_117:\n        /* \"#utility.yul\":4135:4164   */\n      tag_119\n        /* \"#utility.yul\":4157:4163   */\n      dup3\n        /* \"#utility.yul\":4135:4164   */\n      tag_38\n      jump\t// in\n    tag_119:\n        /* \"#utility.yul\":4127:4164   */\n      swap1\n      pop\n        /* \"#utility.yul\":4219:4223   */\n      0x20\n        /* \"#utility.yul\":4213:4217   */\n      dup2\n        /* \"#utility.yul\":4209:4224   */\n      add\n        /* \"#utility.yul\":4201:4224   */\n      swap1\n      pop\n        /* \"#utility.yul\":3923:4231   */\n      swap2\n      swap1\n      pop\n      jump\t// out\n        /* \"#utility.yul\":4237:4383   */\n    tag_48:\n        /* \"#utility.yul\":4334:4340   */\n      dup3\n        /* \"#utility.yul\":4329:4332   */\n      dup2\n        /* \"#utility.yul\":4324:4327   */\n      dup4\n        /* \"#utility.yul\":4311:4341   */\n      calldatacopy\n        /* \"#utility.yul\":4375:4376   */\n      0x00\n        /* \"#utility.yul\":4366:4372   */\n      dup4\n        /* \"#utility.yul\":4361:4364   */\n      dup4\n        /* \"#utility.yul\":4357:4373   */\n      add\n        /* \"#utility.yul\":4350:4377   */\n      mstore\n        /* \"#utility.yul\":4237:4383   */\n      pop\n      pop\n      pop\n      jump\t// out\n        /* \"#utility.yul\":4389:4814   */\n    tag_49:\n        /* \"#utility.yul\":4467:4472   */\n      0x00\n        /* \"#utility.yul\":4492:4558   */\n      tag_122\n        /* \"#utility.yul\":4508:4557   */\n      tag_123\n        /* \"#utility.yul\":4550:4556   */\n      dup5\n        /* \"#utility.yul\":4508:4557   */\n      tag_47\n      jump\t// in\n    tag_123:\n        /* \"#utility.yul\":4492:4558   */\n      tag_46\n      jump\t// in\n    tag_122:\n        /* \"#utility.yul\":4483:4558   */\n      swap1\n      pop\n        /* \"#utility.yul\":4581:4587   */\n      dup3\n        /* \"#utility.yul\":4574:4579   */\n      dup2\n        /* \"#utility.yul\":4567:4588   */\n      mstore\n        /* \"#utility.yul\":4619:4623   */\n      0x20\n        /* \"#utility.yul\":4612:4617   */\n      dup2\n        /* \"#utility.yul\":4608:4624   */\n      add\n        /* \"#utility.yul\":4657:4660   */\n      dup5\n        /* \"#utility.yul\":4648:4654   */\n      dup5\n        /* \"#utility.yul\":4643:4646   */\n      dup5\n        /* \"#utility.yul\":4639:4655   */\n      add\n        /* \"#utility.yul\":4636:4661   */\n      gt\n        /* \"#utility.yul\":4633:4745   */\n      iszero\n      tag_124\n      jumpi\n        /* \"#utility.yul\":4664:4743   */\n      tag_125\n      tag_43\n      jump\t// in\n    tag_125:\n        /* \"#utility.yul\":4633:4745   */\n    tag_124:\n        /* \"#utility.yul\":4754:4808   */\n      tag_126\n        /* \"#utility.yul\":4801:4807   */\n      dup5\n        /* \"#utility.yul\":4796:4799   */\n      dup3\n        /* \"#utility.yul\":4791:4794   */\n      dup6\n        /* \"#utility.yul\":4754:4808   */\n      tag_48\n      jump\t// in\n    tag_126:\n        /* \"#utility.yul\":4473:4814   */\n      pop\n        /* \"#utility.yul\":4389:4814   */\n      swap4\n      swap3\n      pop\n      pop\n      pop\n      jump\t// out\n        /* \"#utility.yul\":4834:5174   */\n    tag_50:\n        /* \"#utility.yul\":4890:4895   */\n      0x00\n        /* \"#utility.yul\":4939:4942   */\n      dup3\n        /* \"#utility.yul\":4932:4936   */\n      0x1f\n        /* \"#utility.yul\":4924:4930   */\n      dup4\n        /* \"#utility.yul\":4920:4937   */\n      add\n        /* \"#utility.yul\":4916:4943   */\n      slt\n        /* \"#utility.yul\":4906:5028   */\n      tag_128\n      jumpi\n        /* \"#utility.yul\":4947:5026   */\n      tag_129\n      tag_42\n      jump\t// in\n    tag_129:\n        /* \"#utility.yul\":4906:5028   */\n    tag_128:\n        /* \"#utility.yul\":5064:5070   */\n      dup2\n        /* \"#utility.yul\":5051:5071   */\n      calldataload\n        /* \"#utility.yul\":5089:5168   */\n      tag_130\n        /* \"#utility.yul\":5164:5167   */\n      dup5\n        /* \"#utility.yul\":5156:5162   */\n      dup3\n        /* \"#utility.yul\":5149:5153   */\n      0x20\n        /* \"#utility.yul\":5141:5147   */\n      dup7\n        /* \"#utility.yul\":5137:5154   */\n      add\n        /* \"#utility.yul\":5089:5168   */\n      tag_49\n      jump\t// in\n    tag_130:\n        /* \"#utility.yul\":5080:5168   */\n      swap2\n      pop\n        /* \"#utility.yul\":4896:5174   */\n      pop\n        /* \"#utility.yul\":4834:5174   */\n      swap3\n      swap2\n      pop\n      pop\n      jump\t// out\n        /* \"#utility.yul\":5180:5834   */\n    tag_13:\n        /* \"#utility.yul\":5258:5264   */\n      0x00\n        /* \"#utility.yul\":5266:5272   */\n      dup1\n        /* \"#utility.yul\":5315:5317   */\n      0x40\n        /* \"#utility.yul\":5303:5312   */\n      dup4\n        /* \"#utility.yul\":5294:5301   */\n      dup6\n        /* \"#utility.yul\":5290:5313   */\n      sub\n        /* \"#utility.yul\":5286:5318   */\n      slt\n        /* \"#utility.yul\":5283:5402   */\n      iszero\n      tag_132\n      jumpi\n        /* \"#utility.yul\":5321:5400   */\n      tag_133\n      tag_28\n      jump\t// in\n    tag_133:\n        /* \"#utility.yul\":5283:5402   */\n    tag_132:\n        /* \"#utility.yul\":5441:5442   */\n      0x00\n        /* \"#utility.yul\":5466:5519   */\n      tag_134\n        /* \"#utility.yul\":5511:5518   */\n      dup6\n        /* \"#utility.yul\":5502:5508   */\n      dup3\n        /* \"#utility.yul\":5491:5500   */\n      dup7\n        /* \"#utility.yul\":5487:5509   */\n      add\n        /* \"#utility.yul\":5466:5519   */\n      tag_33\n      jump\t// in\n    tag_134:\n        /* \"#utility.yul\":5456:5519   */\n      swap3\n      pop\n        /* \"#utility.yul\":5412:5529   */\n      pop\n        /* \"#utility.yul\":5596:5598   */\n      0x20\n        /* \"#utility.yul\":5585:5594   */\n      dup4\n        /* \"#utility.yul\":5581:5599   */\n      add\n        /* \"#utility.yul\":5568:5600   */\n      calldataload\n        /* \"#utility.yul\":5627:5645   */\n      0xffffffffffffffff\n        /* \"#utility.yul\":5619:5625   */\n      dup2\n        /* \"#utility.yul\":5616:5646   */\n      gt\n        /* \"#utility.yul\":5613:5730   */\n      iszero\n      tag_135\n      jumpi\n        /* \"#utility.yul\":5649:5728   */\n      tag_136\n      tag_29\n      jump\t// in\n    tag_136:\n        /* \"#utility.yul\":5613:5730   */\n    tag_135:\n        /* \"#utility.yul\":5754:5817   */\n      tag_137\n        /* \"#utility.yul\":5809:5816   */\n      dup6\n        /* \"#utility.yul\":5800:5806   */\n      dup3\n        /* \"#utility.yul\":5789:5798   */\n      dup7\n        /* \"#utility.yul\":5785:5807   */\n      add\n        /* \"#utility.yul\":5754:5817   */\n      tag_50\n      jump\t// in\n    tag_137:\n        /* \"#utility.yul\":5744:5817   */\n      swap2\n      pop\n        /* \"#utility.yul\":5539:5827   */\n      pop\n        /* \"#utility.yul\":5180:5834   */\n      swap3\n      pop\n      swap3\n      swap1\n      pop\n      jump\t// out\n        /* \"#utility.yul\":5840:6020   */\n    tag_51:\n        /* \"#utility.yul\":5888:5965   */\n      0x4e487b7100000000000000000000000000000000000000000000000000000000\n        /* \"#utility.yul\":5885:5886   */\n      0x00\n        /* \"#utility.yul\":5878:5966   */\n      mstore\n        /* \"#utility.yul\":5985:5989   */\n      0x22\n        /* \"#utility.yul\":5982:5983   */\n      0x04\n        /* \"#utility.yul\":5975:5990   */\n      mstore\n        /* \"#utility.yul\":6009:6013   */\n      0x24\n        /* \"#utility.yul\":6006:6007   */\n      0x00\n        /* \"#utility.yul\":5999:6014   */\n      revert\n        /* \"#utility.yul\":6026:6346   */\n    tag_16:\n        /* \"#utility.yul\":6070:6076   */\n      0x00\n        /* \"#utility.yul\":6107:6108   */\n      0x02\n        /* \"#utility.yul\":6101:6105   */\n      dup3\n        /* \"#utility.yul\":6097:6109   */\n      div\n        /* \"#utility.yul\":6087:6109   */\n      swap1\n      pop\n        /* \"#utility.yul\":6154:6155   */\n      0x01\n        /* \"#utility.yul\":6148:6152   */\n      dup3\n        /* \"#utility.yul\":6144:6156   */\n      and\n        /* \"#utility.yul\":6175:6193   */\n      dup1\n        /* \"#utility.yul\":6165:6246   */\n      tag_140\n      jumpi\n        /* \"#utility.yul\":6231:6235   */\n      0x7f\n        /* \"#utility.yul\":6223:6229   */\n      dup3\n        /* \"#utility.yul\":6219:6236   */\n      and\n        /* \"#utility.yul\":6209:6236   */\n      swap2\n      pop\n        /* \"#utility.yul\":6165:6246   */\n    tag_140:\n        /* \"#utility.yul\":6293:6295   */\n      0x20\n        /* \"#utility.yul\":6285:6291   */\n      dup3\n        /* \"#utility.yul\":6282:6296   */\n      lt\n        /* \"#utility.yul\":6262:6280   */\n      dup2\n        /* \"#utility.yul\":6259:6297   */\n      sub\n        /* \"#utility.yul\":6256:6340   */\n      tag_141\n      jumpi\n        /* \"#utility.yul\":6312:6330   */\n      tag_142\n      tag_51\n      jump\t// in\n    tag_142:\n        /* \"#utility.yul\":6256:6340   */\n    tag_141:\n        /* \"#utility.yul\":6077:6346   */\n      pop\n        /* \"#utility.yul\":6026:6346   */\n      swap2\n      swap1\n      pop\n      jump\t// out\n        /* \"#utility.yul\":6352:6521   */\n    tag_52:\n        /* \"#utility.yul\":6492:6513   */\n      0x5573657220616c72656164792065786973747300000000000000000000000000\n        /* \"#utility.yul\":6488:6489   */\n      0x00\n        /* \"#utility.yul\":6480:6486   */\n      dup3\n        /* \"#utility.yul\":6476:6490   */\n      add\n        /* \"#utility.yul\":6469:6514   */\n      mstore\n        /* \"#utility.yul\":6352:6521   */\n      pop\n      jump\t// out\n        /* \"#utility.yul\":6527:6893   */\n    tag_53:\n        /* \"#utility.yul\":6669:6672   */\n      0x00\n        /* \"#utility.yul\":6690:6757   */\n      tag_145\n        /* \"#utility.yul\":6754:6756   */\n      0x13\n        /* \"#utility.yul\":6749:6752   */\n      dup4\n        /* \"#utility.yul\":6690:6757   */\n      tag_36\n      jump\t// in\n    tag_145:\n        /* \"#utility.yul\":6683:6757   */\n      swap2\n      pop\n        /* \"#utility.yul\":6766:6859   */\n      tag_146\n        /* \"#utility.yul\":6855:6858   */\n      dup3\n        /* \"#utility.yul\":6766:6859   */\n      tag_52\n      jump\t// in\n    tag_146:\n        /* \"#utility.yul\":6884:6886   */\n      0x20\n        /* \"#utility.yul\":6879:6882   */\n      dup3\n        /* \"#utility.yul\":6875:6887   */\n      add\n        /* \"#utility.yul\":6868:6887   */\n      swap1\n      pop\n        /* \"#utility.yul\":6527:6893   */\n      swap2\n      swap1\n      pop\n      jump\t// out\n        /* \"#utility.yul\":6899:7318   */\n    tag_24:\n        /* \"#utility.yul\":7065:7069   */\n      0x00\n        /* \"#utility.yul\":7103:7105   */\n      0x20\n        /* \"#utility.yul\":7092:7101   */\n      dup3\n        /* \"#utility.yul\":7088:7106   */\n      add\n        /* \"#utility.yul\":7080:7106   */\n      swap1\n      pop\n        /* \"#utility.yul\":7152:7161   */\n      dup2\n        /* \"#utility.yul\":7146:7150   */\n      dup2\n        /* \"#utility.yul\":7142:7162   */\n      sub\n        /* \"#utility.yul\":7138:7139   */\n      0x00\n        /* \"#utility.yul\":7127:7136   */\n      dup4\n        /* \"#utility.yul\":7123:7140   */\n      add\n        /* \"#utility.yul\":7116:7163   */\n      mstore\n        /* \"#utility.yul\":7180:7311   */\n      tag_148\n        /* \"#utility.yul\":7306:7310   */\n      dup2\n        /* \"#utility.yul\":7180:7311   */\n      tag_53\n      jump\t// in\n    tag_148:\n        /* \"#utility.yul\":7172:7311   */\n      swap1\n      pop\n        /* \"#utility.yul\":6899:7318   */\n      swap2\n      swap1\n      pop\n      jump\t// out\n        /* \"#utility.yul\":7324:7465   */\n    tag_54:\n        /* \"#utility.yul\":7373:7377   */\n      0x00\n        /* \"#utility.yul\":7396:7399   */\n      dup2\n        /* \"#utility.yul\":7388:7399   */\n      swap1\n      pop\n        /* \"#utility.yul\":7419:7422   */\n      dup2\n        /* \"#utility.yul\":7416:7417   */\n      0x00\n        /* \"#utility.yul\":7409:7423   */\n      mstore\n        /* \"#utility.yul\":7453:7457   */\n      0x20\n        /* \"#utility.yul\":7450:7451   */\n      0x00\n        /* \"#utility.yul\":7440:7458   */\n      keccak256\n        /* \"#utility.yul\":7432:7458   */\n      swap1\n      pop\n        /* \"#utility.yul\":7324:7465   */\n      swap2\n      swap1\n      pop\n      jump\t// out\n        /* \"#utility.yul\":7471:7564   */\n    tag_55:\n        /* \"#utility.yul\":7508:7514   */\n      0x00\n        /* \"#utility.yul\":7555:7557   */\n      0x20\n        /* \"#utility.yul\":7550:7552   */\n      0x1f\n        /* \"#utility.yul\":7543:7548   */\n      dup4\n        /* \"#utility.yul\":7539:7553   */\n      add\n        /* \"#utility.yul\":7535:7558   */\n      div\n        /* \"#utility.yul\":7525:7558   */\n      swap1\n      pop\n        /* \"#utility.yul\":7471:7564   */\n      swap2\n      swap1\n      pop\n      jump\t// out\n        /* \"#utility.yul\":7570:7677   */\n    tag_56:\n        /* \"#utility.yul\":7614:7622   */\n      0x00\n        /* \"#utility.yul\":7664:7669   */\n      dup3\n        /* \"#utility.yul\":7658:7662   */\n      dup3\n        /* \"#utility.yul\":7654:7670   */\n      shl\n        /* \"#utility.yul\":7633:7670   */\n      swap1\n      pop\n        /* \"#utility.yul\":7570:7677   */\n      swap3\n      swap2\n      pop\n      pop\n      jump\t// out\n        /* \"#utility.yul\":7683:8076   */\n    tag_57:\n        /* \"#utility.yul\":7752:7758   */\n      0x00\n        /* \"#utility.yul\":7802:7803   */\n      0x08\n        /* \"#utility.yul\":7790:7800   */\n      dup4\n        /* \"#utility.yul\":7786:7804   */\n      mul\n        /* \"#utility.yul\":7825:7922   */\n      tag_153\n        /* \"#utility.yul\":7855:7921   */\n      0xffffffffffffffffffffffffffffffffffffffffffffffffffffffffffffffff\n        /* \"#utility.yul\":7844:7853   */\n      dup3\n        /* \"#utility.yul\":7825:7922   */\n      tag_56\n      jump\t// in\n    tag_153:\n        /* \"#utility.yul\":7943:7982   */\n      tag_154\n        /* \"#utility.yul\":7973:7981   */\n      dup7\n        /* \"#utility.yul\":7962:7971   */\n      dup4\n        /* \"#utility.yul\":7943:7982   */\n      tag_56\n      jump\t// in\n    tag_154:\n        /* \"#utility.yul\":7931:7982   */\n      swap6\n      pop\n        /* \"#utility.yul\":8015:8019   */\n      dup1\n        /* \"#utility.yul\":8011:8020   */\n      not\n        /* \"#utility.yul\":8004:8009   */\n      dup5\n        /* \"#utility.yul\":8000:8021   */\n      and\n        /* \"#utility.yul\":7991:8021   */\n      swap4\n      pop\n        /* \"#utility.yul\":8064:8068   */\n      dup1\n        /* \"#utility.yul\":8054:8062   */\n      dup7\n        /* \"#utility.yul\":8050:8069   */\n      and\n        /* \"#utility.yul\":8043:8048   */\n      dup5\n        /* \"#utility.yul\":8040:8070   */\n      or\n        /* \"#utility.yul\":8030:8070   */\n      swap3\n      pop\n        /* \"#utility.yul\":7759:8076   */\n      pop\n      pop\n        /* \"#utility.yul\":7683:8076   */\n      swap4\n      swap3\n      pop\n      pop\n      pop\n      jump\t// out\n        /* \"#utility.yul\":8082:8142   */\n    tag_58:\n        /* \"#utility.yul\":8110:8113   */\n      0x00\n        /* \"#utility.yul\":8131:8136   */\n      dup2\n        /* \"#utility.yul\":8124:8136   */\n      swap1\n      pop\n        /* \"#utility.yul\":8082:8142   */\n      swap2\n      swap1\n      pop\n      jump\t// out\n        /* \"#utility.yul\":8148:8290   */\n    tag_59:\n        /* \"#utility.yul\":8198:8207   */\n      0x00\n        /* \"#utility.yul\":8231:8284   */\n      tag_157\n        /* \"#utility.yul\":8249:8283   */\n      tag_158\n        /* \"#utility.yul\":8258:8282   */\n      tag_159\n        /* \"#utility.yul\":8276:8281   */\n      dup5\n        /* \"#utility.yul\":8258:8282   */\n      tag_40\n      jump\t// in\n    tag_159:\n        /* \"#utility.yul\":8249:8283   */\n      tag_58\n      jump\t// in\n    tag_158:\n        /* \"#utility.yul\":8231:8284   */\n      tag_40\n      jump\t// in\n    tag_157:\n        /* \"#utility.yul\":8218:8284   */\n      swap1\n      pop\n        /* \"#utility.yul\":8148:8290   */\n      swap2\n      swap1\n      pop\n      jump\t// out\n        /* \"#utility.yul\":8296:8371   */\n    tag_60:\n        /* \"#utility.yul\":8339:8342   */\n      0x00\n        /* \"#utility.yul\":8360:8365   */\n      dup2\n        /* \"#utility.yul\":8353:8365   */\n      swap1\n      pop\n        /* \"#utility.yul\":8296:8371   */\n      swap2\n      swap1\n      pop\n      jump\t// out\n        /* \"#utility.yul\":8377:8646   */\n    tag_61:\n        /* \"#utility.yul\":8487:8526   */\n      tag_162\n        /* \"#utility.yul\":8518:8525   */\n      dup4\n        /* \"#utility.yul\":8487:8526   */\n      tag_59\n      jump\t// in\n    tag_162:\n        /* \"#utility.yul\":8548:8639   */\n      tag_163\n        /* \"#utility.yul\":8597:8638   */\n      tag_164\n        /* \"#utility.yul\":8621:8637   */\n      dup3\n        /* \"#utility.yul\":8597:8638   */\n      tag_60\n      jump\t// in\n    tag_164:\n        /* \"#utility.yul\":8589:8595   */\n      dup5\n        /* \"#utility.yul\":8582:8586   */\n      dup5\n        /* \"#utility.yul\":8576:8587   */\n      sload\n        /* \"#utility.yul\":8548:8639   */\n      tag_57\n      jump\t// in\n    tag_163:\n        /* \"#utility.yul\":8542:8546   */\n      dup3\n        /* \"#utility.yul\":8535:8640   */\n      sstore\n        /* \"#utility.yul\":8453:8646   */\n      pop\n        /* \"#utility.yul\":8377:8646   */\n      pop\n      pop\n      pop\n      jump\t// out\n        /* \"#utility.yul\":8652:8725   */\n    tag_62:\n        /* \"#utility.yul\":8697:8700   */\n      0x00\n        /* \"#utility.yul\":8652:8725   */\n      swap1\n      jump\t// out\n        /* \"#utility.yul\":8731:8920   */\n    tag_63:\n        /* \"#utility.yul\":8808:8840   */\n      tag_167\n      tag_62\n      jump\t// in\n    tag_167:\n        /* \"#utility.yul\":8849:8914   */\n      tag_168\n        /* \"#utility.yul\":8907:8913   */\n      dup2\n        /* \"#utility.yul\":8899:8905   */\n      dup5\n        /* \"#utility.yul\":8893:8897   */\n      dup5\n        /* \"#utility.yul\":8849:8914   */\n      tag_61\n      jump\t// in\n    tag_168:\n        /* \"#utility.yul\":8784:8920   */\n      pop\n        /* \"#utility.yul\":8731:8920   */\n      pop\n      pop\n      jump\t// out\n        /* \"#utility.yul\":8926:9112   */\n    tag_64:\n        /* \"#utility.yul\":8986:9106   */\n    tag_170:\n        /* \"#utility.yul\":9003:9006   */\n      dup2\n        /* \"#utility.yul\":8996:9001   */\n      dup2\n        /* \"#utility.yul\":8993:9007   */\n      lt\n        /* \"#utility.yul\":8986:9106   */\n      iszero\n      tag_172\n      jumpi\n        /* \"#utility.yul\":9057:9096   */\n      tag_173\n        /* \"#utility.yul\":9094:9095   */\n      0x00\n        /* \"#utility.yul\":9087:9092   */\n      dup3\n        /* \"#utility.yul\":9057:9096   */\n      tag_63\n      jump\t// in\n    tag_173:\n        /* \"#utility.yul\":9030:9031   */\n      0x01\n        /* \"#utility.yul\":9023:9028   */\n      dup2\n        /* \"#utility.yul\":9019:9032   */\n      add\n        /* \"#utility.yul\":9010:9032   */\n      swap1\n      pop\n        /* \"#utility.yul\":8986:9106   */\n      jump(tag_170)\n    tag_172:\n        /* \"#utility.yul\":8926:9112   */\n      pop\n      pop\n      jump\t// out\n        /* \"#utility.yul\":9118:9661   */\n    tag_65:\n        /* \"#utility.yul\":9219:9221   */\n      0x1f\n        /* \"#utility.yul\":9214:9217   */\n      dup3\n        /* \"#utility.yul\":9211:9222   */\n      gt\n        /* \"#utility.yul\":9208:9654   */\n      iszero\n      tag_175\n      jumpi\n        /* \"#utility.yul\":9253:9291   */\n      tag_176\n        /* \"#utility.yul\":9285:9290   */\n      dup2\n        /* \"#utility.yul\":9253:9291   */\n      tag_54\n      jump\t// in\n    tag_176:\n        /* \"#utility.yul\":9337:9366   */\n      tag_177\n        /* \"#utility.yul\":9355:9365   */\n      dup5\n        /* \"#utility.yul\":9337:9366   */\n      tag_55\n      jump\t// in\n    tag_177:\n        /* \"#utility.yul\":9327:9335   */\n      dup2\n        /* \"#utility.yul\":9323:9367   */\n      add\n        /* \"#utility.yul\":9520:9522   */\n      0x20\n        /* \"#utility.yul\":9508:9518   */\n      dup6\n        /* \"#utility.yul\":9505:9523   */\n      lt\n        /* \"#utility.yul\":9502:9551   */\n      iszero\n      tag_178\n      jumpi\n        /* \"#utility.yul\":9541:9549   */\n      dup2\n        /* \"#utility.yul\":9526:9549   */\n      swap1\n      pop\n        /* \"#utility.yul\":9502:9551   */\n    tag_178:\n        /* \"#utility.yul\":9564:9644   */\n      tag_179\n        /* \"#utility.yul\":9620:9642   */\n      tag_180\n        /* \"#utility.yul\":9638:9641   */\n      dup6\n        /* \"#utility.yul\":9620:9642   */\n      tag_55\n      jump\t// in\n    tag_180:\n        /* \"#utility.yul\":9610:9618   */\n      dup4\n        /* \"#utility.yul\":9606:9643   */\n      add\n        /* \"#utility.yul\":9593:9604   */\n      dup3\n        /* \"#utility.yul\":9564:9644   */\n      tag_64\n      jump\t// in\n    tag_179:\n        /* \"#utility.yul\":9223:9654   */\n      pop\n      pop\n        /* \"#utility.yul\":9208:9654   */\n    tag_175:\n        /* \"#utility.yul\":9118:9661   */\n      pop\n      pop\n      pop\n      jump\t// out\n        /* \"#utility.yul\":9667:9784   */\n    tag_66:\n        /* \"#utility.yul\":9721:9729   */\n      0x00\n        /* \"#utility.yul\":9771:9776   */\n      dup3\n        /* \"#utility.yul\":9765:9769   */\n      dup3\n        /* \"#utility.yul\":9761:9777   */\n      shr\n        /* \"#utility.yul\":9740:9777   */\n      swap1\n      pop\n        /* \"#utility.yul\":9667:9784   */\n      swap3\n      swap2\n      pop\n      pop\n      jump\t// out\n        /* \"#utility.yul\":9790:9959   */\n    tag_67:\n        /* \"#utility.yul\":9834:9840   */\n      0x00\n        /* \"#utility.yul\":9867:9918   */\n      tag_183\n        /* \"#utility.yul\":9915:9916   */\n      0x00\n        /* \"#utility.yul\":9911:9917   */\n      not\n        /* \"#utility.yul\":9903:9908   */\n      dup5\n        /* \"#utility.yul\":9900:9901   */\n      0x08\n        /* \"#utility.yul\":9896:9909   */\n      mul\n        /* \"#utility.yul\":9867:9918   */\n      tag_66\n      jump\t// in\n    tag_183:\n        /* \"#utility.yul\":9863:9919   */\n      not\n        /* \"#utility.yul\":9948:9952   */\n      dup1\n        /* \"#utility.yul\":9942:9946   */\n      dup4\n        /* \"#utility.yul\":9938:9953   */\n      and\n        /* \"#utility.yul\":9928:9953   */\n      swap2\n      pop\n        /* \"#utility.yul\":9841:9959   */\n      pop\n        /* \"#utility.yul\":9790:9959   */\n      swap3\n      swap2\n      pop\n      pop\n      jump\t// out\n        /* \"#utility.yul\":9964:10259   */\n    tag_68:\n        /* \"#utility.yul\":10040:10044   */\n      0x00\n        /* \"#utility.yul\":10186:10215   */\n      tag_185\n        /* \"#utility.yul\":10211:10214   */\n      dup4\n        /* \"#utility.yul\":10205:10209   */\n      dup4\n        /* \"#utility.yul\":10186:10215   */\n      tag_67\n      jump\t// in\n    tag_185:\n        /* \"#utility.yul\":10178:10215   */\n      swap2\n      pop\n        /* \"#utility.yul\":10248:10251   */\n      dup3\n        /* \"#utility.yul\":10245:10246   */\n      0x02\n        /* \"#utility.yul\":10241:10252   */\n      mul\n        /* \"#utility.yul\":10235:10239   */\n      dup3\n        /* \"#utility.yul\":10232:10253   */\n      or\n        /* \"#utility.yul\":10224:10253   */\n      swap1\n      pop\n        /* \"#utility.yul\":9964:10259   */\n      swap3\n      swap2\n      pop\n      pop\n      jump\t// out\n        /* \"#utility.yul\":10264:11659   */\n    tag_26:\n        /* \"#utility.yul\":10381:10418   */\n      tag_187\n        /* \"#utility.yul\":10414:10417   */\n      dup3\n        /* \"#utility.yul\":10381:10418   */\n      tag_35\n      jump\t// in\n    tag_187:\n        /* \"#utility.yul\":10483:10501   */\n      0xffffffffffffffff\n        /* \"#utility.yul\":10475:10481   */\n      dup2\n        /* \"#utility.yul\":10472:10502   */\n      gt\n        /* \"#utility.yul\":10469:10525   */\n      iszero\n      tag_188\n      jumpi\n        /* \"#utility.yul\":10505:10523   */\n      tag_189\n      tag_44\n      jump\t// in\n    tag_189:\n        /* \"#utility.yul\":10469:10525   */\n    tag_188:\n        /* \"#utility.yul\":10549:10587   */\n      tag_190\n        /* \"#utility.yul\":10581:10585   */\n      dup3\n        /* \"#utility.yul\":10575:10586   */\n      sload\n        /* \"#utility.yul\":10549:10587   */\n      tag_16\n      jump\t// in\n    tag_190:\n        /* \"#utility.yul\":10634:10701   */\n      tag_191\n        /* \"#utility.yul\":10694:10700   */\n      dup3\n        /* \"#utility.yul\":10686:10692   */\n      dup3\n        /* \"#utility.yul\":10680:10684   */\n      dup6\n        /* \"#utility.yul\":10634:10701   */\n      tag_65\n      jump\t// in\n    tag_191:\n        /* \"#utility.yul\":10728:10729   */\n      0x00\n        /* \"#utility.yul\":10752:10756   */\n      0x20\n        /* \"#utility.yul\":10739:10756   */\n      swap1\n      pop\n        /* \"#utility.yul\":10784:10786   */\n      0x1f\n        /* \"#utility.yul\":10776:10782   */\n      dup4\n        /* \"#utility.yul\":10773:10787   */\n      gt\n        /* \"#utility.yul\":10801:10802   */\n      0x01\n        /* \"#utility.yul\":10796:11414   */\n      dup2\n      eq\n      tag_193\n      jumpi\n        /* \"#utility.yul\":11458:11459   */\n      0x00\n        /* \"#utility.yul\":11475:11481   */\n      dup5\n        /* \"#utility.yul\":11472:11549   */\n      iszero\n      tag_194\n      jumpi\n        /* \"#utility.yul\":11524:11533   */\n      dup3\n        /* \"#utility.yul\":11519:11522   */\n      dup8\n        /* \"#utility.yul\":11515:11534   */\n      add\n        /* \"#utility.yul\":11509:11535   */\n      mload\n        /* \"#utility.yul\":11500:11535   */\n      swap1\n      pop\n        /* \"#utility.yul\":11472:11549   */\n    tag_194:\n        /* \"#utility.yul\":11575:11642   */\n      tag_195\n        /* \"#utility.yul\":11635:11641   */\n      dup6\n        /* \"#utility.yul\":11628:11633   */\n      dup3\n        /* \"#utility.yul\":11575:11642   */\n      tag_68\n      jump\t// in\n    tag_195:\n        /* \"#utility.yul\":11569:11573   */\n      dup7\n        /* \"#utility.yul\":11562:11643   */\n      sstore\n        /* \"#utility.yul\":11431:11653   */\n      pop\n        /* \"#utility.yul\":10766:11653   */\n      jump(tag_192)\n        /* \"#utility.yul\":10796:11414   */\n    tag_193:\n        /* \"#utility.yul\":10848:10852   */\n      0x1f\n        /* \"#utility.yul\":10844:10853   */\n      not\n        /* \"#utility.yul\":10836:10842   */\n      dup5\n        /* \"#utility.yul\":10832:10854   */\n      and\n        /* \"#utility.yul\":10882:10919   */\n      tag_196\n        /* \"#utility.yul\":10914:10918   */\n      dup7\n        /* \"#utility.yul\":10882:10919   */\n      tag_54\n      jump\t// in\n    tag_196:\n        /* \"#utility.yul\":10941:10942   */\n      0x00\n        /* \"#utility.yul\":10955:11163   */\n    tag_197:\n        /* \"#utility.yul\":10969:10976   */\n      dup3\n        /* \"#utility.yul\":10966:10967   */\n      dup2\n        /* \"#utility.yul\":10963:10977   */\n      lt\n        /* \"#utility.yul\":10955:11163   */\n      iszero\n      tag_199\n      jumpi\n        /* \"#utility.yul\":11048:11057   */\n      dup5\n        /* \"#utility.yul\":11043:11046   */\n      dup10\n        /* \"#utility.yul\":11039:11058   */\n      add\n        /* \"#utility.yul\":11033:11059   */\n      mload\n        /* \"#utility.yul\":11025:11031   */\n      dup3\n        /* \"#utility.yul\":11018:11060   */\n      sstore\n        /* \"#utility.yul\":11099:11100   */\n      0x01\n        /* \"#utility.yul\":11091:11097   */\n      dup3\n        /* \"#utility.yul\":11087:11101   */\n      add\n        /* \"#utility.yul\":11077:11101   */\n      swap2\n      pop\n        /* \"#utility.yul\":11146:11148   */\n      0x20\n        /* \"#utility.yul\":11135:11144   */\n      dup6\n        /* \"#utility.yul\":11131:11149   */\n      add\n        /* \"#utility.yul\":11118:11149   */\n      swap5\n      pop\n        /* \"#utility.yul\":10992:10996   */\n      0x20\n        /* \"#utility.yul\":10989:10990   */\n      dup2\n        /* \"#utility.yul\":10985:10997   */\n      add\n        /* \"#utility.yul\":10980:10997   */\n      swap1\n      pop\n        /* \"#utility.yul\":10955:11163   */\n      jump(tag_197)\n    tag_199:\n        /* \"#utility.yul\":11191:11197   */\n      dup7\n        /* \"#utility.yul\":11182:11189   */\n      dup4\n        /* \"#utility.yul\":11179:11198   */\n      lt\n        /* \"#utility.yul\":11176:11355   */\n      iszero\n      tag_200\n      jumpi\n        /* \"#utility.yul\":11249:11258   */\n      dup5\n        /* \"#utility.yul\":11244:11247   */\n      dup10\n        /* \"#utility.yul\":11240:11259   */\n      add\n        /* \"#utility.yul\":11234:11260   */\n      mload\n        /* \"#utility.yul\":11292:11340   */\n      tag_201\n        /* \"#utility.yul\":11334:11338   */\n      0x1f\n        /* \"#utility.yul\":11326:11332   */\n      dup10\n        /* \"#utility.yul\":11322:11339   */\n      and\n        /* \"#utility.yul\":11311:11320   */\n      dup3\n        /* \"#utility.yul\":11292:11340   */\n      tag_67\n      jump\t// in\n    tag_201:\n        /* \"#utility.yul\":11284:11290   */\n      dup4\n        /* \"#utility.yul\":11277:11341   */\n      sstore\n        /* \"#utility.yul\":11199:11355   */\n      pop\n        /* \"#utility.yul\":11176:11355   */\n    tag_200:\n        /* \"#utility.yul\":11401:11402   */\n      0x01\n        /* \"#utility.yul\":11397:11398   */\n      0x02\n        /* \"#utility.yul\":11389:11395   */\n      dup9\n        /* \"#utility.yul\":11385:11399   */\n      mul\n        /* \"#utility.yul\":11381:11403   */\n      add\n        /* \"#utility.yul\":11375:11379   */\n      dup9\n        /* \"#utility.yul\":11368:11404   */\n      sstore\n        /* \"#utility.yul\":10803:11414   */\n      pop\n      pop\n      pop\n        /* \"#utility.yul\":10766:11653   */\n    tag_192:\n      pop\n        /* \"#utility.yul\":10356:11659   */\n      pop\n      pop\n      pop\n        /* \"#utility.yul\":10264:11659   */\n      pop\n      pop\n      jump\t// out\n\n    auxdata: 0xa26469706673582212204835406377b94285227db5907678cb89bc9bbe86658dd036959cea6768fdbebd64736f6c63430008120033\n}\n",
				"bytecode": {
					"linkReferences": {},
					"object": "608060405234801561001057600080fd5b506109b5806100206000396000f3fe608060405234801561001057600080fd5b50600436106100365760003560e01c8063e2eb41ff1461003b578063f9bcd5451461006d575b600080fd5b61005560048036038101906100509190610381565b610089565b60405161006493929190610466565b60405180910390f35b610087600480360381019061008291906105d9565b61015b565b005b60006020528060005260406000206000915090508060000160009054906101000a900473ffffffffffffffffffffffffffffffffffffffff16908060010180546100d290610664565b80601f01602080910402602001604051908101604052809291908181526020018280546100fe90610664565b801561014b5780601f106101205761010080835404028352916020019161014b565b820191906000526020600020905b81548152906001019060200180831161012e57829003601f168201915b5050505050908060020154905083565b600073ffffffffffffffffffffffffffffffffffffffff166000808473ffffffffffffffffffffffffffffffffffffffff1673ffffffffffffffffffffffffffffffffffffffff16815260200190815260200160002060000160009054906101000a900473ffffffffffffffffffffffffffffffffffffffff1673ffffffffffffffffffffffffffffffffffffffff161461022b576040517f08c379a0000000000000000000000000000000000000000000000000000000008152600401610222906106e1565b60405180910390fd5b600060405180606001604052808473ffffffffffffffffffffffffffffffffffffffff16815260200183815260200160008152509050806000808573ffffffffffffffffffffffffffffffffffffffff1673ffffffffffffffffffffffffffffffffffffffff16815260200190815260200160002060008201518160000160006101000a81548173ffffffffffffffffffffffffffffffffffffffff021916908373ffffffffffffffffffffffffffffffffffffffff16021790555060208201518160010190816102fc91906108ad565b5060408201518160020155905050505050565b6000604051905090565b600080fd5b600080fd5b600073ffffffffffffffffffffffffffffffffffffffff82169050919050565b600061034e82610323565b9050919050565b61035e81610343565b811461036957600080fd5b50565b60008135905061037b81610355565b92915050565b60006020828403121561039757610396610319565b5b60006103a58482850161036c565b91505092915050565b6103b781610343565b82525050565b600081519050919050565b600082825260208201905092915050565b60005b838110156103f75780820151818401526020810190506103dc565b60008484015250505050565b6000601f19601f8301169050919050565b600061041f826103bd565b61042981856103c8565b93506104398185602086016103d9565b61044281610403565b840191505092915050565b6000819050919050565b6104608161044d565b82525050565b600060608201905061047b60008301866103ae565b818103602083015261048d8185610414565b905061049c6040830184610457565b949350505050565b600080fd5b600080fd5b7f4e487b7100000000000000000000000000000000000000000000000000000000600052604160045260246000fd5b6104e682610403565b810181811067ffffffffffffffff82111715610505576105046104ae565b5b80604052505050565b600061051861030f565b905061052482826104dd565b919050565b600067ffffffffffffffff821115610544576105436104ae565b5b61054d82610403565b9050602081019050919050565b82818337600083830152505050565b600061057c61057784610529565b61050e565b905082815260208101848484011115610598576105976104a9565b5b6105a384828561055a565b509392505050565b600082601f8301126105c0576105bf6104a4565b5b81356105d0848260208601610569565b91505092915050565b600080604083850312156105f0576105ef610319565b5b60006105fe8582860161036c565b925050602083013567ffffffffffffffff81111561061f5761061e61031e565b5b61062b858286016105ab565b9150509250929050565b7f4e487b7100000000000000000000000000000000000000000000000000000000600052602260045260246000fd5b6000600282049050600182168061067c57607f821691505b60208210810361068f5761068e610635565b5b50919050565b7f5573657220616c72656164792065786973747300000000000000000000000000600082015250565b60006106cb6013836103c8565b91506106d682610695565b602082019050919050565b600060208201905081810360008301526106fa816106be565b9050919050565b60008190508160005260206000209050919050565b60006020601f8301049050919050565b600082821b905092915050565b6000600883026107637fffffffffffffffffffffffffffffffffffffffffffffffffffffffffffffffff82610726565b61076d8683610726565b95508019841693508086168417925050509392505050565b6000819050919050565b60006107aa6107a56107a08461044d565b610785565b61044d565b9050919050565b6000819050919050565b6107c48361078f565b6107d86107d0826107b1565b848454610733565b825550505050565b600090565b6107ed6107e0565b6107f88184846107bb565b505050565b5b8181101561081c576108116000826107e5565b6001810190506107fe565b5050565b601f8211156108615761083281610701565b61083b84610716565b8101602085101561084a578190505b61085e61085685610716565b8301826107fd565b50505b505050565b600082821c905092915050565b600061088460001984600802610866565b1980831691505092915050565b600061089d8383610873565b9150826002028217905092915050565b6108b6826103bd565b67ffffffffffffffff8111156108cf576108ce6104ae565b5b6108d98254610664565b6108e4828285610820565b600060209050601f8311600181146109175760008415610905578287015190505b61090f8582610891565b865550610977565b601f19841661092586610701565b60005b8281101561094d57848901518255600182019150602085019450602081019050610928565b8683101561096a5784890151610966601f891682610873565b8355505b6001600288020188555050505b50505050505056fea26469706673582212204835406377b94285227db5907678cb89bc9bbe86658dd036959cea6768fdbebd64736f6c63430008120033",
					"opcodes": "PUSH1 0x80 PUSH1 0x40 MSTORE CALLVALUE DUP1 ISZERO PUSH2 0x10 JUMPI PUSH1 0x0 DUP1 REVERT JUMPDEST POP PUSH2 0x9B5 DUP1 PUSH2 0x20 PUSH1 0x0 CODECOPY PUSH1 0x0 RETURN INVALID PUSH1 0x80 PUSH1 0x40 MSTORE CALLVALUE DUP1 ISZERO PUSH2 0x10 JUMPI PUSH1 0x0 DUP1 REVERT JUMPDEST POP PUSH1 0x4 CALLDATASIZE LT PUSH2 0x36 JUMPI PUSH1 0x0 CALLDATALOAD PUSH1 0xE0 SHR DUP1 PUSH4 0xE2EB41FF EQ PUSH2 0x3B JUMPI DUP1 PUSH4 0xF9BCD545 EQ PUSH2 0x6D JUMPI JUMPDEST PUSH1 0x0 DUP1 REVERT JUMPDEST PUSH2 0x55 PUSH1 0x4 DUP1 CALLDATASIZE SUB DUP2 ADD SWAP1 PUSH2 0x50 SWAP2 SWAP1 PUSH2 0x381 JUMP JUMPDEST PUSH2 0x89 JUMP JUMPDEST PUSH1 0x40 MLOAD PUSH2 0x64 SWAP4 SWAP3 SWAP2 SWAP1 PUSH2 0x466 JUMP JUMPDEST PUSH1 0x40 MLOAD DUP1 SWAP2 SUB SWAP1 RETURN JUMPDEST PUSH2 0x87 PUSH1 0x4 DUP1 CALLDATASIZE SUB DUP2 ADD SWAP1 PUSH2 0x82 SWAP2 SWAP1 PUSH2 0x5D9 JUMP JUMPDEST PUSH2 0x15B JUMP JUMPDEST STOP JUMPDEST PUSH1 0x0 PUSH1 0x20 MSTORE DUP1 PUSH1 0x0 MSTORE PUSH1 0x40 PUSH1 0x0 KECCAK256 PUSH1 0x0 SWAP2 POP SWAP1 POP DUP1 PUSH1 0x0 ADD PUSH1 0x0 SWAP1 SLOAD SWAP1 PUSH2 0x100 EXP SWAP1 DIV PUSH20 0xFFFFFFFFFFFFFFFFFFFFFFFFFFFFFFFFFFFFFFFF AND SWAP1 DUP1 PUSH1 0x1 ADD DUP1 SLOAD PUSH2 0xD2 SWAP1 PUSH2 0x664 JUMP JUMPDEST DUP1 PUSH1 0x1F ADD PUSH1 0x20 DUP1 SWAP2 DIV MUL PUSH1 0x20 ADD PUSH1 0x40 MLOAD SWAP1 DUP2 ADD PUSH1 0x40 MSTORE DUP1 SWAP3 SWAP2 SWAP1 DUP2 DUP2 MSTORE PUSH1 0x20 ADD DUP3 DUP1 SLOAD PUSH2 0xFE SWAP1 PUSH2 0x664 JUMP JUMPDEST DUP1 ISZERO PUSH2 0x14B JUMPI DUP1 PUSH1 0x1F LT PUSH2 0x120 JUMPI PUSH2 0x100 DUP1 DUP4 SLOAD DIV MUL DUP4 MSTORE SWAP2 PUSH1 0x20 ADD SWAP2 PUSH2 0x14B JUMP JUMPDEST DUP3 ADD SWAP2 SWAP1 PUSH1 0x0 MSTORE PUSH1 0x20 PUSH1 0x0 KECCAK256 SWAP1 JUMPDEST DUP2 SLOAD DUP2 MSTORE SWAP1 PUSH1 0x1 ADD SWAP1 PUSH1 0x20 ADD DUP1 DUP4 GT PUSH2 0x12E JUMPI DUP3 SWAP1 SUB PUSH1 0x1F AND DUP3 ADD SWAP2 JUMPDEST POP POP POP POP POP SWAP1 DUP1 PUSH1 0x2 ADD SLOAD SWAP1 POP DUP4 JUMP JUMPDEST PUSH1 0x0 PUSH20 0xFFFFFFFFFFFFFFFFFFFFFFFFFFFFFFFFFFFFFFFF AND PUSH1 0x0 DUP1 DUP5 PUSH20 0xFFFFFFFFFFFFFFFFFFFFFFFFFFFFFFFFFFFFFFFF AND PUSH20 0xFFFFFFFFFFFFFFFFFFFFFFFFFFFFFFFFFFFFFFFF AND DUP2 MSTORE PUSH1 0x20 ADD SWAP1 DUP2 MSTORE PUSH1 0x20 ADD PUSH1 0x0 KECCAK256 PUSH1 0x0 ADD PUSH1 0x0 SWAP1 SLOAD SWAP1 PUSH2 0x100 EXP SWAP1 DIV PUSH20 0xFFFFFFFFFFFFFFFFFFFFFFFFFFFFFFFFFFFFFFFF AND PUSH20 0xFFFFFFFFFFFFFFFFFFFFFFFFFFFFFFFFFFFFFFFF AND EQ PUSH2 0x22B JUMPI PUSH1 0x40 MLOAD PUSH32 0x8C379A000000000000000000000000000000000000000000000000000000000 DUP2 MSTORE PUSH1 0x4 ADD PUSH2 0x222 SWAP1 PUSH2 0x6E1 JUMP JUMPDEST PUSH1 0x40 MLOAD DUP1 SWAP2 SUB SWAP1 REVERT JUMPDEST PUSH1 0x0 PUSH1 0x40 MLOAD DUP1 PUSH1 0x60 ADD PUSH1 0x40 MSTORE DUP1 DUP5 PUSH20 0xFFFFFFFFFFFFFFFFFFFFFFFFFFFFFFFFFFFFFFFF AND DUP2 MSTORE PUSH1 0x20 ADD DUP4 DUP2 MSTORE PUSH1 0x20 ADD PUSH1 0x0 DUP2 MSTORE POP SWAP1 POP DUP1 PUSH1 0x0 DUP1 DUP6 PUSH20 0xFFFFFFFFFFFFFFFFFFFFFFFFFFFFFFFFFFFFFFFF AND PUSH20 0xFFFFFFFFFFFFFFFFFFFFFFFFFFFFFFFFFFFFFFFF AND DUP2 MSTORE PUSH1 0x20 ADD SWAP1 DUP2 MSTORE PUSH1 0x20 ADD PUSH1 0x0 KECCAK256 PUSH1 0x0 DUP3 ADD MLOAD DUP2 PUSH1 0x0 ADD PUSH1 0x0 PUSH2 0x100 EXP DUP2 SLOAD DUP2 PUSH20 0xFFFFFFFFFFFFFFFFFFFFFFFFFFFFFFFFFFFFFFFF MUL NOT AND SWAP1 DUP4 PUSH20 0xFFFFFFFFFFFFFFFFFFFFFFFFFFFFFFFFFFFFFFFF AND MUL OR SWAP1 SSTORE POP PUSH1 0x20 DUP3 ADD MLOAD DUP2 PUSH1 0x1 ADD SWAP1 DUP2 PUSH2 0x2FC SWAP2 SWAP1 PUSH2 0x8AD JUMP JUMPDEST POP PUSH1 0x40 DUP3 ADD MLOAD DUP2 PUSH1 0x2 ADD SSTORE SWAP1 POP POP POP POP POP JUMP JUMPDEST PUSH1 0x0 PUSH1 0x40 MLOAD SWAP1 POP SWAP1 JUMP JUMPDEST PUSH1 0x0 DUP1 REVERT JUMPDEST PUSH1 0x0 DUP1 REVERT JUMPDEST PUSH1 0x0 PUSH20 0xFFFFFFFFFFFFFFFFFFFFFFFFFFFFFFFFFFFFFFFF DUP3 AND SWAP1 POP SWAP2 SWAP1 POP JUMP JUMPDEST PUSH1 0x0 PUSH2 0x34E DUP3 PUSH2 0x323 JUMP JUMPDEST SWAP1 POP SWAP2 SWAP1 POP JUMP JUMPDEST PUSH2 0x35E DUP2 PUSH2 0x343 JUMP JUMPDEST DUP2 EQ PUSH2 0x369 JUMPI PUSH1 0x0 DUP1 REVERT JUMPDEST POP JUMP JUMPDEST PUSH1 0x0 DUP2 CALLDATALOAD SWAP1 POP PUSH2 0x37B DUP2 PUSH2 0x355 JUMP JUMPDEST SWAP3 SWAP2 POP POP JUMP JUMPDEST PUSH1 0x0 PUSH1 0x20 DUP3 DUP5 SUB SLT ISZERO PUSH2 0x397 JUMPI PUSH2 0x396 PUSH2 0x319 JUMP JUMPDEST JUMPDEST PUSH1 0x0 PUSH2 0x3A5 DUP5 DUP3 DUP6 ADD PUSH2 0x36C JUMP JUMPDEST SWAP2 POP POP SWAP3 SWAP2 POP POP JUMP JUMPDEST PUSH2 0x3B7 DUP2 PUSH2 0x343 JUMP JUMPDEST DUP3 MSTORE POP POP JUMP JUMPDEST PUSH1 0x0 DUP2 MLOAD SWAP1 POP SWAP2 SWAP1 POP JUMP JUMPDEST PUSH1 0x0 DUP3 DUP3 MSTORE PUSH1 0x20 DUP3 ADD SWAP1 POP SWAP3 SWAP2 POP POP JUMP JUMPDEST PUSH1 0x0 JUMPDEST DUP4 DUP2 LT ISZERO PUSH2 0x3F7 JUMPI DUP1 DUP3 ADD MLOAD DUP2 DUP5 ADD MSTORE PUSH1 0x20 DUP2 ADD SWAP1 POP PUSH2 0x3DC JUMP JUMPDEST PUSH1 0x0 DUP5 DUP5 ADD MSTORE POP POP POP POP JUMP JUMPDEST PUSH1 0x0 PUSH1 0x1F NOT PUSH1 0x1F DUP4 ADD AND SWAP1 POP SWAP2 SWAP1 POP JUMP JUMPDEST PUSH1 0x0 PUSH2 0x41F DUP3 PUSH2 0x3BD JUMP JUMPDEST PUSH2 0x429 DUP2 DUP6 PUSH2 0x3C8 JUMP JUMPDEST SWAP4 POP PUSH2 0x439 DUP2 DUP6 PUSH1 0x20 DUP7 ADD PUSH2 0x3D9 JUMP JUMPDEST PUSH2 0x442 DUP2 PUSH2 0x403 JUMP JUMPDEST DUP5 ADD SWAP2 POP POP SWAP3 SWAP2 POP POP JUMP JUMPDEST PUSH1 0x0 DUP2 SWAP1 POP SWAP2 SWAP1 POP JUMP JUMPDEST PUSH2 0x460 DUP2 PUSH2 0x44D JUMP JUMPDEST DUP3 MSTORE POP POP JUMP JUMPDEST PUSH1 0x0 PUSH1 0x60 DUP3 ADD SWAP1 POP PUSH2 0x47B PUSH1 0x0 DUP4 ADD DUP7 PUSH2 0x3AE JUMP JUMPDEST DUP2 DUP2 SUB PUSH1 0x20 DUP4 ADD MSTORE PUSH2 0x48D DUP2 DUP6 PUSH2 0x414 JUMP JUMPDEST SWAP1 POP PUSH2 0x49C PUSH1 0x40 DUP4 ADD DUP5 PUSH2 0x457 JUMP JUMPDEST SWAP5 SWAP4 POP POP POP POP JUMP JUMPDEST PUSH1 0x0 DUP1 REVERT JUMPDEST PUSH1 0x0 DUP1 REVERT JUMPDEST PUSH32 0x4E487B7100000000000000000000000000000000000000000000000000000000 PUSH1 0x0 MSTORE PUSH1 0x41 PUSH1 0x4 MSTORE PUSH1 0x24 PUSH1 0x0 REVERT JUMPDEST PUSH2 0x4E6 DUP3 PUSH2 0x403 JUMP JUMPDEST DUP2 ADD DUP2 DUP2 LT PUSH8 0xFFFFFFFFFFFFFFFF DUP3 GT OR ISZERO PUSH2 0x505 JUMPI PUSH2 0x504 PUSH2 0x4AE JUMP JUMPDEST JUMPDEST DUP1 PUSH1 0x40 MSTORE POP POP POP JUMP JUMPDEST PUSH1 0x0 PUSH2 0x518 PUSH2 0x30F JUMP JUMPDEST SWAP1 POP PUSH2 0x524 DUP3 DUP3 PUSH2 0x4DD JUMP JUMPDEST SWAP2 SWAP1 POP JUMP JUMPDEST PUSH1 0x0 PUSH8 0xFFFFFFFFFFFFFFFF DUP3 GT ISZERO PUSH2 0x544 JUMPI PUSH2 0x543 PUSH2 0x4AE JUMP JUMPDEST JUMPDEST PUSH2 0x54D DUP3 PUSH2 0x403 JUMP JUMPDEST SWAP1 POP PUSH1 0x20 DUP2 ADD SWAP1 POP SWAP2 SWAP1 POP JUMP JUMPDEST DUP3 DUP2 DUP4 CALLDATACOPY PUSH1 0x0 DUP4 DUP4 ADD MSTORE POP POP POP JUMP JUMPDEST PUSH1 0x0 PUSH2 0x57C PUSH2 0x577 DUP5 PUSH2 0x529 JUMP JUMPDEST PUSH2 0x50E JUMP JUMPDEST SWAP1 POP DUP3 DUP2 MSTORE PUSH1 0x20 DUP2 ADD DUP5 DUP5 DUP5 ADD GT ISZERO PUSH2 0x598 JUMPI PUSH2 0x597 PUSH2 0x4A9 JUMP JUMPDEST JUMPDEST PUSH2 0x5A3 DUP5 DUP3 DUP6 PUSH2 0x55A JUMP JUMPDEST POP SWAP4 SWAP3 POP POP POP JUMP JUMPDEST PUSH1 0x0 DUP3 PUSH1 0x1F DUP4 ADD SLT PUSH2 0x5C0 JUMPI PUSH2 0x5BF PUSH2 0x4A4 JUMP JUMPDEST JUMPDEST DUP2 CALLDATALOAD PUSH2 0x5D0 DUP5 DUP3 PUSH1 0x20 DUP7 ADD PUSH2 0x569 JUMP JUMPDEST SWAP2 POP POP SWAP3 SWAP2 POP POP JUMP JUMPDEST PUSH1 0x0 DUP1 PUSH1 0x40 DUP4 DUP6 SUB SLT ISZERO PUSH2 0x5F0 JUMPI PUSH2 0x5EF PUSH2 0x319 JUMP JUMPDEST JUMPDEST PUSH1 0x0 PUSH2 0x5FE DUP6 DUP3 DUP7 ADD PUSH2 0x36C JUMP JUMPDEST SWAP3 POP POP PUSH1 0x20 DUP4 ADD CALLDATALOAD PUSH8 0xFFFFFFFFFFFFFFFF DUP2 GT ISZERO PUSH2 0x61F JUMPI PUSH2 0x61E PUSH2 0x31E JUMP JUMPDEST JUMPDEST PUSH2 0x62B DUP6 DUP3 DUP7 ADD PUSH2 0x5AB JUMP JUMPDEST SWAP2 POP POP SWAP3 POP SWAP3 SWAP1 POP JUMP JUMPDEST PUSH32 0x4E487B7100000000000000000000000000000000000000000000000000000000 PUSH1 0x0 MSTORE PUSH1 0x22 PUSH1 0x4 MSTORE PUSH1 0x24 PUSH1 0x0 REVERT JUMPDEST PUSH1 0x0 PUSH1 0x2 DUP3 DIV SWAP1 POP PUSH1 0x1 DUP3 AND DUP1 PUSH2 0x67C JUMPI PUSH1 0x7F DUP3 AND SWAP2 POP JUMPDEST PUSH1 0x20 DUP3 LT DUP2 SUB PUSH2 0x68F JUMPI PUSH2 0x68E PUSH2 0x635 JUMP JUMPDEST JUMPDEST POP SWAP2 SWAP1 POP JUMP JUMPDEST PUSH32 0x5573657220616C72656164792065786973747300000000000000000000000000 PUSH1 0x0 DUP3 ADD MSTORE POP JUMP JUMPDEST PUSH1 0x0 PUSH2 0x6CB PUSH1 0x13 DUP4 PUSH2 0x3C8 JUMP JUMPDEST SWAP2 POP PUSH2 0x6D6 DUP3 PUSH2 0x695 JUMP JUMPDEST PUSH1 0x20 DUP3 ADD SWAP1 POP SWAP2 SWAP1 POP JUMP JUMPDEST PUSH1 0x0 PUSH1 0x20 DUP3 ADD SWAP1 POP DUP2 DUP2 SUB PUSH1 0x0 DUP4 ADD MSTORE PUSH2 0x6FA DUP2 PUSH2 0x6BE JUMP JUMPDEST SWAP1 POP SWAP2 SWAP1 POP JUMP JUMPDEST PUSH1 0x0 DUP2 SWAP1 POP DUP2 PUSH1 0x0 MSTORE PUSH1 0x20 PUSH1 0x0 KECCAK256 SWAP1 POP SWAP2 SWAP1 POP JUMP JUMPDEST PUSH1 0x0 PUSH1 0x20 PUSH1 0x1F DUP4 ADD DIV SWAP1 POP SWAP2 SWAP1 POP JUMP JUMPDEST PUSH1 0x0 DUP3 DUP3 SHL SWAP1 POP SWAP3 SWAP2 POP POP JUMP JUMPDEST PUSH1 0x0 PUSH1 0x8 DUP4 MUL PUSH2 0x763 PUSH32 0xFFFFFFFFFFFFFFFFFFFFFFFFFFFFFFFFFFFFFFFFFFFFFFFFFFFFFFFFFFFFFFFF DUP3 PUSH2 0x726 JUMP JUMPDEST PUSH2 0x76D DUP7 DUP4 PUSH2 0x726 JUMP JUMPDEST SWAP6 POP DUP1 NOT DUP5 AND SWAP4 POP DUP1 DUP7 AND DUP5 OR SWAP3 POP POP POP SWAP4 SWAP3 POP POP POP JUMP JUMPDEST PUSH1 0x0 DUP2 SWAP1 POP SWAP2 SWAP1 POP JUMP JUMPDEST PUSH1 0x0 PUSH2 0x7AA PUSH2 0x7A5 PUSH2 0x7A0 DUP5 PUSH2 0x44D JUMP JUMPDEST PUSH2 0x785 JUMP JUMPDEST PUSH2 0x44D JUMP JUMPDEST SWAP1 POP SWAP2 SWAP1 POP JUMP JUMPDEST PUSH1 0x0 DUP2 SWAP1 POP SWAP2 SWAP1 POP JUMP JUMPDEST PUSH2 0x7C4 DUP4 PUSH2 0x78F JUMP JUMPDEST PUSH2 0x7D8 PUSH2 0x7D0 DUP3 PUSH2 0x7B1 JUMP JUMPDEST DUP5 DUP5 SLOAD PUSH2 0x733 JUMP JUMPDEST DUP3 SSTORE POP POP POP POP JUMP JUMPDEST PUSH1 0x0 SWAP1 JUMP JUMPDEST PUSH2 0x7ED PUSH2 0x7E0 JUMP JUMPDEST PUSH2 0x7F8 DUP2 DUP5 DUP5 PUSH2 0x7BB JUMP JUMPDEST POP POP POP JUMP JUMPDEST JUMPDEST DUP2 DUP2 LT ISZERO PUSH2 0x81C JUMPI PUSH2 0x811 PUSH1 0x0 DUP3 PUSH2 0x7E5 JUMP JUMPDEST PUSH1 0x1 DUP2 ADD SWAP1 POP PUSH2 0x7FE JUMP JUMPDEST POP POP JUMP JUMPDEST PUSH1 0x1F DUP3 GT ISZERO PUSH2 0x861 JUMPI PUSH2 0x832 DUP2 PUSH2 0x701 JUMP JUMPDEST PUSH2 0x83B DUP5 PUSH2 0x716 JUMP JUMPDEST DUP2 ADD PUSH1 0x20 DUP6 LT ISZERO PUSH2 0x84A JUMPI DUP2 SWAP1 POP JUMPDEST PUSH2 0x85E PUSH2 0x856 DUP6 PUSH2 0x716 JUMP JUMPDEST DUP4 ADD DUP3 PUSH2 0x7FD JUMP JUMPDEST POP POP JUMPDEST POP POP POP JUMP JUMPDEST PUSH1 0x0 DUP3 DUP3 SHR SWAP1 POP SWAP3 SWAP2 POP POP JUMP JUMPDEST PUSH1 0x0 PUSH2 0x884 PUSH1 0x0 NOT DUP5 PUSH1 0x8 MUL PUSH2 0x866 JUMP JUMPDEST NOT DUP1 DUP4 AND SWAP2 POP POP SWAP3 SWAP2 POP POP JUMP JUMPDEST PUSH1 0x0 PUSH2 0x89D DUP4 DUP4 PUSH2 0x873 JUMP JUMPDEST SWAP2 POP DUP3 PUSH1 0x2 MUL DUP3 OR SWAP1 POP SWAP3 SWAP2 POP POP JUMP JUMPDEST PUSH2 0x8B6 DUP3 PUSH2 0x3BD JUMP JUMPDEST PUSH8 0xFFFFFFFFFFFFFFFF DUP2 GT ISZERO PUSH2 0x8CF JUMPI PUSH2 0x8CE PUSH2 0x4AE JUMP JUMPDEST JUMPDEST PUSH2 0x8D9 DUP3 SLOAD PUSH2 0x664 JUMP JUMPDEST PUSH2 0x8E4 DUP3 DUP3 DUP6 PUSH2 0x820 JUMP JUMPDEST PUSH1 0x0 PUSH1 0x20 SWAP1 POP PUSH1 0x1F DUP4 GT PUSH1 0x1 DUP2 EQ PUSH2 0x917 JUMPI PUSH1 0x0 DUP5 ISZERO PUSH2 0x905 JUMPI DUP3 DUP8 ADD MLOAD SWAP1 POP JUMPDEST PUSH2 0x90F DUP6 DUP3 PUSH2 0x891 JUMP JUMPDEST DUP7 SSTORE POP PUSH2 0x977 JUMP JUMPDEST PUSH1 0x1F NOT DUP5 AND PUSH2 0x925 DUP7 PUSH2 0x701 JUMP JUMPDEST PUSH1 0x0 JUMPDEST DUP3 DUP2 LT ISZERO PUSH2 0x94D JUMPI DUP5 DUP10 ADD MLOAD DUP3 SSTORE PUSH1 0x1 DUP3 ADD SWAP2 POP PUSH1 0x20 DUP6 ADD SWAP5 POP PUSH1 0x20 DUP2 ADD SWAP1 POP PUSH2 0x928 JUMP JUMPDEST DUP7 DUP4 LT ISZERO PUSH2 0x96A JUMPI DUP5 DUP10 ADD MLOAD PUSH2 0x966 PUSH1 0x1F DUP10 AND DUP3 PUSH2 0x873 JUMP JUMPDEST DUP4 SSTORE POP JUMPDEST PUSH1 0x1 PUSH1 0x2 DUP9 MUL ADD DUP9 SSTORE POP POP POP JUMPDEST POP POP POP POP POP POP JUMP INVALID LOG2 PUSH5 0x6970667358 0x22 SLT KECCAK256 BASEFEE CALLDATALOAD BLOCKHASH PUSH4 0x77B94285 0x22 PUSH30 0xB5907678CB89BC9BBE86658DD036959CEA6768FDBEBD64736F6C63430008 SLT STOP CALLER "
				},
				"gasEstimates": {
					"creation": {
						"codeDepositCost": "497000",
						"executionCost": "530",
						"totalCost": "497530"
					},
					"external": {
						"createUser(address,string)": "infinite",
						"players(address)": "infinite"
					}
				},
				"methodIdentifiers": {
					"createUser(address,string)": "f9bcd545",
					"players(address)": "e2eb41ff"
				}
			},
			"storageLayout": {
				"storage": [
					{
						"astId": 13,
						"contract": "contracts/User_Interaction.sol:User",
						"label": "players",
						"offset": 0,
						"slot": "0",
						"type": "t_mapping(t_address,t_struct(Player)8_storage)"
					}
				],
				"types": {
					"t_address": {
						"encoding": "inplace",
						"label": "address",
						"numberOfBytes": "20"
					},
					"t_mapping(t_address,t_struct(Player)8_storage)": {
						"encoding": "mapping",
						"key": "t_address",
						"label": "mapping(address => struct User.Player)",
						"numberOfBytes": "32",
						"value": "t_struct(Player)8_storage"
					},
					"t_string_storage": {
						"encoding": "bytes",
						"label": "string",
						"numberOfBytes": "32"
					},
					"t_struct(Player)8_storage": {
						"encoding": "inplace",
						"label": "struct User.Player",
						"members": [
							{
								"astId": 3,
								"contract": "contracts/User_Interaction.sol:User",
								"label": "playerAddress",
								"offset": 0,
								"slot": "0",
								"type": "t_address"
							},
							{
								"astId": 5,
								"contract": "contracts/User_Interaction.sol:User",
								"label": "username",
								"offset": 0,
								"slot": "1",
								"type": "t_string_storage"
							},
							{
								"astId": 7,
								"contract": "contracts/User_Interaction.sol:User",
								"label": "score",
								"offset": 0,
								"slot": "2",
								"type": "t_uint256"
							}
						],
						"numberOfBytes": "96"
					},
					"t_uint256": {
						"encoding": "inplace",
						"label": "uint256",
						"numberOfBytes": "32"
					}
				}
			},
			"userdoc": {
				"kind": "user",
				"methods": {},
				"version": 1
			}
		}
	}
}