{
	"contracts/Twitter.sol": {
		"Twitter": {
			"abi": [
				{
					"inputs": [],
					"stateMutability": "nonpayable",
					"type": "constructor"
				},
				{
					"anonymous": false,
					"inputs": [
						{
							"indexed": false,
							"internalType": "uint256",
							"name": "id",
							"type": "uint256"
						},
						{
							"indexed": false,
							"internalType": "address",
							"name": "author",
							"type": "address"
						},
						{
							"indexed": false,
							"internalType": "string",
							"name": "content",
							"type": "string"
						},
						{
							"indexed": false,
							"internalType": "uint256",
							"name": "timestamp",
							"type": "uint256"
						}
					],
					"name": "TweetCreated",
					"type": "event"
				},
				{
					"anonymous": false,
					"inputs": [
						{
							"indexed": false,
							"internalType": "address",
							"name": "liker",
							"type": "address"
						},
						{
							"indexed": false,
							"internalType": "address",
							"name": "tweetAuthor",
							"type": "address"
						},
						{
							"indexed": false,
							"internalType": "uint256",
							"name": "tweetId",
							"type": "uint256"
						},
						{
							"indexed": false,
							"internalType": "uint256",
							"name": "newLikeCount",
							"type": "uint256"
						}
					],
					"name": "TweetLiked",
					"type": "event"
				},
				{
					"anonymous": false,
					"inputs": [
						{
							"indexed": false,
							"internalType": "address",
							"name": "unliker",
							"type": "address"
						},
						{
							"indexed": false,
							"internalType": "address",
							"name": "tweetAuthor",
							"type": "address"
						},
						{
							"indexed": false,
							"internalType": "uint256",
							"name": "tweetId",
							"type": "uint256"
						},
						{
							"indexed": false,
							"internalType": "uint256",
							"name": "newLikeCount",
							"type": "uint256"
						}
					],
					"name": "TweetUnliked",
					"type": "event"
				},
				{
					"inputs": [],
					"name": "MAX_TWEET_LENGTH",
					"outputs": [
						{
							"internalType": "uint16",
							"name": "",
							"type": "uint16"
						}
					],
					"stateMutability": "view",
					"type": "function"
				},
				{
					"inputs": [
						{
							"internalType": "uint16",
							"name": "newTweetLength",
							"type": "uint16"
						}
					],
					"name": "changeTweetLength",
					"outputs": [],
					"stateMutability": "nonpayable",
					"type": "function"
				},
				{
					"inputs": [
						{
							"internalType": "string",
							"name": "_tweet",
							"type": "string"
						}
					],
					"name": "createTweet",
					"outputs": [],
					"stateMutability": "nonpayable",
					"type": "function"
				},
				{
					"inputs": [
						{
							"internalType": "address",
							"name": "_owner",
							"type": "address"
						}
					],
					"name": "getAllTweets",
					"outputs": [
						{
							"components": [
								{
									"internalType": "uint256",
									"name": "id",
									"type": "uint256"
								},
								{
									"internalType": "address",
									"name": "author",
									"type": "address"
								},
								{
									"internalType": "string",
									"name": "content",
									"type": "string"
								},
								{
									"internalType": "uint256",
									"name": "timestamp",
									"type": "uint256"
								},
								{
									"internalType": "uint256",
									"name": "likes",
									"type": "uint256"
								}
							],
							"internalType": "struct Twitter.Tweet[]",
							"name": "",
							"type": "tuple[]"
						}
					],
					"stateMutability": "view",
					"type": "function"
				},
				{
					"inputs": [
						{
							"internalType": "address",
							"name": "_author",
							"type": "address"
						}
					],
					"name": "getTotalLikes",
					"outputs": [
						{
							"internalType": "uint256",
							"name": "",
							"type": "uint256"
						}
					],
					"stateMutability": "view",
					"type": "function"
				},
				{
					"inputs": [
						{
							"internalType": "uint256",
							"name": "_i",
							"type": "uint256"
						}
					],
					"name": "getTweet",
					"outputs": [
						{
							"components": [
								{
									"internalType": "uint256",
									"name": "id",
									"type": "uint256"
								},
								{
									"internalType": "address",
									"name": "author",
									"type": "address"
								},
								{
									"internalType": "string",
									"name": "content",
									"type": "string"
								},
								{
									"internalType": "uint256",
									"name": "timestamp",
									"type": "uint256"
								},
								{
									"internalType": "uint256",
									"name": "likes",
									"type": "uint256"
								}
							],
							"internalType": "struct Twitter.Tweet",
							"name": "",
							"type": "tuple"
						}
					],
					"stateMutability": "view",
					"type": "function"
				},
				{
					"inputs": [
						{
							"internalType": "address",
							"name": "author",
							"type": "address"
						},
						{
							"internalType": "uint256",
							"name": "id",
							"type": "uint256"
						}
					],
					"name": "likeTweet",
					"outputs": [],
					"stateMutability": "nonpayable",
					"type": "function"
				},
				{
					"inputs": [],
					"name": "owner",
					"outputs": [
						{
							"internalType": "address",
							"name": "",
							"type": "address"
						}
					],
					"stateMutability": "view",
					"type": "function"
				},
				{
					"inputs": [
						{
							"internalType": "address",
							"name": "",
							"type": "address"
						},
						{
							"internalType": "uint256",
							"name": "",
							"type": "uint256"
						}
					],
					"name": "tweets",
					"outputs": [
						{
							"internalType": "uint256",
							"name": "id",
							"type": "uint256"
						},
						{
							"internalType": "address",
							"name": "author",
							"type": "address"
						},
						{
							"internalType": "string",
							"name": "content",
							"type": "string"
						},
						{
							"internalType": "uint256",
							"name": "timestamp",
							"type": "uint256"
						},
						{
							"internalType": "uint256",
							"name": "likes",
							"type": "uint256"
						}
					],
					"stateMutability": "view",
					"type": "function"
				},
				{
					"inputs": [
						{
							"internalType": "address",
							"name": "author",
							"type": "address"
						},
						{
							"internalType": "uint256",
							"name": "id",
							"type": "uint256"
						}
					],
					"name": "unlikeTweet",
					"outputs": [],
					"stateMutability": "nonpayable",
					"type": "function"
				}
			],
			"devdoc": {
				"kind": "dev",
				"methods": {},
				"version": 1
			},
			"evm": {
				"assembly": "    /* \"contracts/Twitter.sol\":62:2688  contract Twitter {... */\n  mstore(0x40, 0x80)\n    /* \"contracts/Twitter.sol\":121:124  280 */\n  0x0118\n    /* \"contracts/Twitter.sol\":88:124  uint16 public MAX_TWEET_LENGTH = 280 */\n  0x00\n  dup1\n  0x0100\n  exp\n  dup2\n  sload\n  dup2\n  0xffff\n  mul\n  not\n  and\n  swap1\n  dup4\n  0xffff\n  and\n  mul\n  or\n  swap1\n  sstore\n  pop\n    /* \"contracts/Twitter.sol\":677:728  constructor() {... */\n  callvalue\n  dup1\n  iszero\n  tag_1\n  jumpi\n  0x00\n  dup1\n  revert\ntag_1:\n  pop\n    /* \"contracts/Twitter.sol\":710:720  msg.sender */\n  caller\n    /* \"contracts/Twitter.sol\":702:707  owner */\n  0x02\n  0x00\n    /* \"contracts/Twitter.sol\":702:720  owner = msg.sender */\n  0x0100\n  exp\n  dup2\n  sload\n  dup2\n  0xffffffffffffffffffffffffffffffffffffffff\n  mul\n  not\n  and\n  swap1\n  dup4\n  0xffffffffffffffffffffffffffffffffffffffff\n  and\n  mul\n  or\n  swap1\n  sstore\n  pop\n    /* \"contracts/Twitter.sol\":62:2688  contract Twitter {... */\n  dataSize(sub_0)\n  dup1\n  dataOffset(sub_0)\n  0x00\n  codecopy\n  0x00\n  return\nstop\n\nsub_0: assembly {\n        /* \"contracts/Twitter.sol\":62:2688  contract Twitter {... */\n      mstore(0x40, 0x80)\n      callvalue\n      dup1\n      iszero\n      tag_1\n      jumpi\n      0x00\n      dup1\n      revert\n    tag_1:\n      pop\n      jumpi(tag_2, lt(calldatasize, 0x04))\n      shr(0xe0, calldataload(0x00))\n      dup1\n      0x6eb10797\n      gt\n      tag_13\n      jumpi\n      dup1\n      0x6eb10797\n      eq\n      tag_8\n      jumpi\n      dup1\n      0x7c9cd2bc\n      eq\n      tag_9\n      jumpi\n      dup1\n      0x820785cc\n      eq\n      tag_10\n      jumpi\n      dup1\n      0x8da5cb5b\n      eq\n      tag_11\n      jumpi\n      dup1\n      0xc3ad5ecb\n      eq\n      tag_12\n      jumpi\n      jump(tag_2)\n    tag_13:\n      dup1\n      0x05a1b4a9\n      eq\n      tag_3\n      jumpi\n      dup1\n      0x12e7ee1c\n      eq\n      tag_4\n      jumpi\n      dup1\n      0x3d9b569f\n      eq\n      tag_5\n      jumpi\n      dup1\n      0x58bfa4ab\n      eq\n      tag_6\n      jumpi\n      dup1\n      0x63378216\n      eq\n      tag_7\n      jumpi\n    tag_2:\n      0x00\n      dup1\n      revert\n        /* \"contracts/Twitter.sol\":283:325  mapping(address => Tweet[] ) public tweets */\n    tag_3:\n      tag_14\n      0x04\n      dup1\n      calldatasize\n      sub\n      dup2\n      add\n      swap1\n      tag_15\n      swap2\n      swap1\n      tag_16\n      jump\t// in\n    tag_15:\n      tag_17\n      jump\t// in\n    tag_14:\n      mload(0x40)\n      tag_18\n      swap6\n      swap5\n      swap4\n      swap3\n      swap2\n      swap1\n      tag_19\n      jump\t// in\n    tag_18:\n      mload(0x40)\n      dup1\n      swap2\n      sub\n      swap1\n      return\n        /* \"contracts/Twitter.sol\":2568:2683  function getAllTweets(address _owner) public view returns (Tweet[] memory ){... */\n    tag_4:\n      tag_20\n      0x04\n      dup1\n      calldatasize\n      sub\n      dup2\n      add\n      swap1\n      tag_21\n      swap2\n      swap1\n      tag_22\n      jump\t// in\n    tag_21:\n      tag_23\n      jump\t// in\n    tag_20:\n      mload(0x40)\n      tag_24\n      swap2\n      swap1\n      tag_25\n      jump\t// in\n    tag_24:\n      mload(0x40)\n      dup1\n      swap2\n      sub\n      swap1\n      return\n        /* \"contracts/Twitter.sol\":2106:2441  function unlikeTweet(address author, uint256 id) external {... */\n    tag_5:\n      tag_26\n      0x04\n      dup1\n      calldatasize\n      sub\n      dup2\n      add\n      swap1\n      tag_27\n      swap2\n      swap1\n      tag_16\n      jump\t// in\n    tag_27:\n      tag_28\n      jump\t// in\n    tag_26:\n      stop\n        /* \"contracts/Twitter.sol\":850:969  function changeTweetLength(uint16 newTweetLength) public onlyOwner {... */\n    tag_6:\n      tag_29\n      0x04\n      dup1\n      calldatasize\n      sub\n      dup2\n      add\n      swap1\n      tag_30\n      swap2\n      swap1\n      tag_31\n      jump\t// in\n    tag_30:\n      tag_32\n      jump\t// in\n    tag_29:\n      stop\n        /* \"contracts/Twitter.sol\":1806:2098  function likeTweet(address author, uint256 id) external {  ... */\n    tag_7:\n      tag_33\n      0x04\n      dup1\n      calldatasize\n      sub\n      dup2\n      add\n      swap1\n      tag_34\n      swap2\n      swap1\n      tag_16\n      jump\t// in\n    tag_34:\n      tag_35\n      jump\t// in\n    tag_33:\n      stop\n        /* \"contracts/Twitter.sol\":88:124  uint16 public MAX_TWEET_LENGTH = 280 */\n    tag_8:\n      tag_36\n      tag_37\n      jump\t// in\n    tag_36:\n      mload(0x40)\n      tag_38\n      swap2\n      swap1\n      tag_39\n      jump\t// in\n    tag_38:\n      mload(0x40)\n      dup1\n      swap2\n      sub\n      swap1\n      return\n        /* \"contracts/Twitter.sol\":1243:1798  function createTweet(string memory _tweet) public {... */\n    tag_9:\n      tag_40\n      0x04\n      dup1\n      calldatasize\n      sub\n      dup2\n      add\n      swap1\n      tag_41\n      swap2\n      swap1\n      tag_42\n      jump\t// in\n    tag_41:\n      tag_43\n      jump\t// in\n    tag_40:\n      stop\n        /* \"contracts/Twitter.sol\":977:1235  function getTotalLikes(address _author) external view returns(uint) {... */\n    tag_10:\n      tag_44\n      0x04\n      dup1\n      calldatasize\n      sub\n      dup2\n      add\n      swap1\n      tag_45\n      swap2\n      swap1\n      tag_22\n      jump\t// in\n    tag_45:\n      tag_46\n      jump\t// in\n    tag_44:\n      mload(0x40)\n      tag_47\n      swap2\n      swap1\n      tag_48\n      jump\t// in\n    tag_47:\n      mload(0x40)\n      dup1\n      swap2\n      sub\n      swap1\n      return\n        /* \"contracts/Twitter.sol\":332:352  address public owner */\n    tag_11:\n      tag_49\n      tag_50\n      jump\t// in\n    tag_49:\n      mload(0x40)\n      tag_51\n      swap2\n      swap1\n      tag_52\n      jump\t// in\n    tag_51:\n      mload(0x40)\n      dup1\n      swap2\n      sub\n      swap1\n      return\n        /* \"contracts/Twitter.sol\":2449:2560  function getTweet( uint _i) public view returns (Tweet memory) {... */\n    tag_12:\n      tag_53\n      0x04\n      dup1\n      calldatasize\n      sub\n      dup2\n      add\n      swap1\n      tag_54\n      swap2\n      swap1\n      tag_55\n      jump\t// in\n    tag_54:\n      tag_56\n      jump\t// in\n    tag_53:\n      mload(0x40)\n      tag_57\n      swap2\n      swap1\n      tag_58\n      jump\t// in\n    tag_57:\n      mload(0x40)\n      dup1\n      swap2\n      sub\n      swap1\n      return\n        /* \"contracts/Twitter.sol\":283:325  mapping(address => Tweet[] ) public tweets */\n    tag_17:\n      mstore(0x20, 0x01)\n      dup2\n      0x00\n      mstore\n      keccak256(0x00, 0x40)\n      dup2\n      dup2\n      sload\n      dup2\n      lt\n      tag_59\n      jumpi\n      0x00\n      dup1\n      revert\n    tag_59:\n      swap1\n      0x00\n      mstore\n      keccak256(0x00, 0x20)\n      swap1\n      0x05\n      mul\n      add\n      0x00\n      swap2\n      pop\n      swap2\n      pop\n      pop\n      dup1\n      0x00\n      add\n      sload\n      swap1\n      dup1\n      0x01\n      add\n      0x00\n      swap1\n      sload\n      swap1\n      0x0100\n      exp\n      swap1\n      div\n      0xffffffffffffffffffffffffffffffffffffffff\n      and\n      swap1\n      dup1\n      0x02\n      add\n      dup1\n      sload\n      tag_61\n      swap1\n      tag_62\n      jump\t// in\n    tag_61:\n      dup1\n      0x1f\n      add\n      0x20\n      dup1\n      swap2\n      div\n      mul\n      0x20\n      add\n      mload(0x40)\n      swap1\n      dup2\n      add\n      0x40\n      mstore\n      dup1\n      swap3\n      swap2\n      swap1\n      dup2\n      dup2\n      mstore\n      0x20\n      add\n      dup3\n      dup1\n      sload\n      tag_63\n      swap1\n      tag_62\n      jump\t// in\n    tag_63:\n      dup1\n      iszero\n      tag_64\n      jumpi\n      dup1\n      0x1f\n      lt\n      tag_65\n      jumpi\n      0x0100\n      dup1\n      dup4\n      sload\n      div\n      mul\n      dup4\n      mstore\n      swap2\n      0x20\n      add\n      swap2\n      jump(tag_64)\n    tag_65:\n      dup3\n      add\n      swap2\n      swap1\n      0x00\n      mstore\n      keccak256(0x00, 0x20)\n      swap1\n    tag_66:\n      dup2\n      sload\n      dup2\n      mstore\n      swap1\n      0x01\n      add\n      swap1\n      0x20\n      add\n      dup1\n      dup4\n      gt\n      tag_66\n      jumpi\n      dup3\n      swap1\n      sub\n      0x1f\n      and\n      dup3\n      add\n      swap2\n    tag_64:\n      pop\n      pop\n      pop\n      pop\n      pop\n      swap1\n      dup1\n      0x03\n      add\n      sload\n      swap1\n      dup1\n      0x04\n      add\n      sload\n      swap1\n      pop\n      dup6\n      jump\t// out\n        /* \"contracts/Twitter.sol\":2568:2683  function getAllTweets(address _owner) public view returns (Tweet[] memory ){... */\n    tag_23:\n        /* \"contracts/Twitter.sol\":2627:2641  Tweet[] memory */\n      0x60\n        /* \"contracts/Twitter.sol\":2661:2667  tweets */\n      0x01\n        /* \"contracts/Twitter.sol\":2661:2675  tweets[_owner] */\n      0x00\n        /* \"contracts/Twitter.sol\":2668:2674  _owner */\n      dup4\n        /* \"contracts/Twitter.sol\":2661:2675  tweets[_owner] */\n      0xffffffffffffffffffffffffffffffffffffffff\n      and\n      0xffffffffffffffffffffffffffffffffffffffff\n      and\n      dup2\n      mstore\n      0x20\n      add\n      swap1\n      dup2\n      mstore\n      0x20\n      add\n      0x00\n      keccak256\n        /* \"contracts/Twitter.sol\":2654:2675  return tweets[_owner] */\n      dup1\n      sload\n      dup1\n      0x20\n      mul\n      0x20\n      add\n      mload(0x40)\n      swap1\n      dup2\n      add\n      0x40\n      mstore\n      dup1\n      swap3\n      swap2\n      swap1\n      dup2\n      dup2\n      mstore\n      0x20\n      add\n      0x00\n      swap1\n    tag_68:\n      dup3\n      dup3\n      lt\n      iszero\n      tag_69\n      jumpi\n      dup4\n      dup3\n      swap1\n      0x00\n      mstore\n      keccak256(0x00, 0x20)\n      swap1\n      0x05\n      mul\n      add\n      mload(0x40)\n      dup1\n      0xa0\n      add\n      0x40\n      mstore\n      swap1\n      dup2\n      0x00\n      dup3\n      add\n      sload\n      dup2\n      mstore\n      0x20\n      add\n      0x01\n      dup3\n      add\n      0x00\n      swap1\n      sload\n      swap1\n      0x0100\n      exp\n      swap1\n      div\n      0xffffffffffffffffffffffffffffffffffffffff\n      and\n      0xffffffffffffffffffffffffffffffffffffffff\n      and\n      0xffffffffffffffffffffffffffffffffffffffff\n      and\n      dup2\n      mstore\n      0x20\n      add\n      0x02\n      dup3\n      add\n      dup1\n      sload\n      tag_71\n      swap1\n      tag_62\n      jump\t// in\n    tag_71:\n      dup1\n      0x1f\n      add\n      0x20\n      dup1\n      swap2\n      div\n      mul\n      0x20\n      add\n      mload(0x40)\n      swap1\n      dup2\n      add\n      0x40\n      mstore\n      dup1\n      swap3\n      swap2\n      swap1\n      dup2\n      dup2\n      mstore\n      0x20\n      add\n      dup3\n      dup1\n      sload\n      tag_72\n      swap1\n      tag_62\n      jump\t// in\n    tag_72:\n      dup1\n      iszero\n      tag_73\n      jumpi\n      dup1\n      0x1f\n      lt\n      tag_74\n      jumpi\n      0x0100\n      dup1\n      dup4\n      sload\n      div\n      mul\n      dup4\n      mstore\n      swap2\n      0x20\n      add\n      swap2\n      jump(tag_73)\n    tag_74:\n      dup3\n      add\n      swap2\n      swap1\n      0x00\n      mstore\n      keccak256(0x00, 0x20)\n      swap1\n    tag_75:\n      dup2\n      sload\n      dup2\n      mstore\n      swap1\n      0x01\n      add\n      swap1\n      0x20\n      add\n      dup1\n      dup4\n      gt\n      tag_75\n      jumpi\n      dup3\n      swap1\n      sub\n      0x1f\n      and\n      dup3\n      add\n      swap2\n    tag_73:\n      pop\n      pop\n      pop\n      pop\n      pop\n      dup2\n      mstore\n      0x20\n      add\n      0x03\n      dup3\n      add\n      sload\n      dup2\n      mstore\n      0x20\n      add\n      0x04\n      dup3\n      add\n      sload\n      dup2\n      mstore\n      pop\n      pop\n      dup2\n      mstore\n      0x20\n      add\n      swap1\n      0x01\n      add\n      swap1\n      jump(tag_68)\n    tag_69:\n      pop\n      pop\n      pop\n      pop\n      swap1\n      pop\n        /* \"contracts/Twitter.sol\":2568:2683  function getAllTweets(address _owner) public view returns (Tweet[] memory ){... */\n      swap2\n      swap1\n      pop\n      jump\t// out\n        /* \"contracts/Twitter.sol\":2106:2441  function unlikeTweet(address author, uint256 id) external {... */\n    tag_28:\n        /* \"contracts/Twitter.sol\":2208:2210  id */\n      dup1\n        /* \"contracts/Twitter.sol\":2183:2189  tweets */\n      0x01\n        /* \"contracts/Twitter.sol\":2183:2197  tweets[author] */\n      0x00\n        /* \"contracts/Twitter.sol\":2190:2196  author */\n      dup5\n        /* \"contracts/Twitter.sol\":2183:2197  tweets[author] */\n      0xffffffffffffffffffffffffffffffffffffffff\n      and\n      0xffffffffffffffffffffffffffffffffffffffff\n      and\n      dup2\n      mstore\n      0x20\n      add\n      swap1\n      dup2\n      mstore\n      0x20\n      add\n      0x00\n      keccak256\n        /* \"contracts/Twitter.sol\":2198:2200  id */\n      dup3\n        /* \"contracts/Twitter.sol\":2183:2201  tweets[author][id] */\n      dup2\n      sload\n      dup2\n      lt\n      tag_77\n      jumpi\n      tag_78\n      tag_79\n      jump\t// in\n    tag_78:\n    tag_77:\n      swap1\n      0x00\n      mstore\n      keccak256(0x00, 0x20)\n      swap1\n      0x05\n      mul\n      add\n        /* \"contracts/Twitter.sol\":2183:2204  tweets[author][id].id */\n      0x00\n      add\n      sload\n        /* \"contracts/Twitter.sol\":2183:2210  tweets[author][id].id == id */\n      eq\n        /* \"contracts/Twitter.sol\":2175:2235  require(tweets[author][id].id == id, \"TWEET DOES NOT EXIST\") */\n      tag_81\n      jumpi\n      mload(0x40)\n      0x08c379a000000000000000000000000000000000000000000000000000000000\n      dup2\n      mstore\n      0x04\n      add\n      tag_82\n      swap1\n      tag_83\n      jump\t// in\n    tag_82:\n      mload(0x40)\n      dup1\n      swap2\n      sub\n      swap1\n      revert\n    tag_81:\n        /* \"contracts/Twitter.sol\":2281:2282  0 */\n      0x00\n        /* \"contracts/Twitter.sol\":2254:2260  tweets */\n      0x01\n        /* \"contracts/Twitter.sol\":2254:2268  tweets[author] */\n      0x00\n        /* \"contracts/Twitter.sol\":2261:2267  author */\n      dup5\n        /* \"contracts/Twitter.sol\":2254:2268  tweets[author] */\n      0xffffffffffffffffffffffffffffffffffffffff\n      and\n      0xffffffffffffffffffffffffffffffffffffffff\n      and\n      dup2\n      mstore\n      0x20\n      add\n      swap1\n      dup2\n      mstore\n      0x20\n      add\n      0x00\n      keccak256\n        /* \"contracts/Twitter.sol\":2269:2271  id */\n      dup3\n        /* \"contracts/Twitter.sol\":2254:2272  tweets[author][id] */\n      dup2\n      sload\n      dup2\n      lt\n      tag_84\n      jumpi\n      tag_85\n      tag_79\n      jump\t// in\n    tag_85:\n    tag_84:\n      swap1\n      0x00\n      mstore\n      keccak256(0x00, 0x20)\n      swap1\n      0x05\n      mul\n      add\n        /* \"contracts/Twitter.sol\":2254:2278  tweets[author][id].likes */\n      0x04\n      add\n      sload\n        /* \"contracts/Twitter.sol\":2254:2282  tweets[author][id].likes > 0 */\n      gt\n        /* \"contracts/Twitter.sol\":2246:2305  require(tweets[author][id].likes > 0, \"TWEET HAS NO LIKES\") */\n      tag_87\n      jumpi\n      mload(0x40)\n      0x08c379a000000000000000000000000000000000000000000000000000000000\n      dup2\n      mstore\n      0x04\n      add\n      tag_88\n      swap1\n      tag_89\n      jump\t// in\n    tag_88:\n      mload(0x40)\n      dup1\n      swap2\n      sub\n      swap1\n      revert\n    tag_87:\n        /* \"contracts/Twitter.sol\":2326:2332  tweets */\n      0x01\n        /* \"contracts/Twitter.sol\":2326:2340  tweets[author] */\n      0x00\n        /* \"contracts/Twitter.sol\":2333:2339  author */\n      dup4\n        /* \"contracts/Twitter.sol\":2326:2340  tweets[author] */\n      0xffffffffffffffffffffffffffffffffffffffff\n      and\n      0xffffffffffffffffffffffffffffffffffffffff\n      and\n      dup2\n      mstore\n      0x20\n      add\n      swap1\n      dup2\n      mstore\n      0x20\n      add\n      0x00\n      keccak256\n        /* \"contracts/Twitter.sol\":2341:2343  id */\n      dup2\n        /* \"contracts/Twitter.sol\":2326:2344  tweets[author][id] */\n      dup2\n      sload\n      dup2\n      lt\n      tag_90\n      jumpi\n      tag_91\n      tag_79\n      jump\t// in\n    tag_91:\n    tag_90:\n      swap1\n      0x00\n      mstore\n      keccak256(0x00, 0x20)\n      swap1\n      0x05\n      mul\n      add\n        /* \"contracts/Twitter.sol\":2326:2350  tweets[author][id].likes */\n      0x04\n      add\n      0x00\n        /* \"contracts/Twitter.sol\":2326:2352  tweets[author][id].likes-- */\n      dup2\n      sload\n      dup1\n      swap3\n      swap2\n      swap1\n      tag_93\n      swap1\n      tag_94\n      jump\t// in\n    tag_93:\n      swap2\n      swap1\n      pop\n      sstore\n      pop\n        /* \"contracts/Twitter.sol\":2370:2433  TweetUnliked(msg.sender, author, id, tweets[author][id].likes ) */\n      0x762c2616349603ac16eba0de8e6141b79129a07ab63bd99e0a80b3a471716943\n        /* \"contracts/Twitter.sol\":2383:2393  msg.sender */\n      caller\n        /* \"contracts/Twitter.sol\":2395:2401  author */\n      dup4\n        /* \"contracts/Twitter.sol\":2403:2405  id */\n      dup4\n        /* \"contracts/Twitter.sol\":2407:2413  tweets */\n      0x01\n        /* \"contracts/Twitter.sol\":2407:2421  tweets[author] */\n      0x00\n        /* \"contracts/Twitter.sol\":2414:2420  author */\n      dup8\n        /* \"contracts/Twitter.sol\":2407:2421  tweets[author] */\n      0xffffffffffffffffffffffffffffffffffffffff\n      and\n      0xffffffffffffffffffffffffffffffffffffffff\n      and\n      dup2\n      mstore\n      0x20\n      add\n      swap1\n      dup2\n      mstore\n      0x20\n      add\n      0x00\n      keccak256\n        /* \"contracts/Twitter.sol\":2422:2424  id */\n      dup6\n        /* \"contracts/Twitter.sol\":2407:2425  tweets[author][id] */\n      dup2\n      sload\n      dup2\n      lt\n      tag_95\n      jumpi\n      tag_96\n      tag_79\n      jump\t// in\n    tag_96:\n    tag_95:\n      swap1\n      0x00\n      mstore\n      keccak256(0x00, 0x20)\n      swap1\n      0x05\n      mul\n      add\n        /* \"contracts/Twitter.sol\":2407:2431  tweets[author][id].likes */\n      0x04\n      add\n      sload\n        /* \"contracts/Twitter.sol\":2370:2433  TweetUnliked(msg.sender, author, id, tweets[author][id].likes ) */\n      mload(0x40)\n      tag_98\n      swap5\n      swap4\n      swap3\n      swap2\n      swap1\n      tag_99\n      jump\t// in\n    tag_98:\n      mload(0x40)\n      dup1\n      swap2\n      sub\n      swap1\n      log1\n        /* \"contracts/Twitter.sol\":2106:2441  function unlikeTweet(address author, uint256 id) external {... */\n      pop\n      pop\n      jump\t// out\n        /* \"contracts/Twitter.sol\":850:969  function changeTweetLength(uint16 newTweetLength) public onlyOwner {... */\n    tag_32:\n        /* \"contracts/Twitter.sol\":790:795  owner */\n      0x02\n      0x00\n      swap1\n      sload\n      swap1\n      0x0100\n      exp\n      swap1\n      div\n      0xffffffffffffffffffffffffffffffffffffffff\n      and\n        /* \"contracts/Twitter.sol\":776:795  msg.sender == owner */\n      0xffffffffffffffffffffffffffffffffffffffff\n      and\n        /* \"contracts/Twitter.sol\":776:786  msg.sender */\n      caller\n        /* \"contracts/Twitter.sol\":776:795  msg.sender == owner */\n      0xffffffffffffffffffffffffffffffffffffffff\n      and\n      eq\n        /* \"contracts/Twitter.sol\":768:822  require(msg.sender == owner, \"YOU ARE NOT THE OWNER!\") */\n      tag_101\n      jumpi\n      mload(0x40)\n      0x08c379a000000000000000000000000000000000000000000000000000000000\n      dup2\n      mstore\n      0x04\n      add\n      tag_102\n      swap1\n      tag_103\n      jump\t// in\n    tag_102:\n      mload(0x40)\n      dup1\n      swap2\n      sub\n      swap1\n      revert\n    tag_101:\n        /* \"contracts/Twitter.sol\":947:961  newTweetLength */\n      dup1\n        /* \"contracts/Twitter.sol\":928:944  MAX_TWEET_LENGTH */\n      0x00\n      dup1\n        /* \"contracts/Twitter.sol\":928:961  MAX_TWEET_LENGTH = newTweetLength */\n      0x0100\n      exp\n      dup2\n      sload\n      dup2\n      0xffff\n      mul\n      not\n      and\n      swap1\n      dup4\n      0xffff\n      and\n      mul\n      or\n      swap1\n      sstore\n      pop\n        /* \"contracts/Twitter.sol\":850:969  function changeTweetLength(uint16 newTweetLength) public onlyOwner {... */\n      pop\n      jump\t// out\n        /* \"contracts/Twitter.sol\":1806:2098  function likeTweet(address author, uint256 id) external {  ... */\n    tag_35:\n        /* \"contracts/Twitter.sol\":1908:1910  id */\n      dup1\n        /* \"contracts/Twitter.sol\":1883:1889  tweets */\n      0x01\n        /* \"contracts/Twitter.sol\":1883:1897  tweets[author] */\n      0x00\n        /* \"contracts/Twitter.sol\":1890:1896  author */\n      dup5\n        /* \"contracts/Twitter.sol\":1883:1897  tweets[author] */\n      0xffffffffffffffffffffffffffffffffffffffff\n      and\n      0xffffffffffffffffffffffffffffffffffffffff\n      and\n      dup2\n      mstore\n      0x20\n      add\n      swap1\n      dup2\n      mstore\n      0x20\n      add\n      0x00\n      keccak256\n        /* \"contracts/Twitter.sol\":1898:1900  id */\n      dup3\n        /* \"contracts/Twitter.sol\":1883:1901  tweets[author][id] */\n      dup2\n      sload\n      dup2\n      lt\n      tag_106\n      jumpi\n      tag_107\n      tag_79\n      jump\t// in\n    tag_107:\n    tag_106:\n      swap1\n      0x00\n      mstore\n      keccak256(0x00, 0x20)\n      swap1\n      0x05\n      mul\n      add\n        /* \"contracts/Twitter.sol\":1883:1904  tweets[author][id].id */\n      0x00\n      add\n      sload\n        /* \"contracts/Twitter.sol\":1883:1910  tweets[author][id].id == id */\n      eq\n        /* \"contracts/Twitter.sol\":1875:1935  require(tweets[author][id].id == id, \"TWEET DOES NOT EXIST\") */\n      tag_109\n      jumpi\n      mload(0x40)\n      0x08c379a000000000000000000000000000000000000000000000000000000000\n      dup2\n      mstore\n      0x04\n      add\n      tag_110\n      swap1\n      tag_83\n      jump\t// in\n    tag_110:\n      mload(0x40)\n      dup1\n      swap2\n      sub\n      swap1\n      revert\n    tag_109:\n        /* \"contracts/Twitter.sol\":1948:1954  tweets */\n      0x01\n        /* \"contracts/Twitter.sol\":1948:1962  tweets[author] */\n      0x00\n        /* \"contracts/Twitter.sol\":1955:1961  author */\n      dup4\n        /* \"contracts/Twitter.sol\":1948:1962  tweets[author] */\n      0xffffffffffffffffffffffffffffffffffffffff\n      and\n      0xffffffffffffffffffffffffffffffffffffffff\n      and\n      dup2\n      mstore\n      0x20\n      add\n      swap1\n      dup2\n      mstore\n      0x20\n      add\n      0x00\n      keccak256\n        /* \"contracts/Twitter.sol\":1963:1965  id */\n      dup2\n        /* \"contracts/Twitter.sol\":1948:1966  tweets[author][id] */\n      dup2\n      sload\n      dup2\n      lt\n      tag_111\n      jumpi\n      tag_112\n      tag_79\n      jump\t// in\n    tag_112:\n    tag_111:\n      swap1\n      0x00\n      mstore\n      keccak256(0x00, 0x20)\n      swap1\n      0x05\n      mul\n      add\n        /* \"contracts/Twitter.sol\":1948:1972  tweets[author][id].likes */\n      0x04\n      add\n      0x00\n        /* \"contracts/Twitter.sol\":1948:1974  tweets[author][id].likes++ */\n      dup2\n      sload\n      dup1\n      swap3\n      swap2\n      swap1\n      tag_114\n      swap1\n      tag_115\n      jump\t// in\n    tag_114:\n      swap2\n      swap1\n      pop\n      sstore\n      pop\n        /* \"contracts/Twitter.sol\":2030:2090  TweetLiked(msg.sender, author, id, tweets[author][id].likes) */\n      0xe8a76fc0f16d11a00d1e93b689b63d76cf60af914dd3d915375dc41d01a0c3c8\n        /* \"contracts/Twitter.sol\":2041:2051  msg.sender */\n      caller\n        /* \"contracts/Twitter.sol\":2053:2059  author */\n      dup4\n        /* \"contracts/Twitter.sol\":2061:2063  id */\n      dup4\n        /* \"contracts/Twitter.sol\":2065:2071  tweets */\n      0x01\n        /* \"contracts/Twitter.sol\":2065:2079  tweets[author] */\n      0x00\n        /* \"contracts/Twitter.sol\":2072:2078  author */\n      dup8\n        /* \"contracts/Twitter.sol\":2065:2079  tweets[author] */\n      0xffffffffffffffffffffffffffffffffffffffff\n      and\n      0xffffffffffffffffffffffffffffffffffffffff\n      and\n      dup2\n      mstore\n      0x20\n      add\n      swap1\n      dup2\n      mstore\n      0x20\n      add\n      0x00\n      keccak256\n        /* \"contracts/Twitter.sol\":2080:2082  id */\n      dup6\n        /* \"contracts/Twitter.sol\":2065:2083  tweets[author][id] */\n      dup2\n      sload\n      dup2\n      lt\n      tag_116\n      jumpi\n      tag_117\n      tag_79\n      jump\t// in\n    tag_117:\n    tag_116:\n      swap1\n      0x00\n      mstore\n      keccak256(0x00, 0x20)\n      swap1\n      0x05\n      mul\n      add\n        /* \"contracts/Twitter.sol\":2065:2089  tweets[author][id].likes */\n      0x04\n      add\n      sload\n        /* \"contracts/Twitter.sol\":2030:2090  TweetLiked(msg.sender, author, id, tweets[author][id].likes) */\n      mload(0x40)\n      tag_119\n      swap5\n      swap4\n      swap3\n      swap2\n      swap1\n      tag_99\n      jump\t// in\n    tag_119:\n      mload(0x40)\n      dup1\n      swap2\n      sub\n      swap1\n      log1\n        /* \"contracts/Twitter.sol\":1806:2098  function likeTweet(address author, uint256 id) external {  ... */\n      pop\n      pop\n      jump\t// out\n        /* \"contracts/Twitter.sol\":88:124  uint16 public MAX_TWEET_LENGTH = 280 */\n    tag_37:\n      0x00\n      dup1\n      sload\n      swap1\n      0x0100\n      exp\n      swap1\n      div\n      0xffff\n      and\n      dup2\n      jump\t// out\n        /* \"contracts/Twitter.sol\":1243:1798  function createTweet(string memory _tweet) public {... */\n    tag_43:\n        /* \"contracts/Twitter.sol\":1336:1352  MAX_TWEET_LENGTH */\n      0x00\n      dup1\n      sload\n      swap1\n      0x0100\n      exp\n      swap1\n      div\n      0xffff\n      and\n        /* \"contracts/Twitter.sol\":1312:1352  bytes(_tweet).length <= MAX_TWEET_LENGTH */\n      0xffff\n      and\n        /* \"contracts/Twitter.sol\":1318:1324  _tweet */\n      dup2\n        /* \"contracts/Twitter.sol\":1312:1332  bytes(_tweet).length */\n      mload\n        /* \"contracts/Twitter.sol\":1312:1352  bytes(_tweet).length <= MAX_TWEET_LENGTH */\n      gt\n      iszero\n        /* \"contracts/Twitter.sol\":1304:1380  require(bytes(_tweet).length <= MAX_TWEET_LENGTH, \"Tweet is too long bro!\" ) */\n      tag_121\n      jumpi\n      mload(0x40)\n      0x08c379a000000000000000000000000000000000000000000000000000000000\n      dup2\n      mstore\n      0x04\n      add\n      tag_122\n      swap1\n      tag_123\n      jump\t// in\n    tag_122:\n      mload(0x40)\n      dup1\n      swap2\n      sub\n      swap1\n      revert\n    tag_121:\n        /* \"contracts/Twitter.sol\":1393:1414  Tweet memory newTweet */\n      0x00\n        /* \"contracts/Twitter.sol\":1417:1606  Tweet({... */\n      mload(0x40)\n      dup1\n      0xa0\n      add\n      0x40\n      mstore\n      dup1\n        /* \"contracts/Twitter.sol\":1442:1448  tweets */\n      0x01\n        /* \"contracts/Twitter.sol\":1442:1460  tweets[msg.sender] */\n      0x00\n        /* \"contracts/Twitter.sol\":1449:1459  msg.sender */\n      caller\n        /* \"contracts/Twitter.sol\":1442:1460  tweets[msg.sender] */\n      0xffffffffffffffffffffffffffffffffffffffff\n      and\n      0xffffffffffffffffffffffffffffffffffffffff\n      and\n      dup2\n      mstore\n      0x20\n      add\n      swap1\n      dup2\n      mstore\n      0x20\n      add\n      0x00\n      keccak256\n        /* \"contracts/Twitter.sol\":1442:1467  tweets[msg.sender].length */\n      dup1\n      sload\n      swap1\n      pop\n        /* \"contracts/Twitter.sol\":1417:1606  Tweet({... */\n      dup2\n      mstore\n      0x20\n      add\n        /* \"contracts/Twitter.sol\":1490:1500  msg.sender */\n      caller\n        /* \"contracts/Twitter.sol\":1417:1606  Tweet({... */\n      0xffffffffffffffffffffffffffffffffffffffff\n      and\n      dup2\n      mstore\n      0x20\n      add\n        /* \"contracts/Twitter.sol\":1524:1530  _tweet */\n      dup4\n        /* \"contracts/Twitter.sol\":1417:1606  Tweet({... */\n      dup2\n      mstore\n      0x20\n      add\n        /* \"contracts/Twitter.sol\":1556:1571  block.timestamp */\n      timestamp\n        /* \"contracts/Twitter.sol\":1417:1606  Tweet({... */\n      dup2\n      mstore\n      0x20\n      add\n        /* \"contracts/Twitter.sol\":1593:1594  0 */\n      0x00\n        /* \"contracts/Twitter.sol\":1417:1606  Tweet({... */\n      dup2\n      mstore\n      pop\n        /* \"contracts/Twitter.sol\":1393:1606  Tweet memory newTweet = Tweet({... */\n      swap1\n      pop\n        /* \"contracts/Twitter.sol\":1619:1625  tweets */\n      0x01\n        /* \"contracts/Twitter.sol\":1619:1637  tweets[msg.sender] */\n      0x00\n        /* \"contracts/Twitter.sol\":1626:1636  msg.sender */\n      caller\n        /* \"contracts/Twitter.sol\":1619:1637  tweets[msg.sender] */\n      0xffffffffffffffffffffffffffffffffffffffff\n      and\n      0xffffffffffffffffffffffffffffffffffffffff\n      and\n      dup2\n      mstore\n      0x20\n      add\n      swap1\n      dup2\n      mstore\n      0x20\n      add\n      0x00\n      keccak256\n        /* \"contracts/Twitter.sol\":1643:1651  newTweet */\n      dup2\n        /* \"contracts/Twitter.sol\":1619:1652  tweets[msg.sender].push(newTweet) */\n      swap1\n      dup1\n      0x01\n      dup2\n      sload\n      add\n      dup1\n      dup3\n      sstore\n      dup1\n      swap2\n      pop\n      pop\n      0x01\n      swap1\n      sub\n      swap1\n      0x00\n      mstore\n      keccak256(0x00, 0x20)\n      swap1\n      0x05\n      mul\n      add\n      0x00\n      swap1\n      swap2\n      swap1\n      swap2\n      swap1\n      swap2\n      pop\n      0x00\n      dup3\n      add\n      mload\n      dup2\n      0x00\n      add\n      sstore\n      0x20\n      dup3\n      add\n      mload\n      dup2\n      0x01\n      add\n      exp(0x0100, 0x00)\n      dup2\n      sload\n      dup2\n      0xffffffffffffffffffffffffffffffffffffffff\n      mul\n      not\n      and\n      swap1\n      dup4\n      0xffffffffffffffffffffffffffffffffffffffff\n      and\n      mul\n      or\n      swap1\n      sstore\n      pop\n      0x40\n      dup3\n      add\n      mload\n      dup2\n      0x02\n      add\n      swap1\n      dup2\n      tag_125\n      swap2\n      swap1\n      tag_126\n      jump\t// in\n    tag_125:\n      pop\n      0x60\n      dup3\n      add\n      mload\n      dup2\n      0x03\n      add\n      sstore\n      0x80\n      dup3\n      add\n      mload\n      dup2\n      0x04\n      add\n      sstore\n      pop\n      pop\n        /* \"contracts/Twitter.sol\":1710:1790  TweetCreated(newTweet.id, newTweet.author, newTweet.content, newTweet.timestamp) */\n      0x16fd3c13e9d46923e0a8bce11c7b473ec508a72e6c96cd2404b29ce972afc29e\n        /* \"contracts/Twitter.sol\":1723:1731  newTweet */\n      dup2\n        /* \"contracts/Twitter.sol\":1723:1734  newTweet.id */\n      0x00\n      add\n      mload\n        /* \"contracts/Twitter.sol\":1736:1744  newTweet */\n      dup3\n        /* \"contracts/Twitter.sol\":1736:1751  newTweet.author */\n      0x20\n      add\n      mload\n        /* \"contracts/Twitter.sol\":1753:1761  newTweet */\n      dup4\n        /* \"contracts/Twitter.sol\":1753:1769  newTweet.content */\n      0x40\n      add\n      mload\n        /* \"contracts/Twitter.sol\":1771:1779  newTweet */\n      dup5\n        /* \"contracts/Twitter.sol\":1771:1789  newTweet.timestamp */\n      0x60\n      add\n      mload\n        /* \"contracts/Twitter.sol\":1710:1790  TweetCreated(newTweet.id, newTweet.author, newTweet.content, newTweet.timestamp) */\n      mload(0x40)\n      tag_127\n      swap5\n      swap4\n      swap3\n      swap2\n      swap1\n      tag_128\n      jump\t// in\n    tag_127:\n      mload(0x40)\n      dup1\n      swap2\n      sub\n      swap1\n      log1\n        /* \"contracts/Twitter.sol\":1293:1798  {... */\n      pop\n        /* \"contracts/Twitter.sol\":1243:1798  function createTweet(string memory _tweet) public {... */\n      pop\n      jump\t// out\n        /* \"contracts/Twitter.sol\":977:1235  function getTotalLikes(address _author) external view returns(uint) {... */\n    tag_46:\n        /* \"contracts/Twitter.sol\":1039:1043  uint */\n      0x00\n        /* \"contracts/Twitter.sol\":1056:1071  uint totalLikes */\n      dup1\n        /* \"contracts/Twitter.sol\":1089:1095  uint i */\n      0x00\n        /* \"contracts/Twitter.sol\":1084:1198  for( uint i = 0; i < tweets[_author].length; i++){... */\n    tag_130:\n        /* \"contracts/Twitter.sol\":1105:1111  tweets */\n      0x01\n        /* \"contracts/Twitter.sol\":1105:1120  tweets[_author] */\n      0x00\n        /* \"contracts/Twitter.sol\":1112:1119  _author */\n      dup6\n        /* \"contracts/Twitter.sol\":1105:1120  tweets[_author] */\n      0xffffffffffffffffffffffffffffffffffffffff\n      and\n      0xffffffffffffffffffffffffffffffffffffffff\n      and\n      dup2\n      mstore\n      0x20\n      add\n      swap1\n      dup2\n      mstore\n      0x20\n      add\n      0x00\n      keccak256\n        /* \"contracts/Twitter.sol\":1105:1127  tweets[_author].length */\n      dup1\n      sload\n      swap1\n      pop\n        /* \"contracts/Twitter.sol\":1101:1102  i */\n      dup2\n        /* \"contracts/Twitter.sol\":1101:1127  i < tweets[_author].length */\n      lt\n        /* \"contracts/Twitter.sol\":1084:1198  for( uint i = 0; i < tweets[_author].length; i++){... */\n      iszero\n      tag_131\n      jumpi\n        /* \"contracts/Twitter.sol\":1162:1168  tweets */\n      0x01\n        /* \"contracts/Twitter.sol\":1162:1177  tweets[_author] */\n      0x00\n        /* \"contracts/Twitter.sol\":1169:1176  _author */\n      dup6\n        /* \"contracts/Twitter.sol\":1162:1177  tweets[_author] */\n      0xffffffffffffffffffffffffffffffffffffffff\n      and\n      0xffffffffffffffffffffffffffffffffffffffff\n      and\n      dup2\n      mstore\n      0x20\n      add\n      swap1\n      dup2\n      mstore\n      0x20\n      add\n      0x00\n      keccak256\n        /* \"contracts/Twitter.sol\":1178:1179  i */\n      dup2\n        /* \"contracts/Twitter.sol\":1162:1180  tweets[_author][i] */\n      dup2\n      sload\n      dup2\n      lt\n      tag_133\n      jumpi\n      tag_134\n      tag_79\n      jump\t// in\n    tag_134:\n    tag_133:\n      swap1\n      0x00\n      mstore\n      keccak256(0x00, 0x20)\n      swap1\n      0x05\n      mul\n      add\n        /* \"contracts/Twitter.sol\":1162:1186  tweets[_author][i].likes */\n      0x04\n      add\n      sload\n        /* \"contracts/Twitter.sol\":1148:1186  totalLikes += tweets[_author][i].likes */\n      dup3\n      tag_136\n      swap2\n      swap1\n      tag_137\n      jump\t// in\n    tag_136:\n      swap2\n      pop\n        /* \"contracts/Twitter.sol\":1129:1132  i++ */\n      dup1\n      dup1\n      tag_138\n      swap1\n      tag_115\n      jump\t// in\n    tag_138:\n      swap2\n      pop\n      pop\n        /* \"contracts/Twitter.sol\":1084:1198  for( uint i = 0; i < tweets[_author].length; i++){... */\n      jump(tag_130)\n    tag_131:\n      pop\n        /* \"contracts/Twitter.sol\":1217:1227  totalLikes */\n      dup1\n        /* \"contracts/Twitter.sol\":1210:1227  return totalLikes */\n      swap2\n      pop\n      pop\n        /* \"contracts/Twitter.sol\":977:1235  function getTotalLikes(address _author) external view returns(uint) {... */\n      swap2\n      swap1\n      pop\n      jump\t// out\n        /* \"contracts/Twitter.sol\":332:352  address public owner */\n    tag_50:\n      0x02\n      0x00\n      swap1\n      sload\n      swap1\n      0x0100\n      exp\n      swap1\n      div\n      0xffffffffffffffffffffffffffffffffffffffff\n      and\n      dup2\n      jump\t// out\n        /* \"contracts/Twitter.sol\":2449:2560  function getTweet( uint _i) public view returns (Tweet memory) {... */\n    tag_56:\n        /* \"contracts/Twitter.sol\":2498:2510  Tweet memory */\n      tag_139\n      tag_140\n      jump\t// in\n    tag_139:\n        /* \"contracts/Twitter.sol\":2530:2536  tweets */\n      0x01\n        /* \"contracts/Twitter.sol\":2530:2548  tweets[msg.sender] */\n      0x00\n        /* \"contracts/Twitter.sol\":2537:2547  msg.sender */\n      caller\n        /* \"contracts/Twitter.sol\":2530:2548  tweets[msg.sender] */\n      0xffffffffffffffffffffffffffffffffffffffff\n      and\n      0xffffffffffffffffffffffffffffffffffffffff\n      and\n      dup2\n      mstore\n      0x20\n      add\n      swap1\n      dup2\n      mstore\n      0x20\n      add\n      0x00\n      keccak256\n        /* \"contracts/Twitter.sol\":2549:2551  _i */\n      dup3\n        /* \"contracts/Twitter.sol\":2530:2552  tweets[msg.sender][_i] */\n      dup2\n      sload\n      dup2\n      lt\n      tag_142\n      jumpi\n      tag_143\n      tag_79\n      jump\t// in\n    tag_143:\n    tag_142:\n      swap1\n      0x00\n      mstore\n      keccak256(0x00, 0x20)\n      swap1\n      0x05\n      mul\n      add\n        /* \"contracts/Twitter.sol\":2523:2552  return tweets[msg.sender][_i] */\n      mload(0x40)\n      dup1\n      0xa0\n      add\n      0x40\n      mstore\n      swap1\n      dup2\n      0x00\n      dup3\n      add\n      sload\n      dup2\n      mstore\n      0x20\n      add\n      0x01\n      dup3\n      add\n      0x00\n      swap1\n      sload\n      swap1\n      0x0100\n      exp\n      swap1\n      div\n      0xffffffffffffffffffffffffffffffffffffffff\n      and\n      0xffffffffffffffffffffffffffffffffffffffff\n      and\n      0xffffffffffffffffffffffffffffffffffffffff\n      and\n      dup2\n      mstore\n      0x20\n      add\n      0x02\n      dup3\n      add\n      dup1\n      sload\n      tag_145\n      swap1\n      tag_62\n      jump\t// in\n    tag_145:\n      dup1\n      0x1f\n      add\n      0x20\n      dup1\n      swap2\n      div\n      mul\n      0x20\n      add\n      mload(0x40)\n      swap1\n      dup2\n      add\n      0x40\n      mstore\n      dup1\n      swap3\n      swap2\n      swap1\n      dup2\n      dup2\n      mstore\n      0x20\n      add\n      dup3\n      dup1\n      sload\n      tag_146\n      swap1\n      tag_62\n      jump\t// in\n    tag_146:\n      dup1\n      iszero\n      tag_147\n      jumpi\n      dup1\n      0x1f\n      lt\n      tag_148\n      jumpi\n      0x0100\n      dup1\n      dup4\n      sload\n      div\n      mul\n      dup4\n      mstore\n      swap2\n      0x20\n      add\n      swap2\n      jump(tag_147)\n    tag_148:\n      dup3\n      add\n      swap2\n      swap1\n      0x00\n      mstore\n      keccak256(0x00, 0x20)\n      swap1\n    tag_149:\n      dup2\n      sload\n      dup2\n      mstore\n      swap1\n      0x01\n      add\n      swap1\n      0x20\n      add\n      dup1\n      dup4\n      gt\n      tag_149\n      jumpi\n      dup3\n      swap1\n      sub\n      0x1f\n      and\n      dup3\n      add\n      swap2\n    tag_147:\n      pop\n      pop\n      pop\n      pop\n      pop\n      dup2\n      mstore\n      0x20\n      add\n      0x03\n      dup3\n      add\n      sload\n      dup2\n      mstore\n      0x20\n      add\n      0x04\n      dup3\n      add\n      sload\n      dup2\n      mstore\n      pop\n      pop\n      swap1\n      pop\n        /* \"contracts/Twitter.sol\":2449:2560  function getTweet( uint _i) public view returns (Tweet memory) {... */\n      swap2\n      swap1\n      pop\n      jump\t// out\n    tag_140:\n      mload(0x40)\n      dup1\n      0xa0\n      add\n      0x40\n      mstore\n      dup1\n      0x00\n      dup2\n      mstore\n      0x20\n      add\n      and(0xffffffffffffffffffffffffffffffffffffffff, 0x00)\n      dup2\n      mstore\n      0x20\n      add\n      0x60\n      dup2\n      mstore\n      0x20\n      add\n      0x00\n      dup2\n      mstore\n      0x20\n      add\n      0x00\n      dup2\n      mstore\n      pop\n      swap1\n      jump\t// out\n        /* \"#utility.yul\":7:82   */\n    tag_150:\n        /* \"#utility.yul\":40:46   */\n      0x00\n        /* \"#utility.yul\":73:75   */\n      0x40\n        /* \"#utility.yul\":67:76   */\n      mload\n        /* \"#utility.yul\":57:76   */\n      swap1\n      pop\n        /* \"#utility.yul\":7:82   */\n      swap1\n      jump\t// out\n        /* \"#utility.yul\":88:205   */\n    tag_151:\n        /* \"#utility.yul\":197:198   */\n      0x00\n        /* \"#utility.yul\":194:195   */\n      dup1\n        /* \"#utility.yul\":187:199   */\n      revert\n        /* \"#utility.yul\":211:328   */\n    tag_152:\n        /* \"#utility.yul\":320:321   */\n      0x00\n        /* \"#utility.yul\":317:318   */\n      dup1\n        /* \"#utility.yul\":310:322   */\n      revert\n        /* \"#utility.yul\":334:460   */\n    tag_153:\n        /* \"#utility.yul\":371:378   */\n      0x00\n        /* \"#utility.yul\":411:453   */\n      0xffffffffffffffffffffffffffffffffffffffff\n        /* \"#utility.yul\":404:409   */\n      dup3\n        /* \"#utility.yul\":400:454   */\n      and\n        /* \"#utility.yul\":389:454   */\n      swap1\n      pop\n        /* \"#utility.yul\":334:460   */\n      swap2\n      swap1\n      pop\n      jump\t// out\n        /* \"#utility.yul\":466:562   */\n    tag_154:\n        /* \"#utility.yul\":503:510   */\n      0x00\n        /* \"#utility.yul\":532:556   */\n      tag_223\n        /* \"#utility.yul\":550:555   */\n      dup3\n        /* \"#utility.yul\":532:556   */\n      tag_153\n      jump\t// in\n    tag_223:\n        /* \"#utility.yul\":521:556   */\n      swap1\n      pop\n        /* \"#utility.yul\":466:562   */\n      swap2\n      swap1\n      pop\n      jump\t// out\n        /* \"#utility.yul\":568:690   */\n    tag_155:\n        /* \"#utility.yul\":641:665   */\n      tag_225\n        /* \"#utility.yul\":659:664   */\n      dup2\n        /* \"#utility.yul\":641:665   */\n      tag_154\n      jump\t// in\n    tag_225:\n        /* \"#utility.yul\":634:639   */\n      dup2\n        /* \"#utility.yul\":631:666   */\n      eq\n        /* \"#utility.yul\":621:684   */\n      tag_226\n      jumpi\n        /* \"#utility.yul\":680:681   */\n      0x00\n        /* \"#utility.yul\":677:678   */\n      dup1\n        /* \"#utility.yul\":670:682   */\n      revert\n        /* \"#utility.yul\":621:684   */\n    tag_226:\n        /* \"#utility.yul\":568:690   */\n      pop\n      jump\t// out\n        /* \"#utility.yul\":696:835   */\n    tag_156:\n        /* \"#utility.yul\":742:747   */\n      0x00\n        /* \"#utility.yul\":780:786   */\n      dup2\n        /* \"#utility.yul\":767:787   */\n      calldataload\n        /* \"#utility.yul\":758:787   */\n      swap1\n      pop\n        /* \"#utility.yul\":796:829   */\n      tag_228\n        /* \"#utility.yul\":823:828   */\n      dup2\n        /* \"#utility.yul\":796:829   */\n      tag_155\n      jump\t// in\n    tag_228:\n        /* \"#utility.yul\":696:835   */\n      swap3\n      swap2\n      pop\n      pop\n      jump\t// out\n        /* \"#utility.yul\":841:918   */\n    tag_157:\n        /* \"#utility.yul\":878:885   */\n      0x00\n        /* \"#utility.yul\":907:912   */\n      dup2\n        /* \"#utility.yul\":896:912   */\n      swap1\n      pop\n        /* \"#utility.yul\":841:918   */\n      swap2\n      swap1\n      pop\n      jump\t// out\n        /* \"#utility.yul\":924:1046   */\n    tag_158:\n        /* \"#utility.yul\":997:1021   */\n      tag_231\n        /* \"#utility.yul\":1015:1020   */\n      dup2\n        /* \"#utility.yul\":997:1021   */\n      tag_157\n      jump\t// in\n    tag_231:\n        /* \"#utility.yul\":990:995   */\n      dup2\n        /* \"#utility.yul\":987:1022   */\n      eq\n        /* \"#utility.yul\":977:1040   */\n      tag_232\n      jumpi\n        /* \"#utility.yul\":1036:1037   */\n      0x00\n        /* \"#utility.yul\":1033:1034   */\n      dup1\n        /* \"#utility.yul\":1026:1038   */\n      revert\n        /* \"#utility.yul\":977:1040   */\n    tag_232:\n        /* \"#utility.yul\":924:1046   */\n      pop\n      jump\t// out\n        /* \"#utility.yul\":1052:1191   */\n    tag_159:\n        /* \"#utility.yul\":1098:1103   */\n      0x00\n        /* \"#utility.yul\":1136:1142   */\n      dup2\n        /* \"#utility.yul\":1123:1143   */\n      calldataload\n        /* \"#utility.yul\":1114:1143   */\n      swap1\n      pop\n        /* \"#utility.yul\":1152:1185   */\n      tag_234\n        /* \"#utility.yul\":1179:1184   */\n      dup2\n        /* \"#utility.yul\":1152:1185   */\n      tag_158\n      jump\t// in\n    tag_234:\n        /* \"#utility.yul\":1052:1191   */\n      swap3\n      swap2\n      pop\n      pop\n      jump\t// out\n        /* \"#utility.yul\":1197:1671   */\n    tag_16:\n        /* \"#utility.yul\":1265:1271   */\n      0x00\n        /* \"#utility.yul\":1273:1279   */\n      dup1\n        /* \"#utility.yul\":1322:1324   */\n      0x40\n        /* \"#utility.yul\":1310:1319   */\n      dup4\n        /* \"#utility.yul\":1301:1308   */\n      dup6\n        /* \"#utility.yul\":1297:1320   */\n      sub\n        /* \"#utility.yul\":1293:1325   */\n      slt\n        /* \"#utility.yul\":1290:1409   */\n      iszero\n      tag_236\n      jumpi\n        /* \"#utility.yul\":1328:1407   */\n      tag_237\n      tag_151\n      jump\t// in\n    tag_237:\n        /* \"#utility.yul\":1290:1409   */\n    tag_236:\n        /* \"#utility.yul\":1448:1449   */\n      0x00\n        /* \"#utility.yul\":1473:1526   */\n      tag_238\n        /* \"#utility.yul\":1518:1525   */\n      dup6\n        /* \"#utility.yul\":1509:1515   */\n      dup3\n        /* \"#utility.yul\":1498:1507   */\n      dup7\n        /* \"#utility.yul\":1494:1516   */\n      add\n        /* \"#utility.yul\":1473:1526   */\n      tag_156\n      jump\t// in\n    tag_238:\n        /* \"#utility.yul\":1463:1526   */\n      swap3\n      pop\n        /* \"#utility.yul\":1419:1536   */\n      pop\n        /* \"#utility.yul\":1575:1577   */\n      0x20\n        /* \"#utility.yul\":1601:1654   */\n      tag_239\n        /* \"#utility.yul\":1646:1653   */\n      dup6\n        /* \"#utility.yul\":1637:1643   */\n      dup3\n        /* \"#utility.yul\":1626:1635   */\n      dup7\n        /* \"#utility.yul\":1622:1644   */\n      add\n        /* \"#utility.yul\":1601:1654   */\n      tag_159\n      jump\t// in\n    tag_239:\n        /* \"#utility.yul\":1591:1654   */\n      swap2\n      pop\n        /* \"#utility.yul\":1546:1664   */\n      pop\n        /* \"#utility.yul\":1197:1671   */\n      swap3\n      pop\n      swap3\n      swap1\n      pop\n      jump\t// out\n        /* \"#utility.yul\":1677:1795   */\n    tag_160:\n        /* \"#utility.yul\":1764:1788   */\n      tag_241\n        /* \"#utility.yul\":1782:1787   */\n      dup2\n        /* \"#utility.yul\":1764:1788   */\n      tag_157\n      jump\t// in\n    tag_241:\n        /* \"#utility.yul\":1759:1762   */\n      dup3\n        /* \"#utility.yul\":1752:1789   */\n      mstore\n        /* \"#utility.yul\":1677:1795   */\n      pop\n      pop\n      jump\t// out\n        /* \"#utility.yul\":1801:1919   */\n    tag_161:\n        /* \"#utility.yul\":1888:1912   */\n      tag_243\n        /* \"#utility.yul\":1906:1911   */\n      dup2\n        /* \"#utility.yul\":1888:1912   */\n      tag_154\n      jump\t// in\n    tag_243:\n        /* \"#utility.yul\":1883:1886   */\n      dup3\n        /* \"#utility.yul\":1876:1913   */\n      mstore\n        /* \"#utility.yul\":1801:1919   */\n      pop\n      pop\n      jump\t// out\n        /* \"#utility.yul\":1925:2024   */\n    tag_162:\n        /* \"#utility.yul\":1977:1983   */\n      0x00\n        /* \"#utility.yul\":2011:2016   */\n      dup2\n        /* \"#utility.yul\":2005:2017   */\n      mload\n        /* \"#utility.yul\":1995:2017   */\n      swap1\n      pop\n        /* \"#utility.yul\":1925:2024   */\n      swap2\n      swap1\n      pop\n      jump\t// out\n        /* \"#utility.yul\":2030:2199   */\n    tag_163:\n        /* \"#utility.yul\":2114:2125   */\n      0x00\n        /* \"#utility.yul\":2148:2154   */\n      dup3\n        /* \"#utility.yul\":2143:2146   */\n      dup3\n        /* \"#utility.yul\":2136:2155   */\n      mstore\n        /* \"#utility.yul\":2188:2192   */\n      0x20\n        /* \"#utility.yul\":2183:2186   */\n      dup3\n        /* \"#utility.yul\":2179:2193   */\n      add\n        /* \"#utility.yul\":2164:2193   */\n      swap1\n      pop\n        /* \"#utility.yul\":2030:2199   */\n      swap3\n      swap2\n      pop\n      pop\n      jump\t// out\n        /* \"#utility.yul\":2205:2451   */\n    tag_164:\n        /* \"#utility.yul\":2286:2287   */\n      0x00\n        /* \"#utility.yul\":2296:2409   */\n    tag_247:\n        /* \"#utility.yul\":2310:2316   */\n      dup4\n        /* \"#utility.yul\":2307:2308   */\n      dup2\n        /* \"#utility.yul\":2304:2317   */\n      lt\n        /* \"#utility.yul\":2296:2409   */\n      iszero\n      tag_249\n      jumpi\n        /* \"#utility.yul\":2395:2396   */\n      dup1\n        /* \"#utility.yul\":2390:2393   */\n      dup3\n        /* \"#utility.yul\":2386:2397   */\n      add\n        /* \"#utility.yul\":2380:2398   */\n      mload\n        /* \"#utility.yul\":2376:2377   */\n      dup2\n        /* \"#utility.yul\":2371:2374   */\n      dup5\n        /* \"#utility.yul\":2367:2378   */\n      add\n        /* \"#utility.yul\":2360:2399   */\n      mstore\n        /* \"#utility.yul\":2332:2334   */\n      0x20\n        /* \"#utility.yul\":2329:2330   */\n      dup2\n        /* \"#utility.yul\":2325:2335   */\n      add\n        /* \"#utility.yul\":2320:2335   */\n      swap1\n      pop\n        /* \"#utility.yul\":2296:2409   */\n      jump(tag_247)\n    tag_249:\n        /* \"#utility.yul\":2443:2444   */\n      0x00\n        /* \"#utility.yul\":2434:2440   */\n      dup5\n        /* \"#utility.yul\":2429:2432   */\n      dup5\n        /* \"#utility.yul\":2425:2441   */\n      add\n        /* \"#utility.yul\":2418:2445   */\n      mstore\n        /* \"#utility.yul\":2267:2451   */\n      pop\n        /* \"#utility.yul\":2205:2451   */\n      pop\n      pop\n      pop\n      jump\t// out\n        /* \"#utility.yul\":2457:2559   */\n    tag_165:\n        /* \"#utility.yul\":2498:2504   */\n      0x00\n        /* \"#utility.yul\":2549:2551   */\n      0x1f\n        /* \"#utility.yul\":2545:2552   */\n      not\n        /* \"#utility.yul\":2540:2542   */\n      0x1f\n        /* \"#utility.yul\":2533:2538   */\n      dup4\n        /* \"#utility.yul\":2529:2543   */\n      add\n        /* \"#utility.yul\":2525:2553   */\n      and\n        /* \"#utility.yul\":2515:2553   */\n      swap1\n      pop\n        /* \"#utility.yul\":2457:2559   */\n      swap2\n      swap1\n      pop\n      jump\t// out\n        /* \"#utility.yul\":2565:2942   */\n    tag_166:\n        /* \"#utility.yul\":2653:2656   */\n      0x00\n        /* \"#utility.yul\":2681:2720   */\n      tag_252\n        /* \"#utility.yul\":2714:2719   */\n      dup3\n        /* \"#utility.yul\":2681:2720   */\n      tag_162\n      jump\t// in\n    tag_252:\n        /* \"#utility.yul\":2736:2807   */\n      tag_253\n        /* \"#utility.yul\":2800:2806   */\n      dup2\n        /* \"#utility.yul\":2795:2798   */\n      dup6\n        /* \"#utility.yul\":2736:2807   */\n      tag_163\n      jump\t// in\n    tag_253:\n        /* \"#utility.yul\":2729:2807   */\n      swap4\n      pop\n        /* \"#utility.yul\":2816:2881   */\n      tag_254\n        /* \"#utility.yul\":2874:2880   */\n      dup2\n        /* \"#utility.yul\":2869:2872   */\n      dup6\n        /* \"#utility.yul\":2862:2866   */\n      0x20\n        /* \"#utility.yul\":2855:2860   */\n      dup7\n        /* \"#utility.yul\":2851:2867   */\n      add\n        /* \"#utility.yul\":2816:2881   */\n      tag_164\n      jump\t// in\n    tag_254:\n        /* \"#utility.yul\":2906:2935   */\n      tag_255\n        /* \"#utility.yul\":2928:2934   */\n      dup2\n        /* \"#utility.yul\":2906:2935   */\n      tag_165\n      jump\t// in\n    tag_255:\n        /* \"#utility.yul\":2901:2904   */\n      dup5\n        /* \"#utility.yul\":2897:2936   */\n      add\n        /* \"#utility.yul\":2890:2936   */\n      swap2\n      pop\n        /* \"#utility.yul\":2657:2942   */\n      pop\n        /* \"#utility.yul\":2565:2942   */\n      swap3\n      swap2\n      pop\n      pop\n      jump\t// out\n        /* \"#utility.yul\":2948:3703   */\n    tag_19:\n        /* \"#utility.yul\":3173:3177   */\n      0x00\n        /* \"#utility.yul\":3211:3214   */\n      0xa0\n        /* \"#utility.yul\":3200:3209   */\n      dup3\n        /* \"#utility.yul\":3196:3215   */\n      add\n        /* \"#utility.yul\":3188:3215   */\n      swap1\n      pop\n        /* \"#utility.yul\":3225:3296   */\n      tag_257\n        /* \"#utility.yul\":3293:3294   */\n      0x00\n        /* \"#utility.yul\":3282:3291   */\n      dup4\n        /* \"#utility.yul\":3278:3295   */\n      add\n        /* \"#utility.yul\":3269:3275   */\n      dup9\n        /* \"#utility.yul\":3225:3296   */\n      tag_160\n      jump\t// in\n    tag_257:\n        /* \"#utility.yul\":3306:3378   */\n      tag_258\n        /* \"#utility.yul\":3374:3376   */\n      0x20\n        /* \"#utility.yul\":3363:3372   */\n      dup4\n        /* \"#utility.yul\":3359:3377   */\n      add\n        /* \"#utility.yul\":3350:3356   */\n      dup8\n        /* \"#utility.yul\":3306:3378   */\n      tag_161\n      jump\t// in\n    tag_258:\n        /* \"#utility.yul\":3425:3434   */\n      dup2\n        /* \"#utility.yul\":3419:3423   */\n      dup2\n        /* \"#utility.yul\":3415:3435   */\n      sub\n        /* \"#utility.yul\":3410:3412   */\n      0x40\n        /* \"#utility.yul\":3399:3408   */\n      dup4\n        /* \"#utility.yul\":3395:3413   */\n      add\n        /* \"#utility.yul\":3388:3436   */\n      mstore\n        /* \"#utility.yul\":3453:3531   */\n      tag_259\n        /* \"#utility.yul\":3526:3530   */\n      dup2\n        /* \"#utility.yul\":3517:3523   */\n      dup7\n        /* \"#utility.yul\":3453:3531   */\n      tag_166\n      jump\t// in\n    tag_259:\n        /* \"#utility.yul\":3445:3531   */\n      swap1\n      pop\n        /* \"#utility.yul\":3541:3613   */\n      tag_260\n        /* \"#utility.yul\":3609:3611   */\n      0x60\n        /* \"#utility.yul\":3598:3607   */\n      dup4\n        /* \"#utility.yul\":3594:3612   */\n      add\n        /* \"#utility.yul\":3585:3591   */\n      dup6\n        /* \"#utility.yul\":3541:3613   */\n      tag_160\n      jump\t// in\n    tag_260:\n        /* \"#utility.yul\":3623:3696   */\n      tag_261\n        /* \"#utility.yul\":3691:3694   */\n      0x80\n        /* \"#utility.yul\":3680:3689   */\n      dup4\n        /* \"#utility.yul\":3676:3695   */\n      add\n        /* \"#utility.yul\":3667:3673   */\n      dup5\n        /* \"#utility.yul\":3623:3696   */\n      tag_160\n      jump\t// in\n    tag_261:\n        /* \"#utility.yul\":2948:3703   */\n      swap7\n      swap6\n      pop\n      pop\n      pop\n      pop\n      pop\n      pop\n      jump\t// out\n        /* \"#utility.yul\":3709:4038   */\n    tag_22:\n        /* \"#utility.yul\":3768:3774   */\n      0x00\n        /* \"#utility.yul\":3817:3819   */\n      0x20\n        /* \"#utility.yul\":3805:3814   */\n      dup3\n        /* \"#utility.yul\":3796:3803   */\n      dup5\n        /* \"#utility.yul\":3792:3815   */\n      sub\n        /* \"#utility.yul\":3788:3820   */\n      slt\n        /* \"#utility.yul\":3785:3904   */\n      iszero\n      tag_263\n      jumpi\n        /* \"#utility.yul\":3823:3902   */\n      tag_264\n      tag_151\n      jump\t// in\n    tag_264:\n        /* \"#utility.yul\":3785:3904   */\n    tag_263:\n        /* \"#utility.yul\":3943:3944   */\n      0x00\n        /* \"#utility.yul\":3968:4021   */\n      tag_265\n        /* \"#utility.yul\":4013:4020   */\n      dup5\n        /* \"#utility.yul\":4004:4010   */\n      dup3\n        /* \"#utility.yul\":3993:4002   */\n      dup6\n        /* \"#utility.yul\":3989:4011   */\n      add\n        /* \"#utility.yul\":3968:4021   */\n      tag_156\n      jump\t// in\n    tag_265:\n        /* \"#utility.yul\":3958:4021   */\n      swap2\n      pop\n        /* \"#utility.yul\":3914:4031   */\n      pop\n        /* \"#utility.yul\":3709:4038   */\n      swap3\n      swap2\n      pop\n      pop\n      jump\t// out\n        /* \"#utility.yul\":4044:4179   */\n    tag_167:\n        /* \"#utility.yul\":4132:4138   */\n      0x00\n        /* \"#utility.yul\":4166:4171   */\n      dup2\n        /* \"#utility.yul\":4160:4172   */\n      mload\n        /* \"#utility.yul\":4150:4172   */\n      swap1\n      pop\n        /* \"#utility.yul\":4044:4179   */\n      swap2\n      swap1\n      pop\n      jump\t// out\n        /* \"#utility.yul\":4185:4390   */\n    tag_168:\n        /* \"#utility.yul\":4305:4316   */\n      0x00\n        /* \"#utility.yul\":4339:4345   */\n      dup3\n        /* \"#utility.yul\":4334:4337   */\n      dup3\n        /* \"#utility.yul\":4327:4346   */\n      mstore\n        /* \"#utility.yul\":4379:4383   */\n      0x20\n        /* \"#utility.yul\":4374:4377   */\n      dup3\n        /* \"#utility.yul\":4370:4384   */\n      add\n        /* \"#utility.yul\":4355:4384   */\n      swap1\n      pop\n        /* \"#utility.yul\":4185:4390   */\n      swap3\n      swap2\n      pop\n      pop\n      jump\t// out\n        /* \"#utility.yul\":4396:4549   */\n    tag_169:\n        /* \"#utility.yul\":4484:4488   */\n      0x00\n        /* \"#utility.yul\":4507:4510   */\n      dup2\n        /* \"#utility.yul\":4499:4510   */\n      swap1\n      pop\n        /* \"#utility.yul\":4537:4541   */\n      0x20\n        /* \"#utility.yul\":4532:4535   */\n      dup3\n        /* \"#utility.yul\":4528:4542   */\n      add\n        /* \"#utility.yul\":4520:4542   */\n      swap1\n      pop\n        /* \"#utility.yul\":4396:4549   */\n      swap2\n      swap1\n      pop\n      jump\t// out\n        /* \"#utility.yul\":4555:4663   */\n    tag_170:\n        /* \"#utility.yul\":4632:4656   */\n      tag_270\n        /* \"#utility.yul\":4650:4655   */\n      dup2\n        /* \"#utility.yul\":4632:4656   */\n      tag_157\n      jump\t// in\n    tag_270:\n        /* \"#utility.yul\":4627:4630   */\n      dup3\n        /* \"#utility.yul\":4620:4657   */\n      mstore\n        /* \"#utility.yul\":4555:4663   */\n      pop\n      pop\n      jump\t// out\n        /* \"#utility.yul\":4669:4777   */\n    tag_171:\n        /* \"#utility.yul\":4746:4770   */\n      tag_272\n        /* \"#utility.yul\":4764:4769   */\n      dup2\n        /* \"#utility.yul\":4746:4770   */\n      tag_154\n      jump\t// in\n    tag_272:\n        /* \"#utility.yul\":4741:4744   */\n      dup3\n        /* \"#utility.yul\":4734:4771   */\n      mstore\n        /* \"#utility.yul\":4669:4777   */\n      pop\n      pop\n      jump\t// out\n        /* \"#utility.yul\":4783:4942   */\n    tag_172:\n        /* \"#utility.yul\":4857:4868   */\n      0x00\n        /* \"#utility.yul\":4891:4897   */\n      dup3\n        /* \"#utility.yul\":4886:4889   */\n      dup3\n        /* \"#utility.yul\":4879:4898   */\n      mstore\n        /* \"#utility.yul\":4931:4935   */\n      0x20\n        /* \"#utility.yul\":4926:4929   */\n      dup3\n        /* \"#utility.yul\":4922:4936   */\n      add\n        /* \"#utility.yul\":4907:4936   */\n      swap1\n      pop\n        /* \"#utility.yul\":4783:4942   */\n      swap3\n      swap2\n      pop\n      pop\n      jump\t// out\n        /* \"#utility.yul\":4948:5305   */\n    tag_173:\n        /* \"#utility.yul\":5026:5029   */\n      0x00\n        /* \"#utility.yul\":5054:5093   */\n      tag_275\n        /* \"#utility.yul\":5087:5092   */\n      dup3\n        /* \"#utility.yul\":5054:5093   */\n      tag_162\n      jump\t// in\n    tag_275:\n        /* \"#utility.yul\":5109:5170   */\n      tag_276\n        /* \"#utility.yul\":5163:5169   */\n      dup2\n        /* \"#utility.yul\":5158:5161   */\n      dup6\n        /* \"#utility.yul\":5109:5170   */\n      tag_172\n      jump\t// in\n    tag_276:\n        /* \"#utility.yul\":5102:5170   */\n      swap4\n      pop\n        /* \"#utility.yul\":5179:5244   */\n      tag_277\n        /* \"#utility.yul\":5237:5243   */\n      dup2\n        /* \"#utility.yul\":5232:5235   */\n      dup6\n        /* \"#utility.yul\":5225:5229   */\n      0x20\n        /* \"#utility.yul\":5218:5223   */\n      dup7\n        /* \"#utility.yul\":5214:5230   */\n      add\n        /* \"#utility.yul\":5179:5244   */\n      tag_164\n      jump\t// in\n    tag_277:\n        /* \"#utility.yul\":5269:5298   */\n      tag_278\n        /* \"#utility.yul\":5291:5297   */\n      dup2\n        /* \"#utility.yul\":5269:5298   */\n      tag_165\n      jump\t// in\n    tag_278:\n        /* \"#utility.yul\":5264:5267   */\n      dup5\n        /* \"#utility.yul\":5260:5299   */\n      add\n        /* \"#utility.yul\":5253:5299   */\n      swap2\n      pop\n        /* \"#utility.yul\":5030:5305   */\n      pop\n        /* \"#utility.yul\":4948:5305   */\n      swap3\n      swap2\n      pop\n      pop\n      jump\t// out\n        /* \"#utility.yul\":5363:6482   */\n    tag_174:\n        /* \"#utility.yul\":5464:5467   */\n      0x00\n        /* \"#utility.yul\":5500:5504   */\n      0xa0\n        /* \"#utility.yul\":5495:5498   */\n      dup4\n        /* \"#utility.yul\":5491:5505   */\n      add\n        /* \"#utility.yul\":5585:5589   */\n      0x00\n        /* \"#utility.yul\":5578:5583   */\n      dup4\n        /* \"#utility.yul\":5574:5590   */\n      add\n        /* \"#utility.yul\":5568:5591   */\n      mload\n        /* \"#utility.yul\":5604:5667   */\n      tag_280\n        /* \"#utility.yul\":5661:5665   */\n      0x00\n        /* \"#utility.yul\":5656:5659   */\n      dup7\n        /* \"#utility.yul\":5652:5666   */\n      add\n        /* \"#utility.yul\":5638:5650   */\n      dup3\n        /* \"#utility.yul\":5604:5667   */\n      tag_170\n      jump\t// in\n    tag_280:\n        /* \"#utility.yul\":5515:5677   */\n      pop\n        /* \"#utility.yul\":5761:5765   */\n      0x20\n        /* \"#utility.yul\":5754:5759   */\n      dup4\n        /* \"#utility.yul\":5750:5766   */\n      add\n        /* \"#utility.yul\":5744:5767   */\n      mload\n        /* \"#utility.yul\":5780:5843   */\n      tag_281\n        /* \"#utility.yul\":5837:5841   */\n      0x20\n        /* \"#utility.yul\":5832:5835   */\n      dup7\n        /* \"#utility.yul\":5828:5842   */\n      add\n        /* \"#utility.yul\":5814:5826   */\n      dup3\n        /* \"#utility.yul\":5780:5843   */\n      tag_171\n      jump\t// in\n    tag_281:\n        /* \"#utility.yul\":5687:5853   */\n      pop\n        /* \"#utility.yul\":5938:5942   */\n      0x40\n        /* \"#utility.yul\":5931:5936   */\n      dup4\n        /* \"#utility.yul\":5927:5943   */\n      add\n        /* \"#utility.yul\":5921:5944   */\n      mload\n        /* \"#utility.yul\":5991:5994   */\n      dup5\n        /* \"#utility.yul\":5985:5989   */\n      dup3\n        /* \"#utility.yul\":5981:5995   */\n      sub\n        /* \"#utility.yul\":5974:5978   */\n      0x40\n        /* \"#utility.yul\":5969:5972   */\n      dup7\n        /* \"#utility.yul\":5965:5979   */\n      add\n        /* \"#utility.yul\":5958:5996   */\n      mstore\n        /* \"#utility.yul\":6017:6090   */\n      tag_282\n        /* \"#utility.yul\":6085:6089   */\n      dup3\n        /* \"#utility.yul\":6071:6083   */\n      dup3\n        /* \"#utility.yul\":6017:6090   */\n      tag_173\n      jump\t// in\n    tag_282:\n        /* \"#utility.yul\":6009:6090   */\n      swap2\n      pop\n        /* \"#utility.yul\":5863:6101   */\n      pop\n        /* \"#utility.yul\":6188:6192   */\n      0x60\n        /* \"#utility.yul\":6181:6186   */\n      dup4\n        /* \"#utility.yul\":6177:6193   */\n      add\n        /* \"#utility.yul\":6171:6194   */\n      mload\n        /* \"#utility.yul\":6207:6270   */\n      tag_283\n        /* \"#utility.yul\":6264:6268   */\n      0x60\n        /* \"#utility.yul\":6259:6262   */\n      dup7\n        /* \"#utility.yul\":6255:6269   */\n      add\n        /* \"#utility.yul\":6241:6253   */\n      dup3\n        /* \"#utility.yul\":6207:6270   */\n      tag_170\n      jump\t// in\n    tag_283:\n        /* \"#utility.yul\":6111:6280   */\n      pop\n        /* \"#utility.yul\":6363:6367   */\n      0x80\n        /* \"#utility.yul\":6356:6361   */\n      dup4\n        /* \"#utility.yul\":6352:6368   */\n      add\n        /* \"#utility.yul\":6346:6369   */\n      mload\n        /* \"#utility.yul\":6382:6445   */\n      tag_284\n        /* \"#utility.yul\":6439:6443   */\n      0x80\n        /* \"#utility.yul\":6434:6437   */\n      dup7\n        /* \"#utility.yul\":6430:6444   */\n      add\n        /* \"#utility.yul\":6416:6428   */\n      dup3\n        /* \"#utility.yul\":6382:6445   */\n      tag_170\n      jump\t// in\n    tag_284:\n        /* \"#utility.yul\":6290:6455   */\n      pop\n        /* \"#utility.yul\":6472:6476   */\n      dup1\n        /* \"#utility.yul\":6465:6476   */\n      swap2\n      pop\n        /* \"#utility.yul\":5469:6482   */\n      pop\n        /* \"#utility.yul\":5363:6482   */\n      swap3\n      swap2\n      pop\n      pop\n      jump\t// out\n        /* \"#utility.yul\":6488:6728   */\n    tag_175:\n        /* \"#utility.yul\":6599:6609   */\n      0x00\n        /* \"#utility.yul\":6634:6722   */\n      tag_286\n        /* \"#utility.yul\":6718:6721   */\n      dup4\n        /* \"#utility.yul\":6710:6716   */\n      dup4\n        /* \"#utility.yul\":6634:6722   */\n      tag_174\n      jump\t// in\n    tag_286:\n        /* \"#utility.yul\":6620:6722   */\n      swap1\n      pop\n        /* \"#utility.yul\":6488:6728   */\n      swap3\n      swap2\n      pop\n      pop\n      jump\t// out\n        /* \"#utility.yul\":6734:6868   */\n    tag_176:\n        /* \"#utility.yul\":6825:6829   */\n      0x00\n        /* \"#utility.yul\":6857:6861   */\n      0x20\n        /* \"#utility.yul\":6852:6855   */\n      dup3\n        /* \"#utility.yul\":6848:6862   */\n      add\n        /* \"#utility.yul\":6840:6862   */\n      swap1\n      pop\n        /* \"#utility.yul\":6734:6868   */\n      swap2\n      swap1\n      pop\n      jump\t// out\n        /* \"#utility.yul\":6930:8009   */\n    tag_177:\n        /* \"#utility.yul\":7091:7094   */\n      0x00\n        /* \"#utility.yul\":7120:7195   */\n      tag_289\n        /* \"#utility.yul\":7189:7194   */\n      dup3\n        /* \"#utility.yul\":7120:7195   */\n      tag_167\n      jump\t// in\n    tag_289:\n        /* \"#utility.yul\":7211:7318   */\n      tag_290\n        /* \"#utility.yul\":7311:7317   */\n      dup2\n        /* \"#utility.yul\":7306:7309   */\n      dup6\n        /* \"#utility.yul\":7211:7318   */\n      tag_168\n      jump\t// in\n    tag_290:\n        /* \"#utility.yul\":7204:7318   */\n      swap4\n      pop\n        /* \"#utility.yul\":7344:7347   */\n      dup4\n        /* \"#utility.yul\":7389:7393   */\n      0x20\n        /* \"#utility.yul\":7381:7387   */\n      dup3\n        /* \"#utility.yul\":7377:7394   */\n      mul\n        /* \"#utility.yul\":7372:7375   */\n      dup6\n        /* \"#utility.yul\":7368:7395   */\n      add\n        /* \"#utility.yul\":7419:7496   */\n      tag_291\n        /* \"#utility.yul\":7490:7495   */\n      dup6\n        /* \"#utility.yul\":7419:7496   */\n      tag_169\n      jump\t// in\n    tag_291:\n        /* \"#utility.yul\":7519:7526   */\n      dup1\n        /* \"#utility.yul\":7550:7551   */\n      0x00\n        /* \"#utility.yul\":7535:7964   */\n    tag_292:\n        /* \"#utility.yul\":7560:7566   */\n      dup6\n        /* \"#utility.yul\":7557:7558   */\n      dup2\n        /* \"#utility.yul\":7554:7567   */\n      lt\n        /* \"#utility.yul\":7535:7964   */\n      iszero\n      tag_294\n      jumpi\n        /* \"#utility.yul\":7631:7640   */\n      dup5\n        /* \"#utility.yul\":7625:7629   */\n      dup5\n        /* \"#utility.yul\":7621:7641   */\n      sub\n        /* \"#utility.yul\":7616:7619   */\n      dup10\n        /* \"#utility.yul\":7609:7642   */\n      mstore\n        /* \"#utility.yul\":7682:7688   */\n      dup2\n        /* \"#utility.yul\":7676:7689   */\n      mload\n        /* \"#utility.yul\":7710:7816   */\n      tag_295\n        /* \"#utility.yul\":7811:7815   */\n      dup6\n        /* \"#utility.yul\":7796:7809   */\n      dup3\n        /* \"#utility.yul\":7710:7816   */\n      tag_175\n      jump\t// in\n    tag_295:\n        /* \"#utility.yul\":7702:7816   */\n      swap5\n      pop\n        /* \"#utility.yul\":7839:7920   */\n      tag_296\n        /* \"#utility.yul\":7913:7919   */\n      dup4\n        /* \"#utility.yul\":7839:7920   */\n      tag_176\n      jump\t// in\n    tag_296:\n        /* \"#utility.yul\":7829:7920   */\n      swap3\n      pop\n        /* \"#utility.yul\":7949:7953   */\n      0x20\n        /* \"#utility.yul\":7944:7947   */\n      dup11\n        /* \"#utility.yul\":7940:7954   */\n      add\n        /* \"#utility.yul\":7933:7954   */\n      swap10\n      pop\n        /* \"#utility.yul\":7595:7964   */\n      pop\n        /* \"#utility.yul\":7582:7583   */\n      0x01\n        /* \"#utility.yul\":7579:7580   */\n      dup2\n        /* \"#utility.yul\":7575:7584   */\n      add\n        /* \"#utility.yul\":7570:7584   */\n      swap1\n      pop\n        /* \"#utility.yul\":7535:7964   */\n      jump(tag_292)\n    tag_294:\n        /* \"#utility.yul\":7539:7553   */\n      pop\n        /* \"#utility.yul\":7980:7984   */\n      dup3\n        /* \"#utility.yul\":7973:7984   */\n      swap8\n      pop\n        /* \"#utility.yul\":8000:8003   */\n      dup8\n        /* \"#utility.yul\":7993:8003   */\n      swap6\n      pop\n        /* \"#utility.yul\":7096:8009   */\n      pop\n      pop\n      pop\n      pop\n      pop\n        /* \"#utility.yul\":6930:8009   */\n      swap3\n      swap2\n      pop\n      pop\n      jump\t// out\n        /* \"#utility.yul\":8015:8472   */\n    tag_25:\n        /* \"#utility.yul\":8200:8204   */\n      0x00\n        /* \"#utility.yul\":8238:8240   */\n      0x20\n        /* \"#utility.yul\":8227:8236   */\n      dup3\n        /* \"#utility.yul\":8223:8241   */\n      add\n        /* \"#utility.yul\":8215:8241   */\n      swap1\n      pop\n        /* \"#utility.yul\":8287:8296   */\n      dup2\n        /* \"#utility.yul\":8281:8285   */\n      dup2\n        /* \"#utility.yul\":8277:8297   */\n      sub\n        /* \"#utility.yul\":8273:8274   */\n      0x00\n        /* \"#utility.yul\":8262:8271   */\n      dup4\n        /* \"#utility.yul\":8258:8275   */\n      add\n        /* \"#utility.yul\":8251:8298   */\n      mstore\n        /* \"#utility.yul\":8315:8465   */\n      tag_298\n        /* \"#utility.yul\":8460:8464   */\n      dup2\n        /* \"#utility.yul\":8451:8457   */\n      dup5\n        /* \"#utility.yul\":8315:8465   */\n      tag_177\n      jump\t// in\n    tag_298:\n        /* \"#utility.yul\":8307:8465   */\n      swap1\n      pop\n        /* \"#utility.yul\":8015:8472   */\n      swap3\n      swap2\n      pop\n      pop\n      jump\t// out\n        /* \"#utility.yul\":8478:8567   */\n    tag_178:\n        /* \"#utility.yul\":8514:8521   */\n      0x00\n        /* \"#utility.yul\":8554:8560   */\n      0xffff\n        /* \"#utility.yul\":8547:8552   */\n      dup3\n        /* \"#utility.yul\":8543:8561   */\n      and\n        /* \"#utility.yul\":8532:8561   */\n      swap1\n      pop\n        /* \"#utility.yul\":8478:8567   */\n      swap2\n      swap1\n      pop\n      jump\t// out\n        /* \"#utility.yul\":8573:8693   */\n    tag_179:\n        /* \"#utility.yul\":8645:8668   */\n      tag_301\n        /* \"#utility.yul\":8662:8667   */\n      dup2\n        /* \"#utility.yul\":8645:8668   */\n      tag_178\n      jump\t// in\n    tag_301:\n        /* \"#utility.yul\":8638:8643   */\n      dup2\n        /* \"#utility.yul\":8635:8669   */\n      eq\n        /* \"#utility.yul\":8625:8687   */\n      tag_302\n      jumpi\n        /* \"#utility.yul\":8683:8684   */\n      0x00\n        /* \"#utility.yul\":8680:8681   */\n      dup1\n        /* \"#utility.yul\":8673:8685   */\n      revert\n        /* \"#utility.yul\":8625:8687   */\n    tag_302:\n        /* \"#utility.yul\":8573:8693   */\n      pop\n      jump\t// out\n        /* \"#utility.yul\":8699:8836   */\n    tag_180:\n        /* \"#utility.yul\":8744:8749   */\n      0x00\n        /* \"#utility.yul\":8782:8788   */\n      dup2\n        /* \"#utility.yul\":8769:8789   */\n      calldataload\n        /* \"#utility.yul\":8760:8789   */\n      swap1\n      pop\n        /* \"#utility.yul\":8798:8830   */\n      tag_304\n        /* \"#utility.yul\":8824:8829   */\n      dup2\n        /* \"#utility.yul\":8798:8830   */\n      tag_179\n      jump\t// in\n    tag_304:\n        /* \"#utility.yul\":8699:8836   */\n      swap3\n      swap2\n      pop\n      pop\n      jump\t// out\n        /* \"#utility.yul\":8842:9169   */\n    tag_31:\n        /* \"#utility.yul\":8900:8906   */\n      0x00\n        /* \"#utility.yul\":8949:8951   */\n      0x20\n        /* \"#utility.yul\":8937:8946   */\n      dup3\n        /* \"#utility.yul\":8928:8935   */\n      dup5\n        /* \"#utility.yul\":8924:8947   */\n      sub\n        /* \"#utility.yul\":8920:8952   */\n      slt\n        /* \"#utility.yul\":8917:9036   */\n      iszero\n      tag_306\n      jumpi\n        /* \"#utility.yul\":8955:9034   */\n      tag_307\n      tag_151\n      jump\t// in\n    tag_307:\n        /* \"#utility.yul\":8917:9036   */\n    tag_306:\n        /* \"#utility.yul\":9075:9076   */\n      0x00\n        /* \"#utility.yul\":9100:9152   */\n      tag_308\n        /* \"#utility.yul\":9144:9151   */\n      dup5\n        /* \"#utility.yul\":9135:9141   */\n      dup3\n        /* \"#utility.yul\":9124:9133   */\n      dup6\n        /* \"#utility.yul\":9120:9142   */\n      add\n        /* \"#utility.yul\":9100:9152   */\n      tag_180\n      jump\t// in\n    tag_308:\n        /* \"#utility.yul\":9090:9152   */\n      swap2\n      pop\n        /* \"#utility.yul\":9046:9162   */\n      pop\n        /* \"#utility.yul\":8842:9169   */\n      swap3\n      swap2\n      pop\n      pop\n      jump\t// out\n        /* \"#utility.yul\":9175:9290   */\n    tag_181:\n        /* \"#utility.yul\":9260:9283   */\n      tag_310\n        /* \"#utility.yul\":9277:9282   */\n      dup2\n        /* \"#utility.yul\":9260:9283   */\n      tag_178\n      jump\t// in\n    tag_310:\n        /* \"#utility.yul\":9255:9258   */\n      dup3\n        /* \"#utility.yul\":9248:9284   */\n      mstore\n        /* \"#utility.yul\":9175:9290   */\n      pop\n      pop\n      jump\t// out\n        /* \"#utility.yul\":9296:9514   */\n    tag_39:\n        /* \"#utility.yul\":9387:9391   */\n      0x00\n        /* \"#utility.yul\":9425:9427   */\n      0x20\n        /* \"#utility.yul\":9414:9423   */\n      dup3\n        /* \"#utility.yul\":9410:9428   */\n      add\n        /* \"#utility.yul\":9402:9428   */\n      swap1\n      pop\n        /* \"#utility.yul\":9438:9507   */\n      tag_312\n        /* \"#utility.yul\":9504:9505   */\n      0x00\n        /* \"#utility.yul\":9493:9502   */\n      dup4\n        /* \"#utility.yul\":9489:9506   */\n      add\n        /* \"#utility.yul\":9480:9486   */\n      dup5\n        /* \"#utility.yul\":9438:9507   */\n      tag_181\n      jump\t// in\n    tag_312:\n        /* \"#utility.yul\":9296:9514   */\n      swap3\n      swap2\n      pop\n      pop\n      jump\t// out\n        /* \"#utility.yul\":9520:9637   */\n    tag_182:\n        /* \"#utility.yul\":9629:9630   */\n      0x00\n        /* \"#utility.yul\":9626:9627   */\n      dup1\n        /* \"#utility.yul\":9619:9631   */\n      revert\n        /* \"#utility.yul\":9643:9760   */\n    tag_183:\n        /* \"#utility.yul\":9752:9753   */\n      0x00\n        /* \"#utility.yul\":9749:9750   */\n      dup1\n        /* \"#utility.yul\":9742:9754   */\n      revert\n        /* \"#utility.yul\":9766:9946   */\n    tag_184:\n        /* \"#utility.yul\":9814:9891   */\n      0x4e487b7100000000000000000000000000000000000000000000000000000000\n        /* \"#utility.yul\":9811:9812   */\n      0x00\n        /* \"#utility.yul\":9804:9892   */\n      mstore\n        /* \"#utility.yul\":9911:9915   */\n      0x41\n        /* \"#utility.yul\":9908:9909   */\n      0x04\n        /* \"#utility.yul\":9901:9916   */\n      mstore\n        /* \"#utility.yul\":9935:9939   */\n      0x24\n        /* \"#utility.yul\":9932:9933   */\n      0x00\n        /* \"#utility.yul\":9925:9940   */\n      revert\n        /* \"#utility.yul\":9952:10233   */\n    tag_185:\n        /* \"#utility.yul\":10035:10062   */\n      tag_317\n        /* \"#utility.yul\":10057:10061   */\n      dup3\n        /* \"#utility.yul\":10035:10062   */\n      tag_165\n      jump\t// in\n    tag_317:\n        /* \"#utility.yul\":10027:10033   */\n      dup2\n        /* \"#utility.yul\":10023:10063   */\n      add\n        /* \"#utility.yul\":10165:10171   */\n      dup2\n        /* \"#utility.yul\":10153:10163   */\n      dup2\n        /* \"#utility.yul\":10150:10172   */\n      lt\n        /* \"#utility.yul\":10129:10147   */\n      0xffffffffffffffff\n        /* \"#utility.yul\":10117:10127   */\n      dup3\n        /* \"#utility.yul\":10114:10148   */\n      gt\n        /* \"#utility.yul\":10111:10173   */\n      or\n        /* \"#utility.yul\":10108:10196   */\n      iszero\n      tag_318\n      jumpi\n        /* \"#utility.yul\":10176:10194   */\n      tag_319\n      tag_184\n      jump\t// in\n    tag_319:\n        /* \"#utility.yul\":10108:10196   */\n    tag_318:\n        /* \"#utility.yul\":10216:10226   */\n      dup1\n        /* \"#utility.yul\":10212:10214   */\n      0x40\n        /* \"#utility.yul\":10205:10227   */\n      mstore\n        /* \"#utility.yul\":9995:10233   */\n      pop\n        /* \"#utility.yul\":9952:10233   */\n      pop\n      pop\n      jump\t// out\n        /* \"#utility.yul\":10239:10368   */\n    tag_186:\n        /* \"#utility.yul\":10273:10279   */\n      0x00\n        /* \"#utility.yul\":10300:10320   */\n      tag_321\n      tag_150\n      jump\t// in\n    tag_321:\n        /* \"#utility.yul\":10290:10320   */\n      swap1\n      pop\n        /* \"#utility.yul\":10329:10362   */\n      tag_322\n        /* \"#utility.yul\":10357:10361   */\n      dup3\n        /* \"#utility.yul\":10349:10355   */\n      dup3\n        /* \"#utility.yul\":10329:10362   */\n      tag_185\n      jump\t// in\n    tag_322:\n        /* \"#utility.yul\":10239:10368   */\n      swap2\n      swap1\n      pop\n      jump\t// out\n        /* \"#utility.yul\":10374:10682   */\n    tag_187:\n        /* \"#utility.yul\":10436:10440   */\n      0x00\n        /* \"#utility.yul\":10526:10544   */\n      0xffffffffffffffff\n        /* \"#utility.yul\":10518:10524   */\n      dup3\n        /* \"#utility.yul\":10515:10545   */\n      gt\n        /* \"#utility.yul\":10512:10568   */\n      iszero\n      tag_324\n      jumpi\n        /* \"#utility.yul\":10548:10566   */\n      tag_325\n      tag_184\n      jump\t// in\n    tag_325:\n        /* \"#utility.yul\":10512:10568   */\n    tag_324:\n        /* \"#utility.yul\":10586:10615   */\n      tag_326\n        /* \"#utility.yul\":10608:10614   */\n      dup3\n        /* \"#utility.yul\":10586:10615   */\n      tag_165\n      jump\t// in\n    tag_326:\n        /* \"#utility.yul\":10578:10615   */\n      swap1\n      pop\n        /* \"#utility.yul\":10670:10674   */\n      0x20\n        /* \"#utility.yul\":10664:10668   */\n      dup2\n        /* \"#utility.yul\":10660:10675   */\n      add\n        /* \"#utility.yul\":10652:10675   */\n      swap1\n      pop\n        /* \"#utility.yul\":10374:10682   */\n      swap2\n      swap1\n      pop\n      jump\t// out\n        /* \"#utility.yul\":10688:10834   */\n    tag_188:\n        /* \"#utility.yul\":10785:10791   */\n      dup3\n        /* \"#utility.yul\":10780:10783   */\n      dup2\n        /* \"#utility.yul\":10775:10778   */\n      dup4\n        /* \"#utility.yul\":10762:10792   */\n      calldatacopy\n        /* \"#utility.yul\":10826:10827   */\n      0x00\n        /* \"#utility.yul\":10817:10823   */\n      dup4\n        /* \"#utility.yul\":10812:10815   */\n      dup4\n        /* \"#utility.yul\":10808:10824   */\n      add\n        /* \"#utility.yul\":10801:10828   */\n      mstore\n        /* \"#utility.yul\":10688:10834   */\n      pop\n      pop\n      pop\n      jump\t// out\n        /* \"#utility.yul\":10840:11265   */\n    tag_189:\n        /* \"#utility.yul\":10918:10923   */\n      0x00\n        /* \"#utility.yul\":10943:11009   */\n      tag_329\n        /* \"#utility.yul\":10959:11008   */\n      tag_330\n        /* \"#utility.yul\":11001:11007   */\n      dup5\n        /* \"#utility.yul\":10959:11008   */\n      tag_187\n      jump\t// in\n    tag_330:\n        /* \"#utility.yul\":10943:11009   */\n      tag_186\n      jump\t// in\n    tag_329:\n        /* \"#utility.yul\":10934:11009   */\n      swap1\n      pop\n        /* \"#utility.yul\":11032:11038   */\n      dup3\n        /* \"#utility.yul\":11025:11030   */\n      dup2\n        /* \"#utility.yul\":11018:11039   */\n      mstore\n        /* \"#utility.yul\":11070:11074   */\n      0x20\n        /* \"#utility.yul\":11063:11068   */\n      dup2\n        /* \"#utility.yul\":11059:11075   */\n      add\n        /* \"#utility.yul\":11108:11111   */\n      dup5\n        /* \"#utility.yul\":11099:11105   */\n      dup5\n        /* \"#utility.yul\":11094:11097   */\n      dup5\n        /* \"#utility.yul\":11090:11106   */\n      add\n        /* \"#utility.yul\":11087:11112   */\n      gt\n        /* \"#utility.yul\":11084:11196   */\n      iszero\n      tag_331\n      jumpi\n        /* \"#utility.yul\":11115:11194   */\n      tag_332\n      tag_183\n      jump\t// in\n    tag_332:\n        /* \"#utility.yul\":11084:11196   */\n    tag_331:\n        /* \"#utility.yul\":11205:11259   */\n      tag_333\n        /* \"#utility.yul\":11252:11258   */\n      dup5\n        /* \"#utility.yul\":11247:11250   */\n      dup3\n        /* \"#utility.yul\":11242:11245   */\n      dup6\n        /* \"#utility.yul\":11205:11259   */\n      tag_188\n      jump\t// in\n    tag_333:\n        /* \"#utility.yul\":10924:11265   */\n      pop\n        /* \"#utility.yul\":10840:11265   */\n      swap4\n      swap3\n      pop\n      pop\n      pop\n      jump\t// out\n        /* \"#utility.yul\":11285:11625   */\n    tag_190:\n        /* \"#utility.yul\":11341:11346   */\n      0x00\n        /* \"#utility.yul\":11390:11393   */\n      dup3\n        /* \"#utility.yul\":11383:11387   */\n      0x1f\n        /* \"#utility.yul\":11375:11381   */\n      dup4\n        /* \"#utility.yul\":11371:11388   */\n      add\n        /* \"#utility.yul\":11367:11394   */\n      slt\n        /* \"#utility.yul\":11357:11479   */\n      tag_335\n      jumpi\n        /* \"#utility.yul\":11398:11477   */\n      tag_336\n      tag_182\n      jump\t// in\n    tag_336:\n        /* \"#utility.yul\":11357:11479   */\n    tag_335:\n        /* \"#utility.yul\":11515:11521   */\n      dup2\n        /* \"#utility.yul\":11502:11522   */\n      calldataload\n        /* \"#utility.yul\":11540:11619   */\n      tag_337\n        /* \"#utility.yul\":11615:11618   */\n      dup5\n        /* \"#utility.yul\":11607:11613   */\n      dup3\n        /* \"#utility.yul\":11600:11604   */\n      0x20\n        /* \"#utility.yul\":11592:11598   */\n      dup7\n        /* \"#utility.yul\":11588:11605   */\n      add\n        /* \"#utility.yul\":11540:11619   */\n      tag_189\n      jump\t// in\n    tag_337:\n        /* \"#utility.yul\":11531:11619   */\n      swap2\n      pop\n        /* \"#utility.yul\":11347:11625   */\n      pop\n        /* \"#utility.yul\":11285:11625   */\n      swap3\n      swap2\n      pop\n      pop\n      jump\t// out\n        /* \"#utility.yul\":11631:12140   */\n    tag_42:\n        /* \"#utility.yul\":11700:11706   */\n      0x00\n        /* \"#utility.yul\":11749:11751   */\n      0x20\n        /* \"#utility.yul\":11737:11746   */\n      dup3\n        /* \"#utility.yul\":11728:11735   */\n      dup5\n        /* \"#utility.yul\":11724:11747   */\n      sub\n        /* \"#utility.yul\":11720:11752   */\n      slt\n        /* \"#utility.yul\":11717:11836   */\n      iszero\n      tag_339\n      jumpi\n        /* \"#utility.yul\":11755:11834   */\n      tag_340\n      tag_151\n      jump\t// in\n    tag_340:\n        /* \"#utility.yul\":11717:11836   */\n    tag_339:\n        /* \"#utility.yul\":11903:11904   */\n      0x00\n        /* \"#utility.yul\":11892:11901   */\n      dup3\n        /* \"#utility.yul\":11888:11905   */\n      add\n        /* \"#utility.yul\":11875:11906   */\n      calldataload\n        /* \"#utility.yul\":11933:11951   */\n      0xffffffffffffffff\n        /* \"#utility.yul\":11925:11931   */\n      dup2\n        /* \"#utility.yul\":11922:11952   */\n      gt\n        /* \"#utility.yul\":11919:12036   */\n      iszero\n      tag_341\n      jumpi\n        /* \"#utility.yul\":11955:12034   */\n      tag_342\n      tag_152\n      jump\t// in\n    tag_342:\n        /* \"#utility.yul\":11919:12036   */\n    tag_341:\n        /* \"#utility.yul\":12060:12123   */\n      tag_343\n        /* \"#utility.yul\":12115:12122   */\n      dup5\n        /* \"#utility.yul\":12106:12112   */\n      dup3\n        /* \"#utility.yul\":12095:12104   */\n      dup6\n        /* \"#utility.yul\":12091:12113   */\n      add\n        /* \"#utility.yul\":12060:12123   */\n      tag_190\n      jump\t// in\n    tag_343:\n        /* \"#utility.yul\":12050:12123   */\n      swap2\n      pop\n        /* \"#utility.yul\":11846:12133   */\n      pop\n        /* \"#utility.yul\":11631:12140   */\n      swap3\n      swap2\n      pop\n      pop\n      jump\t// out\n        /* \"#utility.yul\":12146:12368   */\n    tag_48:\n        /* \"#utility.yul\":12239:12243   */\n      0x00\n        /* \"#utility.yul\":12277:12279   */\n      0x20\n        /* \"#utility.yul\":12266:12275   */\n      dup3\n        /* \"#utility.yul\":12262:12280   */\n      add\n        /* \"#utility.yul\":12254:12280   */\n      swap1\n      pop\n        /* \"#utility.yul\":12290:12361   */\n      tag_345\n        /* \"#utility.yul\":12358:12359   */\n      0x00\n        /* \"#utility.yul\":12347:12356   */\n      dup4\n        /* \"#utility.yul\":12343:12360   */\n      add\n        /* \"#utility.yul\":12334:12340   */\n      dup5\n        /* \"#utility.yul\":12290:12361   */\n      tag_160\n      jump\t// in\n    tag_345:\n        /* \"#utility.yul\":12146:12368   */\n      swap3\n      swap2\n      pop\n      pop\n      jump\t// out\n        /* \"#utility.yul\":12374:12596   */\n    tag_52:\n        /* \"#utility.yul\":12467:12471   */\n      0x00\n        /* \"#utility.yul\":12505:12507   */\n      0x20\n        /* \"#utility.yul\":12494:12503   */\n      dup3\n        /* \"#utility.yul\":12490:12508   */\n      add\n        /* \"#utility.yul\":12482:12508   */\n      swap1\n      pop\n        /* \"#utility.yul\":12518:12589   */\n      tag_347\n        /* \"#utility.yul\":12586:12587   */\n      0x00\n        /* \"#utility.yul\":12575:12584   */\n      dup4\n        /* \"#utility.yul\":12571:12588   */\n      add\n        /* \"#utility.yul\":12562:12568   */\n      dup5\n        /* \"#utility.yul\":12518:12589   */\n      tag_161\n      jump\t// in\n    tag_347:\n        /* \"#utility.yul\":12374:12596   */\n      swap3\n      swap2\n      pop\n      pop\n      jump\t// out\n        /* \"#utility.yul\":12602:12931   */\n    tag_55:\n        /* \"#utility.yul\":12661:12667   */\n      0x00\n        /* \"#utility.yul\":12710:12712   */\n      0x20\n        /* \"#utility.yul\":12698:12707   */\n      dup3\n        /* \"#utility.yul\":12689:12696   */\n      dup5\n        /* \"#utility.yul\":12685:12708   */\n      sub\n        /* \"#utility.yul\":12681:12713   */\n      slt\n        /* \"#utility.yul\":12678:12797   */\n      iszero\n      tag_349\n      jumpi\n        /* \"#utility.yul\":12716:12795   */\n      tag_350\n      tag_151\n      jump\t// in\n    tag_350:\n        /* \"#utility.yul\":12678:12797   */\n    tag_349:\n        /* \"#utility.yul\":12836:12837   */\n      0x00\n        /* \"#utility.yul\":12861:12914   */\n      tag_351\n        /* \"#utility.yul\":12906:12913   */\n      dup5\n        /* \"#utility.yul\":12897:12903   */\n      dup3\n        /* \"#utility.yul\":12886:12895   */\n      dup6\n        /* \"#utility.yul\":12882:12904   */\n      add\n        /* \"#utility.yul\":12861:12914   */\n      tag_159\n      jump\t// in\n    tag_351:\n        /* \"#utility.yul\":12851:12914   */\n      swap2\n      pop\n        /* \"#utility.yul\":12807:12924   */\n      pop\n        /* \"#utility.yul\":12602:12931   */\n      swap3\n      swap2\n      pop\n      pop\n      jump\t// out\n        /* \"#utility.yul\":12989:14118   */\n    tag_191:\n        /* \"#utility.yul\":13100:13103   */\n      0x00\n        /* \"#utility.yul\":13136:13140   */\n      0xa0\n        /* \"#utility.yul\":13131:13134   */\n      dup4\n        /* \"#utility.yul\":13127:13141   */\n      add\n        /* \"#utility.yul\":13221:13225   */\n      0x00\n        /* \"#utility.yul\":13214:13219   */\n      dup4\n        /* \"#utility.yul\":13210:13226   */\n      add\n        /* \"#utility.yul\":13204:13227   */\n      mload\n        /* \"#utility.yul\":13240:13303   */\n      tag_353\n        /* \"#utility.yul\":13297:13301   */\n      0x00\n        /* \"#utility.yul\":13292:13295   */\n      dup7\n        /* \"#utility.yul\":13288:13302   */\n      add\n        /* \"#utility.yul\":13274:13286   */\n      dup3\n        /* \"#utility.yul\":13240:13303   */\n      tag_170\n      jump\t// in\n    tag_353:\n        /* \"#utility.yul\":13151:13313   */\n      pop\n        /* \"#utility.yul\":13397:13401   */\n      0x20\n        /* \"#utility.yul\":13390:13395   */\n      dup4\n        /* \"#utility.yul\":13386:13402   */\n      add\n        /* \"#utility.yul\":13380:13403   */\n      mload\n        /* \"#utility.yul\":13416:13479   */\n      tag_354\n        /* \"#utility.yul\":13473:13477   */\n      0x20\n        /* \"#utility.yul\":13468:13471   */\n      dup7\n        /* \"#utility.yul\":13464:13478   */\n      add\n        /* \"#utility.yul\":13450:13462   */\n      dup3\n        /* \"#utility.yul\":13416:13479   */\n      tag_171\n      jump\t// in\n    tag_354:\n        /* \"#utility.yul\":13323:13489   */\n      pop\n        /* \"#utility.yul\":13574:13578   */\n      0x40\n        /* \"#utility.yul\":13567:13572   */\n      dup4\n        /* \"#utility.yul\":13563:13579   */\n      add\n        /* \"#utility.yul\":13557:13580   */\n      mload\n        /* \"#utility.yul\":13627:13630   */\n      dup5\n        /* \"#utility.yul\":13621:13625   */\n      dup3\n        /* \"#utility.yul\":13617:13631   */\n      sub\n        /* \"#utility.yul\":13610:13614   */\n      0x40\n        /* \"#utility.yul\":13605:13608   */\n      dup7\n        /* \"#utility.yul\":13601:13615   */\n      add\n        /* \"#utility.yul\":13594:13632   */\n      mstore\n        /* \"#utility.yul\":13653:13726   */\n      tag_355\n        /* \"#utility.yul\":13721:13725   */\n      dup3\n        /* \"#utility.yul\":13707:13719   */\n      dup3\n        /* \"#utility.yul\":13653:13726   */\n      tag_173\n      jump\t// in\n    tag_355:\n        /* \"#utility.yul\":13645:13726   */\n      swap2\n      pop\n        /* \"#utility.yul\":13499:13737   */\n      pop\n        /* \"#utility.yul\":13824:13828   */\n      0x60\n        /* \"#utility.yul\":13817:13822   */\n      dup4\n        /* \"#utility.yul\":13813:13829   */\n      add\n        /* \"#utility.yul\":13807:13830   */\n      mload\n        /* \"#utility.yul\":13843:13906   */\n      tag_356\n        /* \"#utility.yul\":13900:13904   */\n      0x60\n        /* \"#utility.yul\":13895:13898   */\n      dup7\n        /* \"#utility.yul\":13891:13905   */\n      add\n        /* \"#utility.yul\":13877:13889   */\n      dup3\n        /* \"#utility.yul\":13843:13906   */\n      tag_170\n      jump\t// in\n    tag_356:\n        /* \"#utility.yul\":13747:13916   */\n      pop\n        /* \"#utility.yul\":13999:14003   */\n      0x80\n        /* \"#utility.yul\":13992:13997   */\n      dup4\n        /* \"#utility.yul\":13988:14004   */\n      add\n        /* \"#utility.yul\":13982:14005   */\n      mload\n        /* \"#utility.yul\":14018:14081   */\n      tag_357\n        /* \"#utility.yul\":14075:14079   */\n      0x80\n        /* \"#utility.yul\":14070:14073   */\n      dup7\n        /* \"#utility.yul\":14066:14080   */\n      add\n        /* \"#utility.yul\":14052:14064   */\n      dup3\n        /* \"#utility.yul\":14018:14081   */\n      tag_170\n      jump\t// in\n    tag_357:\n        /* \"#utility.yul\":13926:14091   */\n      pop\n        /* \"#utility.yul\":14108:14112   */\n      dup1\n        /* \"#utility.yul\":14101:14112   */\n      swap2\n      pop\n        /* \"#utility.yul\":13105:14118   */\n      pop\n        /* \"#utility.yul\":12989:14118   */\n      swap3\n      swap2\n      pop\n      pop\n      jump\t// out\n        /* \"#utility.yul\":14124:14481   */\n    tag_58:\n        /* \"#utility.yul\":14259:14263   */\n      0x00\n        /* \"#utility.yul\":14297:14299   */\n      0x20\n        /* \"#utility.yul\":14286:14295   */\n      dup3\n        /* \"#utility.yul\":14282:14300   */\n      add\n        /* \"#utility.yul\":14274:14300   */\n      swap1\n      pop\n        /* \"#utility.yul\":14346:14355   */\n      dup2\n        /* \"#utility.yul\":14340:14344   */\n      dup2\n        /* \"#utility.yul\":14336:14356   */\n      sub\n        /* \"#utility.yul\":14332:14333   */\n      0x00\n        /* \"#utility.yul\":14321:14330   */\n      dup4\n        /* \"#utility.yul\":14317:14334   */\n      add\n        /* \"#utility.yul\":14310:14357   */\n      mstore\n        /* \"#utility.yul\":14374:14474   */\n      tag_359\n        /* \"#utility.yul\":14469:14473   */\n      dup2\n        /* \"#utility.yul\":14460:14466   */\n      dup5\n        /* \"#utility.yul\":14374:14474   */\n      tag_191\n      jump\t// in\n    tag_359:\n        /* \"#utility.yul\":14366:14474   */\n      swap1\n      pop\n        /* \"#utility.yul\":14124:14481   */\n      swap3\n      swap2\n      pop\n      pop\n      jump\t// out\n        /* \"#utility.yul\":14487:14667   */\n    tag_192:\n        /* \"#utility.yul\":14535:14612   */\n      0x4e487b7100000000000000000000000000000000000000000000000000000000\n        /* \"#utility.yul\":14532:14533   */\n      0x00\n        /* \"#utility.yul\":14525:14613   */\n      mstore\n        /* \"#utility.yul\":14632:14636   */\n      0x22\n        /* \"#utility.yul\":14629:14630   */\n      0x04\n        /* \"#utility.yul\":14622:14637   */\n      mstore\n        /* \"#utility.yul\":14656:14660   */\n      0x24\n        /* \"#utility.yul\":14653:14654   */\n      0x00\n        /* \"#utility.yul\":14646:14661   */\n      revert\n        /* \"#utility.yul\":14673:14993   */\n    tag_62:\n        /* \"#utility.yul\":14717:14723   */\n      0x00\n        /* \"#utility.yul\":14754:14755   */\n      0x02\n        /* \"#utility.yul\":14748:14752   */\n      dup3\n        /* \"#utility.yul\":14744:14756   */\n      div\n        /* \"#utility.yul\":14734:14756   */\n      swap1\n      pop\n        /* \"#utility.yul\":14801:14802   */\n      0x01\n        /* \"#utility.yul\":14795:14799   */\n      dup3\n        /* \"#utility.yul\":14791:14803   */\n      and\n        /* \"#utility.yul\":14822:14840   */\n      dup1\n        /* \"#utility.yul\":14812:14893   */\n      tag_362\n      jumpi\n        /* \"#utility.yul\":14878:14882   */\n      0x7f\n        /* \"#utility.yul\":14870:14876   */\n      dup3\n        /* \"#utility.yul\":14866:14883   */\n      and\n        /* \"#utility.yul\":14856:14883   */\n      swap2\n      pop\n        /* \"#utility.yul\":14812:14893   */\n    tag_362:\n        /* \"#utility.yul\":14940:14942   */\n      0x20\n        /* \"#utility.yul\":14932:14938   */\n      dup3\n        /* \"#utility.yul\":14929:14943   */\n      lt\n        /* \"#utility.yul\":14909:14927   */\n      dup2\n        /* \"#utility.yul\":14906:14944   */\n      sub\n        /* \"#utility.yul\":14903:14987   */\n      tag_363\n      jumpi\n        /* \"#utility.yul\":14959:14977   */\n      tag_364\n      tag_192\n      jump\t// in\n    tag_364:\n        /* \"#utility.yul\":14903:14987   */\n    tag_363:\n        /* \"#utility.yul\":14724:14993   */\n      pop\n        /* \"#utility.yul\":14673:14993   */\n      swap2\n      swap1\n      pop\n      jump\t// out\n        /* \"#utility.yul\":14999:15179   */\n    tag_79:\n        /* \"#utility.yul\":15047:15124   */\n      0x4e487b7100000000000000000000000000000000000000000000000000000000\n        /* \"#utility.yul\":15044:15045   */\n      0x00\n        /* \"#utility.yul\":15037:15125   */\n      mstore\n        /* \"#utility.yul\":15144:15148   */\n      0x32\n        /* \"#utility.yul\":15141:15142   */\n      0x04\n        /* \"#utility.yul\":15134:15149   */\n      mstore\n        /* \"#utility.yul\":15168:15172   */\n      0x24\n        /* \"#utility.yul\":15165:15166   */\n      0x00\n        /* \"#utility.yul\":15158:15173   */\n      revert\n        /* \"#utility.yul\":15185:15355   */\n    tag_193:\n        /* \"#utility.yul\":15325:15347   */\n      0x545745455420444f4553204e4f54204558495354000000000000000000000000\n        /* \"#utility.yul\":15321:15322   */\n      0x00\n        /* \"#utility.yul\":15313:15319   */\n      dup3\n        /* \"#utility.yul\":15309:15323   */\n      add\n        /* \"#utility.yul\":15302:15348   */\n      mstore\n        /* \"#utility.yul\":15185:15355   */\n      pop\n      jump\t// out\n        /* \"#utility.yul\":15361:15727   */\n    tag_194:\n        /* \"#utility.yul\":15503:15506   */\n      0x00\n        /* \"#utility.yul\":15524:15591   */\n      tag_368\n        /* \"#utility.yul\":15588:15590   */\n      0x14\n        /* \"#utility.yul\":15583:15586   */\n      dup4\n        /* \"#utility.yul\":15524:15591   */\n      tag_163\n      jump\t// in\n    tag_368:\n        /* \"#utility.yul\":15517:15591   */\n      swap2\n      pop\n        /* \"#utility.yul\":15600:15693   */\n      tag_369\n        /* \"#utility.yul\":15689:15692   */\n      dup3\n        /* \"#utility.yul\":15600:15693   */\n      tag_193\n      jump\t// in\n    tag_369:\n        /* \"#utility.yul\":15718:15720   */\n      0x20\n        /* \"#utility.yul\":15713:15716   */\n      dup3\n        /* \"#utility.yul\":15709:15721   */\n      add\n        /* \"#utility.yul\":15702:15721   */\n      swap1\n      pop\n        /* \"#utility.yul\":15361:15727   */\n      swap2\n      swap1\n      pop\n      jump\t// out\n        /* \"#utility.yul\":15733:16152   */\n    tag_83:\n        /* \"#utility.yul\":15899:15903   */\n      0x00\n        /* \"#utility.yul\":15937:15939   */\n      0x20\n        /* \"#utility.yul\":15926:15935   */\n      dup3\n        /* \"#utility.yul\":15922:15940   */\n      add\n        /* \"#utility.yul\":15914:15940   */\n      swap1\n      pop\n        /* \"#utility.yul\":15986:15995   */\n      dup2\n        /* \"#utility.yul\":15980:15984   */\n      dup2\n        /* \"#utility.yul\":15976:15996   */\n      sub\n        /* \"#utility.yul\":15972:15973   */\n      0x00\n        /* \"#utility.yul\":15961:15970   */\n      dup4\n        /* \"#utility.yul\":15957:15974   */\n      add\n        /* \"#utility.yul\":15950:15997   */\n      mstore\n        /* \"#utility.yul\":16014:16145   */\n      tag_371\n        /* \"#utility.yul\":16140:16144   */\n      dup2\n        /* \"#utility.yul\":16014:16145   */\n      tag_194\n      jump\t// in\n    tag_371:\n        /* \"#utility.yul\":16006:16145   */\n      swap1\n      pop\n        /* \"#utility.yul\":15733:16152   */\n      swap2\n      swap1\n      pop\n      jump\t// out\n        /* \"#utility.yul\":16158:16326   */\n    tag_195:\n        /* \"#utility.yul\":16298:16318   */\n      0x545745455420484153204e4f204c494b45530000000000000000000000000000\n        /* \"#utility.yul\":16294:16295   */\n      0x00\n        /* \"#utility.yul\":16286:16292   */\n      dup3\n        /* \"#utility.yul\":16282:16296   */\n      add\n        /* \"#utility.yul\":16275:16319   */\n      mstore\n        /* \"#utility.yul\":16158:16326   */\n      pop\n      jump\t// out\n        /* \"#utility.yul\":16332:16698   */\n    tag_196:\n        /* \"#utility.yul\":16474:16477   */\n      0x00\n        /* \"#utility.yul\":16495:16562   */\n      tag_374\n        /* \"#utility.yul\":16559:16561   */\n      0x12\n        /* \"#utility.yul\":16554:16557   */\n      dup4\n        /* \"#utility.yul\":16495:16562   */\n      tag_163\n      jump\t// in\n    tag_374:\n        /* \"#utility.yul\":16488:16562   */\n      swap2\n      pop\n        /* \"#utility.yul\":16571:16664   */\n      tag_375\n        /* \"#utility.yul\":16660:16663   */\n      dup3\n        /* \"#utility.yul\":16571:16664   */\n      tag_195\n      jump\t// in\n    tag_375:\n        /* \"#utility.yul\":16689:16691   */\n      0x20\n        /* \"#utility.yul\":16684:16687   */\n      dup3\n        /* \"#utility.yul\":16680:16692   */\n      add\n        /* \"#utility.yul\":16673:16692   */\n      swap1\n      pop\n        /* \"#utility.yul\":16332:16698   */\n      swap2\n      swap1\n      pop\n      jump\t// out\n        /* \"#utility.yul\":16704:17123   */\n    tag_89:\n        /* \"#utility.yul\":16870:16874   */\n      0x00\n        /* \"#utility.yul\":16908:16910   */\n      0x20\n        /* \"#utility.yul\":16897:16906   */\n      dup3\n        /* \"#utility.yul\":16893:16911   */\n      add\n        /* \"#utility.yul\":16885:16911   */\n      swap1\n      pop\n        /* \"#utility.yul\":16957:16966   */\n      dup2\n        /* \"#utility.yul\":16951:16955   */\n      dup2\n        /* \"#utility.yul\":16947:16967   */\n      sub\n        /* \"#utility.yul\":16943:16944   */\n      0x00\n        /* \"#utility.yul\":16932:16941   */\n      dup4\n        /* \"#utility.yul\":16928:16945   */\n      add\n        /* \"#utility.yul\":16921:16968   */\n      mstore\n        /* \"#utility.yul\":16985:17116   */\n      tag_377\n        /* \"#utility.yul\":17111:17115   */\n      dup2\n        /* \"#utility.yul\":16985:17116   */\n      tag_196\n      jump\t// in\n    tag_377:\n        /* \"#utility.yul\":16977:17116   */\n      swap1\n      pop\n        /* \"#utility.yul\":16704:17123   */\n      swap2\n      swap1\n      pop\n      jump\t// out\n        /* \"#utility.yul\":17129:17309   */\n    tag_197:\n        /* \"#utility.yul\":17177:17254   */\n      0x4e487b7100000000000000000000000000000000000000000000000000000000\n        /* \"#utility.yul\":17174:17175   */\n      0x00\n        /* \"#utility.yul\":17167:17255   */\n      mstore\n        /* \"#utility.yul\":17274:17278   */\n      0x11\n        /* \"#utility.yul\":17271:17272   */\n      0x04\n        /* \"#utility.yul\":17264:17279   */\n      mstore\n        /* \"#utility.yul\":17298:17302   */\n      0x24\n        /* \"#utility.yul\":17295:17296   */\n      0x00\n        /* \"#utility.yul\":17288:17303   */\n      revert\n        /* \"#utility.yul\":17315:17486   */\n    tag_94:\n        /* \"#utility.yul\":17354:17357   */\n      0x00\n        /* \"#utility.yul\":17377:17401   */\n      tag_380\n        /* \"#utility.yul\":17395:17400   */\n      dup3\n        /* \"#utility.yul\":17377:17401   */\n      tag_157\n      jump\t// in\n    tag_380:\n        /* \"#utility.yul\":17368:17401   */\n      swap2\n      pop\n        /* \"#utility.yul\":17423:17427   */\n      0x00\n        /* \"#utility.yul\":17416:17421   */\n      dup3\n        /* \"#utility.yul\":17413:17428   */\n      sub\n        /* \"#utility.yul\":17410:17451   */\n      tag_381\n      jumpi\n        /* \"#utility.yul\":17431:17449   */\n      tag_382\n      tag_197\n      jump\t// in\n    tag_382:\n        /* \"#utility.yul\":17410:17451   */\n    tag_381:\n        /* \"#utility.yul\":17478:17479   */\n      0x01\n        /* \"#utility.yul\":17471:17476   */\n      dup3\n        /* \"#utility.yul\":17467:17480   */\n      sub\n        /* \"#utility.yul\":17460:17480   */\n      swap1\n      pop\n        /* \"#utility.yul\":17315:17486   */\n      swap2\n      swap1\n      pop\n      jump\t// out\n        /* \"#utility.yul\":17492:18045   */\n    tag_99:\n        /* \"#utility.yul\":17669:17673   */\n      0x00\n        /* \"#utility.yul\":17707:17710   */\n      0x80\n        /* \"#utility.yul\":17696:17705   */\n      dup3\n        /* \"#utility.yul\":17692:17711   */\n      add\n        /* \"#utility.yul\":17684:17711   */\n      swap1\n      pop\n        /* \"#utility.yul\":17721:17792   */\n      tag_384\n        /* \"#utility.yul\":17789:17790   */\n      0x00\n        /* \"#utility.yul\":17778:17787   */\n      dup4\n        /* \"#utility.yul\":17774:17791   */\n      add\n        /* \"#utility.yul\":17765:17771   */\n      dup8\n        /* \"#utility.yul\":17721:17792   */\n      tag_161\n      jump\t// in\n    tag_384:\n        /* \"#utility.yul\":17802:17874   */\n      tag_385\n        /* \"#utility.yul\":17870:17872   */\n      0x20\n        /* \"#utility.yul\":17859:17868   */\n      dup4\n        /* \"#utility.yul\":17855:17873   */\n      add\n        /* \"#utility.yul\":17846:17852   */\n      dup7\n        /* \"#utility.yul\":17802:17874   */\n      tag_161\n      jump\t// in\n    tag_385:\n        /* \"#utility.yul\":17884:17956   */\n      tag_386\n        /* \"#utility.yul\":17952:17954   */\n      0x40\n        /* \"#utility.yul\":17941:17950   */\n      dup4\n        /* \"#utility.yul\":17937:17955   */\n      add\n        /* \"#utility.yul\":17928:17934   */\n      dup6\n        /* \"#utility.yul\":17884:17956   */\n      tag_160\n      jump\t// in\n    tag_386:\n        /* \"#utility.yul\":17966:18038   */\n      tag_387\n        /* \"#utility.yul\":18034:18036   */\n      0x60\n        /* \"#utility.yul\":18023:18032   */\n      dup4\n        /* \"#utility.yul\":18019:18037   */\n      add\n        /* \"#utility.yul\":18010:18016   */\n      dup5\n        /* \"#utility.yul\":17966:18038   */\n      tag_160\n      jump\t// in\n    tag_387:\n        /* \"#utility.yul\":17492:18045   */\n      swap6\n      swap5\n      pop\n      pop\n      pop\n      pop\n      pop\n      jump\t// out\n        /* \"#utility.yul\":18051:18223   */\n    tag_198:\n        /* \"#utility.yul\":18191:18215   */\n      0x594f5520415245204e4f5420544845204f574e45522100000000000000000000\n        /* \"#utility.yul\":18187:18188   */\n      0x00\n        /* \"#utility.yul\":18179:18185   */\n      dup3\n        /* \"#utility.yul\":18175:18189   */\n      add\n        /* \"#utility.yul\":18168:18216   */\n      mstore\n        /* \"#utility.yul\":18051:18223   */\n      pop\n      jump\t// out\n        /* \"#utility.yul\":18229:18595   */\n    tag_199:\n        /* \"#utility.yul\":18371:18374   */\n      0x00\n        /* \"#utility.yul\":18392:18459   */\n      tag_390\n        /* \"#utility.yul\":18456:18458   */\n      0x16\n        /* \"#utility.yul\":18451:18454   */\n      dup4\n        /* \"#utility.yul\":18392:18459   */\n      tag_163\n      jump\t// in\n    tag_390:\n        /* \"#utility.yul\":18385:18459   */\n      swap2\n      pop\n        /* \"#utility.yul\":18468:18561   */\n      tag_391\n        /* \"#utility.yul\":18557:18560   */\n      dup3\n        /* \"#utility.yul\":18468:18561   */\n      tag_198\n      jump\t// in\n    tag_391:\n        /* \"#utility.yul\":18586:18588   */\n      0x20\n        /* \"#utility.yul\":18581:18584   */\n      dup3\n        /* \"#utility.yul\":18577:18589   */\n      add\n        /* \"#utility.yul\":18570:18589   */\n      swap1\n      pop\n        /* \"#utility.yul\":18229:18595   */\n      swap2\n      swap1\n      pop\n      jump\t// out\n        /* \"#utility.yul\":18601:19020   */\n    tag_103:\n        /* \"#utility.yul\":18767:18771   */\n      0x00\n        /* \"#utility.yul\":18805:18807   */\n      0x20\n        /* \"#utility.yul\":18794:18803   */\n      dup3\n        /* \"#utility.yul\":18790:18808   */\n      add\n        /* \"#utility.yul\":18782:18808   */\n      swap1\n      pop\n        /* \"#utility.yul\":18854:18863   */\n      dup2\n        /* \"#utility.yul\":18848:18852   */\n      dup2\n        /* \"#utility.yul\":18844:18864   */\n      sub\n        /* \"#utility.yul\":18840:18841   */\n      0x00\n        /* \"#utility.yul\":18829:18838   */\n      dup4\n        /* \"#utility.yul\":18825:18842   */\n      add\n        /* \"#utility.yul\":18818:18865   */\n      mstore\n        /* \"#utility.yul\":18882:19013   */\n      tag_393\n        /* \"#utility.yul\":19008:19012   */\n      dup2\n        /* \"#utility.yul\":18882:19013   */\n      tag_199\n      jump\t// in\n    tag_393:\n        /* \"#utility.yul\":18874:19013   */\n      swap1\n      pop\n        /* \"#utility.yul\":18601:19020   */\n      swap2\n      swap1\n      pop\n      jump\t// out\n        /* \"#utility.yul\":19026:19259   */\n    tag_115:\n        /* \"#utility.yul\":19065:19068   */\n      0x00\n        /* \"#utility.yul\":19088:19112   */\n      tag_395\n        /* \"#utility.yul\":19106:19111   */\n      dup3\n        /* \"#utility.yul\":19088:19112   */\n      tag_157\n      jump\t// in\n    tag_395:\n        /* \"#utility.yul\":19079:19112   */\n      swap2\n      pop\n        /* \"#utility.yul\":19134:19200   */\n      0xffffffffffffffffffffffffffffffffffffffffffffffffffffffffffffffff\n        /* \"#utility.yul\":19127:19132   */\n      dup3\n        /* \"#utility.yul\":19124:19201   */\n      sub\n        /* \"#utility.yul\":19121:19224   */\n      tag_396\n      jumpi\n        /* \"#utility.yul\":19204:19222   */\n      tag_397\n      tag_197\n      jump\t// in\n    tag_397:\n        /* \"#utility.yul\":19121:19224   */\n    tag_396:\n        /* \"#utility.yul\":19251:19252   */\n      0x01\n        /* \"#utility.yul\":19244:19249   */\n      dup3\n        /* \"#utility.yul\":19240:19253   */\n      add\n        /* \"#utility.yul\":19233:19253   */\n      swap1\n      pop\n        /* \"#utility.yul\":19026:19259   */\n      swap2\n      swap1\n      pop\n      jump\t// out\n        /* \"#utility.yul\":19265:19437   */\n    tag_200:\n        /* \"#utility.yul\":19405:19429   */\n      0x547765657420697320746f6f206c6f6e672062726f2100000000000000000000\n        /* \"#utility.yul\":19401:19402   */\n      0x00\n        /* \"#utility.yul\":19393:19399   */\n      dup3\n        /* \"#utility.yul\":19389:19403   */\n      add\n        /* \"#utility.yul\":19382:19430   */\n      mstore\n        /* \"#utility.yul\":19265:19437   */\n      pop\n      jump\t// out\n        /* \"#utility.yul\":19443:19809   */\n    tag_201:\n        /* \"#utility.yul\":19585:19588   */\n      0x00\n        /* \"#utility.yul\":19606:19673   */\n      tag_400\n        /* \"#utility.yul\":19670:19672   */\n      0x16\n        /* \"#utility.yul\":19665:19668   */\n      dup4\n        /* \"#utility.yul\":19606:19673   */\n      tag_163\n      jump\t// in\n    tag_400:\n        /* \"#utility.yul\":19599:19673   */\n      swap2\n      pop\n        /* \"#utility.yul\":19682:19775   */\n      tag_401\n        /* \"#utility.yul\":19771:19774   */\n      dup3\n        /* \"#utility.yul\":19682:19775   */\n      tag_200\n      jump\t// in\n    tag_401:\n        /* \"#utility.yul\":19800:19802   */\n      0x20\n        /* \"#utility.yul\":19795:19798   */\n      dup3\n        /* \"#utility.yul\":19791:19803   */\n      add\n        /* \"#utility.yul\":19784:19803   */\n      swap1\n      pop\n        /* \"#utility.yul\":19443:19809   */\n      swap2\n      swap1\n      pop\n      jump\t// out\n        /* \"#utility.yul\":19815:20234   */\n    tag_123:\n        /* \"#utility.yul\":19981:19985   */\n      0x00\n        /* \"#utility.yul\":20019:20021   */\n      0x20\n        /* \"#utility.yul\":20008:20017   */\n      dup3\n        /* \"#utility.yul\":20004:20022   */\n      add\n        /* \"#utility.yul\":19996:20022   */\n      swap1\n      pop\n        /* \"#utility.yul\":20068:20077   */\n      dup2\n        /* \"#utility.yul\":20062:20066   */\n      dup2\n        /* \"#utility.yul\":20058:20078   */\n      sub\n        /* \"#utility.yul\":20054:20055   */\n      0x00\n        /* \"#utility.yul\":20043:20052   */\n      dup4\n        /* \"#utility.yul\":20039:20056   */\n      add\n        /* \"#utility.yul\":20032:20079   */\n      mstore\n        /* \"#utility.yul\":20096:20227   */\n      tag_403\n        /* \"#utility.yul\":20222:20226   */\n      dup2\n        /* \"#utility.yul\":20096:20227   */\n      tag_201\n      jump\t// in\n    tag_403:\n        /* \"#utility.yul\":20088:20227   */\n      swap1\n      pop\n        /* \"#utility.yul\":19815:20234   */\n      swap2\n      swap1\n      pop\n      jump\t// out\n        /* \"#utility.yul\":20240:20381   */\n    tag_202:\n        /* \"#utility.yul\":20289:20293   */\n      0x00\n        /* \"#utility.yul\":20312:20315   */\n      dup2\n        /* \"#utility.yul\":20304:20315   */\n      swap1\n      pop\n        /* \"#utility.yul\":20335:20338   */\n      dup2\n        /* \"#utility.yul\":20332:20333   */\n      0x00\n        /* \"#utility.yul\":20325:20339   */\n      mstore\n        /* \"#utility.yul\":20369:20373   */\n      0x20\n        /* \"#utility.yul\":20366:20367   */\n      0x00\n        /* \"#utility.yul\":20356:20374   */\n      keccak256\n        /* \"#utility.yul\":20348:20374   */\n      swap1\n      pop\n        /* \"#utility.yul\":20240:20381   */\n      swap2\n      swap1\n      pop\n      jump\t// out\n        /* \"#utility.yul\":20387:20480   */\n    tag_203:\n        /* \"#utility.yul\":20424:20430   */\n      0x00\n        /* \"#utility.yul\":20471:20473   */\n      0x20\n        /* \"#utility.yul\":20466:20468   */\n      0x1f\n        /* \"#utility.yul\":20459:20464   */\n      dup4\n        /* \"#utility.yul\":20455:20469   */\n      add\n        /* \"#utility.yul\":20451:20474   */\n      div\n        /* \"#utility.yul\":20441:20474   */\n      swap1\n      pop\n        /* \"#utility.yul\":20387:20480   */\n      swap2\n      swap1\n      pop\n      jump\t// out\n        /* \"#utility.yul\":20486:20593   */\n    tag_204:\n        /* \"#utility.yul\":20530:20538   */\n      0x00\n        /* \"#utility.yul\":20580:20585   */\n      dup3\n        /* \"#utility.yul\":20574:20578   */\n      dup3\n        /* \"#utility.yul\":20570:20586   */\n      shl\n        /* \"#utility.yul\":20549:20586   */\n      swap1\n      pop\n        /* \"#utility.yul\":20486:20593   */\n      swap3\n      swap2\n      pop\n      pop\n      jump\t// out\n        /* \"#utility.yul\":20599:20992   */\n    tag_205:\n        /* \"#utility.yul\":20668:20674   */\n      0x00\n        /* \"#utility.yul\":20718:20719   */\n      0x08\n        /* \"#utility.yul\":20706:20716   */\n      dup4\n        /* \"#utility.yul\":20702:20720   */\n      mul\n        /* \"#utility.yul\":20741:20838   */\n      tag_408\n        /* \"#utility.yul\":20771:20837   */\n      0xffffffffffffffffffffffffffffffffffffffffffffffffffffffffffffffff\n        /* \"#utility.yul\":20760:20769   */\n      dup3\n        /* \"#utility.yul\":20741:20838   */\n      tag_204\n      jump\t// in\n    tag_408:\n        /* \"#utility.yul\":20859:20898   */\n      tag_409\n        /* \"#utility.yul\":20889:20897   */\n      dup7\n        /* \"#utility.yul\":20878:20887   */\n      dup4\n        /* \"#utility.yul\":20859:20898   */\n      tag_204\n      jump\t// in\n    tag_409:\n        /* \"#utility.yul\":20847:20898   */\n      swap6\n      pop\n        /* \"#utility.yul\":20931:20935   */\n      dup1\n        /* \"#utility.yul\":20927:20936   */\n      not\n        /* \"#utility.yul\":20920:20925   */\n      dup5\n        /* \"#utility.yul\":20916:20937   */\n      and\n        /* \"#utility.yul\":20907:20937   */\n      swap4\n      pop\n        /* \"#utility.yul\":20980:20984   */\n      dup1\n        /* \"#utility.yul\":20970:20978   */\n      dup7\n        /* \"#utility.yul\":20966:20985   */\n      and\n        /* \"#utility.yul\":20959:20964   */\n      dup5\n        /* \"#utility.yul\":20956:20986   */\n      or\n        /* \"#utility.yul\":20946:20986   */\n      swap3\n      pop\n        /* \"#utility.yul\":20675:20992   */\n      pop\n      pop\n        /* \"#utility.yul\":20599:20992   */\n      swap4\n      swap3\n      pop\n      pop\n      pop\n      jump\t// out\n        /* \"#utility.yul\":20998:21058   */\n    tag_206:\n        /* \"#utility.yul\":21026:21029   */\n      0x00\n        /* \"#utility.yul\":21047:21052   */\n      dup2\n        /* \"#utility.yul\":21040:21052   */\n      swap1\n      pop\n        /* \"#utility.yul\":20998:21058   */\n      swap2\n      swap1\n      pop\n      jump\t// out\n        /* \"#utility.yul\":21064:21206   */\n    tag_207:\n        /* \"#utility.yul\":21114:21123   */\n      0x00\n        /* \"#utility.yul\":21147:21200   */\n      tag_412\n        /* \"#utility.yul\":21165:21199   */\n      tag_413\n        /* \"#utility.yul\":21174:21198   */\n      tag_414\n        /* \"#utility.yul\":21192:21197   */\n      dup5\n        /* \"#utility.yul\":21174:21198   */\n      tag_157\n      jump\t// in\n    tag_414:\n        /* \"#utility.yul\":21165:21199   */\n      tag_206\n      jump\t// in\n    tag_413:\n        /* \"#utility.yul\":21147:21200   */\n      tag_157\n      jump\t// in\n    tag_412:\n        /* \"#utility.yul\":21134:21200   */\n      swap1\n      pop\n        /* \"#utility.yul\":21064:21206   */\n      swap2\n      swap1\n      pop\n      jump\t// out\n        /* \"#utility.yul\":21212:21287   */\n    tag_208:\n        /* \"#utility.yul\":21255:21258   */\n      0x00\n        /* \"#utility.yul\":21276:21281   */\n      dup2\n        /* \"#utility.yul\":21269:21281   */\n      swap1\n      pop\n        /* \"#utility.yul\":21212:21287   */\n      swap2\n      swap1\n      pop\n      jump\t// out\n        /* \"#utility.yul\":21293:21562   */\n    tag_209:\n        /* \"#utility.yul\":21403:21442   */\n      tag_417\n        /* \"#utility.yul\":21434:21441   */\n      dup4\n        /* \"#utility.yul\":21403:21442   */\n      tag_207\n      jump\t// in\n    tag_417:\n        /* \"#utility.yul\":21464:21555   */\n      tag_418\n        /* \"#utility.yul\":21513:21554   */\n      tag_419\n        /* \"#utility.yul\":21537:21553   */\n      dup3\n        /* \"#utility.yul\":21513:21554   */\n      tag_208\n      jump\t// in\n    tag_419:\n        /* \"#utility.yul\":21505:21511   */\n      dup5\n        /* \"#utility.yul\":21498:21502   */\n      dup5\n        /* \"#utility.yul\":21492:21503   */\n      sload\n        /* \"#utility.yul\":21464:21555   */\n      tag_205\n      jump\t// in\n    tag_418:\n        /* \"#utility.yul\":21458:21462   */\n      dup3\n        /* \"#utility.yul\":21451:21556   */\n      sstore\n        /* \"#utility.yul\":21369:21562   */\n      pop\n        /* \"#utility.yul\":21293:21562   */\n      pop\n      pop\n      pop\n      jump\t// out\n        /* \"#utility.yul\":21568:21641   */\n    tag_210:\n        /* \"#utility.yul\":21613:21616   */\n      0x00\n        /* \"#utility.yul\":21568:21641   */\n      swap1\n      jump\t// out\n        /* \"#utility.yul\":21647:21836   */\n    tag_211:\n        /* \"#utility.yul\":21724:21756   */\n      tag_422\n      tag_210\n      jump\t// in\n    tag_422:\n        /* \"#utility.yul\":21765:21830   */\n      tag_423\n        /* \"#utility.yul\":21823:21829   */\n      dup2\n        /* \"#utility.yul\":21815:21821   */\n      dup5\n        /* \"#utility.yul\":21809:21813   */\n      dup5\n        /* \"#utility.yul\":21765:21830   */\n      tag_209\n      jump\t// in\n    tag_423:\n        /* \"#utility.yul\":21700:21836   */\n      pop\n        /* \"#utility.yul\":21647:21836   */\n      pop\n      pop\n      jump\t// out\n        /* \"#utility.yul\":21842:22028   */\n    tag_212:\n        /* \"#utility.yul\":21902:22022   */\n    tag_425:\n        /* \"#utility.yul\":21919:21922   */\n      dup2\n        /* \"#utility.yul\":21912:21917   */\n      dup2\n        /* \"#utility.yul\":21909:21923   */\n      lt\n        /* \"#utility.yul\":21902:22022   */\n      iszero\n      tag_427\n      jumpi\n        /* \"#utility.yul\":21973:22012   */\n      tag_428\n        /* \"#utility.yul\":22010:22011   */\n      0x00\n        /* \"#utility.yul\":22003:22008   */\n      dup3\n        /* \"#utility.yul\":21973:22012   */\n      tag_211\n      jump\t// in\n    tag_428:\n        /* \"#utility.yul\":21946:21947   */\n      0x01\n        /* \"#utility.yul\":21939:21944   */\n      dup2\n        /* \"#utility.yul\":21935:21948   */\n      add\n        /* \"#utility.yul\":21926:21948   */\n      swap1\n      pop\n        /* \"#utility.yul\":21902:22022   */\n      jump(tag_425)\n    tag_427:\n        /* \"#utility.yul\":21842:22028   */\n      pop\n      pop\n      jump\t// out\n        /* \"#utility.yul\":22034:22577   */\n    tag_213:\n        /* \"#utility.yul\":22135:22137   */\n      0x1f\n        /* \"#utility.yul\":22130:22133   */\n      dup3\n        /* \"#utility.yul\":22127:22138   */\n      gt\n        /* \"#utility.yul\":22124:22570   */\n      iszero\n      tag_430\n      jumpi\n        /* \"#utility.yul\":22169:22207   */\n      tag_431\n        /* \"#utility.yul\":22201:22206   */\n      dup2\n        /* \"#utility.yul\":22169:22207   */\n      tag_202\n      jump\t// in\n    tag_431:\n        /* \"#utility.yul\":22253:22282   */\n      tag_432\n        /* \"#utility.yul\":22271:22281   */\n      dup5\n        /* \"#utility.yul\":22253:22282   */\n      tag_203\n      jump\t// in\n    tag_432:\n        /* \"#utility.yul\":22243:22251   */\n      dup2\n        /* \"#utility.yul\":22239:22283   */\n      add\n        /* \"#utility.yul\":22436:22438   */\n      0x20\n        /* \"#utility.yul\":22424:22434   */\n      dup6\n        /* \"#utility.yul\":22421:22439   */\n      lt\n        /* \"#utility.yul\":22418:22467   */\n      iszero\n      tag_433\n      jumpi\n        /* \"#utility.yul\":22457:22465   */\n      dup2\n        /* \"#utility.yul\":22442:22465   */\n      swap1\n      pop\n        /* \"#utility.yul\":22418:22467   */\n    tag_433:\n        /* \"#utility.yul\":22480:22560   */\n      tag_434\n        /* \"#utility.yul\":22536:22558   */\n      tag_435\n        /* \"#utility.yul\":22554:22557   */\n      dup6\n        /* \"#utility.yul\":22536:22558   */\n      tag_203\n      jump\t// in\n    tag_435:\n        /* \"#utility.yul\":22526:22534   */\n      dup4\n        /* \"#utility.yul\":22522:22559   */\n      add\n        /* \"#utility.yul\":22509:22520   */\n      dup3\n        /* \"#utility.yul\":22480:22560   */\n      tag_212\n      jump\t// in\n    tag_434:\n        /* \"#utility.yul\":22139:22570   */\n      pop\n      pop\n        /* \"#utility.yul\":22124:22570   */\n    tag_430:\n        /* \"#utility.yul\":22034:22577   */\n      pop\n      pop\n      pop\n      jump\t// out\n        /* \"#utility.yul\":22583:22700   */\n    tag_214:\n        /* \"#utility.yul\":22637:22645   */\n      0x00\n        /* \"#utility.yul\":22687:22692   */\n      dup3\n        /* \"#utility.yul\":22681:22685   */\n      dup3\n        /* \"#utility.yul\":22677:22693   */\n      shr\n        /* \"#utility.yul\":22656:22693   */\n      swap1\n      pop\n        /* \"#utility.yul\":22583:22700   */\n      swap3\n      swap2\n      pop\n      pop\n      jump\t// out\n        /* \"#utility.yul\":22706:22875   */\n    tag_215:\n        /* \"#utility.yul\":22750:22756   */\n      0x00\n        /* \"#utility.yul\":22783:22834   */\n      tag_438\n        /* \"#utility.yul\":22831:22832   */\n      0x00\n        /* \"#utility.yul\":22827:22833   */\n      not\n        /* \"#utility.yul\":22819:22824   */\n      dup5\n        /* \"#utility.yul\":22816:22817   */\n      0x08\n        /* \"#utility.yul\":22812:22825   */\n      mul\n        /* \"#utility.yul\":22783:22834   */\n      tag_214\n      jump\t// in\n    tag_438:\n        /* \"#utility.yul\":22779:22835   */\n      not\n        /* \"#utility.yul\":22864:22868   */\n      dup1\n        /* \"#utility.yul\":22858:22862   */\n      dup4\n        /* \"#utility.yul\":22854:22869   */\n      and\n        /* \"#utility.yul\":22844:22869   */\n      swap2\n      pop\n        /* \"#utility.yul\":22757:22875   */\n      pop\n        /* \"#utility.yul\":22706:22875   */\n      swap3\n      swap2\n      pop\n      pop\n      jump\t// out\n        /* \"#utility.yul\":22880:23175   */\n    tag_216:\n        /* \"#utility.yul\":22956:22960   */\n      0x00\n        /* \"#utility.yul\":23102:23131   */\n      tag_440\n        /* \"#utility.yul\":23127:23130   */\n      dup4\n        /* \"#utility.yul\":23121:23125   */\n      dup4\n        /* \"#utility.yul\":23102:23131   */\n      tag_215\n      jump\t// in\n    tag_440:\n        /* \"#utility.yul\":23094:23131   */\n      swap2\n      pop\n        /* \"#utility.yul\":23164:23167   */\n      dup3\n        /* \"#utility.yul\":23161:23162   */\n      0x02\n        /* \"#utility.yul\":23157:23168   */\n      mul\n        /* \"#utility.yul\":23151:23155   */\n      dup3\n        /* \"#utility.yul\":23148:23169   */\n      or\n        /* \"#utility.yul\":23140:23169   */\n      swap1\n      pop\n        /* \"#utility.yul\":22880:23175   */\n      swap3\n      swap2\n      pop\n      pop\n      jump\t// out\n        /* \"#utility.yul\":23180:24575   */\n    tag_126:\n        /* \"#utility.yul\":23297:23334   */\n      tag_442\n        /* \"#utility.yul\":23330:23333   */\n      dup3\n        /* \"#utility.yul\":23297:23334   */\n      tag_162\n      jump\t// in\n    tag_442:\n        /* \"#utility.yul\":23399:23417   */\n      0xffffffffffffffff\n        /* \"#utility.yul\":23391:23397   */\n      dup2\n        /* \"#utility.yul\":23388:23418   */\n      gt\n        /* \"#utility.yul\":23385:23441   */\n      iszero\n      tag_443\n      jumpi\n        /* \"#utility.yul\":23421:23439   */\n      tag_444\n      tag_184\n      jump\t// in\n    tag_444:\n        /* \"#utility.yul\":23385:23441   */\n    tag_443:\n        /* \"#utility.yul\":23465:23503   */\n      tag_445\n        /* \"#utility.yul\":23497:23501   */\n      dup3\n        /* \"#utility.yul\":23491:23502   */\n      sload\n        /* \"#utility.yul\":23465:23503   */\n      tag_62\n      jump\t// in\n    tag_445:\n        /* \"#utility.yul\":23550:23617   */\n      tag_446\n        /* \"#utility.yul\":23610:23616   */\n      dup3\n        /* \"#utility.yul\":23602:23608   */\n      dup3\n        /* \"#utility.yul\":23596:23600   */\n      dup6\n        /* \"#utility.yul\":23550:23617   */\n      tag_213\n      jump\t// in\n    tag_446:\n        /* \"#utility.yul\":23644:23645   */\n      0x00\n        /* \"#utility.yul\":23668:23672   */\n      0x20\n        /* \"#utility.yul\":23655:23672   */\n      swap1\n      pop\n        /* \"#utility.yul\":23700:23702   */\n      0x1f\n        /* \"#utility.yul\":23692:23698   */\n      dup4\n        /* \"#utility.yul\":23689:23703   */\n      gt\n        /* \"#utility.yul\":23717:23718   */\n      0x01\n        /* \"#utility.yul\":23712:24330   */\n      dup2\n      eq\n      tag_448\n      jumpi\n        /* \"#utility.yul\":24374:24375   */\n      0x00\n        /* \"#utility.yul\":24391:24397   */\n      dup5\n        /* \"#utility.yul\":24388:24465   */\n      iszero\n      tag_449\n      jumpi\n        /* \"#utility.yul\":24440:24449   */\n      dup3\n        /* \"#utility.yul\":24435:24438   */\n      dup8\n        /* \"#utility.yul\":24431:24450   */\n      add\n        /* \"#utility.yul\":24425:24451   */\n      mload\n        /* \"#utility.yul\":24416:24451   */\n      swap1\n      pop\n        /* \"#utility.yul\":24388:24465   */\n    tag_449:\n        /* \"#utility.yul\":24491:24558   */\n      tag_450\n        /* \"#utility.yul\":24551:24557   */\n      dup6\n        /* \"#utility.yul\":24544:24549   */\n      dup3\n        /* \"#utility.yul\":24491:24558   */\n      tag_216\n      jump\t// in\n    tag_450:\n        /* \"#utility.yul\":24485:24489   */\n      dup7\n        /* \"#utility.yul\":24478:24559   */\n      sstore\n        /* \"#utility.yul\":24347:24569   */\n      pop\n        /* \"#utility.yul\":23682:24569   */\n      jump(tag_447)\n        /* \"#utility.yul\":23712:24330   */\n    tag_448:\n        /* \"#utility.yul\":23764:23768   */\n      0x1f\n        /* \"#utility.yul\":23760:23769   */\n      not\n        /* \"#utility.yul\":23752:23758   */\n      dup5\n        /* \"#utility.yul\":23748:23770   */\n      and\n        /* \"#utility.yul\":23798:23835   */\n      tag_451\n        /* \"#utility.yul\":23830:23834   */\n      dup7\n        /* \"#utility.yul\":23798:23835   */\n      tag_202\n      jump\t// in\n    tag_451:\n        /* \"#utility.yul\":23857:23858   */\n      0x00\n        /* \"#utility.yul\":23871:24079   */\n    tag_452:\n        /* \"#utility.yul\":23885:23892   */\n      dup3\n        /* \"#utility.yul\":23882:23883   */\n      dup2\n        /* \"#utility.yul\":23879:23893   */\n      lt\n        /* \"#utility.yul\":23871:24079   */\n      iszero\n      tag_454\n      jumpi\n        /* \"#utility.yul\":23964:23973   */\n      dup5\n        /* \"#utility.yul\":23959:23962   */\n      dup10\n        /* \"#utility.yul\":23955:23974   */\n      add\n        /* \"#utility.yul\":23949:23975   */\n      mload\n        /* \"#utility.yul\":23941:23947   */\n      dup3\n        /* \"#utility.yul\":23934:23976   */\n      sstore\n        /* \"#utility.yul\":24015:24016   */\n      0x01\n        /* \"#utility.yul\":24007:24013   */\n      dup3\n        /* \"#utility.yul\":24003:24017   */\n      add\n        /* \"#utility.yul\":23993:24017   */\n      swap2\n      pop\n        /* \"#utility.yul\":24062:24064   */\n      0x20\n        /* \"#utility.yul\":24051:24060   */\n      dup6\n        /* \"#utility.yul\":24047:24065   */\n      add\n        /* \"#utility.yul\":24034:24065   */\n      swap5\n      pop\n        /* \"#utility.yul\":23908:23912   */\n      0x20\n        /* \"#utility.yul\":23905:23906   */\n      dup2\n        /* \"#utility.yul\":23901:23913   */\n      add\n        /* \"#utility.yul\":23896:23913   */\n      swap1\n      pop\n        /* \"#utility.yul\":23871:24079   */\n      jump(tag_452)\n    tag_454:\n        /* \"#utility.yul\":24107:24113   */\n      dup7\n        /* \"#utility.yul\":24098:24105   */\n      dup4\n        /* \"#utility.yul\":24095:24114   */\n      lt\n        /* \"#utility.yul\":24092:24271   */\n      iszero\n      tag_455\n      jumpi\n        /* \"#utility.yul\":24165:24174   */\n      dup5\n        /* \"#utility.yul\":24160:24163   */\n      dup10\n        /* \"#utility.yul\":24156:24175   */\n      add\n        /* \"#utility.yul\":24150:24176   */\n      mload\n        /* \"#utility.yul\":24208:24256   */\n      tag_456\n        /* \"#utility.yul\":24250:24254   */\n      0x1f\n        /* \"#utility.yul\":24242:24248   */\n      dup10\n        /* \"#utility.yul\":24238:24255   */\n      and\n        /* \"#utility.yul\":24227:24236   */\n      dup3\n        /* \"#utility.yul\":24208:24256   */\n      tag_215\n      jump\t// in\n    tag_456:\n        /* \"#utility.yul\":24200:24206   */\n      dup4\n        /* \"#utility.yul\":24193:24257   */\n      sstore\n        /* \"#utility.yul\":24115:24271   */\n      pop\n        /* \"#utility.yul\":24092:24271   */\n    tag_455:\n        /* \"#utility.yul\":24317:24318   */\n      0x01\n        /* \"#utility.yul\":24313:24314   */\n      0x02\n        /* \"#utility.yul\":24305:24311   */\n      dup9\n        /* \"#utility.yul\":24301:24315   */\n      mul\n        /* \"#utility.yul\":24297:24319   */\n      add\n        /* \"#utility.yul\":24291:24295   */\n      dup9\n        /* \"#utility.yul\":24284:24320   */\n      sstore\n        /* \"#utility.yul\":23719:24330   */\n      pop\n      pop\n      pop\n        /* \"#utility.yul\":23682:24569   */\n    tag_447:\n      pop\n        /* \"#utility.yul\":23272:24575   */\n      pop\n      pop\n      pop\n        /* \"#utility.yul\":23180:24575   */\n      pop\n      pop\n      jump\t// out\n        /* \"#utility.yul\":24581:25225   */\n    tag_128:\n        /* \"#utility.yul\":24778:24782   */\n      0x00\n        /* \"#utility.yul\":24816:24819   */\n      0x80\n        /* \"#utility.yul\":24805:24814   */\n      dup3\n        /* \"#utility.yul\":24801:24820   */\n      add\n        /* \"#utility.yul\":24793:24820   */\n      swap1\n      pop\n        /* \"#utility.yul\":24830:24901   */\n      tag_458\n        /* \"#utility.yul\":24898:24899   */\n      0x00\n        /* \"#utility.yul\":24887:24896   */\n      dup4\n        /* \"#utility.yul\":24883:24900   */\n      add\n        /* \"#utility.yul\":24874:24880   */\n      dup8\n        /* \"#utility.yul\":24830:24901   */\n      tag_160\n      jump\t// in\n    tag_458:\n        /* \"#utility.yul\":24911:24983   */\n      tag_459\n        /* \"#utility.yul\":24979:24981   */\n      0x20\n        /* \"#utility.yul\":24968:24977   */\n      dup4\n        /* \"#utility.yul\":24964:24982   */\n      add\n        /* \"#utility.yul\":24955:24961   */\n      dup7\n        /* \"#utility.yul\":24911:24983   */\n      tag_161\n      jump\t// in\n    tag_459:\n        /* \"#utility.yul\":25030:25039   */\n      dup2\n        /* \"#utility.yul\":25024:25028   */\n      dup2\n        /* \"#utility.yul\":25020:25040   */\n      sub\n        /* \"#utility.yul\":25015:25017   */\n      0x40\n        /* \"#utility.yul\":25004:25013   */\n      dup4\n        /* \"#utility.yul\":25000:25018   */\n      add\n        /* \"#utility.yul\":24993:25041   */\n      mstore\n        /* \"#utility.yul\":25058:25136   */\n      tag_460\n        /* \"#utility.yul\":25131:25135   */\n      dup2\n        /* \"#utility.yul\":25122:25128   */\n      dup6\n        /* \"#utility.yul\":25058:25136   */\n      tag_166\n      jump\t// in\n    tag_460:\n        /* \"#utility.yul\":25050:25136   */\n      swap1\n      pop\n        /* \"#utility.yul\":25146:25218   */\n      tag_461\n        /* \"#utility.yul\":25214:25216   */\n      0x60\n        /* \"#utility.yul\":25203:25212   */\n      dup4\n        /* \"#utility.yul\":25199:25217   */\n      add\n        /* \"#utility.yul\":25190:25196   */\n      dup5\n        /* \"#utility.yul\":25146:25218   */\n      tag_160\n      jump\t// in\n    tag_461:\n        /* \"#utility.yul\":24581:25225   */\n      swap6\n      swap5\n      pop\n      pop\n      pop\n      pop\n      pop\n      jump\t// out\n        /* \"#utility.yul\":25231:25422   */\n    tag_137:\n        /* \"#utility.yul\":25271:25274   */\n      0x00\n        /* \"#utility.yul\":25290:25310   */\n      tag_463\n        /* \"#utility.yul\":25308:25309   */\n      dup3\n        /* \"#utility.yul\":25290:25310   */\n      tag_157\n      jump\t// in\n    tag_463:\n        /* \"#utility.yul\":25285:25310   */\n      swap2\n      pop\n        /* \"#utility.yul\":25324:25344   */\n      tag_464\n        /* \"#utility.yul\":25342:25343   */\n      dup4\n        /* \"#utility.yul\":25324:25344   */\n      tag_157\n      jump\t// in\n    tag_464:\n        /* \"#utility.yul\":25319:25344   */\n      swap3\n      pop\n        /* \"#utility.yul\":25367:25368   */\n      dup3\n        /* \"#utility.yul\":25364:25365   */\n      dup3\n        /* \"#utility.yul\":25360:25369   */\n      add\n        /* \"#utility.yul\":25353:25369   */\n      swap1\n      pop\n        /* \"#utility.yul\":25388:25391   */\n      dup1\n        /* \"#utility.yul\":25385:25386   */\n      dup3\n        /* \"#utility.yul\":25382:25392   */\n      gt\n        /* \"#utility.yul\":25379:25415   */\n      iszero\n      tag_465\n      jumpi\n        /* \"#utility.yul\":25395:25413   */\n      tag_466\n      tag_197\n      jump\t// in\n    tag_466:\n        /* \"#utility.yul\":25379:25415   */\n    tag_465:\n        /* \"#utility.yul\":25231:25422   */\n      swap3\n      swap2\n      pop\n      pop\n      jump\t// out\n\n    auxdata: 0xa264697066735822122039240f46f2df9584c80307adfb91c43778d71dcf83093a8bc82da105e0db1c0564736f6c63430008120033\n}\n",
				"bytecode": {
					"linkReferences": {},
					"object": "60806040526101186000806101000a81548161ffff021916908361ffff16021790555034801561002e57600080fd5b5033600260006101000a81548173ffffffffffffffffffffffffffffffffffffffff021916908373ffffffffffffffffffffffffffffffffffffffff160217905550611baf8061007f6000396000f3fe608060405234801561001057600080fd5b506004361061009e5760003560e01c80636eb10797116100665780636eb107971461015b5780637c9cd2bc14610179578063820785cc146101955780638da5cb5b146101c5578063c3ad5ecb146101e35761009e565b806305a1b4a9146100a357806312e7ee1c146100d75780633d9b569f1461010757806358bfa4ab14610123578063633782161461013f575b600080fd5b6100bd60048036038101906100b89190610f16565b610213565b6040516100ce959493929190611004565b60405180910390f35b6100f160048036038101906100ec919061105e565b61030e565b6040516100fe919061122b565b60405180910390f35b610121600480360381019061011c9190610f16565b6104b2565b005b61013d60048036038101906101389190611287565b610716565b005b61015960048036038101906101549190610f16565b6107c5565b005b610163610984565b60405161017091906112c3565b60405180910390f35b610193600480360381019061018e9190611413565b610996565b005b6101af60048036038101906101aa919061105e565b610ba7565b6040516101bc919061145c565b60405180910390f35b6101cd610c84565b6040516101da9190611477565b60405180910390f35b6101fd60048036038101906101f89190611492565b610caa565b60405161020a9190611535565b60405180910390f35b6001602052816000526040600020818154811061022f57600080fd5b9060005260206000209060050201600091509150508060000154908060010160009054906101000a900473ffffffffffffffffffffffffffffffffffffffff169080600201805461027f90611586565b80601f01602080910402602001604051908101604052809291908181526020018280546102ab90611586565b80156102f85780601f106102cd576101008083540402835291602001916102f8565b820191906000526020600020905b8154815290600101906020018083116102db57829003601f168201915b5050505050908060030154908060040154905085565b6060600160008373ffffffffffffffffffffffffffffffffffffffff1673ffffffffffffffffffffffffffffffffffffffff168152602001908152602001600020805480602002602001604051908101604052809291908181526020016000905b828210156104a757838290600052602060002090600502016040518060a0016040529081600082015481526020016001820160009054906101000a900473ffffffffffffffffffffffffffffffffffffffff1673ffffffffffffffffffffffffffffffffffffffff1673ffffffffffffffffffffffffffffffffffffffff16815260200160028201805461040290611586565b80601f016020809104026020016040519081016040528092919081815260200182805461042e90611586565b801561047b5780601f106104505761010080835404028352916020019161047b565b820191906000526020600020905b81548152906001019060200180831161045e57829003601f168201915b50505050508152602001600382015481526020016004820154815250508152602001906001019061036f565b505050509050919050565b80600160008473ffffffffffffffffffffffffffffffffffffffff1673ffffffffffffffffffffffffffffffffffffffff1681526020019081526020016000208281548110610504576105036115b7565b5b90600052602060002090600502016000015414610556576040517f08c379a000000000000000000000000000000000000000000000000000000000815260040161054d90611632565b60405180910390fd5b6000600160008473ffffffffffffffffffffffffffffffffffffffff1673ffffffffffffffffffffffffffffffffffffffff16815260200190815260200160002082815481106105a9576105a86115b7565b5b906000526020600020906005020160040154116105fb576040517f08c379a00000000000000000000000000000000000000000000000000000000081526004016105f29061169e565b60405180910390fd5b600160008373ffffffffffffffffffffffffffffffffffffffff1673ffffffffffffffffffffffffffffffffffffffff168152602001908152602001600020818154811061064c5761064b6115b7565b5b9060005260206000209060050201600401600081548092919061066e906116ed565b91905055507f762c2616349603ac16eba0de8e6141b79129a07ab63bd99e0a80b3a471716943338383600160008773ffffffffffffffffffffffffffffffffffffffff1673ffffffffffffffffffffffffffffffffffffffff16815260200190815260200160002085815481106106e8576106e76115b7565b5b90600052602060002090600502016004015460405161070a9493929190611716565b60405180910390a15050565b600260009054906101000a900473ffffffffffffffffffffffffffffffffffffffff1673ffffffffffffffffffffffffffffffffffffffff163373ffffffffffffffffffffffffffffffffffffffff16146107a6576040517f08c379a000000000000000000000000000000000000000000000000000000000815260040161079d906117a7565b60405180910390fd5b806000806101000a81548161ffff021916908361ffff16021790555050565b80600160008473ffffffffffffffffffffffffffffffffffffffff1673ffffffffffffffffffffffffffffffffffffffff1681526020019081526020016000208281548110610817576108166115b7565b5b90600052602060002090600502016000015414610869576040517f08c379a000000000000000000000000000000000000000000000000000000000815260040161086090611632565b60405180910390fd5b600160008373ffffffffffffffffffffffffffffffffffffffff1673ffffffffffffffffffffffffffffffffffffffff16815260200190815260200160002081815481106108ba576108b96115b7565b5b906000526020600020906005020160040160008154809291906108dc906117c7565b91905055507fe8a76fc0f16d11a00d1e93b689b63d76cf60af914dd3d915375dc41d01a0c3c8338383600160008773ffffffffffffffffffffffffffffffffffffffff1673ffffffffffffffffffffffffffffffffffffffff1681526020019081526020016000208581548110610956576109556115b7565b5b9060005260206000209060050201600401546040516109789493929190611716565b60405180910390a15050565b60008054906101000a900461ffff1681565b60008054906101000a900461ffff1661ffff16815111156109ec576040517f08c379a00000000000000000000000000000000000000000000000000000000081526004016109e39061185b565b60405180910390fd5b60006040518060a00160405280600160003373ffffffffffffffffffffffffffffffffffffffff1673ffffffffffffffffffffffffffffffffffffffff1681526020019081526020016000208054905081526020013373ffffffffffffffffffffffffffffffffffffffff16815260200183815260200142815260200160008152509050600160003373ffffffffffffffffffffffffffffffffffffffff1673ffffffffffffffffffffffffffffffffffffffff1681526020019081526020016000208190806001815401808255809150506001900390600052602060002090600502016000909190919091506000820151816000015560208201518160010160006101000a81548173ffffffffffffffffffffffffffffffffffffffff021916908373ffffffffffffffffffffffffffffffffffffffff1602179055506040820151816002019081610b3f9190611a27565b50606082015181600301556080820151816004015550507f16fd3c13e9d46923e0a8bce11c7b473ec508a72e6c96cd2404b29ce972afc29e8160000151826020015183604001518460600151604051610b9b9493929190611af9565b60405180910390a15050565b60008060005b600160008573ffffffffffffffffffffffffffffffffffffffff1673ffffffffffffffffffffffffffffffffffffffff16815260200190815260200160002080549050811015610c7a57600160008573ffffffffffffffffffffffffffffffffffffffff1673ffffffffffffffffffffffffffffffffffffffff1681526020019081526020016000208181548110610c4857610c476115b7565b5b90600052602060002090600502016004015482610c659190611b45565b91508080610c72906117c7565b915050610bad565b5080915050919050565b600260009054906101000a900473ffffffffffffffffffffffffffffffffffffffff1681565b610cb2610e29565b600160003373ffffffffffffffffffffffffffffffffffffffff1673ffffffffffffffffffffffffffffffffffffffff1681526020019081526020016000208281548110610d0357610d026115b7565b5b90600052602060002090600502016040518060a0016040529081600082015481526020016001820160009054906101000a900473ffffffffffffffffffffffffffffffffffffffff1673ffffffffffffffffffffffffffffffffffffffff1673ffffffffffffffffffffffffffffffffffffffff168152602001600282018054610d8c90611586565b80601f0160208091040260200160405190810160405280929190818152602001828054610db890611586565b8015610e055780601f10610dda57610100808354040283529160200191610e05565b820191906000526020600020905b815481529060010190602001808311610de857829003601f168201915b50505050508152602001600382015481526020016004820154815250509050919050565b6040518060a0016040528060008152602001600073ffffffffffffffffffffffffffffffffffffffff1681526020016060815260200160008152602001600081525090565b6000604051905090565b600080fd5b600080fd5b600073ffffffffffffffffffffffffffffffffffffffff82169050919050565b6000610ead82610e82565b9050919050565b610ebd81610ea2565b8114610ec857600080fd5b50565b600081359050610eda81610eb4565b92915050565b6000819050919050565b610ef381610ee0565b8114610efe57600080fd5b50565b600081359050610f1081610eea565b92915050565b60008060408385031215610f2d57610f2c610e78565b5b6000610f3b85828601610ecb565b9250506020610f4c85828601610f01565b9150509250929050565b610f5f81610ee0565b82525050565b610f6e81610ea2565b82525050565b600081519050919050565b600082825260208201905092915050565b60005b83811015610fae578082015181840152602081019050610f93565b60008484015250505050565b6000601f19601f8301169050919050565b6000610fd682610f74565b610fe08185610f7f565b9350610ff0818560208601610f90565b610ff981610fba565b840191505092915050565b600060a0820190506110196000830188610f56565b6110266020830187610f65565b81810360408301526110388186610fcb565b90506110476060830185610f56565b6110546080830184610f56565b9695505050505050565b60006020828403121561107457611073610e78565b5b600061108284828501610ecb565b91505092915050565b600081519050919050565b600082825260208201905092915050565b6000819050602082019050919050565b6110c081610ee0565b82525050565b6110cf81610ea2565b82525050565b600082825260208201905092915050565b60006110f182610f74565b6110fb81856110d5565b935061110b818560208601610f90565b61111481610fba565b840191505092915050565b600060a08301600083015161113760008601826110b7565b50602083015161114a60208601826110c6565b506040830151848203604086015261116282826110e6565b915050606083015161117760608601826110b7565b50608083015161118a60808601826110b7565b508091505092915050565b60006111a1838361111f565b905092915050565b6000602082019050919050565b60006111c18261108b565b6111cb8185611096565b9350836020820285016111dd856110a7565b8060005b8581101561121957848403895281516111fa8582611195565b9450611205836111a9565b925060208a019950506001810190506111e1565b50829750879550505050505092915050565b6000602082019050818103600083015261124581846111b6565b905092915050565b600061ffff82169050919050565b6112648161124d565b811461126f57600080fd5b50565b6000813590506112818161125b565b92915050565b60006020828403121561129d5761129c610e78565b5b60006112ab84828501611272565b91505092915050565b6112bd8161124d565b82525050565b60006020820190506112d860008301846112b4565b92915050565b600080fd5b600080fd5b7f4e487b7100000000000000000000000000000000000000000000000000000000600052604160045260246000fd5b61132082610fba565b810181811067ffffffffffffffff8211171561133f5761133e6112e8565b5b80604052505050565b6000611352610e6e565b905061135e8282611317565b919050565b600067ffffffffffffffff82111561137e5761137d6112e8565b5b61138782610fba565b9050602081019050919050565b82818337600083830152505050565b60006113b66113b184611363565b611348565b9050828152602081018484840111156113d2576113d16112e3565b5b6113dd848285611394565b509392505050565b600082601f8301126113fa576113f96112de565b5b813561140a8482602086016113a3565b91505092915050565b60006020828403121561142957611428610e78565b5b600082013567ffffffffffffffff81111561144757611446610e7d565b5b611453848285016113e5565b91505092915050565b60006020820190506114716000830184610f56565b92915050565b600060208201905061148c6000830184610f65565b92915050565b6000602082840312156114a8576114a7610e78565b5b60006114b684828501610f01565b91505092915050565b600060a0830160008301516114d760008601826110b7565b5060208301516114ea60208601826110c6565b506040830151848203604086015261150282826110e6565b915050606083015161151760608601826110b7565b50608083015161152a60808601826110b7565b508091505092915050565b6000602082019050818103600083015261154f81846114bf565b905092915050565b7f4e487b7100000000000000000000000000000000000000000000000000000000600052602260045260246000fd5b6000600282049050600182168061159e57607f821691505b6020821081036115b1576115b0611557565b5b50919050565b7f4e487b7100000000000000000000000000000000000000000000000000000000600052603260045260246000fd5b7f545745455420444f4553204e4f54204558495354000000000000000000000000600082015250565b600061161c601483610f7f565b9150611627826115e6565b602082019050919050565b6000602082019050818103600083015261164b8161160f565b9050919050565b7f545745455420484153204e4f204c494b45530000000000000000000000000000600082015250565b6000611688601283610f7f565b915061169382611652565b602082019050919050565b600060208201905081810360008301526116b78161167b565b9050919050565b7f4e487b7100000000000000000000000000000000000000000000000000000000600052601160045260246000fd5b60006116f882610ee0565b91506000820361170b5761170a6116be565b5b600182039050919050565b600060808201905061172b6000830187610f65565b6117386020830186610f65565b6117456040830185610f56565b6117526060830184610f56565b95945050505050565b7f594f5520415245204e4f5420544845204f574e45522100000000000000000000600082015250565b6000611791601683610f7f565b915061179c8261175b565b602082019050919050565b600060208201905081810360008301526117c081611784565b9050919050565b60006117d282610ee0565b91507fffffffffffffffffffffffffffffffffffffffffffffffffffffffffffffffff8203611804576118036116be565b5b600182019050919050565b7f547765657420697320746f6f206c6f6e672062726f2100000000000000000000600082015250565b6000611845601683610f7f565b91506118508261180f565b602082019050919050565b6000602082019050818103600083015261187481611838565b9050919050565b60008190508160005260206000209050919050565b60006020601f8301049050919050565b600082821b905092915050565b6000600883026118dd7fffffffffffffffffffffffffffffffffffffffffffffffffffffffffffffffff826118a0565b6118e786836118a0565b95508019841693508086168417925050509392505050565b6000819050919050565b600061192461191f61191a84610ee0565b6118ff565b610ee0565b9050919050565b6000819050919050565b61193e83611909565b61195261194a8261192b565b8484546118ad565b825550505050565b600090565b61196761195a565b611972818484611935565b505050565b5b818110156119965761198b60008261195f565b600181019050611978565b5050565b601f8211156119db576119ac8161187b565b6119b584611890565b810160208510156119c4578190505b6119d86119d085611890565b830182611977565b50505b505050565b600082821c905092915050565b60006119fe600019846008026119e0565b1980831691505092915050565b6000611a1783836119ed565b9150826002028217905092915050565b611a3082610f74565b67ffffffffffffffff811115611a4957611a486112e8565b5b611a538254611586565b611a5e82828561199a565b600060209050601f831160018114611a915760008415611a7f578287015190505b611a898582611a0b565b865550611af1565b601f198416611a9f8661187b565b60005b82811015611ac757848901518255600182019150602085019450602081019050611aa2565b86831015611ae45784890151611ae0601f8916826119ed565b8355505b6001600288020188555050505b505050505050565b6000608082019050611b0e6000830187610f56565b611b1b6020830186610f65565b8181036040830152611b2d8185610fcb565b9050611b3c6060830184610f56565b95945050505050565b6000611b5082610ee0565b9150611b5b83610ee0565b9250828201905080821115611b7357611b726116be565b5b9291505056fea264697066735822122039240f46f2df9584c80307adfb91c43778d71dcf83093a8bc82da105e0db1c0564736f6c63430008120033",
					"opcodes": "PUSH1 0x80 PUSH1 0x40 MSTORE PUSH2 0x118 PUSH1 0x0 DUP1 PUSH2 0x100 EXP DUP2 SLOAD DUP2 PUSH2 0xFFFF MUL NOT AND SWAP1 DUP4 PUSH2 0xFFFF AND MUL OR SWAP1 SSTORE POP CALLVALUE DUP1 ISZERO PUSH2 0x2E JUMPI PUSH1 0x0 DUP1 REVERT JUMPDEST POP CALLER PUSH1 0x2 PUSH1 0x0 PUSH2 0x100 EXP DUP2 SLOAD DUP2 PUSH20 0xFFFFFFFFFFFFFFFFFFFFFFFFFFFFFFFFFFFFFFFF MUL NOT AND SWAP1 DUP4 PUSH20 0xFFFFFFFFFFFFFFFFFFFFFFFFFFFFFFFFFFFFFFFF AND MUL OR SWAP1 SSTORE POP PUSH2 0x1BAF DUP1 PUSH2 0x7F PUSH1 0x0 CODECOPY PUSH1 0x0 RETURN INVALID PUSH1 0x80 PUSH1 0x40 MSTORE CALLVALUE DUP1 ISZERO PUSH2 0x10 JUMPI PUSH1 0x0 DUP1 REVERT JUMPDEST POP PUSH1 0x4 CALLDATASIZE LT PUSH2 0x9E JUMPI PUSH1 0x0 CALLDATALOAD PUSH1 0xE0 SHR DUP1 PUSH4 0x6EB10797 GT PUSH2 0x66 JUMPI DUP1 PUSH4 0x6EB10797 EQ PUSH2 0x15B JUMPI DUP1 PUSH4 0x7C9CD2BC EQ PUSH2 0x179 JUMPI DUP1 PUSH4 0x820785CC EQ PUSH2 0x195 JUMPI DUP1 PUSH4 0x8DA5CB5B EQ PUSH2 0x1C5 JUMPI DUP1 PUSH4 0xC3AD5ECB EQ PUSH2 0x1E3 JUMPI PUSH2 0x9E JUMP JUMPDEST DUP1 PUSH4 0x5A1B4A9 EQ PUSH2 0xA3 JUMPI DUP1 PUSH4 0x12E7EE1C EQ PUSH2 0xD7 JUMPI DUP1 PUSH4 0x3D9B569F EQ PUSH2 0x107 JUMPI DUP1 PUSH4 0x58BFA4AB EQ PUSH2 0x123 JUMPI DUP1 PUSH4 0x63378216 EQ PUSH2 0x13F JUMPI JUMPDEST PUSH1 0x0 DUP1 REVERT JUMPDEST PUSH2 0xBD PUSH1 0x4 DUP1 CALLDATASIZE SUB DUP2 ADD SWAP1 PUSH2 0xB8 SWAP2 SWAP1 PUSH2 0xF16 JUMP JUMPDEST PUSH2 0x213 JUMP JUMPDEST PUSH1 0x40 MLOAD PUSH2 0xCE SWAP6 SWAP5 SWAP4 SWAP3 SWAP2 SWAP1 PUSH2 0x1004 JUMP JUMPDEST PUSH1 0x40 MLOAD DUP1 SWAP2 SUB SWAP1 RETURN JUMPDEST PUSH2 0xF1 PUSH1 0x4 DUP1 CALLDATASIZE SUB DUP2 ADD SWAP1 PUSH2 0xEC SWAP2 SWAP1 PUSH2 0x105E JUMP JUMPDEST PUSH2 0x30E JUMP JUMPDEST PUSH1 0x40 MLOAD PUSH2 0xFE SWAP2 SWAP1 PUSH2 0x122B JUMP JUMPDEST PUSH1 0x40 MLOAD DUP1 SWAP2 SUB SWAP1 RETURN JUMPDEST PUSH2 0x121 PUSH1 0x4 DUP1 CALLDATASIZE SUB DUP2 ADD SWAP1 PUSH2 0x11C SWAP2 SWAP1 PUSH2 0xF16 JUMP JUMPDEST PUSH2 0x4B2 JUMP JUMPDEST STOP JUMPDEST PUSH2 0x13D PUSH1 0x4 DUP1 CALLDATASIZE SUB DUP2 ADD SWAP1 PUSH2 0x138 SWAP2 SWAP1 PUSH2 0x1287 JUMP JUMPDEST PUSH2 0x716 JUMP JUMPDEST STOP JUMPDEST PUSH2 0x159 PUSH1 0x4 DUP1 CALLDATASIZE SUB DUP2 ADD SWAP1 PUSH2 0x154 SWAP2 SWAP1 PUSH2 0xF16 JUMP JUMPDEST PUSH2 0x7C5 JUMP JUMPDEST STOP JUMPDEST PUSH2 0x163 PUSH2 0x984 JUMP JUMPDEST PUSH1 0x40 MLOAD PUSH2 0x170 SWAP2 SWAP1 PUSH2 0x12C3 JUMP JUMPDEST PUSH1 0x40 MLOAD DUP1 SWAP2 SUB SWAP1 RETURN JUMPDEST PUSH2 0x193 PUSH1 0x4 DUP1 CALLDATASIZE SUB DUP2 ADD SWAP1 PUSH2 0x18E SWAP2 SWAP1 PUSH2 0x1413 JUMP JUMPDEST PUSH2 0x996 JUMP JUMPDEST STOP JUMPDEST PUSH2 0x1AF PUSH1 0x4 DUP1 CALLDATASIZE SUB DUP2 ADD SWAP1 PUSH2 0x1AA SWAP2 SWAP1 PUSH2 0x105E JUMP JUMPDEST PUSH2 0xBA7 JUMP JUMPDEST PUSH1 0x40 MLOAD PUSH2 0x1BC SWAP2 SWAP1 PUSH2 0x145C JUMP JUMPDEST PUSH1 0x40 MLOAD DUP1 SWAP2 SUB SWAP1 RETURN JUMPDEST PUSH2 0x1CD PUSH2 0xC84 JUMP JUMPDEST PUSH1 0x40 MLOAD PUSH2 0x1DA SWAP2 SWAP1 PUSH2 0x1477 JUMP JUMPDEST PUSH1 0x40 MLOAD DUP1 SWAP2 SUB SWAP1 RETURN JUMPDEST PUSH2 0x1FD PUSH1 0x4 DUP1 CALLDATASIZE SUB DUP2 ADD SWAP1 PUSH2 0x1F8 SWAP2 SWAP1 PUSH2 0x1492 JUMP JUMPDEST PUSH2 0xCAA JUMP JUMPDEST PUSH1 0x40 MLOAD PUSH2 0x20A SWAP2 SWAP1 PUSH2 0x1535 JUMP JUMPDEST PUSH1 0x40 MLOAD DUP1 SWAP2 SUB SWAP1 RETURN JUMPDEST PUSH1 0x1 PUSH1 0x20 MSTORE DUP2 PUSH1 0x0 MSTORE PUSH1 0x40 PUSH1 0x0 KECCAK256 DUP2 DUP2 SLOAD DUP2 LT PUSH2 0x22F JUMPI PUSH1 0x0 DUP1 REVERT JUMPDEST SWAP1 PUSH1 0x0 MSTORE PUSH1 0x20 PUSH1 0x0 KECCAK256 SWAP1 PUSH1 0x5 MUL ADD PUSH1 0x0 SWAP2 POP SWAP2 POP POP DUP1 PUSH1 0x0 ADD SLOAD SWAP1 DUP1 PUSH1 0x1 ADD PUSH1 0x0 SWAP1 SLOAD SWAP1 PUSH2 0x100 EXP SWAP1 DIV PUSH20 0xFFFFFFFFFFFFFFFFFFFFFFFFFFFFFFFFFFFFFFFF AND SWAP1 DUP1 PUSH1 0x2 ADD DUP1 SLOAD PUSH2 0x27F SWAP1 PUSH2 0x1586 JUMP JUMPDEST DUP1 PUSH1 0x1F ADD PUSH1 0x20 DUP1 SWAP2 DIV MUL PUSH1 0x20 ADD PUSH1 0x40 MLOAD SWAP1 DUP2 ADD PUSH1 0x40 MSTORE DUP1 SWAP3 SWAP2 SWAP1 DUP2 DUP2 MSTORE PUSH1 0x20 ADD DUP3 DUP1 SLOAD PUSH2 0x2AB SWAP1 PUSH2 0x1586 JUMP JUMPDEST DUP1 ISZERO PUSH2 0x2F8 JUMPI DUP1 PUSH1 0x1F LT PUSH2 0x2CD JUMPI PUSH2 0x100 DUP1 DUP4 SLOAD DIV MUL DUP4 MSTORE SWAP2 PUSH1 0x20 ADD SWAP2 PUSH2 0x2F8 JUMP JUMPDEST DUP3 ADD SWAP2 SWAP1 PUSH1 0x0 MSTORE PUSH1 0x20 PUSH1 0x0 KECCAK256 SWAP1 JUMPDEST DUP2 SLOAD DUP2 MSTORE SWAP1 PUSH1 0x1 ADD SWAP1 PUSH1 0x20 ADD DUP1 DUP4 GT PUSH2 0x2DB JUMPI DUP3 SWAP1 SUB PUSH1 0x1F AND DUP3 ADD SWAP2 JUMPDEST POP POP POP POP POP SWAP1 DUP1 PUSH1 0x3 ADD SLOAD SWAP1 DUP1 PUSH1 0x4 ADD SLOAD SWAP1 POP DUP6 JUMP JUMPDEST PUSH1 0x60 PUSH1 0x1 PUSH1 0x0 DUP4 PUSH20 0xFFFFFFFFFFFFFFFFFFFFFFFFFFFFFFFFFFFFFFFF AND PUSH20 0xFFFFFFFFFFFFFFFFFFFFFFFFFFFFFFFFFFFFFFFF AND DUP2 MSTORE PUSH1 0x20 ADD SWAP1 DUP2 MSTORE PUSH1 0x20 ADD PUSH1 0x0 KECCAK256 DUP1 SLOAD DUP1 PUSH1 0x20 MUL PUSH1 0x20 ADD PUSH1 0x40 MLOAD SWAP1 DUP2 ADD PUSH1 0x40 MSTORE DUP1 SWAP3 SWAP2 SWAP1 DUP2 DUP2 MSTORE PUSH1 0x20 ADD PUSH1 0x0 SWAP1 JUMPDEST DUP3 DUP3 LT ISZERO PUSH2 0x4A7 JUMPI DUP4 DUP3 SWAP1 PUSH1 0x0 MSTORE PUSH1 0x20 PUSH1 0x0 KECCAK256 SWAP1 PUSH1 0x5 MUL ADD PUSH1 0x40 MLOAD DUP1 PUSH1 0xA0 ADD PUSH1 0x40 MSTORE SWAP1 DUP2 PUSH1 0x0 DUP3 ADD SLOAD DUP2 MSTORE PUSH1 0x20 ADD PUSH1 0x1 DUP3 ADD PUSH1 0x0 SWAP1 SLOAD SWAP1 PUSH2 0x100 EXP SWAP1 DIV PUSH20 0xFFFFFFFFFFFFFFFFFFFFFFFFFFFFFFFFFFFFFFFF AND PUSH20 0xFFFFFFFFFFFFFFFFFFFFFFFFFFFFFFFFFFFFFFFF AND PUSH20 0xFFFFFFFFFFFFFFFFFFFFFFFFFFFFFFFFFFFFFFFF AND DUP2 MSTORE PUSH1 0x20 ADD PUSH1 0x2 DUP3 ADD DUP1 SLOAD PUSH2 0x402 SWAP1 PUSH2 0x1586 JUMP JUMPDEST DUP1 PUSH1 0x1F ADD PUSH1 0x20 DUP1 SWAP2 DIV MUL PUSH1 0x20 ADD PUSH1 0x40 MLOAD SWAP1 DUP2 ADD PUSH1 0x40 MSTORE DUP1 SWAP3 SWAP2 SWAP1 DUP2 DUP2 MSTORE PUSH1 0x20 ADD DUP3 DUP1 SLOAD PUSH2 0x42E SWAP1 PUSH2 0x1586 JUMP JUMPDEST DUP1 ISZERO PUSH2 0x47B JUMPI DUP1 PUSH1 0x1F LT PUSH2 0x450 JUMPI PUSH2 0x100 DUP1 DUP4 SLOAD DIV MUL DUP4 MSTORE SWAP2 PUSH1 0x20 ADD SWAP2 PUSH2 0x47B JUMP JUMPDEST DUP3 ADD SWAP2 SWAP1 PUSH1 0x0 MSTORE PUSH1 0x20 PUSH1 0x0 KECCAK256 SWAP1 JUMPDEST DUP2 SLOAD DUP2 MSTORE SWAP1 PUSH1 0x1 ADD SWAP1 PUSH1 0x20 ADD DUP1 DUP4 GT PUSH2 0x45E JUMPI DUP3 SWAP1 SUB PUSH1 0x1F AND DUP3 ADD SWAP2 JUMPDEST POP POP POP POP POP DUP2 MSTORE PUSH1 0x20 ADD PUSH1 0x3 DUP3 ADD SLOAD DUP2 MSTORE PUSH1 0x20 ADD PUSH1 0x4 DUP3 ADD SLOAD DUP2 MSTORE POP POP DUP2 MSTORE PUSH1 0x20 ADD SWAP1 PUSH1 0x1 ADD SWAP1 PUSH2 0x36F JUMP JUMPDEST POP POP POP POP SWAP1 POP SWAP2 SWAP1 POP JUMP JUMPDEST DUP1 PUSH1 0x1 PUSH1 0x0 DUP5 PUSH20 0xFFFFFFFFFFFFFFFFFFFFFFFFFFFFFFFFFFFFFFFF AND PUSH20 0xFFFFFFFFFFFFFFFFFFFFFFFFFFFFFFFFFFFFFFFF AND DUP2 MSTORE PUSH1 0x20 ADD SWAP1 DUP2 MSTORE PUSH1 0x20 ADD PUSH1 0x0 KECCAK256 DUP3 DUP2 SLOAD DUP2 LT PUSH2 0x504 JUMPI PUSH2 0x503 PUSH2 0x15B7 JUMP JUMPDEST JUMPDEST SWAP1 PUSH1 0x0 MSTORE PUSH1 0x20 PUSH1 0x0 KECCAK256 SWAP1 PUSH1 0x5 MUL ADD PUSH1 0x0 ADD SLOAD EQ PUSH2 0x556 JUMPI PUSH1 0x40 MLOAD PUSH32 0x8C379A000000000000000000000000000000000000000000000000000000000 DUP2 MSTORE PUSH1 0x4 ADD PUSH2 0x54D SWAP1 PUSH2 0x1632 JUMP JUMPDEST PUSH1 0x40 MLOAD DUP1 SWAP2 SUB SWAP1 REVERT JUMPDEST PUSH1 0x0 PUSH1 0x1 PUSH1 0x0 DUP5 PUSH20 0xFFFFFFFFFFFFFFFFFFFFFFFFFFFFFFFFFFFFFFFF AND PUSH20 0xFFFFFFFFFFFFFFFFFFFFFFFFFFFFFFFFFFFFFFFF AND DUP2 MSTORE PUSH1 0x20 ADD SWAP1 DUP2 MSTORE PUSH1 0x20 ADD PUSH1 0x0 KECCAK256 DUP3 DUP2 SLOAD DUP2 LT PUSH2 0x5A9 JUMPI PUSH2 0x5A8 PUSH2 0x15B7 JUMP JUMPDEST JUMPDEST SWAP1 PUSH1 0x0 MSTORE PUSH1 0x20 PUSH1 0x0 KECCAK256 SWAP1 PUSH1 0x5 MUL ADD PUSH1 0x4 ADD SLOAD GT PUSH2 0x5FB JUMPI PUSH1 0x40 MLOAD PUSH32 0x8C379A000000000000000000000000000000000000000000000000000000000 DUP2 MSTORE PUSH1 0x4 ADD PUSH2 0x5F2 SWAP1 PUSH2 0x169E JUMP JUMPDEST PUSH1 0x40 MLOAD DUP1 SWAP2 SUB SWAP1 REVERT JUMPDEST PUSH1 0x1 PUSH1 0x0 DUP4 PUSH20 0xFFFFFFFFFFFFFFFFFFFFFFFFFFFFFFFFFFFFFFFF AND PUSH20 0xFFFFFFFFFFFFFFFFFFFFFFFFFFFFFFFFFFFFFFFF AND DUP2 MSTORE PUSH1 0x20 ADD SWAP1 DUP2 MSTORE PUSH1 0x20 ADD PUSH1 0x0 KECCAK256 DUP2 DUP2 SLOAD DUP2 LT PUSH2 0x64C JUMPI PUSH2 0x64B PUSH2 0x15B7 JUMP JUMPDEST JUMPDEST SWAP1 PUSH1 0x0 MSTORE PUSH1 0x20 PUSH1 0x0 KECCAK256 SWAP1 PUSH1 0x5 MUL ADD PUSH1 0x4 ADD PUSH1 0x0 DUP2 SLOAD DUP1 SWAP3 SWAP2 SWAP1 PUSH2 0x66E SWAP1 PUSH2 0x16ED JUMP JUMPDEST SWAP2 SWAP1 POP SSTORE POP PUSH32 0x762C2616349603AC16EBA0DE8E6141B79129A07AB63BD99E0A80B3A471716943 CALLER DUP4 DUP4 PUSH1 0x1 PUSH1 0x0 DUP8 PUSH20 0xFFFFFFFFFFFFFFFFFFFFFFFFFFFFFFFFFFFFFFFF AND PUSH20 0xFFFFFFFFFFFFFFFFFFFFFFFFFFFFFFFFFFFFFFFF AND DUP2 MSTORE PUSH1 0x20 ADD SWAP1 DUP2 MSTORE PUSH1 0x20 ADD PUSH1 0x0 KECCAK256 DUP6 DUP2 SLOAD DUP2 LT PUSH2 0x6E8 JUMPI PUSH2 0x6E7 PUSH2 0x15B7 JUMP JUMPDEST JUMPDEST SWAP1 PUSH1 0x0 MSTORE PUSH1 0x20 PUSH1 0x0 KECCAK256 SWAP1 PUSH1 0x5 MUL ADD PUSH1 0x4 ADD SLOAD PUSH1 0x40 MLOAD PUSH2 0x70A SWAP5 SWAP4 SWAP3 SWAP2 SWAP1 PUSH2 0x1716 JUMP JUMPDEST PUSH1 0x40 MLOAD DUP1 SWAP2 SUB SWAP1 LOG1 POP POP JUMP JUMPDEST PUSH1 0x2 PUSH1 0x0 SWAP1 SLOAD SWAP1 PUSH2 0x100 EXP SWAP1 DIV PUSH20 0xFFFFFFFFFFFFFFFFFFFFFFFFFFFFFFFFFFFFFFFF AND PUSH20 0xFFFFFFFFFFFFFFFFFFFFFFFFFFFFFFFFFFFFFFFF AND CALLER PUSH20 0xFFFFFFFFFFFFFFFFFFFFFFFFFFFFFFFFFFFFFFFF AND EQ PUSH2 0x7A6 JUMPI PUSH1 0x40 MLOAD PUSH32 0x8C379A000000000000000000000000000000000000000000000000000000000 DUP2 MSTORE PUSH1 0x4 ADD PUSH2 0x79D SWAP1 PUSH2 0x17A7 JUMP JUMPDEST PUSH1 0x40 MLOAD DUP1 SWAP2 SUB SWAP1 REVERT JUMPDEST DUP1 PUSH1 0x0 DUP1 PUSH2 0x100 EXP DUP2 SLOAD DUP2 PUSH2 0xFFFF MUL NOT AND SWAP1 DUP4 PUSH2 0xFFFF AND MUL OR SWAP1 SSTORE POP POP JUMP JUMPDEST DUP1 PUSH1 0x1 PUSH1 0x0 DUP5 PUSH20 0xFFFFFFFFFFFFFFFFFFFFFFFFFFFFFFFFFFFFFFFF AND PUSH20 0xFFFFFFFFFFFFFFFFFFFFFFFFFFFFFFFFFFFFFFFF AND DUP2 MSTORE PUSH1 0x20 ADD SWAP1 DUP2 MSTORE PUSH1 0x20 ADD PUSH1 0x0 KECCAK256 DUP3 DUP2 SLOAD DUP2 LT PUSH2 0x817 JUMPI PUSH2 0x816 PUSH2 0x15B7 JUMP JUMPDEST JUMPDEST SWAP1 PUSH1 0x0 MSTORE PUSH1 0x20 PUSH1 0x0 KECCAK256 SWAP1 PUSH1 0x5 MUL ADD PUSH1 0x0 ADD SLOAD EQ PUSH2 0x869 JUMPI PUSH1 0x40 MLOAD PUSH32 0x8C379A000000000000000000000000000000000000000000000000000000000 DUP2 MSTORE PUSH1 0x4 ADD PUSH2 0x860 SWAP1 PUSH2 0x1632 JUMP JUMPDEST PUSH1 0x40 MLOAD DUP1 SWAP2 SUB SWAP1 REVERT JUMPDEST PUSH1 0x1 PUSH1 0x0 DUP4 PUSH20 0xFFFFFFFFFFFFFFFFFFFFFFFFFFFFFFFFFFFFFFFF AND PUSH20 0xFFFFFFFFFFFFFFFFFFFFFFFFFFFFFFFFFFFFFFFF AND DUP2 MSTORE PUSH1 0x20 ADD SWAP1 DUP2 MSTORE PUSH1 0x20 ADD PUSH1 0x0 KECCAK256 DUP2 DUP2 SLOAD DUP2 LT PUSH2 0x8BA JUMPI PUSH2 0x8B9 PUSH2 0x15B7 JUMP JUMPDEST JUMPDEST SWAP1 PUSH1 0x0 MSTORE PUSH1 0x20 PUSH1 0x0 KECCAK256 SWAP1 PUSH1 0x5 MUL ADD PUSH1 0x4 ADD PUSH1 0x0 DUP2 SLOAD DUP1 SWAP3 SWAP2 SWAP1 PUSH2 0x8DC SWAP1 PUSH2 0x17C7 JUMP JUMPDEST SWAP2 SWAP1 POP SSTORE POP PUSH32 0xE8A76FC0F16D11A00D1E93B689B63D76CF60AF914DD3D915375DC41D01A0C3C8 CALLER DUP4 DUP4 PUSH1 0x1 PUSH1 0x0 DUP8 PUSH20 0xFFFFFFFFFFFFFFFFFFFFFFFFFFFFFFFFFFFFFFFF AND PUSH20 0xFFFFFFFFFFFFFFFFFFFFFFFFFFFFFFFFFFFFFFFF AND DUP2 MSTORE PUSH1 0x20 ADD SWAP1 DUP2 MSTORE PUSH1 0x20 ADD PUSH1 0x0 KECCAK256 DUP6 DUP2 SLOAD DUP2 LT PUSH2 0x956 JUMPI PUSH2 0x955 PUSH2 0x15B7 JUMP JUMPDEST JUMPDEST SWAP1 PUSH1 0x0 MSTORE PUSH1 0x20 PUSH1 0x0 KECCAK256 SWAP1 PUSH1 0x5 MUL ADD PUSH1 0x4 ADD SLOAD PUSH1 0x40 MLOAD PUSH2 0x978 SWAP5 SWAP4 SWAP3 SWAP2 SWAP1 PUSH2 0x1716 JUMP JUMPDEST PUSH1 0x40 MLOAD DUP1 SWAP2 SUB SWAP1 LOG1 POP POP JUMP JUMPDEST PUSH1 0x0 DUP1 SLOAD SWAP1 PUSH2 0x100 EXP SWAP1 DIV PUSH2 0xFFFF AND DUP2 JUMP JUMPDEST PUSH1 0x0 DUP1 SLOAD SWAP1 PUSH2 0x100 EXP SWAP1 DIV PUSH2 0xFFFF AND PUSH2 0xFFFF AND DUP2 MLOAD GT ISZERO PUSH2 0x9EC JUMPI PUSH1 0x40 MLOAD PUSH32 0x8C379A000000000000000000000000000000000000000000000000000000000 DUP2 MSTORE PUSH1 0x4 ADD PUSH2 0x9E3 SWAP1 PUSH2 0x185B JUMP JUMPDEST PUSH1 0x40 MLOAD DUP1 SWAP2 SUB SWAP1 REVERT JUMPDEST PUSH1 0x0 PUSH1 0x40 MLOAD DUP1 PUSH1 0xA0 ADD PUSH1 0x40 MSTORE DUP1 PUSH1 0x1 PUSH1 0x0 CALLER PUSH20 0xFFFFFFFFFFFFFFFFFFFFFFFFFFFFFFFFFFFFFFFF AND PUSH20 0xFFFFFFFFFFFFFFFFFFFFFFFFFFFFFFFFFFFFFFFF AND DUP2 MSTORE PUSH1 0x20 ADD SWAP1 DUP2 MSTORE PUSH1 0x20 ADD PUSH1 0x0 KECCAK256 DUP1 SLOAD SWAP1 POP DUP2 MSTORE PUSH1 0x20 ADD CALLER PUSH20 0xFFFFFFFFFFFFFFFFFFFFFFFFFFFFFFFFFFFFFFFF AND DUP2 MSTORE PUSH1 0x20 ADD DUP4 DUP2 MSTORE PUSH1 0x20 ADD TIMESTAMP DUP2 MSTORE PUSH1 0x20 ADD PUSH1 0x0 DUP2 MSTORE POP SWAP1 POP PUSH1 0x1 PUSH1 0x0 CALLER PUSH20 0xFFFFFFFFFFFFFFFFFFFFFFFFFFFFFFFFFFFFFFFF AND PUSH20 0xFFFFFFFFFFFFFFFFFFFFFFFFFFFFFFFFFFFFFFFF AND DUP2 MSTORE PUSH1 0x20 ADD SWAP1 DUP2 MSTORE PUSH1 0x20 ADD PUSH1 0x0 KECCAK256 DUP2 SWAP1 DUP1 PUSH1 0x1 DUP2 SLOAD ADD DUP1 DUP3 SSTORE DUP1 SWAP2 POP POP PUSH1 0x1 SWAP1 SUB SWAP1 PUSH1 0x0 MSTORE PUSH1 0x20 PUSH1 0x0 KECCAK256 SWAP1 PUSH1 0x5 MUL ADD PUSH1 0x0 SWAP1 SWAP2 SWAP1 SWAP2 SWAP1 SWAP2 POP PUSH1 0x0 DUP3 ADD MLOAD DUP2 PUSH1 0x0 ADD SSTORE PUSH1 0x20 DUP3 ADD MLOAD DUP2 PUSH1 0x1 ADD PUSH1 0x0 PUSH2 0x100 EXP DUP2 SLOAD DUP2 PUSH20 0xFFFFFFFFFFFFFFFFFFFFFFFFFFFFFFFFFFFFFFFF MUL NOT AND SWAP1 DUP4 PUSH20 0xFFFFFFFFFFFFFFFFFFFFFFFFFFFFFFFFFFFFFFFF AND MUL OR SWAP1 SSTORE POP PUSH1 0x40 DUP3 ADD MLOAD DUP2 PUSH1 0x2 ADD SWAP1 DUP2 PUSH2 0xB3F SWAP2 SWAP1 PUSH2 0x1A27 JUMP JUMPDEST POP PUSH1 0x60 DUP3 ADD MLOAD DUP2 PUSH1 0x3 ADD SSTORE PUSH1 0x80 DUP3 ADD MLOAD DUP2 PUSH1 0x4 ADD SSTORE POP POP PUSH32 0x16FD3C13E9D46923E0A8BCE11C7B473EC508A72E6C96CD2404B29CE972AFC29E DUP2 PUSH1 0x0 ADD MLOAD DUP3 PUSH1 0x20 ADD MLOAD DUP4 PUSH1 0x40 ADD MLOAD DUP5 PUSH1 0x60 ADD MLOAD PUSH1 0x40 MLOAD PUSH2 0xB9B SWAP5 SWAP4 SWAP3 SWAP2 SWAP1 PUSH2 0x1AF9 JUMP JUMPDEST PUSH1 0x40 MLOAD DUP1 SWAP2 SUB SWAP1 LOG1 POP POP JUMP JUMPDEST PUSH1 0x0 DUP1 PUSH1 0x0 JUMPDEST PUSH1 0x1 PUSH1 0x0 DUP6 PUSH20 0xFFFFFFFFFFFFFFFFFFFFFFFFFFFFFFFFFFFFFFFF AND PUSH20 0xFFFFFFFFFFFFFFFFFFFFFFFFFFFFFFFFFFFFFFFF AND DUP2 MSTORE PUSH1 0x20 ADD SWAP1 DUP2 MSTORE PUSH1 0x20 ADD PUSH1 0x0 KECCAK256 DUP1 SLOAD SWAP1 POP DUP2 LT ISZERO PUSH2 0xC7A JUMPI PUSH1 0x1 PUSH1 0x0 DUP6 PUSH20 0xFFFFFFFFFFFFFFFFFFFFFFFFFFFFFFFFFFFFFFFF AND PUSH20 0xFFFFFFFFFFFFFFFFFFFFFFFFFFFFFFFFFFFFFFFF AND DUP2 MSTORE PUSH1 0x20 ADD SWAP1 DUP2 MSTORE PUSH1 0x20 ADD PUSH1 0x0 KECCAK256 DUP2 DUP2 SLOAD DUP2 LT PUSH2 0xC48 JUMPI PUSH2 0xC47 PUSH2 0x15B7 JUMP JUMPDEST JUMPDEST SWAP1 PUSH1 0x0 MSTORE PUSH1 0x20 PUSH1 0x0 KECCAK256 SWAP1 PUSH1 0x5 MUL ADD PUSH1 0x4 ADD SLOAD DUP3 PUSH2 0xC65 SWAP2 SWAP1 PUSH2 0x1B45 JUMP JUMPDEST SWAP2 POP DUP1 DUP1 PUSH2 0xC72 SWAP1 PUSH2 0x17C7 JUMP JUMPDEST SWAP2 POP POP PUSH2 0xBAD JUMP JUMPDEST POP DUP1 SWAP2 POP POP SWAP2 SWAP1 POP JUMP JUMPDEST PUSH1 0x2 PUSH1 0x0 SWAP1 SLOAD SWAP1 PUSH2 0x100 EXP SWAP1 DIV PUSH20 0xFFFFFFFFFFFFFFFFFFFFFFFFFFFFFFFFFFFFFFFF AND DUP2 JUMP JUMPDEST PUSH2 0xCB2 PUSH2 0xE29 JUMP JUMPDEST PUSH1 0x1 PUSH1 0x0 CALLER PUSH20 0xFFFFFFFFFFFFFFFFFFFFFFFFFFFFFFFFFFFFFFFF AND PUSH20 0xFFFFFFFFFFFFFFFFFFFFFFFFFFFFFFFFFFFFFFFF AND DUP2 MSTORE PUSH1 0x20 ADD SWAP1 DUP2 MSTORE PUSH1 0x20 ADD PUSH1 0x0 KECCAK256 DUP3 DUP2 SLOAD DUP2 LT PUSH2 0xD03 JUMPI PUSH2 0xD02 PUSH2 0x15B7 JUMP JUMPDEST JUMPDEST SWAP1 PUSH1 0x0 MSTORE PUSH1 0x20 PUSH1 0x0 KECCAK256 SWAP1 PUSH1 0x5 MUL ADD PUSH1 0x40 MLOAD DUP1 PUSH1 0xA0 ADD PUSH1 0x40 MSTORE SWAP1 DUP2 PUSH1 0x0 DUP3 ADD SLOAD DUP2 MSTORE PUSH1 0x20 ADD PUSH1 0x1 DUP3 ADD PUSH1 0x0 SWAP1 SLOAD SWAP1 PUSH2 0x100 EXP SWAP1 DIV PUSH20 0xFFFFFFFFFFFFFFFFFFFFFFFFFFFFFFFFFFFFFFFF AND PUSH20 0xFFFFFFFFFFFFFFFFFFFFFFFFFFFFFFFFFFFFFFFF AND PUSH20 0xFFFFFFFFFFFFFFFFFFFFFFFFFFFFFFFFFFFFFFFF AND DUP2 MSTORE PUSH1 0x20 ADD PUSH1 0x2 DUP3 ADD DUP1 SLOAD PUSH2 0xD8C SWAP1 PUSH2 0x1586 JUMP JUMPDEST DUP1 PUSH1 0x1F ADD PUSH1 0x20 DUP1 SWAP2 DIV MUL PUSH1 0x20 ADD PUSH1 0x40 MLOAD SWAP1 DUP2 ADD PUSH1 0x40 MSTORE DUP1 SWAP3 SWAP2 SWAP1 DUP2 DUP2 MSTORE PUSH1 0x20 ADD DUP3 DUP1 SLOAD PUSH2 0xDB8 SWAP1 PUSH2 0x1586 JUMP JUMPDEST DUP1 ISZERO PUSH2 0xE05 JUMPI DUP1 PUSH1 0x1F LT PUSH2 0xDDA JUMPI PUSH2 0x100 DUP1 DUP4 SLOAD DIV MUL DUP4 MSTORE SWAP2 PUSH1 0x20 ADD SWAP2 PUSH2 0xE05 JUMP JUMPDEST DUP3 ADD SWAP2 SWAP1 PUSH1 0x0 MSTORE PUSH1 0x20 PUSH1 0x0 KECCAK256 SWAP1 JUMPDEST DUP2 SLOAD DUP2 MSTORE SWAP1 PUSH1 0x1 ADD SWAP1 PUSH1 0x20 ADD DUP1 DUP4 GT PUSH2 0xDE8 JUMPI DUP3 SWAP1 SUB PUSH1 0x1F AND DUP3 ADD SWAP2 JUMPDEST POP POP POP POP POP DUP2 MSTORE PUSH1 0x20 ADD PUSH1 0x3 DUP3 ADD SLOAD DUP2 MSTORE PUSH1 0x20 ADD PUSH1 0x4 DUP3 ADD SLOAD DUP2 MSTORE POP POP SWAP1 POP SWAP2 SWAP1 POP JUMP JUMPDEST PUSH1 0x40 MLOAD DUP1 PUSH1 0xA0 ADD PUSH1 0x40 MSTORE DUP1 PUSH1 0x0 DUP2 MSTORE PUSH1 0x20 ADD PUSH1 0x0 PUSH20 0xFFFFFFFFFFFFFFFFFFFFFFFFFFFFFFFFFFFFFFFF AND DUP2 MSTORE PUSH1 0x20 ADD PUSH1 0x60 DUP2 MSTORE PUSH1 0x20 ADD PUSH1 0x0 DUP2 MSTORE PUSH1 0x20 ADD PUSH1 0x0 DUP2 MSTORE POP SWAP1 JUMP JUMPDEST PUSH1 0x0 PUSH1 0x40 MLOAD SWAP1 POP SWAP1 JUMP JUMPDEST PUSH1 0x0 DUP1 REVERT JUMPDEST PUSH1 0x0 DUP1 REVERT JUMPDEST PUSH1 0x0 PUSH20 0xFFFFFFFFFFFFFFFFFFFFFFFFFFFFFFFFFFFFFFFF DUP3 AND SWAP1 POP SWAP2 SWAP1 POP JUMP JUMPDEST PUSH1 0x0 PUSH2 0xEAD DUP3 PUSH2 0xE82 JUMP JUMPDEST SWAP1 POP SWAP2 SWAP1 POP JUMP JUMPDEST PUSH2 0xEBD DUP2 PUSH2 0xEA2 JUMP JUMPDEST DUP2 EQ PUSH2 0xEC8 JUMPI PUSH1 0x0 DUP1 REVERT JUMPDEST POP JUMP JUMPDEST PUSH1 0x0 DUP2 CALLDATALOAD SWAP1 POP PUSH2 0xEDA DUP2 PUSH2 0xEB4 JUMP JUMPDEST SWAP3 SWAP2 POP POP JUMP JUMPDEST PUSH1 0x0 DUP2 SWAP1 POP SWAP2 SWAP1 POP JUMP JUMPDEST PUSH2 0xEF3 DUP2 PUSH2 0xEE0 JUMP JUMPDEST DUP2 EQ PUSH2 0xEFE JUMPI PUSH1 0x0 DUP1 REVERT JUMPDEST POP JUMP JUMPDEST PUSH1 0x0 DUP2 CALLDATALOAD SWAP1 POP PUSH2 0xF10 DUP2 PUSH2 0xEEA JUMP JUMPDEST SWAP3 SWAP2 POP POP JUMP JUMPDEST PUSH1 0x0 DUP1 PUSH1 0x40 DUP4 DUP6 SUB SLT ISZERO PUSH2 0xF2D JUMPI PUSH2 0xF2C PUSH2 0xE78 JUMP JUMPDEST JUMPDEST PUSH1 0x0 PUSH2 0xF3B DUP6 DUP3 DUP7 ADD PUSH2 0xECB JUMP JUMPDEST SWAP3 POP POP PUSH1 0x20 PUSH2 0xF4C DUP6 DUP3 DUP7 ADD PUSH2 0xF01 JUMP JUMPDEST SWAP2 POP POP SWAP3 POP SWAP3 SWAP1 POP JUMP JUMPDEST PUSH2 0xF5F DUP2 PUSH2 0xEE0 JUMP JUMPDEST DUP3 MSTORE POP POP JUMP JUMPDEST PUSH2 0xF6E DUP2 PUSH2 0xEA2 JUMP JUMPDEST DUP3 MSTORE POP POP JUMP JUMPDEST PUSH1 0x0 DUP2 MLOAD SWAP1 POP SWAP2 SWAP1 POP JUMP JUMPDEST PUSH1 0x0 DUP3 DUP3 MSTORE PUSH1 0x20 DUP3 ADD SWAP1 POP SWAP3 SWAP2 POP POP JUMP JUMPDEST PUSH1 0x0 JUMPDEST DUP4 DUP2 LT ISZERO PUSH2 0xFAE JUMPI DUP1 DUP3 ADD MLOAD DUP2 DUP5 ADD MSTORE PUSH1 0x20 DUP2 ADD SWAP1 POP PUSH2 0xF93 JUMP JUMPDEST PUSH1 0x0 DUP5 DUP5 ADD MSTORE POP POP POP POP JUMP JUMPDEST PUSH1 0x0 PUSH1 0x1F NOT PUSH1 0x1F DUP4 ADD AND SWAP1 POP SWAP2 SWAP1 POP JUMP JUMPDEST PUSH1 0x0 PUSH2 0xFD6 DUP3 PUSH2 0xF74 JUMP JUMPDEST PUSH2 0xFE0 DUP2 DUP6 PUSH2 0xF7F JUMP JUMPDEST SWAP4 POP PUSH2 0xFF0 DUP2 DUP6 PUSH1 0x20 DUP7 ADD PUSH2 0xF90 JUMP JUMPDEST PUSH2 0xFF9 DUP2 PUSH2 0xFBA JUMP JUMPDEST DUP5 ADD SWAP2 POP POP SWAP3 SWAP2 POP POP JUMP JUMPDEST PUSH1 0x0 PUSH1 0xA0 DUP3 ADD SWAP1 POP PUSH2 0x1019 PUSH1 0x0 DUP4 ADD DUP9 PUSH2 0xF56 JUMP JUMPDEST PUSH2 0x1026 PUSH1 0x20 DUP4 ADD DUP8 PUSH2 0xF65 JUMP JUMPDEST DUP2 DUP2 SUB PUSH1 0x40 DUP4 ADD MSTORE PUSH2 0x1038 DUP2 DUP7 PUSH2 0xFCB JUMP JUMPDEST SWAP1 POP PUSH2 0x1047 PUSH1 0x60 DUP4 ADD DUP6 PUSH2 0xF56 JUMP JUMPDEST PUSH2 0x1054 PUSH1 0x80 DUP4 ADD DUP5 PUSH2 0xF56 JUMP JUMPDEST SWAP7 SWAP6 POP POP POP POP POP POP JUMP JUMPDEST PUSH1 0x0 PUSH1 0x20 DUP3 DUP5 SUB SLT ISZERO PUSH2 0x1074 JUMPI PUSH2 0x1073 PUSH2 0xE78 JUMP JUMPDEST JUMPDEST PUSH1 0x0 PUSH2 0x1082 DUP5 DUP3 DUP6 ADD PUSH2 0xECB JUMP JUMPDEST SWAP2 POP POP SWAP3 SWAP2 POP POP JUMP JUMPDEST PUSH1 0x0 DUP2 MLOAD SWAP1 POP SWAP2 SWAP1 POP JUMP JUMPDEST PUSH1 0x0 DUP3 DUP3 MSTORE PUSH1 0x20 DUP3 ADD SWAP1 POP SWAP3 SWAP2 POP POP JUMP JUMPDEST PUSH1 0x0 DUP2 SWAP1 POP PUSH1 0x20 DUP3 ADD SWAP1 POP SWAP2 SWAP1 POP JUMP JUMPDEST PUSH2 0x10C0 DUP2 PUSH2 0xEE0 JUMP JUMPDEST DUP3 MSTORE POP POP JUMP JUMPDEST PUSH2 0x10CF DUP2 PUSH2 0xEA2 JUMP JUMPDEST DUP3 MSTORE POP POP JUMP JUMPDEST PUSH1 0x0 DUP3 DUP3 MSTORE PUSH1 0x20 DUP3 ADD SWAP1 POP SWAP3 SWAP2 POP POP JUMP JUMPDEST PUSH1 0x0 PUSH2 0x10F1 DUP3 PUSH2 0xF74 JUMP JUMPDEST PUSH2 0x10FB DUP2 DUP6 PUSH2 0x10D5 JUMP JUMPDEST SWAP4 POP PUSH2 0x110B DUP2 DUP6 PUSH1 0x20 DUP7 ADD PUSH2 0xF90 JUMP JUMPDEST PUSH2 0x1114 DUP2 PUSH2 0xFBA JUMP JUMPDEST DUP5 ADD SWAP2 POP POP SWAP3 SWAP2 POP POP JUMP JUMPDEST PUSH1 0x0 PUSH1 0xA0 DUP4 ADD PUSH1 0x0 DUP4 ADD MLOAD PUSH2 0x1137 PUSH1 0x0 DUP7 ADD DUP3 PUSH2 0x10B7 JUMP JUMPDEST POP PUSH1 0x20 DUP4 ADD MLOAD PUSH2 0x114A PUSH1 0x20 DUP7 ADD DUP3 PUSH2 0x10C6 JUMP JUMPDEST POP PUSH1 0x40 DUP4 ADD MLOAD DUP5 DUP3 SUB PUSH1 0x40 DUP7 ADD MSTORE PUSH2 0x1162 DUP3 DUP3 PUSH2 0x10E6 JUMP JUMPDEST SWAP2 POP POP PUSH1 0x60 DUP4 ADD MLOAD PUSH2 0x1177 PUSH1 0x60 DUP7 ADD DUP3 PUSH2 0x10B7 JUMP JUMPDEST POP PUSH1 0x80 DUP4 ADD MLOAD PUSH2 0x118A PUSH1 0x80 DUP7 ADD DUP3 PUSH2 0x10B7 JUMP JUMPDEST POP DUP1 SWAP2 POP POP SWAP3 SWAP2 POP POP JUMP JUMPDEST PUSH1 0x0 PUSH2 0x11A1 DUP4 DUP4 PUSH2 0x111F JUMP JUMPDEST SWAP1 POP SWAP3 SWAP2 POP POP JUMP JUMPDEST PUSH1 0x0 PUSH1 0x20 DUP3 ADD SWAP1 POP SWAP2 SWAP1 POP JUMP JUMPDEST PUSH1 0x0 PUSH2 0x11C1 DUP3 PUSH2 0x108B JUMP JUMPDEST PUSH2 0x11CB DUP2 DUP6 PUSH2 0x1096 JUMP JUMPDEST SWAP4 POP DUP4 PUSH1 0x20 DUP3 MUL DUP6 ADD PUSH2 0x11DD DUP6 PUSH2 0x10A7 JUMP JUMPDEST DUP1 PUSH1 0x0 JUMPDEST DUP6 DUP2 LT ISZERO PUSH2 0x1219 JUMPI DUP5 DUP5 SUB DUP10 MSTORE DUP2 MLOAD PUSH2 0x11FA DUP6 DUP3 PUSH2 0x1195 JUMP JUMPDEST SWAP5 POP PUSH2 0x1205 DUP4 PUSH2 0x11A9 JUMP JUMPDEST SWAP3 POP PUSH1 0x20 DUP11 ADD SWAP10 POP POP PUSH1 0x1 DUP2 ADD SWAP1 POP PUSH2 0x11E1 JUMP JUMPDEST POP DUP3 SWAP8 POP DUP8 SWAP6 POP POP POP POP POP POP SWAP3 SWAP2 POP POP JUMP JUMPDEST PUSH1 0x0 PUSH1 0x20 DUP3 ADD SWAP1 POP DUP2 DUP2 SUB PUSH1 0x0 DUP4 ADD MSTORE PUSH2 0x1245 DUP2 DUP5 PUSH2 0x11B6 JUMP JUMPDEST SWAP1 POP SWAP3 SWAP2 POP POP JUMP JUMPDEST PUSH1 0x0 PUSH2 0xFFFF DUP3 AND SWAP1 POP SWAP2 SWAP1 POP JUMP JUMPDEST PUSH2 0x1264 DUP2 PUSH2 0x124D JUMP JUMPDEST DUP2 EQ PUSH2 0x126F JUMPI PUSH1 0x0 DUP1 REVERT JUMPDEST POP JUMP JUMPDEST PUSH1 0x0 DUP2 CALLDATALOAD SWAP1 POP PUSH2 0x1281 DUP2 PUSH2 0x125B JUMP JUMPDEST SWAP3 SWAP2 POP POP JUMP JUMPDEST PUSH1 0x0 PUSH1 0x20 DUP3 DUP5 SUB SLT ISZERO PUSH2 0x129D JUMPI PUSH2 0x129C PUSH2 0xE78 JUMP JUMPDEST JUMPDEST PUSH1 0x0 PUSH2 0x12AB DUP5 DUP3 DUP6 ADD PUSH2 0x1272 JUMP JUMPDEST SWAP2 POP POP SWAP3 SWAP2 POP POP JUMP JUMPDEST PUSH2 0x12BD DUP2 PUSH2 0x124D JUMP JUMPDEST DUP3 MSTORE POP POP JUMP JUMPDEST PUSH1 0x0 PUSH1 0x20 DUP3 ADD SWAP1 POP PUSH2 0x12D8 PUSH1 0x0 DUP4 ADD DUP5 PUSH2 0x12B4 JUMP JUMPDEST SWAP3 SWAP2 POP POP JUMP JUMPDEST PUSH1 0x0 DUP1 REVERT JUMPDEST PUSH1 0x0 DUP1 REVERT JUMPDEST PUSH32 0x4E487B7100000000000000000000000000000000000000000000000000000000 PUSH1 0x0 MSTORE PUSH1 0x41 PUSH1 0x4 MSTORE PUSH1 0x24 PUSH1 0x0 REVERT JUMPDEST PUSH2 0x1320 DUP3 PUSH2 0xFBA JUMP JUMPDEST DUP2 ADD DUP2 DUP2 LT PUSH8 0xFFFFFFFFFFFFFFFF DUP3 GT OR ISZERO PUSH2 0x133F JUMPI PUSH2 0x133E PUSH2 0x12E8 JUMP JUMPDEST JUMPDEST DUP1 PUSH1 0x40 MSTORE POP POP POP JUMP JUMPDEST PUSH1 0x0 PUSH2 0x1352 PUSH2 0xE6E JUMP JUMPDEST SWAP1 POP PUSH2 0x135E DUP3 DUP3 PUSH2 0x1317 JUMP JUMPDEST SWAP2 SWAP1 POP JUMP JUMPDEST PUSH1 0x0 PUSH8 0xFFFFFFFFFFFFFFFF DUP3 GT ISZERO PUSH2 0x137E JUMPI PUSH2 0x137D PUSH2 0x12E8 JUMP JUMPDEST JUMPDEST PUSH2 0x1387 DUP3 PUSH2 0xFBA JUMP JUMPDEST SWAP1 POP PUSH1 0x20 DUP2 ADD SWAP1 POP SWAP2 SWAP1 POP JUMP JUMPDEST DUP3 DUP2 DUP4 CALLDATACOPY PUSH1 0x0 DUP4 DUP4 ADD MSTORE POP POP POP JUMP JUMPDEST PUSH1 0x0 PUSH2 0x13B6 PUSH2 0x13B1 DUP5 PUSH2 0x1363 JUMP JUMPDEST PUSH2 0x1348 JUMP JUMPDEST SWAP1 POP DUP3 DUP2 MSTORE PUSH1 0x20 DUP2 ADD DUP5 DUP5 DUP5 ADD GT ISZERO PUSH2 0x13D2 JUMPI PUSH2 0x13D1 PUSH2 0x12E3 JUMP JUMPDEST JUMPDEST PUSH2 0x13DD DUP5 DUP3 DUP6 PUSH2 0x1394 JUMP JUMPDEST POP SWAP4 SWAP3 POP POP POP JUMP JUMPDEST PUSH1 0x0 DUP3 PUSH1 0x1F DUP4 ADD SLT PUSH2 0x13FA JUMPI PUSH2 0x13F9 PUSH2 0x12DE JUMP JUMPDEST JUMPDEST DUP2 CALLDATALOAD PUSH2 0x140A DUP5 DUP3 PUSH1 0x20 DUP7 ADD PUSH2 0x13A3 JUMP JUMPDEST SWAP2 POP POP SWAP3 SWAP2 POP POP JUMP JUMPDEST PUSH1 0x0 PUSH1 0x20 DUP3 DUP5 SUB SLT ISZERO PUSH2 0x1429 JUMPI PUSH2 0x1428 PUSH2 0xE78 JUMP JUMPDEST JUMPDEST PUSH1 0x0 DUP3 ADD CALLDATALOAD PUSH8 0xFFFFFFFFFFFFFFFF DUP2 GT ISZERO PUSH2 0x1447 JUMPI PUSH2 0x1446 PUSH2 0xE7D JUMP JUMPDEST JUMPDEST PUSH2 0x1453 DUP5 DUP3 DUP6 ADD PUSH2 0x13E5 JUMP JUMPDEST SWAP2 POP POP SWAP3 SWAP2 POP POP JUMP JUMPDEST PUSH1 0x0 PUSH1 0x20 DUP3 ADD SWAP1 POP PUSH2 0x1471 PUSH1 0x0 DUP4 ADD DUP5 PUSH2 0xF56 JUMP JUMPDEST SWAP3 SWAP2 POP POP JUMP JUMPDEST PUSH1 0x0 PUSH1 0x20 DUP3 ADD SWAP1 POP PUSH2 0x148C PUSH1 0x0 DUP4 ADD DUP5 PUSH2 0xF65 JUMP JUMPDEST SWAP3 SWAP2 POP POP JUMP JUMPDEST PUSH1 0x0 PUSH1 0x20 DUP3 DUP5 SUB SLT ISZERO PUSH2 0x14A8 JUMPI PUSH2 0x14A7 PUSH2 0xE78 JUMP JUMPDEST JUMPDEST PUSH1 0x0 PUSH2 0x14B6 DUP5 DUP3 DUP6 ADD PUSH2 0xF01 JUMP JUMPDEST SWAP2 POP POP SWAP3 SWAP2 POP POP JUMP JUMPDEST PUSH1 0x0 PUSH1 0xA0 DUP4 ADD PUSH1 0x0 DUP4 ADD MLOAD PUSH2 0x14D7 PUSH1 0x0 DUP7 ADD DUP3 PUSH2 0x10B7 JUMP JUMPDEST POP PUSH1 0x20 DUP4 ADD MLOAD PUSH2 0x14EA PUSH1 0x20 DUP7 ADD DUP3 PUSH2 0x10C6 JUMP JUMPDEST POP PUSH1 0x40 DUP4 ADD MLOAD DUP5 DUP3 SUB PUSH1 0x40 DUP7 ADD MSTORE PUSH2 0x1502 DUP3 DUP3 PUSH2 0x10E6 JUMP JUMPDEST SWAP2 POP POP PUSH1 0x60 DUP4 ADD MLOAD PUSH2 0x1517 PUSH1 0x60 DUP7 ADD DUP3 PUSH2 0x10B7 JUMP JUMPDEST POP PUSH1 0x80 DUP4 ADD MLOAD PUSH2 0x152A PUSH1 0x80 DUP7 ADD DUP3 PUSH2 0x10B7 JUMP JUMPDEST POP DUP1 SWAP2 POP POP SWAP3 SWAP2 POP POP JUMP JUMPDEST PUSH1 0x0 PUSH1 0x20 DUP3 ADD SWAP1 POP DUP2 DUP2 SUB PUSH1 0x0 DUP4 ADD MSTORE PUSH2 0x154F DUP2 DUP5 PUSH2 0x14BF JUMP JUMPDEST SWAP1 POP SWAP3 SWAP2 POP POP JUMP JUMPDEST PUSH32 0x4E487B7100000000000000000000000000000000000000000000000000000000 PUSH1 0x0 MSTORE PUSH1 0x22 PUSH1 0x4 MSTORE PUSH1 0x24 PUSH1 0x0 REVERT JUMPDEST PUSH1 0x0 PUSH1 0x2 DUP3 DIV SWAP1 POP PUSH1 0x1 DUP3 AND DUP1 PUSH2 0x159E JUMPI PUSH1 0x7F DUP3 AND SWAP2 POP JUMPDEST PUSH1 0x20 DUP3 LT DUP2 SUB PUSH2 0x15B1 JUMPI PUSH2 0x15B0 PUSH2 0x1557 JUMP JUMPDEST JUMPDEST POP SWAP2 SWAP1 POP JUMP JUMPDEST PUSH32 0x4E487B7100000000000000000000000000000000000000000000000000000000 PUSH1 0x0 MSTORE PUSH1 0x32 PUSH1 0x4 MSTORE PUSH1 0x24 PUSH1 0x0 REVERT JUMPDEST PUSH32 0x545745455420444F4553204E4F54204558495354000000000000000000000000 PUSH1 0x0 DUP3 ADD MSTORE POP JUMP JUMPDEST PUSH1 0x0 PUSH2 0x161C PUSH1 0x14 DUP4 PUSH2 0xF7F JUMP JUMPDEST SWAP2 POP PUSH2 0x1627 DUP3 PUSH2 0x15E6 JUMP JUMPDEST PUSH1 0x20 DUP3 ADD SWAP1 POP SWAP2 SWAP1 POP JUMP JUMPDEST PUSH1 0x0 PUSH1 0x20 DUP3 ADD SWAP1 POP DUP2 DUP2 SUB PUSH1 0x0 DUP4 ADD MSTORE PUSH2 0x164B DUP2 PUSH2 0x160F JUMP JUMPDEST SWAP1 POP SWAP2 SWAP1 POP JUMP JUMPDEST PUSH32 0x545745455420484153204E4F204C494B45530000000000000000000000000000 PUSH1 0x0 DUP3 ADD MSTORE POP JUMP JUMPDEST PUSH1 0x0 PUSH2 0x1688 PUSH1 0x12 DUP4 PUSH2 0xF7F JUMP JUMPDEST SWAP2 POP PUSH2 0x1693 DUP3 PUSH2 0x1652 JUMP JUMPDEST PUSH1 0x20 DUP3 ADD SWAP1 POP SWAP2 SWAP1 POP JUMP JUMPDEST PUSH1 0x0 PUSH1 0x20 DUP3 ADD SWAP1 POP DUP2 DUP2 SUB PUSH1 0x0 DUP4 ADD MSTORE PUSH2 0x16B7 DUP2 PUSH2 0x167B JUMP JUMPDEST SWAP1 POP SWAP2 SWAP1 POP JUMP JUMPDEST PUSH32 0x4E487B7100000000000000000000000000000000000000000000000000000000 PUSH1 0x0 MSTORE PUSH1 0x11 PUSH1 0x4 MSTORE PUSH1 0x24 PUSH1 0x0 REVERT JUMPDEST PUSH1 0x0 PUSH2 0x16F8 DUP3 PUSH2 0xEE0 JUMP JUMPDEST SWAP2 POP PUSH1 0x0 DUP3 SUB PUSH2 0x170B JUMPI PUSH2 0x170A PUSH2 0x16BE JUMP JUMPDEST JUMPDEST PUSH1 0x1 DUP3 SUB SWAP1 POP SWAP2 SWAP1 POP JUMP JUMPDEST PUSH1 0x0 PUSH1 0x80 DUP3 ADD SWAP1 POP PUSH2 0x172B PUSH1 0x0 DUP4 ADD DUP8 PUSH2 0xF65 JUMP JUMPDEST PUSH2 0x1738 PUSH1 0x20 DUP4 ADD DUP7 PUSH2 0xF65 JUMP JUMPDEST PUSH2 0x1745 PUSH1 0x40 DUP4 ADD DUP6 PUSH2 0xF56 JUMP JUMPDEST PUSH2 0x1752 PUSH1 0x60 DUP4 ADD DUP5 PUSH2 0xF56 JUMP JUMPDEST SWAP6 SWAP5 POP POP POP POP POP JUMP JUMPDEST PUSH32 0x594F5520415245204E4F5420544845204F574E45522100000000000000000000 PUSH1 0x0 DUP3 ADD MSTORE POP JUMP JUMPDEST PUSH1 0x0 PUSH2 0x1791 PUSH1 0x16 DUP4 PUSH2 0xF7F JUMP JUMPDEST SWAP2 POP PUSH2 0x179C DUP3 PUSH2 0x175B JUMP JUMPDEST PUSH1 0x20 DUP3 ADD SWAP1 POP SWAP2 SWAP1 POP JUMP JUMPDEST PUSH1 0x0 PUSH1 0x20 DUP3 ADD SWAP1 POP DUP2 DUP2 SUB PUSH1 0x0 DUP4 ADD MSTORE PUSH2 0x17C0 DUP2 PUSH2 0x1784 JUMP JUMPDEST SWAP1 POP SWAP2 SWAP1 POP JUMP JUMPDEST PUSH1 0x0 PUSH2 0x17D2 DUP3 PUSH2 0xEE0 JUMP JUMPDEST SWAP2 POP PUSH32 0xFFFFFFFFFFFFFFFFFFFFFFFFFFFFFFFFFFFFFFFFFFFFFFFFFFFFFFFFFFFFFFFF DUP3 SUB PUSH2 0x1804 JUMPI PUSH2 0x1803 PUSH2 0x16BE JUMP JUMPDEST JUMPDEST PUSH1 0x1 DUP3 ADD SWAP1 POP SWAP2 SWAP1 POP JUMP JUMPDEST PUSH32 0x547765657420697320746F6F206C6F6E672062726F2100000000000000000000 PUSH1 0x0 DUP3 ADD MSTORE POP JUMP JUMPDEST PUSH1 0x0 PUSH2 0x1845 PUSH1 0x16 DUP4 PUSH2 0xF7F JUMP JUMPDEST SWAP2 POP PUSH2 0x1850 DUP3 PUSH2 0x180F JUMP JUMPDEST PUSH1 0x20 DUP3 ADD SWAP1 POP SWAP2 SWAP1 POP JUMP JUMPDEST PUSH1 0x0 PUSH1 0x20 DUP3 ADD SWAP1 POP DUP2 DUP2 SUB PUSH1 0x0 DUP4 ADD MSTORE PUSH2 0x1874 DUP2 PUSH2 0x1838 JUMP JUMPDEST SWAP1 POP SWAP2 SWAP1 POP JUMP JUMPDEST PUSH1 0x0 DUP2 SWAP1 POP DUP2 PUSH1 0x0 MSTORE PUSH1 0x20 PUSH1 0x0 KECCAK256 SWAP1 POP SWAP2 SWAP1 POP JUMP JUMPDEST PUSH1 0x0 PUSH1 0x20 PUSH1 0x1F DUP4 ADD DIV SWAP1 POP SWAP2 SWAP1 POP JUMP JUMPDEST PUSH1 0x0 DUP3 DUP3 SHL SWAP1 POP SWAP3 SWAP2 POP POP JUMP JUMPDEST PUSH1 0x0 PUSH1 0x8 DUP4 MUL PUSH2 0x18DD PUSH32 0xFFFFFFFFFFFFFFFFFFFFFFFFFFFFFFFFFFFFFFFFFFFFFFFFFFFFFFFFFFFFFFFF DUP3 PUSH2 0x18A0 JUMP JUMPDEST PUSH2 0x18E7 DUP7 DUP4 PUSH2 0x18A0 JUMP JUMPDEST SWAP6 POP DUP1 NOT DUP5 AND SWAP4 POP DUP1 DUP7 AND DUP5 OR SWAP3 POP POP POP SWAP4 SWAP3 POP POP POP JUMP JUMPDEST PUSH1 0x0 DUP2 SWAP1 POP SWAP2 SWAP1 POP JUMP JUMPDEST PUSH1 0x0 PUSH2 0x1924 PUSH2 0x191F PUSH2 0x191A DUP5 PUSH2 0xEE0 JUMP JUMPDEST PUSH2 0x18FF JUMP JUMPDEST PUSH2 0xEE0 JUMP JUMPDEST SWAP1 POP SWAP2 SWAP1 POP JUMP JUMPDEST PUSH1 0x0 DUP2 SWAP1 POP SWAP2 SWAP1 POP JUMP JUMPDEST PUSH2 0x193E DUP4 PUSH2 0x1909 JUMP JUMPDEST PUSH2 0x1952 PUSH2 0x194A DUP3 PUSH2 0x192B JUMP JUMPDEST DUP5 DUP5 SLOAD PUSH2 0x18AD JUMP JUMPDEST DUP3 SSTORE POP POP POP POP JUMP JUMPDEST PUSH1 0x0 SWAP1 JUMP JUMPDEST PUSH2 0x1967 PUSH2 0x195A JUMP JUMPDEST PUSH2 0x1972 DUP2 DUP5 DUP5 PUSH2 0x1935 JUMP JUMPDEST POP POP POP JUMP JUMPDEST JUMPDEST DUP2 DUP2 LT ISZERO PUSH2 0x1996 JUMPI PUSH2 0x198B PUSH1 0x0 DUP3 PUSH2 0x195F JUMP JUMPDEST PUSH1 0x1 DUP2 ADD SWAP1 POP PUSH2 0x1978 JUMP JUMPDEST POP POP JUMP JUMPDEST PUSH1 0x1F DUP3 GT ISZERO PUSH2 0x19DB JUMPI PUSH2 0x19AC DUP2 PUSH2 0x187B JUMP JUMPDEST PUSH2 0x19B5 DUP5 PUSH2 0x1890 JUMP JUMPDEST DUP2 ADD PUSH1 0x20 DUP6 LT ISZERO PUSH2 0x19C4 JUMPI DUP2 SWAP1 POP JUMPDEST PUSH2 0x19D8 PUSH2 0x19D0 DUP6 PUSH2 0x1890 JUMP JUMPDEST DUP4 ADD DUP3 PUSH2 0x1977 JUMP JUMPDEST POP POP JUMPDEST POP POP POP JUMP JUMPDEST PUSH1 0x0 DUP3 DUP3 SHR SWAP1 POP SWAP3 SWAP2 POP POP JUMP JUMPDEST PUSH1 0x0 PUSH2 0x19FE PUSH1 0x0 NOT DUP5 PUSH1 0x8 MUL PUSH2 0x19E0 JUMP JUMPDEST NOT DUP1 DUP4 AND SWAP2 POP POP SWAP3 SWAP2 POP POP JUMP JUMPDEST PUSH1 0x0 PUSH2 0x1A17 DUP4 DUP4 PUSH2 0x19ED JUMP JUMPDEST SWAP2 POP DUP3 PUSH1 0x2 MUL DUP3 OR SWAP1 POP SWAP3 SWAP2 POP POP JUMP JUMPDEST PUSH2 0x1A30 DUP3 PUSH2 0xF74 JUMP JUMPDEST PUSH8 0xFFFFFFFFFFFFFFFF DUP2 GT ISZERO PUSH2 0x1A49 JUMPI PUSH2 0x1A48 PUSH2 0x12E8 JUMP JUMPDEST JUMPDEST PUSH2 0x1A53 DUP3 SLOAD PUSH2 0x1586 JUMP JUMPDEST PUSH2 0x1A5E DUP3 DUP3 DUP6 PUSH2 0x199A JUMP JUMPDEST PUSH1 0x0 PUSH1 0x20 SWAP1 POP PUSH1 0x1F DUP4 GT PUSH1 0x1 DUP2 EQ PUSH2 0x1A91 JUMPI PUSH1 0x0 DUP5 ISZERO PUSH2 0x1A7F JUMPI DUP3 DUP8 ADD MLOAD SWAP1 POP JUMPDEST PUSH2 0x1A89 DUP6 DUP3 PUSH2 0x1A0B JUMP JUMPDEST DUP7 SSTORE POP PUSH2 0x1AF1 JUMP JUMPDEST PUSH1 0x1F NOT DUP5 AND PUSH2 0x1A9F DUP7 PUSH2 0x187B JUMP JUMPDEST PUSH1 0x0 JUMPDEST DUP3 DUP2 LT ISZERO PUSH2 0x1AC7 JUMPI DUP5 DUP10 ADD MLOAD DUP3 SSTORE PUSH1 0x1 DUP3 ADD SWAP2 POP PUSH1 0x20 DUP6 ADD SWAP5 POP PUSH1 0x20 DUP2 ADD SWAP1 POP PUSH2 0x1AA2 JUMP JUMPDEST DUP7 DUP4 LT ISZERO PUSH2 0x1AE4 JUMPI DUP5 DUP10 ADD MLOAD PUSH2 0x1AE0 PUSH1 0x1F DUP10 AND DUP3 PUSH2 0x19ED JUMP JUMPDEST DUP4 SSTORE POP JUMPDEST PUSH1 0x1 PUSH1 0x2 DUP9 MUL ADD DUP9 SSTORE POP POP POP JUMPDEST POP POP POP POP POP POP JUMP JUMPDEST PUSH1 0x0 PUSH1 0x80 DUP3 ADD SWAP1 POP PUSH2 0x1B0E PUSH1 0x0 DUP4 ADD DUP8 PUSH2 0xF56 JUMP JUMPDEST PUSH2 0x1B1B PUSH1 0x20 DUP4 ADD DUP7 PUSH2 0xF65 JUMP JUMPDEST DUP2 DUP2 SUB PUSH1 0x40 DUP4 ADD MSTORE PUSH2 0x1B2D DUP2 DUP6 PUSH2 0xFCB JUMP JUMPDEST SWAP1 POP PUSH2 0x1B3C PUSH1 0x60 DUP4 ADD DUP5 PUSH2 0xF56 JUMP JUMPDEST SWAP6 SWAP5 POP POP POP POP POP JUMP JUMPDEST PUSH1 0x0 PUSH2 0x1B50 DUP3 PUSH2 0xEE0 JUMP JUMPDEST SWAP2 POP PUSH2 0x1B5B DUP4 PUSH2 0xEE0 JUMP JUMPDEST SWAP3 POP DUP3 DUP3 ADD SWAP1 POP DUP1 DUP3 GT ISZERO PUSH2 0x1B73 JUMPI PUSH2 0x1B72 PUSH2 0x16BE JUMP JUMPDEST JUMPDEST SWAP3 SWAP2 POP POP JUMP INVALID LOG2 PUSH5 0x6970667358 0x22 SLT KECCAK256 CODECOPY 0x24 0xF CHAINID CALLCODE 0xDF SWAP6 DUP5 0xC8 SUB SMOD 0xAD 0xFB SWAP2 0xC4 CALLDATACOPY PUSH25 0xD71DCF83093A8BC82DA105E0DB1C0564736F6C634300081200 CALLER "
				},
				"gasEstimates": {
					"creation": {
						"codeDepositCost": "1417400",
						"executionCost": "50012",
						"totalCost": "1467412"
					},
					"external": {
						"MAX_TWEET_LENGTH()": "2468",
						"changeTweetLength(uint16)": "26916",
						"createTweet(string)": "infinite",
						"getAllTweets(address)": "infinite",
						"getTotalLikes(address)": "infinite",
						"getTweet(uint256)": "infinite",
						"likeTweet(address,uint256)": "infinite",
						"owner()": "2580",
						"tweets(address,uint256)": "infinite",
						"unlikeTweet(address,uint256)": "infinite"
					}
				},
				"methodIdentifiers": {
					"MAX_TWEET_LENGTH()": "6eb10797",
					"changeTweetLength(uint16)": "58bfa4ab",
					"createTweet(string)": "7c9cd2bc",
					"getAllTweets(address)": "12e7ee1c",
					"getTotalLikes(address)": "820785cc",
					"getTweet(uint256)": "c3ad5ecb",
					"likeTweet(address,uint256)": "63378216",
					"owner()": "8da5cb5b",
					"tweets(address,uint256)": "05a1b4a9",
					"unlikeTweet(address,uint256)": "3d9b569f"
				}
			},
			"storageLayout": {
				"storage": [
					{
						"astId": 4,
						"contract": "contracts/Twitter.sol:Twitter",
						"label": "MAX_TWEET_LENGTH",
						"offset": 0,
						"slot": "0",
						"type": "t_uint16"
					},
					{
						"astId": 21,
						"contract": "contracts/Twitter.sol:Twitter",
						"label": "tweets",
						"offset": 0,
						"slot": "1",
						"type": "t_mapping(t_address,t_array(t_struct(Tweet)15_storage)dyn_storage)"
					},
					{
						"astId": 23,
						"contract": "contracts/Twitter.sol:Twitter",
						"label": "owner",
						"offset": 0,
						"slot": "2",
						"type": "t_address"
					}
				],
				"types": {
					"t_address": {
						"encoding": "inplace",
						"label": "address",
						"numberOfBytes": "20"
					},
					"t_array(t_struct(Tweet)15_storage)dyn_storage": {
						"base": "t_struct(Tweet)15_storage",
						"encoding": "dynamic_array",
						"label": "struct Twitter.Tweet[]",
						"numberOfBytes": "32"
					},
					"t_mapping(t_address,t_array(t_struct(Tweet)15_storage)dyn_storage)": {
						"encoding": "mapping",
						"key": "t_address",
						"label": "mapping(address => struct Twitter.Tweet[])",
						"numberOfBytes": "32",
						"value": "t_array(t_struct(Tweet)15_storage)dyn_storage"
					},
					"t_string_storage": {
						"encoding": "bytes",
						"label": "string",
						"numberOfBytes": "32"
					},
					"t_struct(Tweet)15_storage": {
						"encoding": "inplace",
						"label": "struct Twitter.Tweet",
						"members": [
							{
								"astId": 6,
								"contract": "contracts/Twitter.sol:Twitter",
								"label": "id",
								"offset": 0,
								"slot": "0",
								"type": "t_uint256"
							},
							{
								"astId": 8,
								"contract": "contracts/Twitter.sol:Twitter",
								"label": "author",
								"offset": 0,
								"slot": "1",
								"type": "t_address"
							},
							{
								"astId": 10,
								"contract": "contracts/Twitter.sol:Twitter",
								"label": "content",
								"offset": 0,
								"slot": "2",
								"type": "t_string_storage"
							},
							{
								"astId": 12,
								"contract": "contracts/Twitter.sol:Twitter",
								"label": "timestamp",
								"offset": 0,
								"slot": "3",
								"type": "t_uint256"
							},
							{
								"astId": 14,
								"contract": "contracts/Twitter.sol:Twitter",
								"label": "likes",
								"offset": 0,
								"slot": "4",
								"type": "t_uint256"
							}
						],
						"numberOfBytes": "160"
					},
					"t_uint16": {
						"encoding": "inplace",
						"label": "uint16",
						"numberOfBytes": "2"
					},
					"t_uint256": {
						"encoding": "inplace",
						"label": "uint256",
						"numberOfBytes": "32"
					}
				}
			},
			"userdoc": {
				"kind": "user",
				"methods": {},
				"version": 1
			}
		}
	}
}