{
	"contracts/Twitter.sol": {
		"Twitter": {
			"abi": [
				{
					"inputs": [
						{
							"internalType": "address",
							"name": "_profileContract",
							"type": "address"
						}
					],
					"stateMutability": "nonpayable",
					"type": "constructor"
				},
				{
					"anonymous": false,
					"inputs": [
						{
							"indexed": true,
							"internalType": "address",
							"name": "previousOwner",
							"type": "address"
						},
						{
							"indexed": true,
							"internalType": "address",
							"name": "newOwner",
							"type": "address"
						}
					],
					"name": "OwnershipTransferred",
					"type": "event"
				},
				{
					"anonymous": false,
					"inputs": [
						{
							"indexed": false,
							"internalType": "uint256",
							"name": "id",
							"type": "uint256"
						},
						{
							"indexed": false,
							"internalType": "address",
							"name": "author",
							"type": "address"
						},
						{
							"indexed": false,
							"internalType": "string",
							"name": "content",
							"type": "string"
						},
						{
							"indexed": false,
							"internalType": "uint256",
							"name": "timestamp",
							"type": "uint256"
						}
					],
					"name": "TweetCreated",
					"type": "event"
				},
				{
					"anonymous": false,
					"inputs": [
						{
							"indexed": false,
							"internalType": "address",
							"name": "liker",
							"type": "address"
						},
						{
							"indexed": false,
							"internalType": "address",
							"name": "tweetAuthor",
							"type": "address"
						},
						{
							"indexed": false,
							"internalType": "uint256",
							"name": "tweetId",
							"type": "uint256"
						},
						{
							"indexed": false,
							"internalType": "uint256",
							"name": "newLikeCount",
							"type": "uint256"
						}
					],
					"name": "TweetLiked",
					"type": "event"
				},
				{
					"anonymous": false,
					"inputs": [
						{
							"indexed": false,
							"internalType": "address",
							"name": "unliker",
							"type": "address"
						},
						{
							"indexed": false,
							"internalType": "address",
							"name": "tweetAuthor",
							"type": "address"
						},
						{
							"indexed": false,
							"internalType": "uint256",
							"name": "tweetId",
							"type": "uint256"
						},
						{
							"indexed": false,
							"internalType": "uint256",
							"name": "newLikeCount",
							"type": "uint256"
						}
					],
					"name": "TweetUnliked",
					"type": "event"
				},
				{
					"inputs": [],
					"name": "MAX_TWEET_LENGTH",
					"outputs": [
						{
							"internalType": "uint16",
							"name": "",
							"type": "uint16"
						}
					],
					"stateMutability": "view",
					"type": "function"
				},
				{
					"inputs": [
						{
							"internalType": "uint16",
							"name": "newTweetLength",
							"type": "uint16"
						}
					],
					"name": "changeTweetLength",
					"outputs": [],
					"stateMutability": "nonpayable",
					"type": "function"
				},
				{
					"inputs": [
						{
							"internalType": "string",
							"name": "_tweet",
							"type": "string"
						}
					],
					"name": "createTweet",
					"outputs": [],
					"stateMutability": "nonpayable",
					"type": "function"
				},
				{
					"inputs": [
						{
							"internalType": "address",
							"name": "_owner",
							"type": "address"
						}
					],
					"name": "getAllTweets",
					"outputs": [
						{
							"components": [
								{
									"internalType": "uint256",
									"name": "id",
									"type": "uint256"
								},
								{
									"internalType": "address",
									"name": "author",
									"type": "address"
								},
								{
									"internalType": "string",
									"name": "content",
									"type": "string"
								},
								{
									"internalType": "uint256",
									"name": "timestamp",
									"type": "uint256"
								},
								{
									"internalType": "uint256",
									"name": "likes",
									"type": "uint256"
								}
							],
							"internalType": "struct Twitter.Tweet[]",
							"name": "",
							"type": "tuple[]"
						}
					],
					"stateMutability": "view",
					"type": "function"
				},
				{
					"inputs": [
						{
							"internalType": "address",
							"name": "_author",
							"type": "address"
						}
					],
					"name": "getTotalLikes",
					"outputs": [
						{
							"internalType": "uint256",
							"name": "",
							"type": "uint256"
						}
					],
					"stateMutability": "view",
					"type": "function"
				},
				{
					"inputs": [
						{
							"internalType": "uint256",
							"name": "_i",
							"type": "uint256"
						}
					],
					"name": "getTweet",
					"outputs": [
						{
							"components": [
								{
									"internalType": "uint256",
									"name": "id",
									"type": "uint256"
								},
								{
									"internalType": "address",
									"name": "author",
									"type": "address"
								},
								{
									"internalType": "string",
									"name": "content",
									"type": "string"
								},
								{
									"internalType": "uint256",
									"name": "timestamp",
									"type": "uint256"
								},
								{
									"internalType": "uint256",
									"name": "likes",
									"type": "uint256"
								}
							],
							"internalType": "struct Twitter.Tweet",
							"name": "",
							"type": "tuple"
						}
					],
					"stateMutability": "view",
					"type": "function"
				},
				{
					"inputs": [
						{
							"internalType": "address",
							"name": "author",
							"type": "address"
						},
						{
							"internalType": "uint256",
							"name": "id",
							"type": "uint256"
						}
					],
					"name": "likeTweet",
					"outputs": [],
					"stateMutability": "nonpayable",
					"type": "function"
				},
				{
					"inputs": [],
					"name": "owner",
					"outputs": [
						{
							"internalType": "address",
							"name": "",
							"type": "address"
						}
					],
					"stateMutability": "view",
					"type": "function"
				},
				{
					"inputs": [],
					"name": "renounceOwnership",
					"outputs": [],
					"stateMutability": "nonpayable",
					"type": "function"
				},
				{
					"inputs": [
						{
							"internalType": "address",
							"name": "newOwner",
							"type": "address"
						}
					],
					"name": "transferOwnership",
					"outputs": [],
					"stateMutability": "nonpayable",
					"type": "function"
				},
				{
					"inputs": [
						{
							"internalType": "address",
							"name": "",
							"type": "address"
						},
						{
							"internalType": "uint256",
							"name": "",
							"type": "uint256"
						}
					],
					"name": "tweets",
					"outputs": [
						{
							"internalType": "uint256",
							"name": "id",
							"type": "uint256"
						},
						{
							"internalType": "address",
							"name": "author",
							"type": "address"
						},
						{
							"internalType": "string",
							"name": "content",
							"type": "string"
						},
						{
							"internalType": "uint256",
							"name": "timestamp",
							"type": "uint256"
						},
						{
							"internalType": "uint256",
							"name": "likes",
							"type": "uint256"
						}
					],
					"stateMutability": "view",
					"type": "function"
				},
				{
					"inputs": [
						{
							"internalType": "address",
							"name": "author",
							"type": "address"
						},
						{
							"internalType": "uint256",
							"name": "id",
							"type": "uint256"
						}
					],
					"name": "unlikeTweet",
					"outputs": [],
					"stateMutability": "nonpayable",
					"type": "function"
				}
			],
			"devdoc": {
				"kind": "dev",
				"methods": {
					"owner()": {
						"details": "Returns the address of the current owner."
					},
					"renounceOwnership()": {
						"details": "Leaves the contract without owner. It will not be possible to call `onlyOwner` functions. Can only be called by the current owner. NOTE: Renouncing ownership will leave the contract without an owner, thereby disabling any functionality that is only available to the owner."
					},
					"transferOwnership(address)": {
						"details": "Transfers ownership of the contract to a new account (`newOwner`). Can only be called by the current owner."
					}
				},
				"version": 1
			},
			"evm": {
				"assembly": "    /* \"contracts/Twitter.sol\":339:3239  contract Twitter is Ownable {... */\n  mstore(0x40, 0x80)\n    /* \"contracts/Twitter.sol\":409:412  280 */\n  0x0118\n    /* \"contracts/Twitter.sol\":376:412  uint16 public MAX_TWEET_LENGTH = 280 */\n  0x00\n  exp(0x0100, 0x14)\n  dup2\n  sload\n  dup2\n  0xffff\n  mul\n  not\n  and\n  swap1\n  dup4\n  0xffff\n  and\n  mul\n  or\n  swap1\n  sstore\n  pop\n    /* \"contracts/Twitter.sol\":1244:1345  constructor(address _profileContract) {... */\n  callvalue\n  dup1\n  iszero\n  tag_1\n  jumpi\n  0x00\n  dup1\n  revert\ntag_1:\n  pop\n  mload(0x40)\n  sub(codesize, bytecodeSize)\n  dup1\n  bytecodeSize\n  dup4\n  codecopy\n  dup2\n  dup2\n  add\n  0x40\n  mstore\n  dup2\n  add\n  swap1\n  tag_2\n  swap2\n  swap1\n  tag_3\n  jump\t// in\ntag_2:\n    /* \"@openzeppelin/contracts/access/Ownable.sol\":936:968  _transferOwnership(_msgSender()) */\n  tag_7\n    /* \"@openzeppelin/contracts/access/Ownable.sol\":955:967  _msgSender() */\n  tag_8\n    /* \"@openzeppelin/contracts/access/Ownable.sol\":955:965  _msgSender */\n  shl(0x20, tag_9)\n    /* \"@openzeppelin/contracts/access/Ownable.sol\":955:967  _msgSender() */\n  0x20\n  shr\n  jump\t// in\ntag_8:\n    /* \"@openzeppelin/contracts/access/Ownable.sol\":936:954  _transferOwnership */\n  shl(0x20, tag_10)\n    /* \"@openzeppelin/contracts/access/Ownable.sol\":936:968  _transferOwnership(_msgSender()) */\n  0x20\n  shr\n  jump\t// in\ntag_7:\n    /* \"contracts/Twitter.sol\":1320:1336  _profileContract */\n  dup1\n    /* \"contracts/Twitter.sol\":1293:1308  profileContract */\n  0x02\n  0x00\n    /* \"contracts/Twitter.sol\":1293:1337  profileContract = IProfile(_profileContract) */\n  0x0100\n  exp\n  dup2\n  sload\n  dup2\n  0xffffffffffffffffffffffffffffffffffffffff\n  mul\n  not\n  and\n  swap1\n  dup4\n  0xffffffffffffffffffffffffffffffffffffffff\n  and\n  mul\n  or\n  swap1\n  sstore\n  pop\n    /* \"contracts/Twitter.sol\":1244:1345  constructor(address _profileContract) {... */\n  pop\n    /* \"contracts/Twitter.sol\":339:3239  contract Twitter is Ownable {... */\n  jump(tag_12)\n    /* \"@openzeppelin/contracts/utils/Context.sol\":640:736  function _msgSender() internal view virtual returns (address) {... */\ntag_9:\n    /* \"@openzeppelin/contracts/utils/Context.sol\":693:700  address */\n  0x00\n    /* \"@openzeppelin/contracts/utils/Context.sol\":719:729  msg.sender */\n  caller\n    /* \"@openzeppelin/contracts/utils/Context.sol\":712:729  return msg.sender */\n  swap1\n  pop\n    /* \"@openzeppelin/contracts/utils/Context.sol\":640:736  function _msgSender() internal view virtual returns (address) {... */\n  swap1\n  jump\t// out\n    /* \"@openzeppelin/contracts/access/Ownable.sol\":2426:2613  function _transferOwnership(address newOwner) internal virtual {... */\ntag_10:\n    /* \"@openzeppelin/contracts/access/Ownable.sol\":2499:2515  address oldOwner */\n  0x00\n    /* \"@openzeppelin/contracts/access/Ownable.sol\":2518:2524  _owner */\n  dup1\n  0x00\n  swap1\n  sload\n  swap1\n  0x0100\n  exp\n  swap1\n  div\n  0xffffffffffffffffffffffffffffffffffffffff\n  and\n    /* \"@openzeppelin/contracts/access/Ownable.sol\":2499:2524  address oldOwner = _owner */\n  swap1\n  pop\n    /* \"@openzeppelin/contracts/access/Ownable.sol\":2543:2551  newOwner */\n  dup2\n    /* \"@openzeppelin/contracts/access/Ownable.sol\":2534:2540  _owner */\n  0x00\n  dup1\n    /* \"@openzeppelin/contracts/access/Ownable.sol\":2534:2551  _owner = newOwner */\n  0x0100\n  exp\n  dup2\n  sload\n  dup2\n  0xffffffffffffffffffffffffffffffffffffffff\n  mul\n  not\n  and\n  swap1\n  dup4\n  0xffffffffffffffffffffffffffffffffffffffff\n  and\n  mul\n  or\n  swap1\n  sstore\n  pop\n    /* \"@openzeppelin/contracts/access/Ownable.sol\":2597:2605  newOwner */\n  dup2\n    /* \"@openzeppelin/contracts/access/Ownable.sol\":2566:2606  OwnershipTransferred(oldOwner, newOwner) */\n  0xffffffffffffffffffffffffffffffffffffffff\n  and\n    /* \"@openzeppelin/contracts/access/Ownable.sol\":2587:2595  oldOwner */\n  dup2\n    /* \"@openzeppelin/contracts/access/Ownable.sol\":2566:2606  OwnershipTransferred(oldOwner, newOwner) */\n  0xffffffffffffffffffffffffffffffffffffffff\n  and\n  0x8be0079c531659141344cd1fd0a4f28419497f9722a3daafe3b4186f6b6457e0\n  mload(0x40)\n  mload(0x40)\n  dup1\n  swap2\n  sub\n  swap1\n  log3\n    /* \"@openzeppelin/contracts/access/Ownable.sol\":2489:2613  {... */\n  pop\n    /* \"@openzeppelin/contracts/access/Ownable.sol\":2426:2613  function _transferOwnership(address newOwner) internal virtual {... */\n  pop\n  jump\t// out\n    /* \"#utility.yul\":88:205   */\ntag_16:\n    /* \"#utility.yul\":197:198   */\n  0x00\n    /* \"#utility.yul\":194:195   */\n  dup1\n    /* \"#utility.yul\":187:199   */\n  revert\n    /* \"#utility.yul\":334:460   */\ntag_18:\n    /* \"#utility.yul\":371:378   */\n  0x00\n    /* \"#utility.yul\":411:453   */\n  0xffffffffffffffffffffffffffffffffffffffff\n    /* \"#utility.yul\":404:409   */\n  dup3\n    /* \"#utility.yul\":400:454   */\n  and\n    /* \"#utility.yul\":389:454   */\n  swap1\n  pop\n    /* \"#utility.yul\":334:460   */\n  swap2\n  swap1\n  pop\n  jump\t// out\n    /* \"#utility.yul\":466:562   */\ntag_19:\n    /* \"#utility.yul\":503:510   */\n  0x00\n    /* \"#utility.yul\":532:556   */\n  tag_28\n    /* \"#utility.yul\":550:555   */\n  dup3\n    /* \"#utility.yul\":532:556   */\n  tag_18\n  jump\t// in\ntag_28:\n    /* \"#utility.yul\":521:556   */\n  swap1\n  pop\n    /* \"#utility.yul\":466:562   */\n  swap2\n  swap1\n  pop\n  jump\t// out\n    /* \"#utility.yul\":568:690   */\ntag_20:\n    /* \"#utility.yul\":641:665   */\n  tag_30\n    /* \"#utility.yul\":659:664   */\n  dup2\n    /* \"#utility.yul\":641:665   */\n  tag_19\n  jump\t// in\ntag_30:\n    /* \"#utility.yul\":634:639   */\n  dup2\n    /* \"#utility.yul\":631:666   */\n  eq\n    /* \"#utility.yul\":621:684   */\n  tag_31\n  jumpi\n    /* \"#utility.yul\":680:681   */\n  0x00\n    /* \"#utility.yul\":677:678   */\n  dup1\n    /* \"#utility.yul\":670:682   */\n  revert\n    /* \"#utility.yul\":621:684   */\ntag_31:\n    /* \"#utility.yul\":568:690   */\n  pop\n  jump\t// out\n    /* \"#utility.yul\":696:839   */\ntag_21:\n    /* \"#utility.yul\":753:758   */\n  0x00\n    /* \"#utility.yul\":784:790   */\n  dup2\n    /* \"#utility.yul\":778:791   */\n  mload\n    /* \"#utility.yul\":769:791   */\n  swap1\n  pop\n    /* \"#utility.yul\":800:833   */\n  tag_33\n    /* \"#utility.yul\":827:832   */\n  dup2\n    /* \"#utility.yul\":800:833   */\n  tag_20\n  jump\t// in\ntag_33:\n    /* \"#utility.yul\":696:839   */\n  swap3\n  swap2\n  pop\n  pop\n  jump\t// out\n    /* \"#utility.yul\":845:1196   */\ntag_3:\n    /* \"#utility.yul\":915:921   */\n  0x00\n    /* \"#utility.yul\":964:966   */\n  0x20\n    /* \"#utility.yul\":952:961   */\n  dup3\n    /* \"#utility.yul\":943:950   */\n  dup5\n    /* \"#utility.yul\":939:962   */\n  sub\n    /* \"#utility.yul\":935:967   */\n  slt\n    /* \"#utility.yul\":932:1051   */\n  iszero\n  tag_35\n  jumpi\n    /* \"#utility.yul\":970:1049   */\n  tag_36\n  tag_16\n  jump\t// in\ntag_36:\n    /* \"#utility.yul\":932:1051   */\ntag_35:\n    /* \"#utility.yul\":1090:1091   */\n  0x00\n    /* \"#utility.yul\":1115:1179   */\n  tag_37\n    /* \"#utility.yul\":1171:1178   */\n  dup5\n    /* \"#utility.yul\":1162:1168   */\n  dup3\n    /* \"#utility.yul\":1151:1160   */\n  dup6\n    /* \"#utility.yul\":1147:1169   */\n  add\n    /* \"#utility.yul\":1115:1179   */\n  tag_21\n  jump\t// in\ntag_37:\n    /* \"#utility.yul\":1105:1179   */\n  swap2\n  pop\n    /* \"#utility.yul\":1061:1189   */\n  pop\n    /* \"#utility.yul\":845:1196   */\n  swap3\n  swap2\n  pop\n  pop\n  jump\t// out\n    /* \"contracts/Twitter.sol\":339:3239  contract Twitter is Ownable {... */\ntag_12:\n  dataSize(sub_0)\n  dup1\n  dataOffset(sub_0)\n  0x00\n  codecopy\n  0x00\n  return\nstop\n\nsub_0: assembly {\n        /* \"contracts/Twitter.sol\":339:3239  contract Twitter is Ownable {... */\n      mstore(0x40, 0x80)\n      callvalue\n      dup1\n      iszero\n      tag_1\n      jumpi\n      0x00\n      dup1\n      revert\n    tag_1:\n      pop\n      jumpi(tag_2, lt(calldatasize, 0x04))\n      shr(0xe0, calldataload(0x00))\n      dup1\n      0x715018a6\n      gt\n      tag_15\n      jumpi\n      dup1\n      0x715018a6\n      eq\n      tag_9\n      jumpi\n      dup1\n      0x7c9cd2bc\n      eq\n      tag_10\n      jumpi\n      dup1\n      0x820785cc\n      eq\n      tag_11\n      jumpi\n      dup1\n      0x8da5cb5b\n      eq\n      tag_12\n      jumpi\n      dup1\n      0xc3ad5ecb\n      eq\n      tag_13\n      jumpi\n      dup1\n      0xf2fde38b\n      eq\n      tag_14\n      jumpi\n      jump(tag_2)\n    tag_15:\n      dup1\n      0x05a1b4a9\n      eq\n      tag_3\n      jumpi\n      dup1\n      0x12e7ee1c\n      eq\n      tag_4\n      jumpi\n      dup1\n      0x3d9b569f\n      eq\n      tag_5\n      jumpi\n      dup1\n      0x58bfa4ab\n      eq\n      tag_6\n      jumpi\n      dup1\n      0x63378216\n      eq\n      tag_7\n      jumpi\n      dup1\n      0x6eb10797\n      eq\n      tag_8\n      jumpi\n    tag_2:\n      0x00\n      dup1\n      revert\n        /* \"contracts/Twitter.sol\":571:613  mapping(address => Tweet[] ) public tweets */\n    tag_3:\n      tag_16\n      0x04\n      dup1\n      calldatasize\n      sub\n      dup2\n      add\n      swap1\n      tag_17\n      swap2\n      swap1\n      tag_18\n      jump\t// in\n    tag_17:\n      tag_19\n      jump\t// in\n    tag_16:\n      mload(0x40)\n      tag_20\n      swap6\n      swap5\n      swap4\n      swap3\n      swap2\n      swap1\n      tag_21\n      jump\t// in\n    tag_20:\n      mload(0x40)\n      dup1\n      swap2\n      sub\n      swap1\n      return\n        /* \"contracts/Twitter.sol\":3119:3234  function getAllTweets(address _owner) public view returns (Tweet[] memory ){... */\n    tag_4:\n      tag_22\n      0x04\n      dup1\n      calldatasize\n      sub\n      dup2\n      add\n      swap1\n      tag_23\n      swap2\n      swap1\n      tag_24\n      jump\t// in\n    tag_23:\n      tag_25\n      jump\t// in\n    tag_22:\n      mload(0x40)\n      tag_26\n      swap2\n      swap1\n      tag_27\n      jump\t// in\n    tag_26:\n      mload(0x40)\n      dup1\n      swap2\n      sub\n      swap1\n      return\n        /* \"contracts/Twitter.sol\":2641:2992  function unlikeTweet(address author, uint256 id) external  onlyRegistered {... */\n    tag_5:\n      tag_28\n      0x04\n      dup1\n      calldatasize\n      sub\n      dup2\n      add\n      swap1\n      tag_29\n      swap2\n      swap1\n      tag_18\n      jump\t// in\n    tag_29:\n      tag_30\n      jump\t// in\n    tag_28:\n      stop\n        /* \"contracts/Twitter.sol\":1353:1472  function changeTweetLength(uint16 newTweetLength) public onlyOwner {... */\n    tag_6:\n      tag_31\n      0x04\n      dup1\n      calldatasize\n      sub\n      dup2\n      add\n      swap1\n      tag_32\n      swap2\n      swap1\n      tag_33\n      jump\t// in\n    tag_32:\n      tag_34\n      jump\t// in\n    tag_31:\n      stop\n        /* \"contracts/Twitter.sol\":2325:2633  function likeTweet(address author, uint256 id) external  onlyRegistered {  ... */\n    tag_7:\n      tag_35\n      0x04\n      dup1\n      calldatasize\n      sub\n      dup2\n      add\n      swap1\n      tag_36\n      swap2\n      swap1\n      tag_18\n      jump\t// in\n    tag_36:\n      tag_37\n      jump\t// in\n    tag_35:\n      stop\n        /* \"contracts/Twitter.sol\":376:412  uint16 public MAX_TWEET_LENGTH = 280 */\n    tag_8:\n      tag_38\n      tag_39\n      jump\t// in\n    tag_38:\n      mload(0x40)\n      tag_40\n      swap2\n      swap1\n      tag_41\n      jump\t// in\n    tag_40:\n      mload(0x40)\n      dup1\n      swap2\n      sub\n      swap1\n      return\n        /* \"@openzeppelin/contracts/access/Ownable.sol\":1824:1925  function renounceOwnership() public virtual onlyOwner {... */\n    tag_9:\n      tag_42\n      tag_43\n      jump\t// in\n    tag_42:\n      stop\n        /* \"contracts/Twitter.sol\":1746:2317  function createTweet(string memory _tweet) public  onlyRegistered {... */\n    tag_10:\n      tag_44\n      0x04\n      dup1\n      calldatasize\n      sub\n      dup2\n      add\n      swap1\n      tag_45\n      swap2\n      swap1\n      tag_46\n      jump\t// in\n    tag_45:\n      tag_47\n      jump\t// in\n    tag_44:\n      stop\n        /* \"contracts/Twitter.sol\":1480:1738  function getTotalLikes(address _author) external view returns(uint) {... */\n    tag_11:\n      tag_48\n      0x04\n      dup1\n      calldatasize\n      sub\n      dup2\n      add\n      swap1\n      tag_49\n      swap2\n      swap1\n      tag_24\n      jump\t// in\n    tag_49:\n      tag_50\n      jump\t// in\n    tag_48:\n      mload(0x40)\n      tag_51\n      swap2\n      swap1\n      tag_52\n      jump\t// in\n    tag_51:\n      mload(0x40)\n      dup1\n      swap2\n      sub\n      swap1\n      return\n        /* \"@openzeppelin/contracts/access/Ownable.sol\":1201:1286  function owner() public view virtual returns (address) {... */\n    tag_12:\n      tag_53\n      tag_54\n      jump\t// in\n    tag_53:\n      mload(0x40)\n      tag_55\n      swap2\n      swap1\n      tag_56\n      jump\t// in\n    tag_55:\n      mload(0x40)\n      dup1\n      swap2\n      sub\n      swap1\n      return\n        /* \"contracts/Twitter.sol\":3000:3111  function getTweet( uint _i) public view returns (Tweet memory) {... */\n    tag_13:\n      tag_57\n      0x04\n      dup1\n      calldatasize\n      sub\n      dup2\n      add\n      swap1\n      tag_58\n      swap2\n      swap1\n      tag_59\n      jump\t// in\n    tag_58:\n      tag_60\n      jump\t// in\n    tag_57:\n      mload(0x40)\n      tag_61\n      swap2\n      swap1\n      tag_62\n      jump\t// in\n    tag_61:\n      mload(0x40)\n      dup1\n      swap2\n      sub\n      swap1\n      return\n        /* \"@openzeppelin/contracts/access/Ownable.sol\":2074:2272  function transferOwnership(address newOwner) public virtual onlyOwner {... */\n    tag_14:\n      tag_63\n      0x04\n      dup1\n      calldatasize\n      sub\n      dup2\n      add\n      swap1\n      tag_64\n      swap2\n      swap1\n      tag_24\n      jump\t// in\n    tag_64:\n      tag_65\n      jump\t// in\n    tag_63:\n      stop\n        /* \"contracts/Twitter.sol\":571:613  mapping(address => Tweet[] ) public tweets */\n    tag_19:\n      mstore(0x20, 0x01)\n      dup2\n      0x00\n      mstore\n      keccak256(0x00, 0x40)\n      dup2\n      dup2\n      sload\n      dup2\n      lt\n      tag_66\n      jumpi\n      0x00\n      dup1\n      revert\n    tag_66:\n      swap1\n      0x00\n      mstore\n      keccak256(0x00, 0x20)\n      swap1\n      0x05\n      mul\n      add\n      0x00\n      swap2\n      pop\n      swap2\n      pop\n      pop\n      dup1\n      0x00\n      add\n      sload\n      swap1\n      dup1\n      0x01\n      add\n      0x00\n      swap1\n      sload\n      swap1\n      0x0100\n      exp\n      swap1\n      div\n      0xffffffffffffffffffffffffffffffffffffffff\n      and\n      swap1\n      dup1\n      0x02\n      add\n      dup1\n      sload\n      tag_68\n      swap1\n      tag_69\n      jump\t// in\n    tag_68:\n      dup1\n      0x1f\n      add\n      0x20\n      dup1\n      swap2\n      div\n      mul\n      0x20\n      add\n      mload(0x40)\n      swap1\n      dup2\n      add\n      0x40\n      mstore\n      dup1\n      swap3\n      swap2\n      swap1\n      dup2\n      dup2\n      mstore\n      0x20\n      add\n      dup3\n      dup1\n      sload\n      tag_70\n      swap1\n      tag_69\n      jump\t// in\n    tag_70:\n      dup1\n      iszero\n      tag_71\n      jumpi\n      dup1\n      0x1f\n      lt\n      tag_72\n      jumpi\n      0x0100\n      dup1\n      dup4\n      sload\n      div\n      mul\n      dup4\n      mstore\n      swap2\n      0x20\n      add\n      swap2\n      jump(tag_71)\n    tag_72:\n      dup3\n      add\n      swap2\n      swap1\n      0x00\n      mstore\n      keccak256(0x00, 0x20)\n      swap1\n    tag_73:\n      dup2\n      sload\n      dup2\n      mstore\n      swap1\n      0x01\n      add\n      swap1\n      0x20\n      add\n      dup1\n      dup4\n      gt\n      tag_73\n      jumpi\n      dup3\n      swap1\n      sub\n      0x1f\n      and\n      dup3\n      add\n      swap2\n    tag_71:\n      pop\n      pop\n      pop\n      pop\n      pop\n      swap1\n      dup1\n      0x03\n      add\n      sload\n      swap1\n      dup1\n      0x04\n      add\n      sload\n      swap1\n      pop\n      dup6\n      jump\t// out\n        /* \"contracts/Twitter.sol\":3119:3234  function getAllTweets(address _owner) public view returns (Tweet[] memory ){... */\n    tag_25:\n        /* \"contracts/Twitter.sol\":3178:3192  Tweet[] memory */\n      0x60\n        /* \"contracts/Twitter.sol\":3212:3218  tweets */\n      0x01\n        /* \"contracts/Twitter.sol\":3212:3226  tweets[_owner] */\n      0x00\n        /* \"contracts/Twitter.sol\":3219:3225  _owner */\n      dup4\n        /* \"contracts/Twitter.sol\":3212:3226  tweets[_owner] */\n      0xffffffffffffffffffffffffffffffffffffffff\n      and\n      0xffffffffffffffffffffffffffffffffffffffff\n      and\n      dup2\n      mstore\n      0x20\n      add\n      swap1\n      dup2\n      mstore\n      0x20\n      add\n      0x00\n      keccak256\n        /* \"contracts/Twitter.sol\":3205:3226  return tweets[_owner] */\n      dup1\n      sload\n      dup1\n      0x20\n      mul\n      0x20\n      add\n      mload(0x40)\n      swap1\n      dup2\n      add\n      0x40\n      mstore\n      dup1\n      swap3\n      swap2\n      swap1\n      dup2\n      dup2\n      mstore\n      0x20\n      add\n      0x00\n      swap1\n    tag_75:\n      dup3\n      dup3\n      lt\n      iszero\n      tag_76\n      jumpi\n      dup4\n      dup3\n      swap1\n      0x00\n      mstore\n      keccak256(0x00, 0x20)\n      swap1\n      0x05\n      mul\n      add\n      mload(0x40)\n      dup1\n      0xa0\n      add\n      0x40\n      mstore\n      swap1\n      dup2\n      0x00\n      dup3\n      add\n      sload\n      dup2\n      mstore\n      0x20\n      add\n      0x01\n      dup3\n      add\n      0x00\n      swap1\n      sload\n      swap1\n      0x0100\n      exp\n      swap1\n      div\n      0xffffffffffffffffffffffffffffffffffffffff\n      and\n      0xffffffffffffffffffffffffffffffffffffffff\n      and\n      0xffffffffffffffffffffffffffffffffffffffff\n      and\n      dup2\n      mstore\n      0x20\n      add\n      0x02\n      dup3\n      add\n      dup1\n      sload\n      tag_78\n      swap1\n      tag_69\n      jump\t// in\n    tag_78:\n      dup1\n      0x1f\n      add\n      0x20\n      dup1\n      swap2\n      div\n      mul\n      0x20\n      add\n      mload(0x40)\n      swap1\n      dup2\n      add\n      0x40\n      mstore\n      dup1\n      swap3\n      swap2\n      swap1\n      dup2\n      dup2\n      mstore\n      0x20\n      add\n      dup3\n      dup1\n      sload\n      tag_79\n      swap1\n      tag_69\n      jump\t// in\n    tag_79:\n      dup1\n      iszero\n      tag_80\n      jumpi\n      dup1\n      0x1f\n      lt\n      tag_81\n      jumpi\n      0x0100\n      dup1\n      dup4\n      sload\n      div\n      mul\n      dup4\n      mstore\n      swap2\n      0x20\n      add\n      swap2\n      jump(tag_80)\n    tag_81:\n      dup3\n      add\n      swap2\n      swap1\n      0x00\n      mstore\n      keccak256(0x00, 0x20)\n      swap1\n    tag_82:\n      dup2\n      sload\n      dup2\n      mstore\n      swap1\n      0x01\n      add\n      swap1\n      0x20\n      add\n      dup1\n      dup4\n      gt\n      tag_82\n      jumpi\n      dup3\n      swap1\n      sub\n      0x1f\n      and\n      dup3\n      add\n      swap2\n    tag_80:\n      pop\n      pop\n      pop\n      pop\n      pop\n      dup2\n      mstore\n      0x20\n      add\n      0x03\n      dup3\n      add\n      sload\n      dup2\n      mstore\n      0x20\n      add\n      0x04\n      dup3\n      add\n      sload\n      dup2\n      mstore\n      pop\n      pop\n      dup2\n      mstore\n      0x20\n      add\n      swap1\n      0x01\n      add\n      swap1\n      jump(tag_75)\n    tag_76:\n      pop\n      pop\n      pop\n      pop\n      swap1\n      pop\n        /* \"contracts/Twitter.sol\":3119:3234  function getAllTweets(address _owner) public view returns (Tweet[] memory ){... */\n      swap2\n      swap1\n      pop\n      jump\t// out\n        /* \"contracts/Twitter.sol\":2641:2992  function unlikeTweet(address author, uint256 id) external  onlyRegistered {... */\n    tag_30:\n        /* \"contracts/Twitter.sol\":1044:1087  IProfile.UserProfile memory userProfileTemp */\n      0x00\n        /* \"contracts/Twitter.sol\":1090:1105  profileContract */\n      0x02\n      0x00\n      swap1\n      sload\n      swap1\n      0x0100\n      exp\n      swap1\n      div\n      0xffffffffffffffffffffffffffffffffffffffff\n      and\n        /* \"contracts/Twitter.sol\":1090:1116  profileContract.getProfile */\n      0xffffffffffffffffffffffffffffffffffffffff\n      and\n      0x0f53a470\n        /* \"contracts/Twitter.sol\":1117:1127  msg.sender */\n      caller\n        /* \"contracts/Twitter.sol\":1090:1128  profileContract.getProfile(msg.sender) */\n      mload(0x40)\n      dup3\n      0xffffffff\n      and\n      0xe0\n      shl\n      dup2\n      mstore\n      0x04\n      add\n      tag_84\n      swap2\n      swap1\n      tag_56\n      jump\t// in\n    tag_84:\n      0x00\n      mload(0x40)\n      dup1\n      dup4\n      sub\n      dup2\n      dup7\n      gas\n      staticcall\n      iszero\n      dup1\n      iszero\n      tag_86\n      jumpi\n      returndatasize\n      0x00\n      dup1\n      returndatacopy\n      revert(0x00, returndatasize)\n    tag_86:\n      pop\n      pop\n      pop\n      pop\n      mload(0x40)\n      returndatasize\n      0x00\n      dup3\n      returndatacopy\n      returndatasize\n      not(0x1f)\n      0x1f\n      dup3\n      add\n      and\n      dup3\n      add\n      dup1\n      0x40\n      mstore\n      pop\n      dup2\n      add\n      swap1\n      tag_87\n      swap2\n      swap1\n      tag_88\n      jump\t// in\n    tag_87:\n        /* \"contracts/Twitter.sol\":1044:1128  IProfile.UserProfile memory userProfileTemp = profileContract.getProfile(msg.sender) */\n      swap1\n      pop\n        /* \"contracts/Twitter.sol\":1191:1192  0 */\n      0x00\n        /* \"contracts/Twitter.sol\":1153:1168  userProfileTemp */\n      dup2\n        /* \"contracts/Twitter.sol\":1153:1180  userProfileTemp.displayName */\n      0x00\n      add\n      mload\n        /* \"contracts/Twitter.sol\":1147:1188  bytes(userProfileTemp.displayName).length */\n      mload\n        /* \"contracts/Twitter.sol\":1147:1192  bytes(userProfileTemp.displayName).length > 0 */\n      gt\n        /* \"contracts/Twitter.sol\":1139:1216  require(bytes(userProfileTemp.displayName).length > 0, \"USER NOT REGISTERED\") */\n      tag_89\n      jumpi\n      mload(0x40)\n      0x08c379a000000000000000000000000000000000000000000000000000000000\n      dup2\n      mstore\n      0x04\n      add\n      tag_90\n      swap1\n      tag_91\n      jump\t// in\n    tag_90:\n      mload(0x40)\n      dup1\n      swap2\n      sub\n      swap1\n      revert\n    tag_89:\n        /* \"contracts/Twitter.sol\":2759:2761  id */\n      dup2\n        /* \"contracts/Twitter.sol\":2734:2740  tweets */\n      0x01\n        /* \"contracts/Twitter.sol\":2734:2748  tweets[author] */\n      0x00\n        /* \"contracts/Twitter.sol\":2741:2747  author */\n      dup6\n        /* \"contracts/Twitter.sol\":2734:2748  tweets[author] */\n      0xffffffffffffffffffffffffffffffffffffffff\n      and\n      0xffffffffffffffffffffffffffffffffffffffff\n      and\n      dup2\n      mstore\n      0x20\n      add\n      swap1\n      dup2\n      mstore\n      0x20\n      add\n      0x00\n      keccak256\n        /* \"contracts/Twitter.sol\":2749:2751  id */\n      dup4\n        /* \"contracts/Twitter.sol\":2734:2752  tweets[author][id] */\n      dup2\n      sload\n      dup2\n      lt\n      tag_93\n      jumpi\n      tag_94\n      tag_95\n      jump\t// in\n    tag_94:\n    tag_93:\n      swap1\n      0x00\n      mstore\n      keccak256(0x00, 0x20)\n      swap1\n      0x05\n      mul\n      add\n        /* \"contracts/Twitter.sol\":2734:2755  tweets[author][id].id */\n      0x00\n      add\n      sload\n        /* \"contracts/Twitter.sol\":2734:2761  tweets[author][id].id == id */\n      eq\n        /* \"contracts/Twitter.sol\":2726:2786  require(tweets[author][id].id == id, \"TWEET DOES NOT EXIST\") */\n      tag_97\n      jumpi\n      mload(0x40)\n      0x08c379a000000000000000000000000000000000000000000000000000000000\n      dup2\n      mstore\n      0x04\n      add\n      tag_98\n      swap1\n      tag_99\n      jump\t// in\n    tag_98:\n      mload(0x40)\n      dup1\n      swap2\n      sub\n      swap1\n      revert\n    tag_97:\n        /* \"contracts/Twitter.sol\":2832:2833  0 */\n      0x00\n        /* \"contracts/Twitter.sol\":2805:2811  tweets */\n      0x01\n        /* \"contracts/Twitter.sol\":2805:2819  tweets[author] */\n      0x00\n        /* \"contracts/Twitter.sol\":2812:2818  author */\n      dup6\n        /* \"contracts/Twitter.sol\":2805:2819  tweets[author] */\n      0xffffffffffffffffffffffffffffffffffffffff\n      and\n      0xffffffffffffffffffffffffffffffffffffffff\n      and\n      dup2\n      mstore\n      0x20\n      add\n      swap1\n      dup2\n      mstore\n      0x20\n      add\n      0x00\n      keccak256\n        /* \"contracts/Twitter.sol\":2820:2822  id */\n      dup4\n        /* \"contracts/Twitter.sol\":2805:2823  tweets[author][id] */\n      dup2\n      sload\n      dup2\n      lt\n      tag_100\n      jumpi\n      tag_101\n      tag_95\n      jump\t// in\n    tag_101:\n    tag_100:\n      swap1\n      0x00\n      mstore\n      keccak256(0x00, 0x20)\n      swap1\n      0x05\n      mul\n      add\n        /* \"contracts/Twitter.sol\":2805:2829  tweets[author][id].likes */\n      0x04\n      add\n      sload\n        /* \"contracts/Twitter.sol\":2805:2833  tweets[author][id].likes > 0 */\n      gt\n        /* \"contracts/Twitter.sol\":2797:2856  require(tweets[author][id].likes > 0, \"TWEET HAS NO LIKES\") */\n      tag_103\n      jumpi\n      mload(0x40)\n      0x08c379a000000000000000000000000000000000000000000000000000000000\n      dup2\n      mstore\n      0x04\n      add\n      tag_104\n      swap1\n      tag_105\n      jump\t// in\n    tag_104:\n      mload(0x40)\n      dup1\n      swap2\n      sub\n      swap1\n      revert\n    tag_103:\n        /* \"contracts/Twitter.sol\":2877:2883  tweets */\n      0x01\n        /* \"contracts/Twitter.sol\":2877:2891  tweets[author] */\n      0x00\n        /* \"contracts/Twitter.sol\":2884:2890  author */\n      dup5\n        /* \"contracts/Twitter.sol\":2877:2891  tweets[author] */\n      0xffffffffffffffffffffffffffffffffffffffff\n      and\n      0xffffffffffffffffffffffffffffffffffffffff\n      and\n      dup2\n      mstore\n      0x20\n      add\n      swap1\n      dup2\n      mstore\n      0x20\n      add\n      0x00\n      keccak256\n        /* \"contracts/Twitter.sol\":2892:2894  id */\n      dup3\n        /* \"contracts/Twitter.sol\":2877:2895  tweets[author][id] */\n      dup2\n      sload\n      dup2\n      lt\n      tag_106\n      jumpi\n      tag_107\n      tag_95\n      jump\t// in\n    tag_107:\n    tag_106:\n      swap1\n      0x00\n      mstore\n      keccak256(0x00, 0x20)\n      swap1\n      0x05\n      mul\n      add\n        /* \"contracts/Twitter.sol\":2877:2901  tweets[author][id].likes */\n      0x04\n      add\n      0x00\n        /* \"contracts/Twitter.sol\":2877:2903  tweets[author][id].likes-- */\n      dup2\n      sload\n      dup1\n      swap3\n      swap2\n      swap1\n      tag_109\n      swap1\n      tag_110\n      jump\t// in\n    tag_109:\n      swap2\n      swap1\n      pop\n      sstore\n      pop\n        /* \"contracts/Twitter.sol\":2921:2984  TweetUnliked(msg.sender, author, id, tweets[author][id].likes ) */\n      0x762c2616349603ac16eba0de8e6141b79129a07ab63bd99e0a80b3a471716943\n        /* \"contracts/Twitter.sol\":2934:2944  msg.sender */\n      caller\n        /* \"contracts/Twitter.sol\":2946:2952  author */\n      dup5\n        /* \"contracts/Twitter.sol\":2954:2956  id */\n      dup5\n        /* \"contracts/Twitter.sol\":2958:2964  tweets */\n      0x01\n        /* \"contracts/Twitter.sol\":2958:2972  tweets[author] */\n      0x00\n        /* \"contracts/Twitter.sol\":2965:2971  author */\n      dup9\n        /* \"contracts/Twitter.sol\":2958:2972  tweets[author] */\n      0xffffffffffffffffffffffffffffffffffffffff\n      and\n      0xffffffffffffffffffffffffffffffffffffffff\n      and\n      dup2\n      mstore\n      0x20\n      add\n      swap1\n      dup2\n      mstore\n      0x20\n      add\n      0x00\n      keccak256\n        /* \"contracts/Twitter.sol\":2973:2975  id */\n      dup7\n        /* \"contracts/Twitter.sol\":2958:2976  tweets[author][id] */\n      dup2\n      sload\n      dup2\n      lt\n      tag_111\n      jumpi\n      tag_112\n      tag_95\n      jump\t// in\n    tag_112:\n    tag_111:\n      swap1\n      0x00\n      mstore\n      keccak256(0x00, 0x20)\n      swap1\n      0x05\n      mul\n      add\n        /* \"contracts/Twitter.sol\":2958:2982  tweets[author][id].likes */\n      0x04\n      add\n      sload\n        /* \"contracts/Twitter.sol\":2921:2984  TweetUnliked(msg.sender, author, id, tweets[author][id].likes ) */\n      mload(0x40)\n      tag_114\n      swap5\n      swap4\n      swap3\n      swap2\n      swap1\n      tag_115\n      jump\t// in\n    tag_114:\n      mload(0x40)\n      dup1\n      swap2\n      sub\n      swap1\n      log1\n        /* \"contracts/Twitter.sol\":1033:1236  {... */\n      pop\n        /* \"contracts/Twitter.sol\":2641:2992  function unlikeTweet(address author, uint256 id) external  onlyRegistered {... */\n      pop\n      pop\n      jump\t// out\n        /* \"contracts/Twitter.sol\":1353:1472  function changeTweetLength(uint16 newTweetLength) public onlyOwner {... */\n    tag_34:\n        /* \"@openzeppelin/contracts/access/Ownable.sol\":1094:1107  _checkOwner() */\n      tag_117\n        /* \"@openzeppelin/contracts/access/Ownable.sol\":1094:1105  _checkOwner */\n      tag_118\n        /* \"@openzeppelin/contracts/access/Ownable.sol\":1094:1107  _checkOwner() */\n      jump\t// in\n    tag_117:\n        /* \"contracts/Twitter.sol\":1450:1464  newTweetLength */\n      dup1\n        /* \"contracts/Twitter.sol\":1431:1447  MAX_TWEET_LENGTH */\n      0x00\n      0x14\n        /* \"contracts/Twitter.sol\":1431:1464  MAX_TWEET_LENGTH = newTweetLength */\n      0x0100\n      exp\n      dup2\n      sload\n      dup2\n      0xffff\n      mul\n      not\n      and\n      swap1\n      dup4\n      0xffff\n      and\n      mul\n      or\n      swap1\n      sstore\n      pop\n        /* \"contracts/Twitter.sol\":1353:1472  function changeTweetLength(uint16 newTweetLength) public onlyOwner {... */\n      pop\n      jump\t// out\n        /* \"contracts/Twitter.sol\":2325:2633  function likeTweet(address author, uint256 id) external  onlyRegistered {  ... */\n    tag_37:\n        /* \"contracts/Twitter.sol\":1044:1087  IProfile.UserProfile memory userProfileTemp */\n      0x00\n        /* \"contracts/Twitter.sol\":1090:1105  profileContract */\n      0x02\n      0x00\n      swap1\n      sload\n      swap1\n      0x0100\n      exp\n      swap1\n      div\n      0xffffffffffffffffffffffffffffffffffffffff\n      and\n        /* \"contracts/Twitter.sol\":1090:1116  profileContract.getProfile */\n      0xffffffffffffffffffffffffffffffffffffffff\n      and\n      0x0f53a470\n        /* \"contracts/Twitter.sol\":1117:1127  msg.sender */\n      caller\n        /* \"contracts/Twitter.sol\":1090:1128  profileContract.getProfile(msg.sender) */\n      mload(0x40)\n      dup3\n      0xffffffff\n      and\n      0xe0\n      shl\n      dup2\n      mstore\n      0x04\n      add\n      tag_121\n      swap2\n      swap1\n      tag_56\n      jump\t// in\n    tag_121:\n      0x00\n      mload(0x40)\n      dup1\n      dup4\n      sub\n      dup2\n      dup7\n      gas\n      staticcall\n      iszero\n      dup1\n      iszero\n      tag_123\n      jumpi\n      returndatasize\n      0x00\n      dup1\n      returndatacopy\n      revert(0x00, returndatasize)\n    tag_123:\n      pop\n      pop\n      pop\n      pop\n      mload(0x40)\n      returndatasize\n      0x00\n      dup3\n      returndatacopy\n      returndatasize\n      not(0x1f)\n      0x1f\n      dup3\n      add\n      and\n      dup3\n      add\n      dup1\n      0x40\n      mstore\n      pop\n      dup2\n      add\n      swap1\n      tag_124\n      swap2\n      swap1\n      tag_88\n      jump\t// in\n    tag_124:\n        /* \"contracts/Twitter.sol\":1044:1128  IProfile.UserProfile memory userProfileTemp = profileContract.getProfile(msg.sender) */\n      swap1\n      pop\n        /* \"contracts/Twitter.sol\":1191:1192  0 */\n      0x00\n        /* \"contracts/Twitter.sol\":1153:1168  userProfileTemp */\n      dup2\n        /* \"contracts/Twitter.sol\":1153:1180  userProfileTemp.displayName */\n      0x00\n      add\n      mload\n        /* \"contracts/Twitter.sol\":1147:1188  bytes(userProfileTemp.displayName).length */\n      mload\n        /* \"contracts/Twitter.sol\":1147:1192  bytes(userProfileTemp.displayName).length > 0 */\n      gt\n        /* \"contracts/Twitter.sol\":1139:1216  require(bytes(userProfileTemp.displayName).length > 0, \"USER NOT REGISTERED\") */\n      tag_125\n      jumpi\n      mload(0x40)\n      0x08c379a000000000000000000000000000000000000000000000000000000000\n      dup2\n      mstore\n      0x04\n      add\n      tag_126\n      swap1\n      tag_91\n      jump\t// in\n    tag_126:\n      mload(0x40)\n      dup1\n      swap2\n      sub\n      swap1\n      revert\n    tag_125:\n        /* \"contracts/Twitter.sol\":2443:2445  id */\n      dup2\n        /* \"contracts/Twitter.sol\":2418:2424  tweets */\n      0x01\n        /* \"contracts/Twitter.sol\":2418:2432  tweets[author] */\n      0x00\n        /* \"contracts/Twitter.sol\":2425:2431  author */\n      dup6\n        /* \"contracts/Twitter.sol\":2418:2432  tweets[author] */\n      0xffffffffffffffffffffffffffffffffffffffff\n      and\n      0xffffffffffffffffffffffffffffffffffffffff\n      and\n      dup2\n      mstore\n      0x20\n      add\n      swap1\n      dup2\n      mstore\n      0x20\n      add\n      0x00\n      keccak256\n        /* \"contracts/Twitter.sol\":2433:2435  id */\n      dup4\n        /* \"contracts/Twitter.sol\":2418:2436  tweets[author][id] */\n      dup2\n      sload\n      dup2\n      lt\n      tag_128\n      jumpi\n      tag_129\n      tag_95\n      jump\t// in\n    tag_129:\n    tag_128:\n      swap1\n      0x00\n      mstore\n      keccak256(0x00, 0x20)\n      swap1\n      0x05\n      mul\n      add\n        /* \"contracts/Twitter.sol\":2418:2439  tweets[author][id].id */\n      0x00\n      add\n      sload\n        /* \"contracts/Twitter.sol\":2418:2445  tweets[author][id].id == id */\n      eq\n        /* \"contracts/Twitter.sol\":2410:2470  require(tweets[author][id].id == id, \"TWEET DOES NOT EXIST\") */\n      tag_131\n      jumpi\n      mload(0x40)\n      0x08c379a000000000000000000000000000000000000000000000000000000000\n      dup2\n      mstore\n      0x04\n      add\n      tag_132\n      swap1\n      tag_99\n      jump\t// in\n    tag_132:\n      mload(0x40)\n      dup1\n      swap2\n      sub\n      swap1\n      revert\n    tag_131:\n        /* \"contracts/Twitter.sol\":2483:2489  tweets */\n      0x01\n        /* \"contracts/Twitter.sol\":2483:2497  tweets[author] */\n      0x00\n        /* \"contracts/Twitter.sol\":2490:2496  author */\n      dup5\n        /* \"contracts/Twitter.sol\":2483:2497  tweets[author] */\n      0xffffffffffffffffffffffffffffffffffffffff\n      and\n      0xffffffffffffffffffffffffffffffffffffffff\n      and\n      dup2\n      mstore\n      0x20\n      add\n      swap1\n      dup2\n      mstore\n      0x20\n      add\n      0x00\n      keccak256\n        /* \"contracts/Twitter.sol\":2498:2500  id */\n      dup3\n        /* \"contracts/Twitter.sol\":2483:2501  tweets[author][id] */\n      dup2\n      sload\n      dup2\n      lt\n      tag_133\n      jumpi\n      tag_134\n      tag_95\n      jump\t// in\n    tag_134:\n    tag_133:\n      swap1\n      0x00\n      mstore\n      keccak256(0x00, 0x20)\n      swap1\n      0x05\n      mul\n      add\n        /* \"contracts/Twitter.sol\":2483:2507  tweets[author][id].likes */\n      0x04\n      add\n      0x00\n        /* \"contracts/Twitter.sol\":2483:2509  tweets[author][id].likes++ */\n      dup2\n      sload\n      dup1\n      swap3\n      swap2\n      swap1\n      tag_136\n      swap1\n      tag_137\n      jump\t// in\n    tag_136:\n      swap2\n      swap1\n      pop\n      sstore\n      pop\n        /* \"contracts/Twitter.sol\":2565:2625  TweetLiked(msg.sender, author, id, tweets[author][id].likes) */\n      0xe8a76fc0f16d11a00d1e93b689b63d76cf60af914dd3d915375dc41d01a0c3c8\n        /* \"contracts/Twitter.sol\":2576:2586  msg.sender */\n      caller\n        /* \"contracts/Twitter.sol\":2588:2594  author */\n      dup5\n        /* \"contracts/Twitter.sol\":2596:2598  id */\n      dup5\n        /* \"contracts/Twitter.sol\":2600:2606  tweets */\n      0x01\n        /* \"contracts/Twitter.sol\":2600:2614  tweets[author] */\n      0x00\n        /* \"contracts/Twitter.sol\":2607:2613  author */\n      dup9\n        /* \"contracts/Twitter.sol\":2600:2614  tweets[author] */\n      0xffffffffffffffffffffffffffffffffffffffff\n      and\n      0xffffffffffffffffffffffffffffffffffffffff\n      and\n      dup2\n      mstore\n      0x20\n      add\n      swap1\n      dup2\n      mstore\n      0x20\n      add\n      0x00\n      keccak256\n        /* \"contracts/Twitter.sol\":2615:2617  id */\n      dup7\n        /* \"contracts/Twitter.sol\":2600:2618  tweets[author][id] */\n      dup2\n      sload\n      dup2\n      lt\n      tag_138\n      jumpi\n      tag_139\n      tag_95\n      jump\t// in\n    tag_139:\n    tag_138:\n      swap1\n      0x00\n      mstore\n      keccak256(0x00, 0x20)\n      swap1\n      0x05\n      mul\n      add\n        /* \"contracts/Twitter.sol\":2600:2624  tweets[author][id].likes */\n      0x04\n      add\n      sload\n        /* \"contracts/Twitter.sol\":2565:2625  TweetLiked(msg.sender, author, id, tweets[author][id].likes) */\n      mload(0x40)\n      tag_141\n      swap5\n      swap4\n      swap3\n      swap2\n      swap1\n      tag_115\n      jump\t// in\n    tag_141:\n      mload(0x40)\n      dup1\n      swap2\n      sub\n      swap1\n      log1\n        /* \"contracts/Twitter.sol\":1033:1236  {... */\n      pop\n        /* \"contracts/Twitter.sol\":2325:2633  function likeTweet(address author, uint256 id) external  onlyRegistered {  ... */\n      pop\n      pop\n      jump\t// out\n        /* \"contracts/Twitter.sol\":376:412  uint16 public MAX_TWEET_LENGTH = 280 */\n    tag_39:\n      0x00\n      0x14\n      swap1\n      sload\n      swap1\n      0x0100\n      exp\n      swap1\n      div\n      0xffff\n      and\n      dup2\n      jump\t// out\n        /* \"@openzeppelin/contracts/access/Ownable.sol\":1824:1925  function renounceOwnership() public virtual onlyOwner {... */\n    tag_43:\n        /* \"@openzeppelin/contracts/access/Ownable.sol\":1094:1107  _checkOwner() */\n      tag_143\n        /* \"@openzeppelin/contracts/access/Ownable.sol\":1094:1105  _checkOwner */\n      tag_118\n        /* \"@openzeppelin/contracts/access/Ownable.sol\":1094:1107  _checkOwner() */\n      jump\t// in\n    tag_143:\n        /* \"@openzeppelin/contracts/access/Ownable.sol\":1888:1918  _transferOwnership(address(0)) */\n      tag_145\n        /* \"@openzeppelin/contracts/access/Ownable.sol\":1915:1916  0 */\n      0x00\n        /* \"@openzeppelin/contracts/access/Ownable.sol\":1888:1906  _transferOwnership */\n      tag_146\n        /* \"@openzeppelin/contracts/access/Ownable.sol\":1888:1918  _transferOwnership(address(0)) */\n      jump\t// in\n    tag_145:\n        /* \"@openzeppelin/contracts/access/Ownable.sol\":1824:1925  function renounceOwnership() public virtual onlyOwner {... */\n      jump\t// out\n        /* \"contracts/Twitter.sol\":1746:2317  function createTweet(string memory _tweet) public  onlyRegistered {... */\n    tag_47:\n        /* \"contracts/Twitter.sol\":1044:1087  IProfile.UserProfile memory userProfileTemp */\n      0x00\n        /* \"contracts/Twitter.sol\":1090:1105  profileContract */\n      0x02\n      0x00\n      swap1\n      sload\n      swap1\n      0x0100\n      exp\n      swap1\n      div\n      0xffffffffffffffffffffffffffffffffffffffff\n      and\n        /* \"contracts/Twitter.sol\":1090:1116  profileContract.getProfile */\n      0xffffffffffffffffffffffffffffffffffffffff\n      and\n      0x0f53a470\n        /* \"contracts/Twitter.sol\":1117:1127  msg.sender */\n      caller\n        /* \"contracts/Twitter.sol\":1090:1128  profileContract.getProfile(msg.sender) */\n      mload(0x40)\n      dup3\n      0xffffffff\n      and\n      0xe0\n      shl\n      dup2\n      mstore\n      0x04\n      add\n      tag_148\n      swap2\n      swap1\n      tag_56\n      jump\t// in\n    tag_148:\n      0x00\n      mload(0x40)\n      dup1\n      dup4\n      sub\n      dup2\n      dup7\n      gas\n      staticcall\n      iszero\n      dup1\n      iszero\n      tag_150\n      jumpi\n      returndatasize\n      0x00\n      dup1\n      returndatacopy\n      revert(0x00, returndatasize)\n    tag_150:\n      pop\n      pop\n      pop\n      pop\n      mload(0x40)\n      returndatasize\n      0x00\n      dup3\n      returndatacopy\n      returndatasize\n      not(0x1f)\n      0x1f\n      dup3\n      add\n      and\n      dup3\n      add\n      dup1\n      0x40\n      mstore\n      pop\n      dup2\n      add\n      swap1\n      tag_151\n      swap2\n      swap1\n      tag_88\n      jump\t// in\n    tag_151:\n        /* \"contracts/Twitter.sol\":1044:1128  IProfile.UserProfile memory userProfileTemp = profileContract.getProfile(msg.sender) */\n      swap1\n      pop\n        /* \"contracts/Twitter.sol\":1191:1192  0 */\n      0x00\n        /* \"contracts/Twitter.sol\":1153:1168  userProfileTemp */\n      dup2\n        /* \"contracts/Twitter.sol\":1153:1180  userProfileTemp.displayName */\n      0x00\n      add\n      mload\n        /* \"contracts/Twitter.sol\":1147:1188  bytes(userProfileTemp.displayName).length */\n      mload\n        /* \"contracts/Twitter.sol\":1147:1192  bytes(userProfileTemp.displayName).length > 0 */\n      gt\n        /* \"contracts/Twitter.sol\":1139:1216  require(bytes(userProfileTemp.displayName).length > 0, \"USER NOT REGISTERED\") */\n      tag_152\n      jumpi\n      mload(0x40)\n      0x08c379a000000000000000000000000000000000000000000000000000000000\n      dup2\n      mstore\n      0x04\n      add\n      tag_153\n      swap1\n      tag_91\n      jump\t// in\n    tag_153:\n      mload(0x40)\n      dup1\n      swap2\n      sub\n      swap1\n      revert\n    tag_152:\n        /* \"contracts/Twitter.sol\":1855:1871  MAX_TWEET_LENGTH */\n      0x00\n      0x14\n      swap1\n      sload\n      swap1\n      0x0100\n      exp\n      swap1\n      div\n      0xffff\n      and\n        /* \"contracts/Twitter.sol\":1831:1871  bytes(_tweet).length <= MAX_TWEET_LENGTH */\n      0xffff\n      and\n        /* \"contracts/Twitter.sol\":1837:1843  _tweet */\n      dup3\n        /* \"contracts/Twitter.sol\":1831:1851  bytes(_tweet).length */\n      mload\n        /* \"contracts/Twitter.sol\":1831:1871  bytes(_tweet).length <= MAX_TWEET_LENGTH */\n      gt\n      iszero\n        /* \"contracts/Twitter.sol\":1823:1899  require(bytes(_tweet).length <= MAX_TWEET_LENGTH, \"Tweet is too long bro!\" ) */\n      tag_155\n      jumpi\n      mload(0x40)\n      0x08c379a000000000000000000000000000000000000000000000000000000000\n      dup2\n      mstore\n      0x04\n      add\n      tag_156\n      swap1\n      tag_157\n      jump\t// in\n    tag_156:\n      mload(0x40)\n      dup1\n      swap2\n      sub\n      swap1\n      revert\n    tag_155:\n        /* \"contracts/Twitter.sol\":1912:1933  Tweet memory newTweet */\n      0x00\n        /* \"contracts/Twitter.sol\":1936:2125  Tweet({... */\n      mload(0x40)\n      dup1\n      0xa0\n      add\n      0x40\n      mstore\n      dup1\n        /* \"contracts/Twitter.sol\":1961:1967  tweets */\n      0x01\n        /* \"contracts/Twitter.sol\":1961:1979  tweets[msg.sender] */\n      0x00\n        /* \"contracts/Twitter.sol\":1968:1978  msg.sender */\n      caller\n        /* \"contracts/Twitter.sol\":1961:1979  tweets[msg.sender] */\n      0xffffffffffffffffffffffffffffffffffffffff\n      and\n      0xffffffffffffffffffffffffffffffffffffffff\n      and\n      dup2\n      mstore\n      0x20\n      add\n      swap1\n      dup2\n      mstore\n      0x20\n      add\n      0x00\n      keccak256\n        /* \"contracts/Twitter.sol\":1961:1986  tweets[msg.sender].length */\n      dup1\n      sload\n      swap1\n      pop\n        /* \"contracts/Twitter.sol\":1936:2125  Tweet({... */\n      dup2\n      mstore\n      0x20\n      add\n        /* \"contracts/Twitter.sol\":2009:2019  msg.sender */\n      caller\n        /* \"contracts/Twitter.sol\":1936:2125  Tweet({... */\n      0xffffffffffffffffffffffffffffffffffffffff\n      and\n      dup2\n      mstore\n      0x20\n      add\n        /* \"contracts/Twitter.sol\":2043:2049  _tweet */\n      dup5\n        /* \"contracts/Twitter.sol\":1936:2125  Tweet({... */\n      dup2\n      mstore\n      0x20\n      add\n        /* \"contracts/Twitter.sol\":2075:2090  block.timestamp */\n      timestamp\n        /* \"contracts/Twitter.sol\":1936:2125  Tweet({... */\n      dup2\n      mstore\n      0x20\n      add\n        /* \"contracts/Twitter.sol\":2112:2113  0 */\n      0x00\n        /* \"contracts/Twitter.sol\":1936:2125  Tweet({... */\n      dup2\n      mstore\n      pop\n        /* \"contracts/Twitter.sol\":1912:2125  Tweet memory newTweet = Tweet({... */\n      swap1\n      pop\n        /* \"contracts/Twitter.sol\":2138:2144  tweets */\n      0x01\n        /* \"contracts/Twitter.sol\":2138:2156  tweets[msg.sender] */\n      0x00\n        /* \"contracts/Twitter.sol\":2145:2155  msg.sender */\n      caller\n        /* \"contracts/Twitter.sol\":2138:2156  tweets[msg.sender] */\n      0xffffffffffffffffffffffffffffffffffffffff\n      and\n      0xffffffffffffffffffffffffffffffffffffffff\n      and\n      dup2\n      mstore\n      0x20\n      add\n      swap1\n      dup2\n      mstore\n      0x20\n      add\n      0x00\n      keccak256\n        /* \"contracts/Twitter.sol\":2162:2170  newTweet */\n      dup2\n        /* \"contracts/Twitter.sol\":2138:2171  tweets[msg.sender].push(newTweet) */\n      swap1\n      dup1\n      0x01\n      dup2\n      sload\n      add\n      dup1\n      dup3\n      sstore\n      dup1\n      swap2\n      pop\n      pop\n      0x01\n      swap1\n      sub\n      swap1\n      0x00\n      mstore\n      keccak256(0x00, 0x20)\n      swap1\n      0x05\n      mul\n      add\n      0x00\n      swap1\n      swap2\n      swap1\n      swap2\n      swap1\n      swap2\n      pop\n      0x00\n      dup3\n      add\n      mload\n      dup2\n      0x00\n      add\n      sstore\n      0x20\n      dup3\n      add\n      mload\n      dup2\n      0x01\n      add\n      exp(0x0100, 0x00)\n      dup2\n      sload\n      dup2\n      0xffffffffffffffffffffffffffffffffffffffff\n      mul\n      not\n      and\n      swap1\n      dup4\n      0xffffffffffffffffffffffffffffffffffffffff\n      and\n      mul\n      or\n      swap1\n      sstore\n      pop\n      0x40\n      dup3\n      add\n      mload\n      dup2\n      0x02\n      add\n      swap1\n      dup2\n      tag_159\n      swap2\n      swap1\n      tag_160\n      jump\t// in\n    tag_159:\n      pop\n      0x60\n      dup3\n      add\n      mload\n      dup2\n      0x03\n      add\n      sstore\n      0x80\n      dup3\n      add\n      mload\n      dup2\n      0x04\n      add\n      sstore\n      pop\n      pop\n        /* \"contracts/Twitter.sol\":2229:2309  TweetCreated(newTweet.id, newTweet.author, newTweet.content, newTweet.timestamp) */\n      0x16fd3c13e9d46923e0a8bce11c7b473ec508a72e6c96cd2404b29ce972afc29e\n        /* \"contracts/Twitter.sol\":2242:2250  newTweet */\n      dup2\n        /* \"contracts/Twitter.sol\":2242:2253  newTweet.id */\n      0x00\n      add\n      mload\n        /* \"contracts/Twitter.sol\":2255:2263  newTweet */\n      dup3\n        /* \"contracts/Twitter.sol\":2255:2270  newTweet.author */\n      0x20\n      add\n      mload\n        /* \"contracts/Twitter.sol\":2272:2280  newTweet */\n      dup4\n        /* \"contracts/Twitter.sol\":2272:2288  newTweet.content */\n      0x40\n      add\n      mload\n        /* \"contracts/Twitter.sol\":2290:2298  newTweet */\n      dup5\n        /* \"contracts/Twitter.sol\":2290:2308  newTweet.timestamp */\n      0x60\n      add\n      mload\n        /* \"contracts/Twitter.sol\":2229:2309  TweetCreated(newTweet.id, newTweet.author, newTweet.content, newTweet.timestamp) */\n      mload(0x40)\n      tag_161\n      swap5\n      swap4\n      swap3\n      swap2\n      swap1\n      tag_162\n      jump\t// in\n    tag_161:\n      mload(0x40)\n      dup1\n      swap2\n      sub\n      swap1\n      log1\n        /* \"contracts/Twitter.sol\":1812:2317  {... */\n      pop\n        /* \"contracts/Twitter.sol\":1033:1236  {... */\n      pop\n        /* \"contracts/Twitter.sol\":1746:2317  function createTweet(string memory _tweet) public  onlyRegistered {... */\n      pop\n      jump\t// out\n        /* \"contracts/Twitter.sol\":1480:1738  function getTotalLikes(address _author) external view returns(uint) {... */\n    tag_50:\n        /* \"contracts/Twitter.sol\":1542:1546  uint */\n      0x00\n        /* \"contracts/Twitter.sol\":1559:1574  uint totalLikes */\n      dup1\n        /* \"contracts/Twitter.sol\":1592:1598  uint i */\n      0x00\n        /* \"contracts/Twitter.sol\":1587:1701  for( uint i = 0; i < tweets[_author].length; i++){... */\n    tag_164:\n        /* \"contracts/Twitter.sol\":1608:1614  tweets */\n      0x01\n        /* \"contracts/Twitter.sol\":1608:1623  tweets[_author] */\n      0x00\n        /* \"contracts/Twitter.sol\":1615:1622  _author */\n      dup6\n        /* \"contracts/Twitter.sol\":1608:1623  tweets[_author] */\n      0xffffffffffffffffffffffffffffffffffffffff\n      and\n      0xffffffffffffffffffffffffffffffffffffffff\n      and\n      dup2\n      mstore\n      0x20\n      add\n      swap1\n      dup2\n      mstore\n      0x20\n      add\n      0x00\n      keccak256\n        /* \"contracts/Twitter.sol\":1608:1630  tweets[_author].length */\n      dup1\n      sload\n      swap1\n      pop\n        /* \"contracts/Twitter.sol\":1604:1605  i */\n      dup2\n        /* \"contracts/Twitter.sol\":1604:1630  i < tweets[_author].length */\n      lt\n        /* \"contracts/Twitter.sol\":1587:1701  for( uint i = 0; i < tweets[_author].length; i++){... */\n      iszero\n      tag_165\n      jumpi\n        /* \"contracts/Twitter.sol\":1665:1671  tweets */\n      0x01\n        /* \"contracts/Twitter.sol\":1665:1680  tweets[_author] */\n      0x00\n        /* \"contracts/Twitter.sol\":1672:1679  _author */\n      dup6\n        /* \"contracts/Twitter.sol\":1665:1680  tweets[_author] */\n      0xffffffffffffffffffffffffffffffffffffffff\n      and\n      0xffffffffffffffffffffffffffffffffffffffff\n      and\n      dup2\n      mstore\n      0x20\n      add\n      swap1\n      dup2\n      mstore\n      0x20\n      add\n      0x00\n      keccak256\n        /* \"contracts/Twitter.sol\":1681:1682  i */\n      dup2\n        /* \"contracts/Twitter.sol\":1665:1683  tweets[_author][i] */\n      dup2\n      sload\n      dup2\n      lt\n      tag_167\n      jumpi\n      tag_168\n      tag_95\n      jump\t// in\n    tag_168:\n    tag_167:\n      swap1\n      0x00\n      mstore\n      keccak256(0x00, 0x20)\n      swap1\n      0x05\n      mul\n      add\n        /* \"contracts/Twitter.sol\":1665:1689  tweets[_author][i].likes */\n      0x04\n      add\n      sload\n        /* \"contracts/Twitter.sol\":1651:1689  totalLikes += tweets[_author][i].likes */\n      dup3\n      tag_170\n      swap2\n      swap1\n      tag_171\n      jump\t// in\n    tag_170:\n      swap2\n      pop\n        /* \"contracts/Twitter.sol\":1632:1635  i++ */\n      dup1\n      dup1\n      tag_172\n      swap1\n      tag_137\n      jump\t// in\n    tag_172:\n      swap2\n      pop\n      pop\n        /* \"contracts/Twitter.sol\":1587:1701  for( uint i = 0; i < tweets[_author].length; i++){... */\n      jump(tag_164)\n    tag_165:\n      pop\n        /* \"contracts/Twitter.sol\":1720:1730  totalLikes */\n      dup1\n        /* \"contracts/Twitter.sol\":1713:1730  return totalLikes */\n      swap2\n      pop\n      pop\n        /* \"contracts/Twitter.sol\":1480:1738  function getTotalLikes(address _author) external view returns(uint) {... */\n      swap2\n      swap1\n      pop\n      jump\t// out\n        /* \"@openzeppelin/contracts/access/Ownable.sol\":1201:1286  function owner() public view virtual returns (address) {... */\n    tag_54:\n        /* \"@openzeppelin/contracts/access/Ownable.sol\":1247:1254  address */\n      0x00\n        /* \"@openzeppelin/contracts/access/Ownable.sol\":1273:1279  _owner */\n      dup1\n      0x00\n      swap1\n      sload\n      swap1\n      0x0100\n      exp\n      swap1\n      div\n      0xffffffffffffffffffffffffffffffffffffffff\n      and\n        /* \"@openzeppelin/contracts/access/Ownable.sol\":1266:1279  return _owner */\n      swap1\n      pop\n        /* \"@openzeppelin/contracts/access/Ownable.sol\":1201:1286  function owner() public view virtual returns (address) {... */\n      swap1\n      jump\t// out\n        /* \"contracts/Twitter.sol\":3000:3111  function getTweet( uint _i) public view returns (Tweet memory) {... */\n    tag_60:\n        /* \"contracts/Twitter.sol\":3049:3061  Tweet memory */\n      tag_174\n      tag_175\n      jump\t// in\n    tag_174:\n        /* \"contracts/Twitter.sol\":3081:3087  tweets */\n      0x01\n        /* \"contracts/Twitter.sol\":3081:3099  tweets[msg.sender] */\n      0x00\n        /* \"contracts/Twitter.sol\":3088:3098  msg.sender */\n      caller\n        /* \"contracts/Twitter.sol\":3081:3099  tweets[msg.sender] */\n      0xffffffffffffffffffffffffffffffffffffffff\n      and\n      0xffffffffffffffffffffffffffffffffffffffff\n      and\n      dup2\n      mstore\n      0x20\n      add\n      swap1\n      dup2\n      mstore\n      0x20\n      add\n      0x00\n      keccak256\n        /* \"contracts/Twitter.sol\":3100:3102  _i */\n      dup3\n        /* \"contracts/Twitter.sol\":3081:3103  tweets[msg.sender][_i] */\n      dup2\n      sload\n      dup2\n      lt\n      tag_177\n      jumpi\n      tag_178\n      tag_95\n      jump\t// in\n    tag_178:\n    tag_177:\n      swap1\n      0x00\n      mstore\n      keccak256(0x00, 0x20)\n      swap1\n      0x05\n      mul\n      add\n        /* \"contracts/Twitter.sol\":3074:3103  return tweets[msg.sender][_i] */\n      mload(0x40)\n      dup1\n      0xa0\n      add\n      0x40\n      mstore\n      swap1\n      dup2\n      0x00\n      dup3\n      add\n      sload\n      dup2\n      mstore\n      0x20\n      add\n      0x01\n      dup3\n      add\n      0x00\n      swap1\n      sload\n      swap1\n      0x0100\n      exp\n      swap1\n      div\n      0xffffffffffffffffffffffffffffffffffffffff\n      and\n      0xffffffffffffffffffffffffffffffffffffffff\n      and\n      0xffffffffffffffffffffffffffffffffffffffff\n      and\n      dup2\n      mstore\n      0x20\n      add\n      0x02\n      dup3\n      add\n      dup1\n      sload\n      tag_180\n      swap1\n      tag_69\n      jump\t// in\n    tag_180:\n      dup1\n      0x1f\n      add\n      0x20\n      dup1\n      swap2\n      div\n      mul\n      0x20\n      add\n      mload(0x40)\n      swap1\n      dup2\n      add\n      0x40\n      mstore\n      dup1\n      swap3\n      swap2\n      swap1\n      dup2\n      dup2\n      mstore\n      0x20\n      add\n      dup3\n      dup1\n      sload\n      tag_181\n      swap1\n      tag_69\n      jump\t// in\n    tag_181:\n      dup1\n      iszero\n      tag_182\n      jumpi\n      dup1\n      0x1f\n      lt\n      tag_183\n      jumpi\n      0x0100\n      dup1\n      dup4\n      sload\n      div\n      mul\n      dup4\n      mstore\n      swap2\n      0x20\n      add\n      swap2\n      jump(tag_182)\n    tag_183:\n      dup3\n      add\n      swap2\n      swap1\n      0x00\n      mstore\n      keccak256(0x00, 0x20)\n      swap1\n    tag_184:\n      dup2\n      sload\n      dup2\n      mstore\n      swap1\n      0x01\n      add\n      swap1\n      0x20\n      add\n      dup1\n      dup4\n      gt\n      tag_184\n      jumpi\n      dup3\n      swap1\n      sub\n      0x1f\n      and\n      dup3\n      add\n      swap2\n    tag_182:\n      pop\n      pop\n      pop\n      pop\n      pop\n      dup2\n      mstore\n      0x20\n      add\n      0x03\n      dup3\n      add\n      sload\n      dup2\n      mstore\n      0x20\n      add\n      0x04\n      dup3\n      add\n      sload\n      dup2\n      mstore\n      pop\n      pop\n      swap1\n      pop\n        /* \"contracts/Twitter.sol\":3000:3111  function getTweet( uint _i) public view returns (Tweet memory) {... */\n      swap2\n      swap1\n      pop\n      jump\t// out\n        /* \"@openzeppelin/contracts/access/Ownable.sol\":2074:2272  function transferOwnership(address newOwner) public virtual onlyOwner {... */\n    tag_65:\n        /* \"@openzeppelin/contracts/access/Ownable.sol\":1094:1107  _checkOwner() */\n      tag_186\n        /* \"@openzeppelin/contracts/access/Ownable.sol\":1094:1105  _checkOwner */\n      tag_118\n        /* \"@openzeppelin/contracts/access/Ownable.sol\":1094:1107  _checkOwner() */\n      jump\t// in\n    tag_186:\n        /* \"@openzeppelin/contracts/access/Ownable.sol\":2182:2183  0 */\n      0x00\n        /* \"@openzeppelin/contracts/access/Ownable.sol\":2162:2184  newOwner != address(0) */\n      0xffffffffffffffffffffffffffffffffffffffff\n      and\n        /* \"@openzeppelin/contracts/access/Ownable.sol\":2162:2170  newOwner */\n      dup2\n        /* \"@openzeppelin/contracts/access/Ownable.sol\":2162:2184  newOwner != address(0) */\n      0xffffffffffffffffffffffffffffffffffffffff\n      and\n      sub\n        /* \"@openzeppelin/contracts/access/Ownable.sol\":2154:2227  require(newOwner != address(0), \"Ownable: new owner is the zero address\") */\n      tag_188\n      jumpi\n      mload(0x40)\n      0x08c379a000000000000000000000000000000000000000000000000000000000\n      dup2\n      mstore\n      0x04\n      add\n      tag_189\n      swap1\n      tag_190\n      jump\t// in\n    tag_189:\n      mload(0x40)\n      dup1\n      swap2\n      sub\n      swap1\n      revert\n    tag_188:\n        /* \"@openzeppelin/contracts/access/Ownable.sol\":2237:2265  _transferOwnership(newOwner) */\n      tag_191\n        /* \"@openzeppelin/contracts/access/Ownable.sol\":2256:2264  newOwner */\n      dup2\n        /* \"@openzeppelin/contracts/access/Ownable.sol\":2237:2255  _transferOwnership */\n      tag_146\n        /* \"@openzeppelin/contracts/access/Ownable.sol\":2237:2265  _transferOwnership(newOwner) */\n      jump\t// in\n    tag_191:\n        /* \"@openzeppelin/contracts/access/Ownable.sol\":2074:2272  function transferOwnership(address newOwner) public virtual onlyOwner {... */\n      pop\n      jump\t// out\n        /* \"@openzeppelin/contracts/access/Ownable.sol\":1359:1489  function _checkOwner() internal view virtual {... */\n    tag_118:\n        /* \"@openzeppelin/contracts/access/Ownable.sol\":1433:1445  _msgSender() */\n      tag_193\n        /* \"@openzeppelin/contracts/access/Ownable.sol\":1433:1443  _msgSender */\n      tag_194\n        /* \"@openzeppelin/contracts/access/Ownable.sol\":1433:1445  _msgSender() */\n      jump\t// in\n    tag_193:\n        /* \"@openzeppelin/contracts/access/Ownable.sol\":1422:1445  owner() == _msgSender() */\n      0xffffffffffffffffffffffffffffffffffffffff\n      and\n        /* \"@openzeppelin/contracts/access/Ownable.sol\":1422:1429  owner() */\n      tag_195\n        /* \"@openzeppelin/contracts/access/Ownable.sol\":1422:1427  owner */\n      tag_54\n        /* \"@openzeppelin/contracts/access/Ownable.sol\":1422:1429  owner() */\n      jump\t// in\n    tag_195:\n        /* \"@openzeppelin/contracts/access/Ownable.sol\":1422:1445  owner() == _msgSender() */\n      0xffffffffffffffffffffffffffffffffffffffff\n      and\n      eq\n        /* \"@openzeppelin/contracts/access/Ownable.sol\":1414:1482  require(owner() == _msgSender(), \"Ownable: caller is not the owner\") */\n      tag_196\n      jumpi\n      mload(0x40)\n      0x08c379a000000000000000000000000000000000000000000000000000000000\n      dup2\n      mstore\n      0x04\n      add\n      tag_197\n      swap1\n      tag_198\n      jump\t// in\n    tag_197:\n      mload(0x40)\n      dup1\n      swap2\n      sub\n      swap1\n      revert\n    tag_196:\n        /* \"@openzeppelin/contracts/access/Ownable.sol\":1359:1489  function _checkOwner() internal view virtual {... */\n      jump\t// out\n        /* \"@openzeppelin/contracts/access/Ownable.sol\":2426:2613  function _transferOwnership(address newOwner) internal virtual {... */\n    tag_146:\n        /* \"@openzeppelin/contracts/access/Ownable.sol\":2499:2515  address oldOwner */\n      0x00\n        /* \"@openzeppelin/contracts/access/Ownable.sol\":2518:2524  _owner */\n      dup1\n      0x00\n      swap1\n      sload\n      swap1\n      0x0100\n      exp\n      swap1\n      div\n      0xffffffffffffffffffffffffffffffffffffffff\n      and\n        /* \"@openzeppelin/contracts/access/Ownable.sol\":2499:2524  address oldOwner = _owner */\n      swap1\n      pop\n        /* \"@openzeppelin/contracts/access/Ownable.sol\":2543:2551  newOwner */\n      dup2\n        /* \"@openzeppelin/contracts/access/Ownable.sol\":2534:2540  _owner */\n      0x00\n      dup1\n        /* \"@openzeppelin/contracts/access/Ownable.sol\":2534:2551  _owner = newOwner */\n      0x0100\n      exp\n      dup2\n      sload\n      dup2\n      0xffffffffffffffffffffffffffffffffffffffff\n      mul\n      not\n      and\n      swap1\n      dup4\n      0xffffffffffffffffffffffffffffffffffffffff\n      and\n      mul\n      or\n      swap1\n      sstore\n      pop\n        /* \"@openzeppelin/contracts/access/Ownable.sol\":2597:2605  newOwner */\n      dup2\n        /* \"@openzeppelin/contracts/access/Ownable.sol\":2566:2606  OwnershipTransferred(oldOwner, newOwner) */\n      0xffffffffffffffffffffffffffffffffffffffff\n      and\n        /* \"@openzeppelin/contracts/access/Ownable.sol\":2587:2595  oldOwner */\n      dup2\n        /* \"@openzeppelin/contracts/access/Ownable.sol\":2566:2606  OwnershipTransferred(oldOwner, newOwner) */\n      0xffffffffffffffffffffffffffffffffffffffff\n      and\n      0x8be0079c531659141344cd1fd0a4f28419497f9722a3daafe3b4186f6b6457e0\n      mload(0x40)\n      mload(0x40)\n      dup1\n      swap2\n      sub\n      swap1\n      log3\n        /* \"@openzeppelin/contracts/access/Ownable.sol\":2489:2613  {... */\n      pop\n        /* \"@openzeppelin/contracts/access/Ownable.sol\":2426:2613  function _transferOwnership(address newOwner) internal virtual {... */\n      pop\n      jump\t// out\n        /* \"@openzeppelin/contracts/utils/Context.sol\":640:736  function _msgSender() internal view virtual returns (address) {... */\n    tag_194:\n        /* \"@openzeppelin/contracts/utils/Context.sol\":693:700  address */\n      0x00\n        /* \"@openzeppelin/contracts/utils/Context.sol\":719:729  msg.sender */\n      caller\n        /* \"@openzeppelin/contracts/utils/Context.sol\":712:729  return msg.sender */\n      swap1\n      pop\n        /* \"@openzeppelin/contracts/utils/Context.sol\":640:736  function _msgSender() internal view virtual returns (address) {... */\n      swap1\n      jump\t// out\n    tag_175:\n      mload(0x40)\n      dup1\n      0xa0\n      add\n      0x40\n      mstore\n      dup1\n      0x00\n      dup2\n      mstore\n      0x20\n      add\n      and(0xffffffffffffffffffffffffffffffffffffffff, 0x00)\n      dup2\n      mstore\n      0x20\n      add\n      0x60\n      dup2\n      mstore\n      0x20\n      add\n      0x00\n      dup2\n      mstore\n      0x20\n      add\n      0x00\n      dup2\n      mstore\n      pop\n      swap1\n      jump\t// out\n        /* \"#utility.yul\":7:82   */\n    tag_201:\n        /* \"#utility.yul\":40:46   */\n      0x00\n        /* \"#utility.yul\":73:75   */\n      0x40\n        /* \"#utility.yul\":67:76   */\n      mload\n        /* \"#utility.yul\":57:76   */\n      swap1\n      pop\n        /* \"#utility.yul\":7:82   */\n      swap1\n      jump\t// out\n        /* \"#utility.yul\":88:205   */\n    tag_202:\n        /* \"#utility.yul\":197:198   */\n      0x00\n        /* \"#utility.yul\":194:195   */\n      dup1\n        /* \"#utility.yul\":187:199   */\n      revert\n        /* \"#utility.yul\":211:328   */\n    tag_203:\n        /* \"#utility.yul\":320:321   */\n      0x00\n        /* \"#utility.yul\":317:318   */\n      dup1\n        /* \"#utility.yul\":310:322   */\n      revert\n        /* \"#utility.yul\":334:460   */\n    tag_204:\n        /* \"#utility.yul\":371:378   */\n      0x00\n        /* \"#utility.yul\":411:453   */\n      0xffffffffffffffffffffffffffffffffffffffff\n        /* \"#utility.yul\":404:409   */\n      dup3\n        /* \"#utility.yul\":400:454   */\n      and\n        /* \"#utility.yul\":389:454   */\n      swap1\n      pop\n        /* \"#utility.yul\":334:460   */\n      swap2\n      swap1\n      pop\n      jump\t// out\n        /* \"#utility.yul\":466:562   */\n    tag_205:\n        /* \"#utility.yul\":503:510   */\n      0x00\n        /* \"#utility.yul\":532:556   */\n      tag_283\n        /* \"#utility.yul\":550:555   */\n      dup3\n        /* \"#utility.yul\":532:556   */\n      tag_204\n      jump\t// in\n    tag_283:\n        /* \"#utility.yul\":521:556   */\n      swap1\n      pop\n        /* \"#utility.yul\":466:562   */\n      swap2\n      swap1\n      pop\n      jump\t// out\n        /* \"#utility.yul\":568:690   */\n    tag_206:\n        /* \"#utility.yul\":641:665   */\n      tag_285\n        /* \"#utility.yul\":659:664   */\n      dup2\n        /* \"#utility.yul\":641:665   */\n      tag_205\n      jump\t// in\n    tag_285:\n        /* \"#utility.yul\":634:639   */\n      dup2\n        /* \"#utility.yul\":631:666   */\n      eq\n        /* \"#utility.yul\":621:684   */\n      tag_286\n      jumpi\n        /* \"#utility.yul\":680:681   */\n      0x00\n        /* \"#utility.yul\":677:678   */\n      dup1\n        /* \"#utility.yul\":670:682   */\n      revert\n        /* \"#utility.yul\":621:684   */\n    tag_286:\n        /* \"#utility.yul\":568:690   */\n      pop\n      jump\t// out\n        /* \"#utility.yul\":696:835   */\n    tag_207:\n        /* \"#utility.yul\":742:747   */\n      0x00\n        /* \"#utility.yul\":780:786   */\n      dup2\n        /* \"#utility.yul\":767:787   */\n      calldataload\n        /* \"#utility.yul\":758:787   */\n      swap1\n      pop\n        /* \"#utility.yul\":796:829   */\n      tag_288\n        /* \"#utility.yul\":823:828   */\n      dup2\n        /* \"#utility.yul\":796:829   */\n      tag_206\n      jump\t// in\n    tag_288:\n        /* \"#utility.yul\":696:835   */\n      swap3\n      swap2\n      pop\n      pop\n      jump\t// out\n        /* \"#utility.yul\":841:918   */\n    tag_208:\n        /* \"#utility.yul\":878:885   */\n      0x00\n        /* \"#utility.yul\":907:912   */\n      dup2\n        /* \"#utility.yul\":896:912   */\n      swap1\n      pop\n        /* \"#utility.yul\":841:918   */\n      swap2\n      swap1\n      pop\n      jump\t// out\n        /* \"#utility.yul\":924:1046   */\n    tag_209:\n        /* \"#utility.yul\":997:1021   */\n      tag_291\n        /* \"#utility.yul\":1015:1020   */\n      dup2\n        /* \"#utility.yul\":997:1021   */\n      tag_208\n      jump\t// in\n    tag_291:\n        /* \"#utility.yul\":990:995   */\n      dup2\n        /* \"#utility.yul\":987:1022   */\n      eq\n        /* \"#utility.yul\":977:1040   */\n      tag_292\n      jumpi\n        /* \"#utility.yul\":1036:1037   */\n      0x00\n        /* \"#utility.yul\":1033:1034   */\n      dup1\n        /* \"#utility.yul\":1026:1038   */\n      revert\n        /* \"#utility.yul\":977:1040   */\n    tag_292:\n        /* \"#utility.yul\":924:1046   */\n      pop\n      jump\t// out\n        /* \"#utility.yul\":1052:1191   */\n    tag_210:\n        /* \"#utility.yul\":1098:1103   */\n      0x00\n        /* \"#utility.yul\":1136:1142   */\n      dup2\n        /* \"#utility.yul\":1123:1143   */\n      calldataload\n        /* \"#utility.yul\":1114:1143   */\n      swap1\n      pop\n        /* \"#utility.yul\":1152:1185   */\n      tag_294\n        /* \"#utility.yul\":1179:1184   */\n      dup2\n        /* \"#utility.yul\":1152:1185   */\n      tag_209\n      jump\t// in\n    tag_294:\n        /* \"#utility.yul\":1052:1191   */\n      swap3\n      swap2\n      pop\n      pop\n      jump\t// out\n        /* \"#utility.yul\":1197:1671   */\n    tag_18:\n        /* \"#utility.yul\":1265:1271   */\n      0x00\n        /* \"#utility.yul\":1273:1279   */\n      dup1\n        /* \"#utility.yul\":1322:1324   */\n      0x40\n        /* \"#utility.yul\":1310:1319   */\n      dup4\n        /* \"#utility.yul\":1301:1308   */\n      dup6\n        /* \"#utility.yul\":1297:1320   */\n      sub\n        /* \"#utility.yul\":1293:1325   */\n      slt\n        /* \"#utility.yul\":1290:1409   */\n      iszero\n      tag_296\n      jumpi\n        /* \"#utility.yul\":1328:1407   */\n      tag_297\n      tag_202\n      jump\t// in\n    tag_297:\n        /* \"#utility.yul\":1290:1409   */\n    tag_296:\n        /* \"#utility.yul\":1448:1449   */\n      0x00\n        /* \"#utility.yul\":1473:1526   */\n      tag_298\n        /* \"#utility.yul\":1518:1525   */\n      dup6\n        /* \"#utility.yul\":1509:1515   */\n      dup3\n        /* \"#utility.yul\":1498:1507   */\n      dup7\n        /* \"#utility.yul\":1494:1516   */\n      add\n        /* \"#utility.yul\":1473:1526   */\n      tag_207\n      jump\t// in\n    tag_298:\n        /* \"#utility.yul\":1463:1526   */\n      swap3\n      pop\n        /* \"#utility.yul\":1419:1536   */\n      pop\n        /* \"#utility.yul\":1575:1577   */\n      0x20\n        /* \"#utility.yul\":1601:1654   */\n      tag_299\n        /* \"#utility.yul\":1646:1653   */\n      dup6\n        /* \"#utility.yul\":1637:1643   */\n      dup3\n        /* \"#utility.yul\":1626:1635   */\n      dup7\n        /* \"#utility.yul\":1622:1644   */\n      add\n        /* \"#utility.yul\":1601:1654   */\n      tag_210\n      jump\t// in\n    tag_299:\n        /* \"#utility.yul\":1591:1654   */\n      swap2\n      pop\n        /* \"#utility.yul\":1546:1664   */\n      pop\n        /* \"#utility.yul\":1197:1671   */\n      swap3\n      pop\n      swap3\n      swap1\n      pop\n      jump\t// out\n        /* \"#utility.yul\":1677:1795   */\n    tag_211:\n        /* \"#utility.yul\":1764:1788   */\n      tag_301\n        /* \"#utility.yul\":1782:1787   */\n      dup2\n        /* \"#utility.yul\":1764:1788   */\n      tag_208\n      jump\t// in\n    tag_301:\n        /* \"#utility.yul\":1759:1762   */\n      dup3\n        /* \"#utility.yul\":1752:1789   */\n      mstore\n        /* \"#utility.yul\":1677:1795   */\n      pop\n      pop\n      jump\t// out\n        /* \"#utility.yul\":1801:1919   */\n    tag_212:\n        /* \"#utility.yul\":1888:1912   */\n      tag_303\n        /* \"#utility.yul\":1906:1911   */\n      dup2\n        /* \"#utility.yul\":1888:1912   */\n      tag_205\n      jump\t// in\n    tag_303:\n        /* \"#utility.yul\":1883:1886   */\n      dup3\n        /* \"#utility.yul\":1876:1913   */\n      mstore\n        /* \"#utility.yul\":1801:1919   */\n      pop\n      pop\n      jump\t// out\n        /* \"#utility.yul\":1925:2024   */\n    tag_213:\n        /* \"#utility.yul\":1977:1983   */\n      0x00\n        /* \"#utility.yul\":2011:2016   */\n      dup2\n        /* \"#utility.yul\":2005:2017   */\n      mload\n        /* \"#utility.yul\":1995:2017   */\n      swap1\n      pop\n        /* \"#utility.yul\":1925:2024   */\n      swap2\n      swap1\n      pop\n      jump\t// out\n        /* \"#utility.yul\":2030:2199   */\n    tag_214:\n        /* \"#utility.yul\":2114:2125   */\n      0x00\n        /* \"#utility.yul\":2148:2154   */\n      dup3\n        /* \"#utility.yul\":2143:2146   */\n      dup3\n        /* \"#utility.yul\":2136:2155   */\n      mstore\n        /* \"#utility.yul\":2188:2192   */\n      0x20\n        /* \"#utility.yul\":2183:2186   */\n      dup3\n        /* \"#utility.yul\":2179:2193   */\n      add\n        /* \"#utility.yul\":2164:2193   */\n      swap1\n      pop\n        /* \"#utility.yul\":2030:2199   */\n      swap3\n      swap2\n      pop\n      pop\n      jump\t// out\n        /* \"#utility.yul\":2205:2451   */\n    tag_215:\n        /* \"#utility.yul\":2286:2287   */\n      0x00\n        /* \"#utility.yul\":2296:2409   */\n    tag_307:\n        /* \"#utility.yul\":2310:2316   */\n      dup4\n        /* \"#utility.yul\":2307:2308   */\n      dup2\n        /* \"#utility.yul\":2304:2317   */\n      lt\n        /* \"#utility.yul\":2296:2409   */\n      iszero\n      tag_309\n      jumpi\n        /* \"#utility.yul\":2395:2396   */\n      dup1\n        /* \"#utility.yul\":2390:2393   */\n      dup3\n        /* \"#utility.yul\":2386:2397   */\n      add\n        /* \"#utility.yul\":2380:2398   */\n      mload\n        /* \"#utility.yul\":2376:2377   */\n      dup2\n        /* \"#utility.yul\":2371:2374   */\n      dup5\n        /* \"#utility.yul\":2367:2378   */\n      add\n        /* \"#utility.yul\":2360:2399   */\n      mstore\n        /* \"#utility.yul\":2332:2334   */\n      0x20\n        /* \"#utility.yul\":2329:2330   */\n      dup2\n        /* \"#utility.yul\":2325:2335   */\n      add\n        /* \"#utility.yul\":2320:2335   */\n      swap1\n      pop\n        /* \"#utility.yul\":2296:2409   */\n      jump(tag_307)\n    tag_309:\n        /* \"#utility.yul\":2443:2444   */\n      0x00\n        /* \"#utility.yul\":2434:2440   */\n      dup5\n        /* \"#utility.yul\":2429:2432   */\n      dup5\n        /* \"#utility.yul\":2425:2441   */\n      add\n        /* \"#utility.yul\":2418:2445   */\n      mstore\n        /* \"#utility.yul\":2267:2451   */\n      pop\n        /* \"#utility.yul\":2205:2451   */\n      pop\n      pop\n      pop\n      jump\t// out\n        /* \"#utility.yul\":2457:2559   */\n    tag_216:\n        /* \"#utility.yul\":2498:2504   */\n      0x00\n        /* \"#utility.yul\":2549:2551   */\n      0x1f\n        /* \"#utility.yul\":2545:2552   */\n      not\n        /* \"#utility.yul\":2540:2542   */\n      0x1f\n        /* \"#utility.yul\":2533:2538   */\n      dup4\n        /* \"#utility.yul\":2529:2543   */\n      add\n        /* \"#utility.yul\":2525:2553   */\n      and\n        /* \"#utility.yul\":2515:2553   */\n      swap1\n      pop\n        /* \"#utility.yul\":2457:2559   */\n      swap2\n      swap1\n      pop\n      jump\t// out\n        /* \"#utility.yul\":2565:2942   */\n    tag_217:\n        /* \"#utility.yul\":2653:2656   */\n      0x00\n        /* \"#utility.yul\":2681:2720   */\n      tag_312\n        /* \"#utility.yul\":2714:2719   */\n      dup3\n        /* \"#utility.yul\":2681:2720   */\n      tag_213\n      jump\t// in\n    tag_312:\n        /* \"#utility.yul\":2736:2807   */\n      tag_313\n        /* \"#utility.yul\":2800:2806   */\n      dup2\n        /* \"#utility.yul\":2795:2798   */\n      dup6\n        /* \"#utility.yul\":2736:2807   */\n      tag_214\n      jump\t// in\n    tag_313:\n        /* \"#utility.yul\":2729:2807   */\n      swap4\n      pop\n        /* \"#utility.yul\":2816:2881   */\n      tag_314\n        /* \"#utility.yul\":2874:2880   */\n      dup2\n        /* \"#utility.yul\":2869:2872   */\n      dup6\n        /* \"#utility.yul\":2862:2866   */\n      0x20\n        /* \"#utility.yul\":2855:2860   */\n      dup7\n        /* \"#utility.yul\":2851:2867   */\n      add\n        /* \"#utility.yul\":2816:2881   */\n      tag_215\n      jump\t// in\n    tag_314:\n        /* \"#utility.yul\":2906:2935   */\n      tag_315\n        /* \"#utility.yul\":2928:2934   */\n      dup2\n        /* \"#utility.yul\":2906:2935   */\n      tag_216\n      jump\t// in\n    tag_315:\n        /* \"#utility.yul\":2901:2904   */\n      dup5\n        /* \"#utility.yul\":2897:2936   */\n      add\n        /* \"#utility.yul\":2890:2936   */\n      swap2\n      pop\n        /* \"#utility.yul\":2657:2942   */\n      pop\n        /* \"#utility.yul\":2565:2942   */\n      swap3\n      swap2\n      pop\n      pop\n      jump\t// out\n        /* \"#utility.yul\":2948:3703   */\n    tag_21:\n        /* \"#utility.yul\":3173:3177   */\n      0x00\n        /* \"#utility.yul\":3211:3214   */\n      0xa0\n        /* \"#utility.yul\":3200:3209   */\n      dup3\n        /* \"#utility.yul\":3196:3215   */\n      add\n        /* \"#utility.yul\":3188:3215   */\n      swap1\n      pop\n        /* \"#utility.yul\":3225:3296   */\n      tag_317\n        /* \"#utility.yul\":3293:3294   */\n      0x00\n        /* \"#utility.yul\":3282:3291   */\n      dup4\n        /* \"#utility.yul\":3278:3295   */\n      add\n        /* \"#utility.yul\":3269:3275   */\n      dup9\n        /* \"#utility.yul\":3225:3296   */\n      tag_211\n      jump\t// in\n    tag_317:\n        /* \"#utility.yul\":3306:3378   */\n      tag_318\n        /* \"#utility.yul\":3374:3376   */\n      0x20\n        /* \"#utility.yul\":3363:3372   */\n      dup4\n        /* \"#utility.yul\":3359:3377   */\n      add\n        /* \"#utility.yul\":3350:3356   */\n      dup8\n        /* \"#utility.yul\":3306:3378   */\n      tag_212\n      jump\t// in\n    tag_318:\n        /* \"#utility.yul\":3425:3434   */\n      dup2\n        /* \"#utility.yul\":3419:3423   */\n      dup2\n        /* \"#utility.yul\":3415:3435   */\n      sub\n        /* \"#utility.yul\":3410:3412   */\n      0x40\n        /* \"#utility.yul\":3399:3408   */\n      dup4\n        /* \"#utility.yul\":3395:3413   */\n      add\n        /* \"#utility.yul\":3388:3436   */\n      mstore\n        /* \"#utility.yul\":3453:3531   */\n      tag_319\n        /* \"#utility.yul\":3526:3530   */\n      dup2\n        /* \"#utility.yul\":3517:3523   */\n      dup7\n        /* \"#utility.yul\":3453:3531   */\n      tag_217\n      jump\t// in\n    tag_319:\n        /* \"#utility.yul\":3445:3531   */\n      swap1\n      pop\n        /* \"#utility.yul\":3541:3613   */\n      tag_320\n        /* \"#utility.yul\":3609:3611   */\n      0x60\n        /* \"#utility.yul\":3598:3607   */\n      dup4\n        /* \"#utility.yul\":3594:3612   */\n      add\n        /* \"#utility.yul\":3585:3591   */\n      dup6\n        /* \"#utility.yul\":3541:3613   */\n      tag_211\n      jump\t// in\n    tag_320:\n        /* \"#utility.yul\":3623:3696   */\n      tag_321\n        /* \"#utility.yul\":3691:3694   */\n      0x80\n        /* \"#utility.yul\":3680:3689   */\n      dup4\n        /* \"#utility.yul\":3676:3695   */\n      add\n        /* \"#utility.yul\":3667:3673   */\n      dup5\n        /* \"#utility.yul\":3623:3696   */\n      tag_211\n      jump\t// in\n    tag_321:\n        /* \"#utility.yul\":2948:3703   */\n      swap7\n      swap6\n      pop\n      pop\n      pop\n      pop\n      pop\n      pop\n      jump\t// out\n        /* \"#utility.yul\":3709:4038   */\n    tag_24:\n        /* \"#utility.yul\":3768:3774   */\n      0x00\n        /* \"#utility.yul\":3817:3819   */\n      0x20\n        /* \"#utility.yul\":3805:3814   */\n      dup3\n        /* \"#utility.yul\":3796:3803   */\n      dup5\n        /* \"#utility.yul\":3792:3815   */\n      sub\n        /* \"#utility.yul\":3788:3820   */\n      slt\n        /* \"#utility.yul\":3785:3904   */\n      iszero\n      tag_323\n      jumpi\n        /* \"#utility.yul\":3823:3902   */\n      tag_324\n      tag_202\n      jump\t// in\n    tag_324:\n        /* \"#utility.yul\":3785:3904   */\n    tag_323:\n        /* \"#utility.yul\":3943:3944   */\n      0x00\n        /* \"#utility.yul\":3968:4021   */\n      tag_325\n        /* \"#utility.yul\":4013:4020   */\n      dup5\n        /* \"#utility.yul\":4004:4010   */\n      dup3\n        /* \"#utility.yul\":3993:4002   */\n      dup6\n        /* \"#utility.yul\":3989:4011   */\n      add\n        /* \"#utility.yul\":3968:4021   */\n      tag_207\n      jump\t// in\n    tag_325:\n        /* \"#utility.yul\":3958:4021   */\n      swap2\n      pop\n        /* \"#utility.yul\":3914:4031   */\n      pop\n        /* \"#utility.yul\":3709:4038   */\n      swap3\n      swap2\n      pop\n      pop\n      jump\t// out\n        /* \"#utility.yul\":4044:4180   */\n    tag_218:\n        /* \"#utility.yul\":4133:4139   */\n      0x00\n        /* \"#utility.yul\":4167:4172   */\n      dup2\n        /* \"#utility.yul\":4161:4173   */\n      mload\n        /* \"#utility.yul\":4151:4173   */\n      swap1\n      pop\n        /* \"#utility.yul\":4044:4180   */\n      swap2\n      swap1\n      pop\n      jump\t// out\n        /* \"#utility.yul\":4186:4392   */\n    tag_219:\n        /* \"#utility.yul\":4307:4318   */\n      0x00\n        /* \"#utility.yul\":4341:4347   */\n      dup3\n        /* \"#utility.yul\":4336:4339   */\n      dup3\n        /* \"#utility.yul\":4329:4348   */\n      mstore\n        /* \"#utility.yul\":4381:4385   */\n      0x20\n        /* \"#utility.yul\":4376:4379   */\n      dup3\n        /* \"#utility.yul\":4372:4386   */\n      add\n        /* \"#utility.yul\":4357:4386   */\n      swap1\n      pop\n        /* \"#utility.yul\":4186:4392   */\n      swap3\n      swap2\n      pop\n      pop\n      jump\t// out\n        /* \"#utility.yul\":4398:4552   */\n    tag_220:\n        /* \"#utility.yul\":4487:4491   */\n      0x00\n        /* \"#utility.yul\":4510:4513   */\n      dup2\n        /* \"#utility.yul\":4502:4513   */\n      swap1\n      pop\n        /* \"#utility.yul\":4540:4544   */\n      0x20\n        /* \"#utility.yul\":4535:4538   */\n      dup3\n        /* \"#utility.yul\":4531:4545   */\n      add\n        /* \"#utility.yul\":4523:4545   */\n      swap1\n      pop\n        /* \"#utility.yul\":4398:4552   */\n      swap2\n      swap1\n      pop\n      jump\t// out\n        /* \"#utility.yul\":4558:4666   */\n    tag_221:\n        /* \"#utility.yul\":4635:4659   */\n      tag_330\n        /* \"#utility.yul\":4653:4658   */\n      dup2\n        /* \"#utility.yul\":4635:4659   */\n      tag_208\n      jump\t// in\n    tag_330:\n        /* \"#utility.yul\":4630:4633   */\n      dup3\n        /* \"#utility.yul\":4623:4660   */\n      mstore\n        /* \"#utility.yul\":4558:4666   */\n      pop\n      pop\n      jump\t// out\n        /* \"#utility.yul\":4672:4780   */\n    tag_222:\n        /* \"#utility.yul\":4749:4773   */\n      tag_332\n        /* \"#utility.yul\":4767:4772   */\n      dup2\n        /* \"#utility.yul\":4749:4773   */\n      tag_205\n      jump\t// in\n    tag_332:\n        /* \"#utility.yul\":4744:4747   */\n      dup3\n        /* \"#utility.yul\":4737:4774   */\n      mstore\n        /* \"#utility.yul\":4672:4780   */\n      pop\n      pop\n      jump\t// out\n        /* \"#utility.yul\":4786:4945   */\n    tag_223:\n        /* \"#utility.yul\":4860:4871   */\n      0x00\n        /* \"#utility.yul\":4894:4900   */\n      dup3\n        /* \"#utility.yul\":4889:4892   */\n      dup3\n        /* \"#utility.yul\":4882:4901   */\n      mstore\n        /* \"#utility.yul\":4934:4938   */\n      0x20\n        /* \"#utility.yul\":4929:4932   */\n      dup3\n        /* \"#utility.yul\":4925:4939   */\n      add\n        /* \"#utility.yul\":4910:4939   */\n      swap1\n      pop\n        /* \"#utility.yul\":4786:4945   */\n      swap3\n      swap2\n      pop\n      pop\n      jump\t// out\n        /* \"#utility.yul\":4951:5308   */\n    tag_224:\n        /* \"#utility.yul\":5029:5032   */\n      0x00\n        /* \"#utility.yul\":5057:5096   */\n      tag_335\n        /* \"#utility.yul\":5090:5095   */\n      dup3\n        /* \"#utility.yul\":5057:5096   */\n      tag_213\n      jump\t// in\n    tag_335:\n        /* \"#utility.yul\":5112:5173   */\n      tag_336\n        /* \"#utility.yul\":5166:5172   */\n      dup2\n        /* \"#utility.yul\":5161:5164   */\n      dup6\n        /* \"#utility.yul\":5112:5173   */\n      tag_223\n      jump\t// in\n    tag_336:\n        /* \"#utility.yul\":5105:5173   */\n      swap4\n      pop\n        /* \"#utility.yul\":5182:5247   */\n      tag_337\n        /* \"#utility.yul\":5240:5246   */\n      dup2\n        /* \"#utility.yul\":5235:5238   */\n      dup6\n        /* \"#utility.yul\":5228:5232   */\n      0x20\n        /* \"#utility.yul\":5221:5226   */\n      dup7\n        /* \"#utility.yul\":5217:5233   */\n      add\n        /* \"#utility.yul\":5182:5247   */\n      tag_215\n      jump\t// in\n    tag_337:\n        /* \"#utility.yul\":5272:5301   */\n      tag_338\n        /* \"#utility.yul\":5294:5300   */\n      dup2\n        /* \"#utility.yul\":5272:5301   */\n      tag_216\n      jump\t// in\n    tag_338:\n        /* \"#utility.yul\":5267:5270   */\n      dup5\n        /* \"#utility.yul\":5263:5302   */\n      add\n        /* \"#utility.yul\":5256:5302   */\n      swap2\n      pop\n        /* \"#utility.yul\":5033:5308   */\n      pop\n        /* \"#utility.yul\":4951:5308   */\n      swap3\n      swap2\n      pop\n      pop\n      jump\t// out\n        /* \"#utility.yul\":5366:6487   */\n    tag_225:\n        /* \"#utility.yul\":5469:5472   */\n      0x00\n        /* \"#utility.yul\":5505:5509   */\n      0xa0\n        /* \"#utility.yul\":5500:5503   */\n      dup4\n        /* \"#utility.yul\":5496:5510   */\n      add\n        /* \"#utility.yul\":5590:5594   */\n      0x00\n        /* \"#utility.yul\":5583:5588   */\n      dup4\n        /* \"#utility.yul\":5579:5595   */\n      add\n        /* \"#utility.yul\":5573:5596   */\n      mload\n        /* \"#utility.yul\":5609:5672   */\n      tag_340\n        /* \"#utility.yul\":5666:5670   */\n      0x00\n        /* \"#utility.yul\":5661:5664   */\n      dup7\n        /* \"#utility.yul\":5657:5671   */\n      add\n        /* \"#utility.yul\":5643:5655   */\n      dup3\n        /* \"#utility.yul\":5609:5672   */\n      tag_221\n      jump\t// in\n    tag_340:\n        /* \"#utility.yul\":5520:5682   */\n      pop\n        /* \"#utility.yul\":5766:5770   */\n      0x20\n        /* \"#utility.yul\":5759:5764   */\n      dup4\n        /* \"#utility.yul\":5755:5771   */\n      add\n        /* \"#utility.yul\":5749:5772   */\n      mload\n        /* \"#utility.yul\":5785:5848   */\n      tag_341\n        /* \"#utility.yul\":5842:5846   */\n      0x20\n        /* \"#utility.yul\":5837:5840   */\n      dup7\n        /* \"#utility.yul\":5833:5847   */\n      add\n        /* \"#utility.yul\":5819:5831   */\n      dup3\n        /* \"#utility.yul\":5785:5848   */\n      tag_222\n      jump\t// in\n    tag_341:\n        /* \"#utility.yul\":5692:5858   */\n      pop\n        /* \"#utility.yul\":5943:5947   */\n      0x40\n        /* \"#utility.yul\":5936:5941   */\n      dup4\n        /* \"#utility.yul\":5932:5948   */\n      add\n        /* \"#utility.yul\":5926:5949   */\n      mload\n        /* \"#utility.yul\":5996:5999   */\n      dup5\n        /* \"#utility.yul\":5990:5994   */\n      dup3\n        /* \"#utility.yul\":5986:6000   */\n      sub\n        /* \"#utility.yul\":5979:5983   */\n      0x40\n        /* \"#utility.yul\":5974:5977   */\n      dup7\n        /* \"#utility.yul\":5970:5984   */\n      add\n        /* \"#utility.yul\":5963:6001   */\n      mstore\n        /* \"#utility.yul\":6022:6095   */\n      tag_342\n        /* \"#utility.yul\":6090:6094   */\n      dup3\n        /* \"#utility.yul\":6076:6088   */\n      dup3\n        /* \"#utility.yul\":6022:6095   */\n      tag_224\n      jump\t// in\n    tag_342:\n        /* \"#utility.yul\":6014:6095   */\n      swap2\n      pop\n        /* \"#utility.yul\":5868:6106   */\n      pop\n        /* \"#utility.yul\":6193:6197   */\n      0x60\n        /* \"#utility.yul\":6186:6191   */\n      dup4\n        /* \"#utility.yul\":6182:6198   */\n      add\n        /* \"#utility.yul\":6176:6199   */\n      mload\n        /* \"#utility.yul\":6212:6275   */\n      tag_343\n        /* \"#utility.yul\":6269:6273   */\n      0x60\n        /* \"#utility.yul\":6264:6267   */\n      dup7\n        /* \"#utility.yul\":6260:6274   */\n      add\n        /* \"#utility.yul\":6246:6258   */\n      dup3\n        /* \"#utility.yul\":6212:6275   */\n      tag_221\n      jump\t// in\n    tag_343:\n        /* \"#utility.yul\":6116:6285   */\n      pop\n        /* \"#utility.yul\":6368:6372   */\n      0x80\n        /* \"#utility.yul\":6361:6366   */\n      dup4\n        /* \"#utility.yul\":6357:6373   */\n      add\n        /* \"#utility.yul\":6351:6374   */\n      mload\n        /* \"#utility.yul\":6387:6450   */\n      tag_344\n        /* \"#utility.yul\":6444:6448   */\n      0x80\n        /* \"#utility.yul\":6439:6442   */\n      dup7\n        /* \"#utility.yul\":6435:6449   */\n      add\n        /* \"#utility.yul\":6421:6433   */\n      dup3\n        /* \"#utility.yul\":6387:6450   */\n      tag_221\n      jump\t// in\n    tag_344:\n        /* \"#utility.yul\":6295:6460   */\n      pop\n        /* \"#utility.yul\":6477:6481   */\n      dup1\n        /* \"#utility.yul\":6470:6481   */\n      swap2\n      pop\n        /* \"#utility.yul\":5474:6487   */\n      pop\n        /* \"#utility.yul\":5366:6487   */\n      swap3\n      swap2\n      pop\n      pop\n      jump\t// out\n        /* \"#utility.yul\":6493:6737   */\n    tag_226:\n        /* \"#utility.yul\":6606:6616   */\n      0x00\n        /* \"#utility.yul\":6641:6731   */\n      tag_346\n        /* \"#utility.yul\":6727:6730   */\n      dup4\n        /* \"#utility.yul\":6719:6725   */\n      dup4\n        /* \"#utility.yul\":6641:6731   */\n      tag_225\n      jump\t// in\n    tag_346:\n        /* \"#utility.yul\":6627:6731   */\n      swap1\n      pop\n        /* \"#utility.yul\":6493:6737   */\n      swap3\n      swap2\n      pop\n      pop\n      jump\t// out\n        /* \"#utility.yul\":6743:6878   */\n    tag_227:\n        /* \"#utility.yul\":6835:6839   */\n      0x00\n        /* \"#utility.yul\":6867:6871   */\n      0x20\n        /* \"#utility.yul\":6862:6865   */\n      dup3\n        /* \"#utility.yul\":6858:6872   */\n      add\n        /* \"#utility.yul\":6850:6872   */\n      swap1\n      pop\n        /* \"#utility.yul\":6743:6878   */\n      swap2\n      swap1\n      pop\n      jump\t// out\n        /* \"#utility.yul\":6940:8027   */\n    tag_228:\n        /* \"#utility.yul\":7103:7106   */\n      0x00\n        /* \"#utility.yul\":7132:7208   */\n      tag_349\n        /* \"#utility.yul\":7202:7207   */\n      dup3\n        /* \"#utility.yul\":7132:7208   */\n      tag_218\n      jump\t// in\n    tag_349:\n        /* \"#utility.yul\":7224:7332   */\n      tag_350\n        /* \"#utility.yul\":7325:7331   */\n      dup2\n        /* \"#utility.yul\":7320:7323   */\n      dup6\n        /* \"#utility.yul\":7224:7332   */\n      tag_219\n      jump\t// in\n    tag_350:\n        /* \"#utility.yul\":7217:7332   */\n      swap4\n      pop\n        /* \"#utility.yul\":7358:7361   */\n      dup4\n        /* \"#utility.yul\":7403:7407   */\n      0x20\n        /* \"#utility.yul\":7395:7401   */\n      dup3\n        /* \"#utility.yul\":7391:7408   */\n      mul\n        /* \"#utility.yul\":7386:7389   */\n      dup6\n        /* \"#utility.yul\":7382:7409   */\n      add\n        /* \"#utility.yul\":7433:7511   */\n      tag_351\n        /* \"#utility.yul\":7505:7510   */\n      dup6\n        /* \"#utility.yul\":7433:7511   */\n      tag_220\n      jump\t// in\n    tag_351:\n        /* \"#utility.yul\":7534:7541   */\n      dup1\n        /* \"#utility.yul\":7565:7566   */\n      0x00\n        /* \"#utility.yul\":7550:7982   */\n    tag_352:\n        /* \"#utility.yul\":7575:7581   */\n      dup6\n        /* \"#utility.yul\":7572:7573   */\n      dup2\n        /* \"#utility.yul\":7569:7582   */\n      lt\n        /* \"#utility.yul\":7550:7982   */\n      iszero\n      tag_354\n      jumpi\n        /* \"#utility.yul\":7646:7655   */\n      dup5\n        /* \"#utility.yul\":7640:7644   */\n      dup5\n        /* \"#utility.yul\":7636:7656   */\n      sub\n        /* \"#utility.yul\":7631:7634   */\n      dup10\n        /* \"#utility.yul\":7624:7657   */\n      mstore\n        /* \"#utility.yul\":7697:7703   */\n      dup2\n        /* \"#utility.yul\":7691:7704   */\n      mload\n        /* \"#utility.yul\":7725:7833   */\n      tag_355\n        /* \"#utility.yul\":7828:7832   */\n      dup6\n        /* \"#utility.yul\":7813:7826   */\n      dup3\n        /* \"#utility.yul\":7725:7833   */\n      tag_226\n      jump\t// in\n    tag_355:\n        /* \"#utility.yul\":7717:7833   */\n      swap5\n      pop\n        /* \"#utility.yul\":7856:7938   */\n      tag_356\n        /* \"#utility.yul\":7931:7937   */\n      dup4\n        /* \"#utility.yul\":7856:7938   */\n      tag_227\n      jump\t// in\n    tag_356:\n        /* \"#utility.yul\":7846:7938   */\n      swap3\n      pop\n        /* \"#utility.yul\":7967:7971   */\n      0x20\n        /* \"#utility.yul\":7962:7965   */\n      dup11\n        /* \"#utility.yul\":7958:7972   */\n      add\n        /* \"#utility.yul\":7951:7972   */\n      swap10\n      pop\n        /* \"#utility.yul\":7610:7982   */\n      pop\n        /* \"#utility.yul\":7597:7598   */\n      0x01\n        /* \"#utility.yul\":7594:7595   */\n      dup2\n        /* \"#utility.yul\":7590:7599   */\n      add\n        /* \"#utility.yul\":7585:7599   */\n      swap1\n      pop\n        /* \"#utility.yul\":7550:7982   */\n      jump(tag_352)\n    tag_354:\n        /* \"#utility.yul\":7554:7568   */\n      pop\n        /* \"#utility.yul\":7998:8002   */\n      dup3\n        /* \"#utility.yul\":7991:8002   */\n      swap8\n      pop\n        /* \"#utility.yul\":8018:8021   */\n      dup8\n        /* \"#utility.yul\":8011:8021   */\n      swap6\n      pop\n        /* \"#utility.yul\":7108:8027   */\n      pop\n      pop\n      pop\n      pop\n      pop\n        /* \"#utility.yul\":6940:8027   */\n      swap3\n      swap2\n      pop\n      pop\n      jump\t// out\n        /* \"#utility.yul\":8033:8494   */\n    tag_27:\n        /* \"#utility.yul\":8220:8224   */\n      0x00\n        /* \"#utility.yul\":8258:8260   */\n      0x20\n        /* \"#utility.yul\":8247:8256   */\n      dup3\n        /* \"#utility.yul\":8243:8261   */\n      add\n        /* \"#utility.yul\":8235:8261   */\n      swap1\n      pop\n        /* \"#utility.yul\":8307:8316   */\n      dup2\n        /* \"#utility.yul\":8301:8305   */\n      dup2\n        /* \"#utility.yul\":8297:8317   */\n      sub\n        /* \"#utility.yul\":8293:8294   */\n      0x00\n        /* \"#utility.yul\":8282:8291   */\n      dup4\n        /* \"#utility.yul\":8278:8295   */\n      add\n        /* \"#utility.yul\":8271:8318   */\n      mstore\n        /* \"#utility.yul\":8335:8487   */\n      tag_358\n        /* \"#utility.yul\":8482:8486   */\n      dup2\n        /* \"#utility.yul\":8473:8479   */\n      dup5\n        /* \"#utility.yul\":8335:8487   */\n      tag_228\n      jump\t// in\n    tag_358:\n        /* \"#utility.yul\":8327:8487   */\n      swap1\n      pop\n        /* \"#utility.yul\":8033:8494   */\n      swap3\n      swap2\n      pop\n      pop\n      jump\t// out\n        /* \"#utility.yul\":8500:8589   */\n    tag_229:\n        /* \"#utility.yul\":8536:8543   */\n      0x00\n        /* \"#utility.yul\":8576:8582   */\n      0xffff\n        /* \"#utility.yul\":8569:8574   */\n      dup3\n        /* \"#utility.yul\":8565:8583   */\n      and\n        /* \"#utility.yul\":8554:8583   */\n      swap1\n      pop\n        /* \"#utility.yul\":8500:8589   */\n      swap2\n      swap1\n      pop\n      jump\t// out\n        /* \"#utility.yul\":8595:8715   */\n    tag_230:\n        /* \"#utility.yul\":8667:8690   */\n      tag_361\n        /* \"#utility.yul\":8684:8689   */\n      dup2\n        /* \"#utility.yul\":8667:8690   */\n      tag_229\n      jump\t// in\n    tag_361:\n        /* \"#utility.yul\":8660:8665   */\n      dup2\n        /* \"#utility.yul\":8657:8691   */\n      eq\n        /* \"#utility.yul\":8647:8709   */\n      tag_362\n      jumpi\n        /* \"#utility.yul\":8705:8706   */\n      0x00\n        /* \"#utility.yul\":8702:8703   */\n      dup1\n        /* \"#utility.yul\":8695:8707   */\n      revert\n        /* \"#utility.yul\":8647:8709   */\n    tag_362:\n        /* \"#utility.yul\":8595:8715   */\n      pop\n      jump\t// out\n        /* \"#utility.yul\":8721:8858   */\n    tag_231:\n        /* \"#utility.yul\":8766:8771   */\n      0x00\n        /* \"#utility.yul\":8804:8810   */\n      dup2\n        /* \"#utility.yul\":8791:8811   */\n      calldataload\n        /* \"#utility.yul\":8782:8811   */\n      swap1\n      pop\n        /* \"#utility.yul\":8820:8852   */\n      tag_364\n        /* \"#utility.yul\":8846:8851   */\n      dup2\n        /* \"#utility.yul\":8820:8852   */\n      tag_230\n      jump\t// in\n    tag_364:\n        /* \"#utility.yul\":8721:8858   */\n      swap3\n      swap2\n      pop\n      pop\n      jump\t// out\n        /* \"#utility.yul\":8864:9191   */\n    tag_33:\n        /* \"#utility.yul\":8922:8928   */\n      0x00\n        /* \"#utility.yul\":8971:8973   */\n      0x20\n        /* \"#utility.yul\":8959:8968   */\n      dup3\n        /* \"#utility.yul\":8950:8957   */\n      dup5\n        /* \"#utility.yul\":8946:8969   */\n      sub\n        /* \"#utility.yul\":8942:8974   */\n      slt\n        /* \"#utility.yul\":8939:9058   */\n      iszero\n      tag_366\n      jumpi\n        /* \"#utility.yul\":8977:9056   */\n      tag_367\n      tag_202\n      jump\t// in\n    tag_367:\n        /* \"#utility.yul\":8939:9058   */\n    tag_366:\n        /* \"#utility.yul\":9097:9098   */\n      0x00\n        /* \"#utility.yul\":9122:9174   */\n      tag_368\n        /* \"#utility.yul\":9166:9173   */\n      dup5\n        /* \"#utility.yul\":9157:9163   */\n      dup3\n        /* \"#utility.yul\":9146:9155   */\n      dup6\n        /* \"#utility.yul\":9142:9164   */\n      add\n        /* \"#utility.yul\":9122:9174   */\n      tag_231\n      jump\t// in\n    tag_368:\n        /* \"#utility.yul\":9112:9174   */\n      swap2\n      pop\n        /* \"#utility.yul\":9068:9184   */\n      pop\n        /* \"#utility.yul\":8864:9191   */\n      swap3\n      swap2\n      pop\n      pop\n      jump\t// out\n        /* \"#utility.yul\":9197:9312   */\n    tag_232:\n        /* \"#utility.yul\":9282:9305   */\n      tag_370\n        /* \"#utility.yul\":9299:9304   */\n      dup2\n        /* \"#utility.yul\":9282:9305   */\n      tag_229\n      jump\t// in\n    tag_370:\n        /* \"#utility.yul\":9277:9280   */\n      dup3\n        /* \"#utility.yul\":9270:9306   */\n      mstore\n        /* \"#utility.yul\":9197:9312   */\n      pop\n      pop\n      jump\t// out\n        /* \"#utility.yul\":9318:9536   */\n    tag_41:\n        /* \"#utility.yul\":9409:9413   */\n      0x00\n        /* \"#utility.yul\":9447:9449   */\n      0x20\n        /* \"#utility.yul\":9436:9445   */\n      dup3\n        /* \"#utility.yul\":9432:9450   */\n      add\n        /* \"#utility.yul\":9424:9450   */\n      swap1\n      pop\n        /* \"#utility.yul\":9460:9529   */\n      tag_372\n        /* \"#utility.yul\":9526:9527   */\n      0x00\n        /* \"#utility.yul\":9515:9524   */\n      dup4\n        /* \"#utility.yul\":9511:9528   */\n      add\n        /* \"#utility.yul\":9502:9508   */\n      dup5\n        /* \"#utility.yul\":9460:9529   */\n      tag_232\n      jump\t// in\n    tag_372:\n        /* \"#utility.yul\":9318:9536   */\n      swap3\n      swap2\n      pop\n      pop\n      jump\t// out\n        /* \"#utility.yul\":9542:9659   */\n    tag_233:\n        /* \"#utility.yul\":9651:9652   */\n      0x00\n        /* \"#utility.yul\":9648:9649   */\n      dup1\n        /* \"#utility.yul\":9641:9653   */\n      revert\n        /* \"#utility.yul\":9665:9782   */\n    tag_234:\n        /* \"#utility.yul\":9774:9775   */\n      0x00\n        /* \"#utility.yul\":9771:9772   */\n      dup1\n        /* \"#utility.yul\":9764:9776   */\n      revert\n        /* \"#utility.yul\":9788:9968   */\n    tag_235:\n        /* \"#utility.yul\":9836:9913   */\n      0x4e487b7100000000000000000000000000000000000000000000000000000000\n        /* \"#utility.yul\":9833:9834   */\n      0x00\n        /* \"#utility.yul\":9826:9914   */\n      mstore\n        /* \"#utility.yul\":9933:9937   */\n      0x41\n        /* \"#utility.yul\":9930:9931   */\n      0x04\n        /* \"#utility.yul\":9923:9938   */\n      mstore\n        /* \"#utility.yul\":9957:9961   */\n      0x24\n        /* \"#utility.yul\":9954:9955   */\n      0x00\n        /* \"#utility.yul\":9947:9962   */\n      revert\n        /* \"#utility.yul\":9974:10255   */\n    tag_236:\n        /* \"#utility.yul\":10057:10084   */\n      tag_377\n        /* \"#utility.yul\":10079:10083   */\n      dup3\n        /* \"#utility.yul\":10057:10084   */\n      tag_216\n      jump\t// in\n    tag_377:\n        /* \"#utility.yul\":10049:10055   */\n      dup2\n        /* \"#utility.yul\":10045:10085   */\n      add\n        /* \"#utility.yul\":10187:10193   */\n      dup2\n        /* \"#utility.yul\":10175:10185   */\n      dup2\n        /* \"#utility.yul\":10172:10194   */\n      lt\n        /* \"#utility.yul\":10151:10169   */\n      0xffffffffffffffff\n        /* \"#utility.yul\":10139:10149   */\n      dup3\n        /* \"#utility.yul\":10136:10170   */\n      gt\n        /* \"#utility.yul\":10133:10195   */\n      or\n        /* \"#utility.yul\":10130:10218   */\n      iszero\n      tag_378\n      jumpi\n        /* \"#utility.yul\":10198:10216   */\n      tag_379\n      tag_235\n      jump\t// in\n    tag_379:\n        /* \"#utility.yul\":10130:10218   */\n    tag_378:\n        /* \"#utility.yul\":10238:10248   */\n      dup1\n        /* \"#utility.yul\":10234:10236   */\n      0x40\n        /* \"#utility.yul\":10227:10249   */\n      mstore\n        /* \"#utility.yul\":10017:10255   */\n      pop\n        /* \"#utility.yul\":9974:10255   */\n      pop\n      pop\n      jump\t// out\n        /* \"#utility.yul\":10261:10390   */\n    tag_237:\n        /* \"#utility.yul\":10295:10301   */\n      0x00\n        /* \"#utility.yul\":10322:10342   */\n      tag_381\n      tag_201\n      jump\t// in\n    tag_381:\n        /* \"#utility.yul\":10312:10342   */\n      swap1\n      pop\n        /* \"#utility.yul\":10351:10384   */\n      tag_382\n        /* \"#utility.yul\":10379:10383   */\n      dup3\n        /* \"#utility.yul\":10371:10377   */\n      dup3\n        /* \"#utility.yul\":10351:10384   */\n      tag_236\n      jump\t// in\n    tag_382:\n        /* \"#utility.yul\":10261:10390   */\n      swap2\n      swap1\n      pop\n      jump\t// out\n        /* \"#utility.yul\":10396:10704   */\n    tag_238:\n        /* \"#utility.yul\":10458:10462   */\n      0x00\n        /* \"#utility.yul\":10548:10566   */\n      0xffffffffffffffff\n        /* \"#utility.yul\":10540:10546   */\n      dup3\n        /* \"#utility.yul\":10537:10567   */\n      gt\n        /* \"#utility.yul\":10534:10590   */\n      iszero\n      tag_384\n      jumpi\n        /* \"#utility.yul\":10570:10588   */\n      tag_385\n      tag_235\n      jump\t// in\n    tag_385:\n        /* \"#utility.yul\":10534:10590   */\n    tag_384:\n        /* \"#utility.yul\":10608:10637   */\n      tag_386\n        /* \"#utility.yul\":10630:10636   */\n      dup3\n        /* \"#utility.yul\":10608:10637   */\n      tag_216\n      jump\t// in\n    tag_386:\n        /* \"#utility.yul\":10600:10637   */\n      swap1\n      pop\n        /* \"#utility.yul\":10692:10696   */\n      0x20\n        /* \"#utility.yul\":10686:10690   */\n      dup2\n        /* \"#utility.yul\":10682:10697   */\n      add\n        /* \"#utility.yul\":10674:10697   */\n      swap1\n      pop\n        /* \"#utility.yul\":10396:10704   */\n      swap2\n      swap1\n      pop\n      jump\t// out\n        /* \"#utility.yul\":10710:10856   */\n    tag_239:\n        /* \"#utility.yul\":10807:10813   */\n      dup3\n        /* \"#utility.yul\":10802:10805   */\n      dup2\n        /* \"#utility.yul\":10797:10800   */\n      dup4\n        /* \"#utility.yul\":10784:10814   */\n      calldatacopy\n        /* \"#utility.yul\":10848:10849   */\n      0x00\n        /* \"#utility.yul\":10839:10845   */\n      dup4\n        /* \"#utility.yul\":10834:10837   */\n      dup4\n        /* \"#utility.yul\":10830:10846   */\n      add\n        /* \"#utility.yul\":10823:10850   */\n      mstore\n        /* \"#utility.yul\":10710:10856   */\n      pop\n      pop\n      pop\n      jump\t// out\n        /* \"#utility.yul\":10862:11287   */\n    tag_240:\n        /* \"#utility.yul\":10940:10945   */\n      0x00\n        /* \"#utility.yul\":10965:11031   */\n      tag_389\n        /* \"#utility.yul\":10981:11030   */\n      tag_390\n        /* \"#utility.yul\":11023:11029   */\n      dup5\n        /* \"#utility.yul\":10981:11030   */\n      tag_238\n      jump\t// in\n    tag_390:\n        /* \"#utility.yul\":10965:11031   */\n      tag_237\n      jump\t// in\n    tag_389:\n        /* \"#utility.yul\":10956:11031   */\n      swap1\n      pop\n        /* \"#utility.yul\":11054:11060   */\n      dup3\n        /* \"#utility.yul\":11047:11052   */\n      dup2\n        /* \"#utility.yul\":11040:11061   */\n      mstore\n        /* \"#utility.yul\":11092:11096   */\n      0x20\n        /* \"#utility.yul\":11085:11090   */\n      dup2\n        /* \"#utility.yul\":11081:11097   */\n      add\n        /* \"#utility.yul\":11130:11133   */\n      dup5\n        /* \"#utility.yul\":11121:11127   */\n      dup5\n        /* \"#utility.yul\":11116:11119   */\n      dup5\n        /* \"#utility.yul\":11112:11128   */\n      add\n        /* \"#utility.yul\":11109:11134   */\n      gt\n        /* \"#utility.yul\":11106:11218   */\n      iszero\n      tag_391\n      jumpi\n        /* \"#utility.yul\":11137:11216   */\n      tag_392\n      tag_234\n      jump\t// in\n    tag_392:\n        /* \"#utility.yul\":11106:11218   */\n    tag_391:\n        /* \"#utility.yul\":11227:11281   */\n      tag_393\n        /* \"#utility.yul\":11274:11280   */\n      dup5\n        /* \"#utility.yul\":11269:11272   */\n      dup3\n        /* \"#utility.yul\":11264:11267   */\n      dup6\n        /* \"#utility.yul\":11227:11281   */\n      tag_239\n      jump\t// in\n    tag_393:\n        /* \"#utility.yul\":10946:11287   */\n      pop\n        /* \"#utility.yul\":10862:11287   */\n      swap4\n      swap3\n      pop\n      pop\n      pop\n      jump\t// out\n        /* \"#utility.yul\":11307:11647   */\n    tag_241:\n        /* \"#utility.yul\":11363:11368   */\n      0x00\n        /* \"#utility.yul\":11412:11415   */\n      dup3\n        /* \"#utility.yul\":11405:11409   */\n      0x1f\n        /* \"#utility.yul\":11397:11403   */\n      dup4\n        /* \"#utility.yul\":11393:11410   */\n      add\n        /* \"#utility.yul\":11389:11416   */\n      slt\n        /* \"#utility.yul\":11379:11501   */\n      tag_395\n      jumpi\n        /* \"#utility.yul\":11420:11499   */\n      tag_396\n      tag_233\n      jump\t// in\n    tag_396:\n        /* \"#utility.yul\":11379:11501   */\n    tag_395:\n        /* \"#utility.yul\":11537:11543   */\n      dup2\n        /* \"#utility.yul\":11524:11544   */\n      calldataload\n        /* \"#utility.yul\":11562:11641   */\n      tag_397\n        /* \"#utility.yul\":11637:11640   */\n      dup5\n        /* \"#utility.yul\":11629:11635   */\n      dup3\n        /* \"#utility.yul\":11622:11626   */\n      0x20\n        /* \"#utility.yul\":11614:11620   */\n      dup7\n        /* \"#utility.yul\":11610:11627   */\n      add\n        /* \"#utility.yul\":11562:11641   */\n      tag_240\n      jump\t// in\n    tag_397:\n        /* \"#utility.yul\":11553:11641   */\n      swap2\n      pop\n        /* \"#utility.yul\":11369:11647   */\n      pop\n        /* \"#utility.yul\":11307:11647   */\n      swap3\n      swap2\n      pop\n      pop\n      jump\t// out\n        /* \"#utility.yul\":11653:12162   */\n    tag_46:\n        /* \"#utility.yul\":11722:11728   */\n      0x00\n        /* \"#utility.yul\":11771:11773   */\n      0x20\n        /* \"#utility.yul\":11759:11768   */\n      dup3\n        /* \"#utility.yul\":11750:11757   */\n      dup5\n        /* \"#utility.yul\":11746:11769   */\n      sub\n        /* \"#utility.yul\":11742:11774   */\n      slt\n        /* \"#utility.yul\":11739:11858   */\n      iszero\n      tag_399\n      jumpi\n        /* \"#utility.yul\":11777:11856   */\n      tag_400\n      tag_202\n      jump\t// in\n    tag_400:\n        /* \"#utility.yul\":11739:11858   */\n    tag_399:\n        /* \"#utility.yul\":11925:11926   */\n      0x00\n        /* \"#utility.yul\":11914:11923   */\n      dup3\n        /* \"#utility.yul\":11910:11927   */\n      add\n        /* \"#utility.yul\":11897:11928   */\n      calldataload\n        /* \"#utility.yul\":11955:11973   */\n      0xffffffffffffffff\n        /* \"#utility.yul\":11947:11953   */\n      dup2\n        /* \"#utility.yul\":11944:11974   */\n      gt\n        /* \"#utility.yul\":11941:12058   */\n      iszero\n      tag_401\n      jumpi\n        /* \"#utility.yul\":11977:12056   */\n      tag_402\n      tag_203\n      jump\t// in\n    tag_402:\n        /* \"#utility.yul\":11941:12058   */\n    tag_401:\n        /* \"#utility.yul\":12082:12145   */\n      tag_403\n        /* \"#utility.yul\":12137:12144   */\n      dup5\n        /* \"#utility.yul\":12128:12134   */\n      dup3\n        /* \"#utility.yul\":12117:12126   */\n      dup6\n        /* \"#utility.yul\":12113:12135   */\n      add\n        /* \"#utility.yul\":12082:12145   */\n      tag_241\n      jump\t// in\n    tag_403:\n        /* \"#utility.yul\":12072:12145   */\n      swap2\n      pop\n        /* \"#utility.yul\":11868:12155   */\n      pop\n        /* \"#utility.yul\":11653:12162   */\n      swap3\n      swap2\n      pop\n      pop\n      jump\t// out\n        /* \"#utility.yul\":12168:12390   */\n    tag_52:\n        /* \"#utility.yul\":12261:12265   */\n      0x00\n        /* \"#utility.yul\":12299:12301   */\n      0x20\n        /* \"#utility.yul\":12288:12297   */\n      dup3\n        /* \"#utility.yul\":12284:12302   */\n      add\n        /* \"#utility.yul\":12276:12302   */\n      swap1\n      pop\n        /* \"#utility.yul\":12312:12383   */\n      tag_405\n        /* \"#utility.yul\":12380:12381   */\n      0x00\n        /* \"#utility.yul\":12369:12378   */\n      dup4\n        /* \"#utility.yul\":12365:12382   */\n      add\n        /* \"#utility.yul\":12356:12362   */\n      dup5\n        /* \"#utility.yul\":12312:12383   */\n      tag_211\n      jump\t// in\n    tag_405:\n        /* \"#utility.yul\":12168:12390   */\n      swap3\n      swap2\n      pop\n      pop\n      jump\t// out\n        /* \"#utility.yul\":12396:12618   */\n    tag_56:\n        /* \"#utility.yul\":12489:12493   */\n      0x00\n        /* \"#utility.yul\":12527:12529   */\n      0x20\n        /* \"#utility.yul\":12516:12525   */\n      dup3\n        /* \"#utility.yul\":12512:12530   */\n      add\n        /* \"#utility.yul\":12504:12530   */\n      swap1\n      pop\n        /* \"#utility.yul\":12540:12611   */\n      tag_407\n        /* \"#utility.yul\":12608:12609   */\n      0x00\n        /* \"#utility.yul\":12597:12606   */\n      dup4\n        /* \"#utility.yul\":12593:12610   */\n      add\n        /* \"#utility.yul\":12584:12590   */\n      dup5\n        /* \"#utility.yul\":12540:12611   */\n      tag_212\n      jump\t// in\n    tag_407:\n        /* \"#utility.yul\":12396:12618   */\n      swap3\n      swap2\n      pop\n      pop\n      jump\t// out\n        /* \"#utility.yul\":12624:12953   */\n    tag_59:\n        /* \"#utility.yul\":12683:12689   */\n      0x00\n        /* \"#utility.yul\":12732:12734   */\n      0x20\n        /* \"#utility.yul\":12720:12729   */\n      dup3\n        /* \"#utility.yul\":12711:12718   */\n      dup5\n        /* \"#utility.yul\":12707:12730   */\n      sub\n        /* \"#utility.yul\":12703:12735   */\n      slt\n        /* \"#utility.yul\":12700:12819   */\n      iszero\n      tag_409\n      jumpi\n        /* \"#utility.yul\":12738:12817   */\n      tag_410\n      tag_202\n      jump\t// in\n    tag_410:\n        /* \"#utility.yul\":12700:12819   */\n    tag_409:\n        /* \"#utility.yul\":12858:12859   */\n      0x00\n        /* \"#utility.yul\":12883:12936   */\n      tag_411\n        /* \"#utility.yul\":12928:12935   */\n      dup5\n        /* \"#utility.yul\":12919:12925   */\n      dup3\n        /* \"#utility.yul\":12908:12917   */\n      dup6\n        /* \"#utility.yul\":12904:12926   */\n      add\n        /* \"#utility.yul\":12883:12936   */\n      tag_210\n      jump\t// in\n    tag_411:\n        /* \"#utility.yul\":12873:12936   */\n      swap2\n      pop\n        /* \"#utility.yul\":12829:12946   */\n      pop\n        /* \"#utility.yul\":12624:12953   */\n      swap3\n      swap2\n      pop\n      pop\n      jump\t// out\n        /* \"#utility.yul\":13011:14142   */\n    tag_242:\n        /* \"#utility.yul\":13124:13127   */\n      0x00\n        /* \"#utility.yul\":13160:13164   */\n      0xa0\n        /* \"#utility.yul\":13155:13158   */\n      dup4\n        /* \"#utility.yul\":13151:13165   */\n      add\n        /* \"#utility.yul\":13245:13249   */\n      0x00\n        /* \"#utility.yul\":13238:13243   */\n      dup4\n        /* \"#utility.yul\":13234:13250   */\n      add\n        /* \"#utility.yul\":13228:13251   */\n      mload\n        /* \"#utility.yul\":13264:13327   */\n      tag_413\n        /* \"#utility.yul\":13321:13325   */\n      0x00\n        /* \"#utility.yul\":13316:13319   */\n      dup7\n        /* \"#utility.yul\":13312:13326   */\n      add\n        /* \"#utility.yul\":13298:13310   */\n      dup3\n        /* \"#utility.yul\":13264:13327   */\n      tag_221\n      jump\t// in\n    tag_413:\n        /* \"#utility.yul\":13175:13337   */\n      pop\n        /* \"#utility.yul\":13421:13425   */\n      0x20\n        /* \"#utility.yul\":13414:13419   */\n      dup4\n        /* \"#utility.yul\":13410:13426   */\n      add\n        /* \"#utility.yul\":13404:13427   */\n      mload\n        /* \"#utility.yul\":13440:13503   */\n      tag_414\n        /* \"#utility.yul\":13497:13501   */\n      0x20\n        /* \"#utility.yul\":13492:13495   */\n      dup7\n        /* \"#utility.yul\":13488:13502   */\n      add\n        /* \"#utility.yul\":13474:13486   */\n      dup3\n        /* \"#utility.yul\":13440:13503   */\n      tag_222\n      jump\t// in\n    tag_414:\n        /* \"#utility.yul\":13347:13513   */\n      pop\n        /* \"#utility.yul\":13598:13602   */\n      0x40\n        /* \"#utility.yul\":13591:13596   */\n      dup4\n        /* \"#utility.yul\":13587:13603   */\n      add\n        /* \"#utility.yul\":13581:13604   */\n      mload\n        /* \"#utility.yul\":13651:13654   */\n      dup5\n        /* \"#utility.yul\":13645:13649   */\n      dup3\n        /* \"#utility.yul\":13641:13655   */\n      sub\n        /* \"#utility.yul\":13634:13638   */\n      0x40\n        /* \"#utility.yul\":13629:13632   */\n      dup7\n        /* \"#utility.yul\":13625:13639   */\n      add\n        /* \"#utility.yul\":13618:13656   */\n      mstore\n        /* \"#utility.yul\":13677:13750   */\n      tag_415\n        /* \"#utility.yul\":13745:13749   */\n      dup3\n        /* \"#utility.yul\":13731:13743   */\n      dup3\n        /* \"#utility.yul\":13677:13750   */\n      tag_224\n      jump\t// in\n    tag_415:\n        /* \"#utility.yul\":13669:13750   */\n      swap2\n      pop\n        /* \"#utility.yul\":13523:13761   */\n      pop\n        /* \"#utility.yul\":13848:13852   */\n      0x60\n        /* \"#utility.yul\":13841:13846   */\n      dup4\n        /* \"#utility.yul\":13837:13853   */\n      add\n        /* \"#utility.yul\":13831:13854   */\n      mload\n        /* \"#utility.yul\":13867:13930   */\n      tag_416\n        /* \"#utility.yul\":13924:13928   */\n      0x60\n        /* \"#utility.yul\":13919:13922   */\n      dup7\n        /* \"#utility.yul\":13915:13929   */\n      add\n        /* \"#utility.yul\":13901:13913   */\n      dup3\n        /* \"#utility.yul\":13867:13930   */\n      tag_221\n      jump\t// in\n    tag_416:\n        /* \"#utility.yul\":13771:13940   */\n      pop\n        /* \"#utility.yul\":14023:14027   */\n      0x80\n        /* \"#utility.yul\":14016:14021   */\n      dup4\n        /* \"#utility.yul\":14012:14028   */\n      add\n        /* \"#utility.yul\":14006:14029   */\n      mload\n        /* \"#utility.yul\":14042:14105   */\n      tag_417\n        /* \"#utility.yul\":14099:14103   */\n      0x80\n        /* \"#utility.yul\":14094:14097   */\n      dup7\n        /* \"#utility.yul\":14090:14104   */\n      add\n        /* \"#utility.yul\":14076:14088   */\n      dup3\n        /* \"#utility.yul\":14042:14105   */\n      tag_221\n      jump\t// in\n    tag_417:\n        /* \"#utility.yul\":13950:14115   */\n      pop\n        /* \"#utility.yul\":14132:14136   */\n      dup1\n        /* \"#utility.yul\":14125:14136   */\n      swap2\n      pop\n        /* \"#utility.yul\":13129:14142   */\n      pop\n        /* \"#utility.yul\":13011:14142   */\n      swap3\n      swap2\n      pop\n      pop\n      jump\t// out\n        /* \"#utility.yul\":14148:14509   */\n    tag_62:\n        /* \"#utility.yul\":14285:14289   */\n      0x00\n        /* \"#utility.yul\":14323:14325   */\n      0x20\n        /* \"#utility.yul\":14312:14321   */\n      dup3\n        /* \"#utility.yul\":14308:14326   */\n      add\n        /* \"#utility.yul\":14300:14326   */\n      swap1\n      pop\n        /* \"#utility.yul\":14372:14381   */\n      dup2\n        /* \"#utility.yul\":14366:14370   */\n      dup2\n        /* \"#utility.yul\":14362:14382   */\n      sub\n        /* \"#utility.yul\":14358:14359   */\n      0x00\n        /* \"#utility.yul\":14347:14356   */\n      dup4\n        /* \"#utility.yul\":14343:14360   */\n      add\n        /* \"#utility.yul\":14336:14383   */\n      mstore\n        /* \"#utility.yul\":14400:14502   */\n      tag_419\n        /* \"#utility.yul\":14497:14501   */\n      dup2\n        /* \"#utility.yul\":14488:14494   */\n      dup5\n        /* \"#utility.yul\":14400:14502   */\n      tag_242\n      jump\t// in\n    tag_419:\n        /* \"#utility.yul\":14392:14502   */\n      swap1\n      pop\n        /* \"#utility.yul\":14148:14509   */\n      swap3\n      swap2\n      pop\n      pop\n      jump\t// out\n        /* \"#utility.yul\":14515:14695   */\n    tag_243:\n        /* \"#utility.yul\":14563:14640   */\n      0x4e487b7100000000000000000000000000000000000000000000000000000000\n        /* \"#utility.yul\":14560:14561   */\n      0x00\n        /* \"#utility.yul\":14553:14641   */\n      mstore\n        /* \"#utility.yul\":14660:14664   */\n      0x22\n        /* \"#utility.yul\":14657:14658   */\n      0x04\n        /* \"#utility.yul\":14650:14665   */\n      mstore\n        /* \"#utility.yul\":14684:14688   */\n      0x24\n        /* \"#utility.yul\":14681:14682   */\n      0x00\n        /* \"#utility.yul\":14674:14689   */\n      revert\n        /* \"#utility.yul\":14701:15021   */\n    tag_69:\n        /* \"#utility.yul\":14745:14751   */\n      0x00\n        /* \"#utility.yul\":14782:14783   */\n      0x02\n        /* \"#utility.yul\":14776:14780   */\n      dup3\n        /* \"#utility.yul\":14772:14784   */\n      div\n        /* \"#utility.yul\":14762:14784   */\n      swap1\n      pop\n        /* \"#utility.yul\":14829:14830   */\n      0x01\n        /* \"#utility.yul\":14823:14827   */\n      dup3\n        /* \"#utility.yul\":14819:14831   */\n      and\n        /* \"#utility.yul\":14850:14868   */\n      dup1\n        /* \"#utility.yul\":14840:14921   */\n      tag_422\n      jumpi\n        /* \"#utility.yul\":14906:14910   */\n      0x7f\n        /* \"#utility.yul\":14898:14904   */\n      dup3\n        /* \"#utility.yul\":14894:14911   */\n      and\n        /* \"#utility.yul\":14884:14911   */\n      swap2\n      pop\n        /* \"#utility.yul\":14840:14921   */\n    tag_422:\n        /* \"#utility.yul\":14968:14970   */\n      0x20\n        /* \"#utility.yul\":14960:14966   */\n      dup3\n        /* \"#utility.yul\":14957:14971   */\n      lt\n        /* \"#utility.yul\":14937:14955   */\n      dup2\n        /* \"#utility.yul\":14934:14972   */\n      sub\n        /* \"#utility.yul\":14931:15015   */\n      tag_423\n      jumpi\n        /* \"#utility.yul\":14987:15005   */\n      tag_424\n      tag_243\n      jump\t// in\n    tag_424:\n        /* \"#utility.yul\":14931:15015   */\n    tag_423:\n        /* \"#utility.yul\":14752:15021   */\n      pop\n        /* \"#utility.yul\":14701:15021   */\n      swap2\n      swap1\n      pop\n      jump\t// out\n        /* \"#utility.yul\":15027:15144   */\n    tag_244:\n        /* \"#utility.yul\":15136:15137   */\n      0x00\n        /* \"#utility.yul\":15133:15134   */\n      dup1\n        /* \"#utility.yul\":15126:15138   */\n      revert\n        /* \"#utility.yul\":15150:15267   */\n    tag_245:\n        /* \"#utility.yul\":15259:15260   */\n      0x00\n        /* \"#utility.yul\":15256:15257   */\n      dup1\n        /* \"#utility.yul\":15249:15261   */\n      revert\n        /* \"#utility.yul\":15273:15707   */\n    tag_246:\n        /* \"#utility.yul\":15362:15367   */\n      0x00\n        /* \"#utility.yul\":15387:15453   */\n      tag_428\n        /* \"#utility.yul\":15403:15452   */\n      tag_429\n        /* \"#utility.yul\":15445:15451   */\n      dup5\n        /* \"#utility.yul\":15403:15452   */\n      tag_238\n      jump\t// in\n    tag_429:\n        /* \"#utility.yul\":15387:15453   */\n      tag_237\n      jump\t// in\n    tag_428:\n        /* \"#utility.yul\":15378:15453   */\n      swap1\n      pop\n        /* \"#utility.yul\":15476:15482   */\n      dup3\n        /* \"#utility.yul\":15469:15474   */\n      dup2\n        /* \"#utility.yul\":15462:15483   */\n      mstore\n        /* \"#utility.yul\":15514:15518   */\n      0x20\n        /* \"#utility.yul\":15507:15512   */\n      dup2\n        /* \"#utility.yul\":15503:15519   */\n      add\n        /* \"#utility.yul\":15552:15555   */\n      dup5\n        /* \"#utility.yul\":15543:15549   */\n      dup5\n        /* \"#utility.yul\":15538:15541   */\n      dup5\n        /* \"#utility.yul\":15534:15550   */\n      add\n        /* \"#utility.yul\":15531:15556   */\n      gt\n        /* \"#utility.yul\":15528:15640   */\n      iszero\n      tag_430\n      jumpi\n        /* \"#utility.yul\":15559:15638   */\n      tag_431\n      tag_234\n      jump\t// in\n    tag_431:\n        /* \"#utility.yul\":15528:15640   */\n    tag_430:\n        /* \"#utility.yul\":15649:15701   */\n      tag_432\n        /* \"#utility.yul\":15694:15700   */\n      dup5\n        /* \"#utility.yul\":15689:15692   */\n      dup3\n        /* \"#utility.yul\":15684:15687   */\n      dup6\n        /* \"#utility.yul\":15649:15701   */\n      tag_215\n      jump\t// in\n    tag_432:\n        /* \"#utility.yul\":15368:15707   */\n      pop\n        /* \"#utility.yul\":15273:15707   */\n      swap4\n      swap3\n      pop\n      pop\n      pop\n      jump\t// out\n        /* \"#utility.yul\":15727:16082   */\n    tag_247:\n        /* \"#utility.yul\":15794:15799   */\n      0x00\n        /* \"#utility.yul\":15843:15846   */\n      dup3\n        /* \"#utility.yul\":15836:15840   */\n      0x1f\n        /* \"#utility.yul\":15828:15834   */\n      dup4\n        /* \"#utility.yul\":15824:15841   */\n      add\n        /* \"#utility.yul\":15820:15847   */\n      slt\n        /* \"#utility.yul\":15810:15932   */\n      tag_434\n      jumpi\n        /* \"#utility.yul\":15851:15930   */\n      tag_435\n      tag_233\n      jump\t// in\n    tag_435:\n        /* \"#utility.yul\":15810:15932   */\n    tag_434:\n        /* \"#utility.yul\":15961:15967   */\n      dup2\n        /* \"#utility.yul\":15955:15968   */\n      mload\n        /* \"#utility.yul\":15986:16076   */\n      tag_436\n        /* \"#utility.yul\":16072:16075   */\n      dup5\n        /* \"#utility.yul\":16064:16070   */\n      dup3\n        /* \"#utility.yul\":16057:16061   */\n      0x20\n        /* \"#utility.yul\":16049:16055   */\n      dup7\n        /* \"#utility.yul\":16045:16062   */\n      add\n        /* \"#utility.yul\":15986:16076   */\n      tag_246\n      jump\t// in\n    tag_436:\n        /* \"#utility.yul\":15977:16076   */\n      swap2\n      pop\n        /* \"#utility.yul\":15800:16082   */\n      pop\n        /* \"#utility.yul\":15727:16082   */\n      swap3\n      swap2\n      pop\n      pop\n      jump\t// out\n        /* \"#utility.yul\":16123:17065   */\n    tag_248:\n        /* \"#utility.yul\":16211:16216   */\n      0x00\n        /* \"#utility.yul\":16255:16259   */\n      0x40\n        /* \"#utility.yul\":16243:16252   */\n      dup3\n        /* \"#utility.yul\":16238:16241   */\n      dup5\n        /* \"#utility.yul\":16234:16253   */\n      sub\n        /* \"#utility.yul\":16230:16260   */\n      slt\n        /* \"#utility.yul\":16227:16344   */\n      iszero\n      tag_438\n      jumpi\n        /* \"#utility.yul\":16263:16342   */\n      tag_439\n      tag_244\n      jump\t// in\n    tag_439:\n        /* \"#utility.yul\":16227:16344   */\n    tag_438:\n        /* \"#utility.yul\":16362:16383   */\n      tag_440\n        /* \"#utility.yul\":16378:16382   */\n      0x40\n        /* \"#utility.yul\":16362:16383   */\n      tag_237\n      jump\t// in\n    tag_440:\n        /* \"#utility.yul\":16353:16383   */\n      swap1\n      pop\n        /* \"#utility.yul\":16470:16471   */\n      0x00\n        /* \"#utility.yul\":16459:16468   */\n      dup3\n        /* \"#utility.yul\":16455:16472   */\n      add\n        /* \"#utility.yul\":16449:16473   */\n      mload\n        /* \"#utility.yul\":16500:16518   */\n      0xffffffffffffffff\n        /* \"#utility.yul\":16492:16498   */\n      dup2\n        /* \"#utility.yul\":16489:16519   */\n      gt\n        /* \"#utility.yul\":16486:16603   */\n      iszero\n      tag_441\n      jumpi\n        /* \"#utility.yul\":16522:16601   */\n      tag_442\n      tag_245\n      jump\t// in\n    tag_442:\n        /* \"#utility.yul\":16486:16603   */\n    tag_441:\n        /* \"#utility.yul\":16642:16712   */\n      tag_443\n        /* \"#utility.yul\":16708:16711   */\n      dup5\n        /* \"#utility.yul\":16699:16705   */\n      dup3\n        /* \"#utility.yul\":16688:16697   */\n      dup6\n        /* \"#utility.yul\":16684:16706   */\n      add\n        /* \"#utility.yul\":16642:16712   */\n      tag_247\n      jump\t// in\n    tag_443:\n        /* \"#utility.yul\":16635:16639   */\n      0x00\n        /* \"#utility.yul\":16628:16633   */\n      dup4\n        /* \"#utility.yul\":16624:16640   */\n      add\n        /* \"#utility.yul\":16617:16713   */\n      mstore\n        /* \"#utility.yul\":16393:16724   */\n      pop\n        /* \"#utility.yul\":16803:16805   */\n      0x20\n        /* \"#utility.yul\":16792:16801   */\n      dup3\n        /* \"#utility.yul\":16788:16806   */\n      add\n        /* \"#utility.yul\":16782:16807   */\n      mload\n        /* \"#utility.yul\":16834:16852   */\n      0xffffffffffffffff\n        /* \"#utility.yul\":16826:16832   */\n      dup2\n        /* \"#utility.yul\":16823:16853   */\n      gt\n        /* \"#utility.yul\":16820:16937   */\n      iszero\n      tag_444\n      jumpi\n        /* \"#utility.yul\":16856:16935   */\n      tag_445\n      tag_245\n      jump\t// in\n    tag_445:\n        /* \"#utility.yul\":16820:16937   */\n    tag_444:\n        /* \"#utility.yul\":16976:17046   */\n      tag_446\n        /* \"#utility.yul\":17042:17045   */\n      dup5\n        /* \"#utility.yul\":17033:17039   */\n      dup3\n        /* \"#utility.yul\":17022:17031   */\n      dup6\n        /* \"#utility.yul\":17018:17040   */\n      add\n        /* \"#utility.yul\":16976:17046   */\n      tag_247\n      jump\t// in\n    tag_446:\n        /* \"#utility.yul\":16969:16973   */\n      0x20\n        /* \"#utility.yul\":16962:16967   */\n      dup4\n        /* \"#utility.yul\":16958:16974   */\n      add\n        /* \"#utility.yul\":16951:17047   */\n      mstore\n        /* \"#utility.yul\":16734:17058   */\n      pop\n        /* \"#utility.yul\":16123:17065   */\n      swap3\n      swap2\n      pop\n      pop\n      jump\t// out\n        /* \"#utility.yul\":17071:17631   */\n    tag_88:\n        /* \"#utility.yul\":17169:17175   */\n      0x00\n        /* \"#utility.yul\":17218:17220   */\n      0x20\n        /* \"#utility.yul\":17206:17215   */\n      dup3\n        /* \"#utility.yul\":17197:17204   */\n      dup5\n        /* \"#utility.yul\":17193:17216   */\n      sub\n        /* \"#utility.yul\":17189:17221   */\n      slt\n        /* \"#utility.yul\":17186:17305   */\n      iszero\n      tag_448\n      jumpi\n        /* \"#utility.yul\":17224:17303   */\n      tag_449\n      tag_202\n      jump\t// in\n    tag_449:\n        /* \"#utility.yul\":17186:17305   */\n    tag_448:\n        /* \"#utility.yul\":17365:17366   */\n      0x00\n        /* \"#utility.yul\":17354:17363   */\n      dup3\n        /* \"#utility.yul\":17350:17367   */\n      add\n        /* \"#utility.yul\":17344:17368   */\n      mload\n        /* \"#utility.yul\":17395:17413   */\n      0xffffffffffffffff\n        /* \"#utility.yul\":17387:17393   */\n      dup2\n        /* \"#utility.yul\":17384:17414   */\n      gt\n        /* \"#utility.yul\":17381:17498   */\n      iszero\n      tag_450\n      jumpi\n        /* \"#utility.yul\":17417:17496   */\n      tag_451\n      tag_203\n      jump\t// in\n    tag_451:\n        /* \"#utility.yul\":17381:17498   */\n    tag_450:\n        /* \"#utility.yul\":17522:17614   */\n      tag_452\n        /* \"#utility.yul\":17606:17613   */\n      dup5\n        /* \"#utility.yul\":17597:17603   */\n      dup3\n        /* \"#utility.yul\":17586:17595   */\n      dup6\n        /* \"#utility.yul\":17582:17604   */\n      add\n        /* \"#utility.yul\":17522:17614   */\n      tag_248\n      jump\t// in\n    tag_452:\n        /* \"#utility.yul\":17512:17614   */\n      swap2\n      pop\n        /* \"#utility.yul\":17315:17624   */\n      pop\n        /* \"#utility.yul\":17071:17631   */\n      swap3\n      swap2\n      pop\n      pop\n      jump\t// out\n        /* \"#utility.yul\":17637:17806   */\n    tag_249:\n        /* \"#utility.yul\":17777:17798   */\n      0x55534552204e4f54205245474953544552454400000000000000000000000000\n        /* \"#utility.yul\":17773:17774   */\n      0x00\n        /* \"#utility.yul\":17765:17771   */\n      dup3\n        /* \"#utility.yul\":17761:17775   */\n      add\n        /* \"#utility.yul\":17754:17799   */\n      mstore\n        /* \"#utility.yul\":17637:17806   */\n      pop\n      jump\t// out\n        /* \"#utility.yul\":17812:18178   */\n    tag_250:\n        /* \"#utility.yul\":17954:17957   */\n      0x00\n        /* \"#utility.yul\":17975:18042   */\n      tag_455\n        /* \"#utility.yul\":18039:18041   */\n      0x13\n        /* \"#utility.yul\":18034:18037   */\n      dup4\n        /* \"#utility.yul\":17975:18042   */\n      tag_214\n      jump\t// in\n    tag_455:\n        /* \"#utility.yul\":17968:18042   */\n      swap2\n      pop\n        /* \"#utility.yul\":18051:18144   */\n      tag_456\n        /* \"#utility.yul\":18140:18143   */\n      dup3\n        /* \"#utility.yul\":18051:18144   */\n      tag_249\n      jump\t// in\n    tag_456:\n        /* \"#utility.yul\":18169:18171   */\n      0x20\n        /* \"#utility.yul\":18164:18167   */\n      dup3\n        /* \"#utility.yul\":18160:18172   */\n      add\n        /* \"#utility.yul\":18153:18172   */\n      swap1\n      pop\n        /* \"#utility.yul\":17812:18178   */\n      swap2\n      swap1\n      pop\n      jump\t// out\n        /* \"#utility.yul\":18184:18603   */\n    tag_91:\n        /* \"#utility.yul\":18350:18354   */\n      0x00\n        /* \"#utility.yul\":18388:18390   */\n      0x20\n        /* \"#utility.yul\":18377:18386   */\n      dup3\n        /* \"#utility.yul\":18373:18391   */\n      add\n        /* \"#utility.yul\":18365:18391   */\n      swap1\n      pop\n        /* \"#utility.yul\":18437:18446   */\n      dup2\n        /* \"#utility.yul\":18431:18435   */\n      dup2\n        /* \"#utility.yul\":18427:18447   */\n      sub\n        /* \"#utility.yul\":18423:18424   */\n      0x00\n        /* \"#utility.yul\":18412:18421   */\n      dup4\n        /* \"#utility.yul\":18408:18425   */\n      add\n        /* \"#utility.yul\":18401:18448   */\n      mstore\n        /* \"#utility.yul\":18465:18596   */\n      tag_458\n        /* \"#utility.yul\":18591:18595   */\n      dup2\n        /* \"#utility.yul\":18465:18596   */\n      tag_250\n      jump\t// in\n    tag_458:\n        /* \"#utility.yul\":18457:18596   */\n      swap1\n      pop\n        /* \"#utility.yul\":18184:18603   */\n      swap2\n      swap1\n      pop\n      jump\t// out\n        /* \"#utility.yul\":18609:18789   */\n    tag_95:\n        /* \"#utility.yul\":18657:18734   */\n      0x4e487b7100000000000000000000000000000000000000000000000000000000\n        /* \"#utility.yul\":18654:18655   */\n      0x00\n        /* \"#utility.yul\":18647:18735   */\n      mstore\n        /* \"#utility.yul\":18754:18758   */\n      0x32\n        /* \"#utility.yul\":18751:18752   */\n      0x04\n        /* \"#utility.yul\":18744:18759   */\n      mstore\n        /* \"#utility.yul\":18778:18782   */\n      0x24\n        /* \"#utility.yul\":18775:18776   */\n      0x00\n        /* \"#utility.yul\":18768:18783   */\n      revert\n        /* \"#utility.yul\":18795:18965   */\n    tag_251:\n        /* \"#utility.yul\":18935:18957   */\n      0x545745455420444f4553204e4f54204558495354000000000000000000000000\n        /* \"#utility.yul\":18931:18932   */\n      0x00\n        /* \"#utility.yul\":18923:18929   */\n      dup3\n        /* \"#utility.yul\":18919:18933   */\n      add\n        /* \"#utility.yul\":18912:18958   */\n      mstore\n        /* \"#utility.yul\":18795:18965   */\n      pop\n      jump\t// out\n        /* \"#utility.yul\":18971:19337   */\n    tag_252:\n        /* \"#utility.yul\":19113:19116   */\n      0x00\n        /* \"#utility.yul\":19134:19201   */\n      tag_462\n        /* \"#utility.yul\":19198:19200   */\n      0x14\n        /* \"#utility.yul\":19193:19196   */\n      dup4\n        /* \"#utility.yul\":19134:19201   */\n      tag_214\n      jump\t// in\n    tag_462:\n        /* \"#utility.yul\":19127:19201   */\n      swap2\n      pop\n        /* \"#utility.yul\":19210:19303   */\n      tag_463\n        /* \"#utility.yul\":19299:19302   */\n      dup3\n        /* \"#utility.yul\":19210:19303   */\n      tag_251\n      jump\t// in\n    tag_463:\n        /* \"#utility.yul\":19328:19330   */\n      0x20\n        /* \"#utility.yul\":19323:19326   */\n      dup3\n        /* \"#utility.yul\":19319:19331   */\n      add\n        /* \"#utility.yul\":19312:19331   */\n      swap1\n      pop\n        /* \"#utility.yul\":18971:19337   */\n      swap2\n      swap1\n      pop\n      jump\t// out\n        /* \"#utility.yul\":19343:19762   */\n    tag_99:\n        /* \"#utility.yul\":19509:19513   */\n      0x00\n        /* \"#utility.yul\":19547:19549   */\n      0x20\n        /* \"#utility.yul\":19536:19545   */\n      dup3\n        /* \"#utility.yul\":19532:19550   */\n      add\n        /* \"#utility.yul\":19524:19550   */\n      swap1\n      pop\n        /* \"#utility.yul\":19596:19605   */\n      dup2\n        /* \"#utility.yul\":19590:19594   */\n      dup2\n        /* \"#utility.yul\":19586:19606   */\n      sub\n        /* \"#utility.yul\":19582:19583   */\n      0x00\n        /* \"#utility.yul\":19571:19580   */\n      dup4\n        /* \"#utility.yul\":19567:19584   */\n      add\n        /* \"#utility.yul\":19560:19607   */\n      mstore\n        /* \"#utility.yul\":19624:19755   */\n      tag_465\n        /* \"#utility.yul\":19750:19754   */\n      dup2\n        /* \"#utility.yul\":19624:19755   */\n      tag_252\n      jump\t// in\n    tag_465:\n        /* \"#utility.yul\":19616:19755   */\n      swap1\n      pop\n        /* \"#utility.yul\":19343:19762   */\n      swap2\n      swap1\n      pop\n      jump\t// out\n        /* \"#utility.yul\":19768:19936   */\n    tag_253:\n        /* \"#utility.yul\":19908:19928   */\n      0x545745455420484153204e4f204c494b45530000000000000000000000000000\n        /* \"#utility.yul\":19904:19905   */\n      0x00\n        /* \"#utility.yul\":19896:19902   */\n      dup3\n        /* \"#utility.yul\":19892:19906   */\n      add\n        /* \"#utility.yul\":19885:19929   */\n      mstore\n        /* \"#utility.yul\":19768:19936   */\n      pop\n      jump\t// out\n        /* \"#utility.yul\":19942:20308   */\n    tag_254:\n        /* \"#utility.yul\":20084:20087   */\n      0x00\n        /* \"#utility.yul\":20105:20172   */\n      tag_468\n        /* \"#utility.yul\":20169:20171   */\n      0x12\n        /* \"#utility.yul\":20164:20167   */\n      dup4\n        /* \"#utility.yul\":20105:20172   */\n      tag_214\n      jump\t// in\n    tag_468:\n        /* \"#utility.yul\":20098:20172   */\n      swap2\n      pop\n        /* \"#utility.yul\":20181:20274   */\n      tag_469\n        /* \"#utility.yul\":20270:20273   */\n      dup3\n        /* \"#utility.yul\":20181:20274   */\n      tag_253\n      jump\t// in\n    tag_469:\n        /* \"#utility.yul\":20299:20301   */\n      0x20\n        /* \"#utility.yul\":20294:20297   */\n      dup3\n        /* \"#utility.yul\":20290:20302   */\n      add\n        /* \"#utility.yul\":20283:20302   */\n      swap1\n      pop\n        /* \"#utility.yul\":19942:20308   */\n      swap2\n      swap1\n      pop\n      jump\t// out\n        /* \"#utility.yul\":20314:20733   */\n    tag_105:\n        /* \"#utility.yul\":20480:20484   */\n      0x00\n        /* \"#utility.yul\":20518:20520   */\n      0x20\n        /* \"#utility.yul\":20507:20516   */\n      dup3\n        /* \"#utility.yul\":20503:20521   */\n      add\n        /* \"#utility.yul\":20495:20521   */\n      swap1\n      pop\n        /* \"#utility.yul\":20567:20576   */\n      dup2\n        /* \"#utility.yul\":20561:20565   */\n      dup2\n        /* \"#utility.yul\":20557:20577   */\n      sub\n        /* \"#utility.yul\":20553:20554   */\n      0x00\n        /* \"#utility.yul\":20542:20551   */\n      dup4\n        /* \"#utility.yul\":20538:20555   */\n      add\n        /* \"#utility.yul\":20531:20578   */\n      mstore\n        /* \"#utility.yul\":20595:20726   */\n      tag_471\n        /* \"#utility.yul\":20721:20725   */\n      dup2\n        /* \"#utility.yul\":20595:20726   */\n      tag_254\n      jump\t// in\n    tag_471:\n        /* \"#utility.yul\":20587:20726   */\n      swap1\n      pop\n        /* \"#utility.yul\":20314:20733   */\n      swap2\n      swap1\n      pop\n      jump\t// out\n        /* \"#utility.yul\":20739:20919   */\n    tag_255:\n        /* \"#utility.yul\":20787:20864   */\n      0x4e487b7100000000000000000000000000000000000000000000000000000000\n        /* \"#utility.yul\":20784:20785   */\n      0x00\n        /* \"#utility.yul\":20777:20865   */\n      mstore\n        /* \"#utility.yul\":20884:20888   */\n      0x11\n        /* \"#utility.yul\":20881:20882   */\n      0x04\n        /* \"#utility.yul\":20874:20889   */\n      mstore\n        /* \"#utility.yul\":20908:20912   */\n      0x24\n        /* \"#utility.yul\":20905:20906   */\n      0x00\n        /* \"#utility.yul\":20898:20913   */\n      revert\n        /* \"#utility.yul\":20925:21096   */\n    tag_110:\n        /* \"#utility.yul\":20964:20967   */\n      0x00\n        /* \"#utility.yul\":20987:21011   */\n      tag_474\n        /* \"#utility.yul\":21005:21010   */\n      dup3\n        /* \"#utility.yul\":20987:21011   */\n      tag_208\n      jump\t// in\n    tag_474:\n        /* \"#utility.yul\":20978:21011   */\n      swap2\n      pop\n        /* \"#utility.yul\":21033:21037   */\n      0x00\n        /* \"#utility.yul\":21026:21031   */\n      dup3\n        /* \"#utility.yul\":21023:21038   */\n      sub\n        /* \"#utility.yul\":21020:21061   */\n      tag_475\n      jumpi\n        /* \"#utility.yul\":21041:21059   */\n      tag_476\n      tag_255\n      jump\t// in\n    tag_476:\n        /* \"#utility.yul\":21020:21061   */\n    tag_475:\n        /* \"#utility.yul\":21088:21089   */\n      0x01\n        /* \"#utility.yul\":21081:21086   */\n      dup3\n        /* \"#utility.yul\":21077:21090   */\n      sub\n        /* \"#utility.yul\":21070:21090   */\n      swap1\n      pop\n        /* \"#utility.yul\":20925:21096   */\n      swap2\n      swap1\n      pop\n      jump\t// out\n        /* \"#utility.yul\":21102:21655   */\n    tag_115:\n        /* \"#utility.yul\":21279:21283   */\n      0x00\n        /* \"#utility.yul\":21317:21320   */\n      0x80\n        /* \"#utility.yul\":21306:21315   */\n      dup3\n        /* \"#utility.yul\":21302:21321   */\n      add\n        /* \"#utility.yul\":21294:21321   */\n      swap1\n      pop\n        /* \"#utility.yul\":21331:21402   */\n      tag_478\n        /* \"#utility.yul\":21399:21400   */\n      0x00\n        /* \"#utility.yul\":21388:21397   */\n      dup4\n        /* \"#utility.yul\":21384:21401   */\n      add\n        /* \"#utility.yul\":21375:21381   */\n      dup8\n        /* \"#utility.yul\":21331:21402   */\n      tag_212\n      jump\t// in\n    tag_478:\n        /* \"#utility.yul\":21412:21484   */\n      tag_479\n        /* \"#utility.yul\":21480:21482   */\n      0x20\n        /* \"#utility.yul\":21469:21478   */\n      dup4\n        /* \"#utility.yul\":21465:21483   */\n      add\n        /* \"#utility.yul\":21456:21462   */\n      dup7\n        /* \"#utility.yul\":21412:21484   */\n      tag_212\n      jump\t// in\n    tag_479:\n        /* \"#utility.yul\":21494:21566   */\n      tag_480\n        /* \"#utility.yul\":21562:21564   */\n      0x40\n        /* \"#utility.yul\":21551:21560   */\n      dup4\n        /* \"#utility.yul\":21547:21565   */\n      add\n        /* \"#utility.yul\":21538:21544   */\n      dup6\n        /* \"#utility.yul\":21494:21566   */\n      tag_211\n      jump\t// in\n    tag_480:\n        /* \"#utility.yul\":21576:21648   */\n      tag_481\n        /* \"#utility.yul\":21644:21646   */\n      0x60\n        /* \"#utility.yul\":21633:21642   */\n      dup4\n        /* \"#utility.yul\":21629:21647   */\n      add\n        /* \"#utility.yul\":21620:21626   */\n      dup5\n        /* \"#utility.yul\":21576:21648   */\n      tag_211\n      jump\t// in\n    tag_481:\n        /* \"#utility.yul\":21102:21655   */\n      swap6\n      swap5\n      pop\n      pop\n      pop\n      pop\n      pop\n      jump\t// out\n        /* \"#utility.yul\":21661:21894   */\n    tag_137:\n        /* \"#utility.yul\":21700:21703   */\n      0x00\n        /* \"#utility.yul\":21723:21747   */\n      tag_483\n        /* \"#utility.yul\":21741:21746   */\n      dup3\n        /* \"#utility.yul\":21723:21747   */\n      tag_208\n      jump\t// in\n    tag_483:\n        /* \"#utility.yul\":21714:21747   */\n      swap2\n      pop\n        /* \"#utility.yul\":21769:21835   */\n      0xffffffffffffffffffffffffffffffffffffffffffffffffffffffffffffffff\n        /* \"#utility.yul\":21762:21767   */\n      dup3\n        /* \"#utility.yul\":21759:21836   */\n      sub\n        /* \"#utility.yul\":21756:21859   */\n      tag_484\n      jumpi\n        /* \"#utility.yul\":21839:21857   */\n      tag_485\n      tag_255\n      jump\t// in\n    tag_485:\n        /* \"#utility.yul\":21756:21859   */\n    tag_484:\n        /* \"#utility.yul\":21886:21887   */\n      0x01\n        /* \"#utility.yul\":21879:21884   */\n      dup3\n        /* \"#utility.yul\":21875:21888   */\n      add\n        /* \"#utility.yul\":21868:21888   */\n      swap1\n      pop\n        /* \"#utility.yul\":21661:21894   */\n      swap2\n      swap1\n      pop\n      jump\t// out\n        /* \"#utility.yul\":21900:22072   */\n    tag_256:\n        /* \"#utility.yul\":22040:22064   */\n      0x547765657420697320746f6f206c6f6e672062726f2100000000000000000000\n        /* \"#utility.yul\":22036:22037   */\n      0x00\n        /* \"#utility.yul\":22028:22034   */\n      dup3\n        /* \"#utility.yul\":22024:22038   */\n      add\n        /* \"#utility.yul\":22017:22065   */\n      mstore\n        /* \"#utility.yul\":21900:22072   */\n      pop\n      jump\t// out\n        /* \"#utility.yul\":22078:22444   */\n    tag_257:\n        /* \"#utility.yul\":22220:22223   */\n      0x00\n        /* \"#utility.yul\":22241:22308   */\n      tag_488\n        /* \"#utility.yul\":22305:22307   */\n      0x16\n        /* \"#utility.yul\":22300:22303   */\n      dup4\n        /* \"#utility.yul\":22241:22308   */\n      tag_214\n      jump\t// in\n    tag_488:\n        /* \"#utility.yul\":22234:22308   */\n      swap2\n      pop\n        /* \"#utility.yul\":22317:22410   */\n      tag_489\n        /* \"#utility.yul\":22406:22409   */\n      dup3\n        /* \"#utility.yul\":22317:22410   */\n      tag_256\n      jump\t// in\n    tag_489:\n        /* \"#utility.yul\":22435:22437   */\n      0x20\n        /* \"#utility.yul\":22430:22433   */\n      dup3\n        /* \"#utility.yul\":22426:22438   */\n      add\n        /* \"#utility.yul\":22419:22438   */\n      swap1\n      pop\n        /* \"#utility.yul\":22078:22444   */\n      swap2\n      swap1\n      pop\n      jump\t// out\n        /* \"#utility.yul\":22450:22869   */\n    tag_157:\n        /* \"#utility.yul\":22616:22620   */\n      0x00\n        /* \"#utility.yul\":22654:22656   */\n      0x20\n        /* \"#utility.yul\":22643:22652   */\n      dup3\n        /* \"#utility.yul\":22639:22657   */\n      add\n        /* \"#utility.yul\":22631:22657   */\n      swap1\n      pop\n        /* \"#utility.yul\":22703:22712   */\n      dup2\n        /* \"#utility.yul\":22697:22701   */\n      dup2\n        /* \"#utility.yul\":22693:22713   */\n      sub\n        /* \"#utility.yul\":22689:22690   */\n      0x00\n        /* \"#utility.yul\":22678:22687   */\n      dup4\n        /* \"#utility.yul\":22674:22691   */\n      add\n        /* \"#utility.yul\":22667:22714   */\n      mstore\n        /* \"#utility.yul\":22731:22862   */\n      tag_491\n        /* \"#utility.yul\":22857:22861   */\n      dup2\n        /* \"#utility.yul\":22731:22862   */\n      tag_257\n      jump\t// in\n    tag_491:\n        /* \"#utility.yul\":22723:22862   */\n      swap1\n      pop\n        /* \"#utility.yul\":22450:22869   */\n      swap2\n      swap1\n      pop\n      jump\t// out\n        /* \"#utility.yul\":22875:23016   */\n    tag_258:\n        /* \"#utility.yul\":22924:22928   */\n      0x00\n        /* \"#utility.yul\":22947:22950   */\n      dup2\n        /* \"#utility.yul\":22939:22950   */\n      swap1\n      pop\n        /* \"#utility.yul\":22970:22973   */\n      dup2\n        /* \"#utility.yul\":22967:22968   */\n      0x00\n        /* \"#utility.yul\":22960:22974   */\n      mstore\n        /* \"#utility.yul\":23004:23008   */\n      0x20\n        /* \"#utility.yul\":23001:23002   */\n      0x00\n        /* \"#utility.yul\":22991:23009   */\n      keccak256\n        /* \"#utility.yul\":22983:23009   */\n      swap1\n      pop\n        /* \"#utility.yul\":22875:23016   */\n      swap2\n      swap1\n      pop\n      jump\t// out\n        /* \"#utility.yul\":23022:23115   */\n    tag_259:\n        /* \"#utility.yul\":23059:23065   */\n      0x00\n        /* \"#utility.yul\":23106:23108   */\n      0x20\n        /* \"#utility.yul\":23101:23103   */\n      0x1f\n        /* \"#utility.yul\":23094:23099   */\n      dup4\n        /* \"#utility.yul\":23090:23104   */\n      add\n        /* \"#utility.yul\":23086:23109   */\n      div\n        /* \"#utility.yul\":23076:23109   */\n      swap1\n      pop\n        /* \"#utility.yul\":23022:23115   */\n      swap2\n      swap1\n      pop\n      jump\t// out\n        /* \"#utility.yul\":23121:23228   */\n    tag_260:\n        /* \"#utility.yul\":23165:23173   */\n      0x00\n        /* \"#utility.yul\":23215:23220   */\n      dup3\n        /* \"#utility.yul\":23209:23213   */\n      dup3\n        /* \"#utility.yul\":23205:23221   */\n      shl\n        /* \"#utility.yul\":23184:23221   */\n      swap1\n      pop\n        /* \"#utility.yul\":23121:23228   */\n      swap3\n      swap2\n      pop\n      pop\n      jump\t// out\n        /* \"#utility.yul\":23234:23627   */\n    tag_261:\n        /* \"#utility.yul\":23303:23309   */\n      0x00\n        /* \"#utility.yul\":23353:23354   */\n      0x08\n        /* \"#utility.yul\":23341:23351   */\n      dup4\n        /* \"#utility.yul\":23337:23355   */\n      mul\n        /* \"#utility.yul\":23376:23473   */\n      tag_496\n        /* \"#utility.yul\":23406:23472   */\n      0xffffffffffffffffffffffffffffffffffffffffffffffffffffffffffffffff\n        /* \"#utility.yul\":23395:23404   */\n      dup3\n        /* \"#utility.yul\":23376:23473   */\n      tag_260\n      jump\t// in\n    tag_496:\n        /* \"#utility.yul\":23494:23533   */\n      tag_497\n        /* \"#utility.yul\":23524:23532   */\n      dup7\n        /* \"#utility.yul\":23513:23522   */\n      dup4\n        /* \"#utility.yul\":23494:23533   */\n      tag_260\n      jump\t// in\n    tag_497:\n        /* \"#utility.yul\":23482:23533   */\n      swap6\n      pop\n        /* \"#utility.yul\":23566:23570   */\n      dup1\n        /* \"#utility.yul\":23562:23571   */\n      not\n        /* \"#utility.yul\":23555:23560   */\n      dup5\n        /* \"#utility.yul\":23551:23572   */\n      and\n        /* \"#utility.yul\":23542:23572   */\n      swap4\n      pop\n        /* \"#utility.yul\":23615:23619   */\n      dup1\n        /* \"#utility.yul\":23605:23613   */\n      dup7\n        /* \"#utility.yul\":23601:23620   */\n      and\n        /* \"#utility.yul\":23594:23599   */\n      dup5\n        /* \"#utility.yul\":23591:23621   */\n      or\n        /* \"#utility.yul\":23581:23621   */\n      swap3\n      pop\n        /* \"#utility.yul\":23310:23627   */\n      pop\n      pop\n        /* \"#utility.yul\":23234:23627   */\n      swap4\n      swap3\n      pop\n      pop\n      pop\n      jump\t// out\n        /* \"#utility.yul\":23633:23693   */\n    tag_262:\n        /* \"#utility.yul\":23661:23664   */\n      0x00\n        /* \"#utility.yul\":23682:23687   */\n      dup2\n        /* \"#utility.yul\":23675:23687   */\n      swap1\n      pop\n        /* \"#utility.yul\":23633:23693   */\n      swap2\n      swap1\n      pop\n      jump\t// out\n        /* \"#utility.yul\":23699:23841   */\n    tag_263:\n        /* \"#utility.yul\":23749:23758   */\n      0x00\n        /* \"#utility.yul\":23782:23835   */\n      tag_500\n        /* \"#utility.yul\":23800:23834   */\n      tag_501\n        /* \"#utility.yul\":23809:23833   */\n      tag_502\n        /* \"#utility.yul\":23827:23832   */\n      dup5\n        /* \"#utility.yul\":23809:23833   */\n      tag_208\n      jump\t// in\n    tag_502:\n        /* \"#utility.yul\":23800:23834   */\n      tag_262\n      jump\t// in\n    tag_501:\n        /* \"#utility.yul\":23782:23835   */\n      tag_208\n      jump\t// in\n    tag_500:\n        /* \"#utility.yul\":23769:23835   */\n      swap1\n      pop\n        /* \"#utility.yul\":23699:23841   */\n      swap2\n      swap1\n      pop\n      jump\t// out\n        /* \"#utility.yul\":23847:23922   */\n    tag_264:\n        /* \"#utility.yul\":23890:23893   */\n      0x00\n        /* \"#utility.yul\":23911:23916   */\n      dup2\n        /* \"#utility.yul\":23904:23916   */\n      swap1\n      pop\n        /* \"#utility.yul\":23847:23922   */\n      swap2\n      swap1\n      pop\n      jump\t// out\n        /* \"#utility.yul\":23928:24197   */\n    tag_265:\n        /* \"#utility.yul\":24038:24077   */\n      tag_505\n        /* \"#utility.yul\":24069:24076   */\n      dup4\n        /* \"#utility.yul\":24038:24077   */\n      tag_263\n      jump\t// in\n    tag_505:\n        /* \"#utility.yul\":24099:24190   */\n      tag_506\n        /* \"#utility.yul\":24148:24189   */\n      tag_507\n        /* \"#utility.yul\":24172:24188   */\n      dup3\n        /* \"#utility.yul\":24148:24189   */\n      tag_264\n      jump\t// in\n    tag_507:\n        /* \"#utility.yul\":24140:24146   */\n      dup5\n        /* \"#utility.yul\":24133:24137   */\n      dup5\n        /* \"#utility.yul\":24127:24138   */\n      sload\n        /* \"#utility.yul\":24099:24190   */\n      tag_261\n      jump\t// in\n    tag_506:\n        /* \"#utility.yul\":24093:24097   */\n      dup3\n        /* \"#utility.yul\":24086:24191   */\n      sstore\n        /* \"#utility.yul\":24004:24197   */\n      pop\n        /* \"#utility.yul\":23928:24197   */\n      pop\n      pop\n      pop\n      jump\t// out\n        /* \"#utility.yul\":24203:24276   */\n    tag_266:\n        /* \"#utility.yul\":24248:24251   */\n      0x00\n        /* \"#utility.yul\":24203:24276   */\n      swap1\n      jump\t// out\n        /* \"#utility.yul\":24282:24471   */\n    tag_267:\n        /* \"#utility.yul\":24359:24391   */\n      tag_510\n      tag_266\n      jump\t// in\n    tag_510:\n        /* \"#utility.yul\":24400:24465   */\n      tag_511\n        /* \"#utility.yul\":24458:24464   */\n      dup2\n        /* \"#utility.yul\":24450:24456   */\n      dup5\n        /* \"#utility.yul\":24444:24448   */\n      dup5\n        /* \"#utility.yul\":24400:24465   */\n      tag_265\n      jump\t// in\n    tag_511:\n        /* \"#utility.yul\":24335:24471   */\n      pop\n        /* \"#utility.yul\":24282:24471   */\n      pop\n      pop\n      jump\t// out\n        /* \"#utility.yul\":24477:24663   */\n    tag_268:\n        /* \"#utility.yul\":24537:24657   */\n    tag_513:\n        /* \"#utility.yul\":24554:24557   */\n      dup2\n        /* \"#utility.yul\":24547:24552   */\n      dup2\n        /* \"#utility.yul\":24544:24558   */\n      lt\n        /* \"#utility.yul\":24537:24657   */\n      iszero\n      tag_515\n      jumpi\n        /* \"#utility.yul\":24608:24647   */\n      tag_516\n        /* \"#utility.yul\":24645:24646   */\n      0x00\n        /* \"#utility.yul\":24638:24643   */\n      dup3\n        /* \"#utility.yul\":24608:24647   */\n      tag_267\n      jump\t// in\n    tag_516:\n        /* \"#utility.yul\":24581:24582   */\n      0x01\n        /* \"#utility.yul\":24574:24579   */\n      dup2\n        /* \"#utility.yul\":24570:24583   */\n      add\n        /* \"#utility.yul\":24561:24583   */\n      swap1\n      pop\n        /* \"#utility.yul\":24537:24657   */\n      jump(tag_513)\n    tag_515:\n        /* \"#utility.yul\":24477:24663   */\n      pop\n      pop\n      jump\t// out\n        /* \"#utility.yul\":24669:25212   */\n    tag_269:\n        /* \"#utility.yul\":24770:24772   */\n      0x1f\n        /* \"#utility.yul\":24765:24768   */\n      dup3\n        /* \"#utility.yul\":24762:24773   */\n      gt\n        /* \"#utility.yul\":24759:25205   */\n      iszero\n      tag_518\n      jumpi\n        /* \"#utility.yul\":24804:24842   */\n      tag_519\n        /* \"#utility.yul\":24836:24841   */\n      dup2\n        /* \"#utility.yul\":24804:24842   */\n      tag_258\n      jump\t// in\n    tag_519:\n        /* \"#utility.yul\":24888:24917   */\n      tag_520\n        /* \"#utility.yul\":24906:24916   */\n      dup5\n        /* \"#utility.yul\":24888:24917   */\n      tag_259\n      jump\t// in\n    tag_520:\n        /* \"#utility.yul\":24878:24886   */\n      dup2\n        /* \"#utility.yul\":24874:24918   */\n      add\n        /* \"#utility.yul\":25071:25073   */\n      0x20\n        /* \"#utility.yul\":25059:25069   */\n      dup6\n        /* \"#utility.yul\":25056:25074   */\n      lt\n        /* \"#utility.yul\":25053:25102   */\n      iszero\n      tag_521\n      jumpi\n        /* \"#utility.yul\":25092:25100   */\n      dup2\n        /* \"#utility.yul\":25077:25100   */\n      swap1\n      pop\n        /* \"#utility.yul\":25053:25102   */\n    tag_521:\n        /* \"#utility.yul\":25115:25195   */\n      tag_522\n        /* \"#utility.yul\":25171:25193   */\n      tag_523\n        /* \"#utility.yul\":25189:25192   */\n      dup6\n        /* \"#utility.yul\":25171:25193   */\n      tag_259\n      jump\t// in\n    tag_523:\n        /* \"#utility.yul\":25161:25169   */\n      dup4\n        /* \"#utility.yul\":25157:25194   */\n      add\n        /* \"#utility.yul\":25144:25155   */\n      dup3\n        /* \"#utility.yul\":25115:25195   */\n      tag_268\n      jump\t// in\n    tag_522:\n        /* \"#utility.yul\":24774:25205   */\n      pop\n      pop\n        /* \"#utility.yul\":24759:25205   */\n    tag_518:\n        /* \"#utility.yul\":24669:25212   */\n      pop\n      pop\n      pop\n      jump\t// out\n        /* \"#utility.yul\":25218:25335   */\n    tag_270:\n        /* \"#utility.yul\":25272:25280   */\n      0x00\n        /* \"#utility.yul\":25322:25327   */\n      dup3\n        /* \"#utility.yul\":25316:25320   */\n      dup3\n        /* \"#utility.yul\":25312:25328   */\n      shr\n        /* \"#utility.yul\":25291:25328   */\n      swap1\n      pop\n        /* \"#utility.yul\":25218:25335   */\n      swap3\n      swap2\n      pop\n      pop\n      jump\t// out\n        /* \"#utility.yul\":25341:25510   */\n    tag_271:\n        /* \"#utility.yul\":25385:25391   */\n      0x00\n        /* \"#utility.yul\":25418:25469   */\n      tag_526\n        /* \"#utility.yul\":25466:25467   */\n      0x00\n        /* \"#utility.yul\":25462:25468   */\n      not\n        /* \"#utility.yul\":25454:25459   */\n      dup5\n        /* \"#utility.yul\":25451:25452   */\n      0x08\n        /* \"#utility.yul\":25447:25460   */\n      mul\n        /* \"#utility.yul\":25418:25469   */\n      tag_270\n      jump\t// in\n    tag_526:\n        /* \"#utility.yul\":25414:25470   */\n      not\n        /* \"#utility.yul\":25499:25503   */\n      dup1\n        /* \"#utility.yul\":25493:25497   */\n      dup4\n        /* \"#utility.yul\":25489:25504   */\n      and\n        /* \"#utility.yul\":25479:25504   */\n      swap2\n      pop\n        /* \"#utility.yul\":25392:25510   */\n      pop\n        /* \"#utility.yul\":25341:25510   */\n      swap3\n      swap2\n      pop\n      pop\n      jump\t// out\n        /* \"#utility.yul\":25515:25810   */\n    tag_272:\n        /* \"#utility.yul\":25591:25595   */\n      0x00\n        /* \"#utility.yul\":25737:25766   */\n      tag_528\n        /* \"#utility.yul\":25762:25765   */\n      dup4\n        /* \"#utility.yul\":25756:25760   */\n      dup4\n        /* \"#utility.yul\":25737:25766   */\n      tag_271\n      jump\t// in\n    tag_528:\n        /* \"#utility.yul\":25729:25766   */\n      swap2\n      pop\n        /* \"#utility.yul\":25799:25802   */\n      dup3\n        /* \"#utility.yul\":25796:25797   */\n      0x02\n        /* \"#utility.yul\":25792:25803   */\n      mul\n        /* \"#utility.yul\":25786:25790   */\n      dup3\n        /* \"#utility.yul\":25783:25804   */\n      or\n        /* \"#utility.yul\":25775:25804   */\n      swap1\n      pop\n        /* \"#utility.yul\":25515:25810   */\n      swap3\n      swap2\n      pop\n      pop\n      jump\t// out\n        /* \"#utility.yul\":25815:27210   */\n    tag_160:\n        /* \"#utility.yul\":25932:25969   */\n      tag_530\n        /* \"#utility.yul\":25965:25968   */\n      dup3\n        /* \"#utility.yul\":25932:25969   */\n      tag_213\n      jump\t// in\n    tag_530:\n        /* \"#utility.yul\":26034:26052   */\n      0xffffffffffffffff\n        /* \"#utility.yul\":26026:26032   */\n      dup2\n        /* \"#utility.yul\":26023:26053   */\n      gt\n        /* \"#utility.yul\":26020:26076   */\n      iszero\n      tag_531\n      jumpi\n        /* \"#utility.yul\":26056:26074   */\n      tag_532\n      tag_235\n      jump\t// in\n    tag_532:\n        /* \"#utility.yul\":26020:26076   */\n    tag_531:\n        /* \"#utility.yul\":26100:26138   */\n      tag_533\n        /* \"#utility.yul\":26132:26136   */\n      dup3\n        /* \"#utility.yul\":26126:26137   */\n      sload\n        /* \"#utility.yul\":26100:26138   */\n      tag_69\n      jump\t// in\n    tag_533:\n        /* \"#utility.yul\":26185:26252   */\n      tag_534\n        /* \"#utility.yul\":26245:26251   */\n      dup3\n        /* \"#utility.yul\":26237:26243   */\n      dup3\n        /* \"#utility.yul\":26231:26235   */\n      dup6\n        /* \"#utility.yul\":26185:26252   */\n      tag_269\n      jump\t// in\n    tag_534:\n        /* \"#utility.yul\":26279:26280   */\n      0x00\n        /* \"#utility.yul\":26303:26307   */\n      0x20\n        /* \"#utility.yul\":26290:26307   */\n      swap1\n      pop\n        /* \"#utility.yul\":26335:26337   */\n      0x1f\n        /* \"#utility.yul\":26327:26333   */\n      dup4\n        /* \"#utility.yul\":26324:26338   */\n      gt\n        /* \"#utility.yul\":26352:26353   */\n      0x01\n        /* \"#utility.yul\":26347:26965   */\n      dup2\n      eq\n      tag_536\n      jumpi\n        /* \"#utility.yul\":27009:27010   */\n      0x00\n        /* \"#utility.yul\":27026:27032   */\n      dup5\n        /* \"#utility.yul\":27023:27100   */\n      iszero\n      tag_537\n      jumpi\n        /* \"#utility.yul\":27075:27084   */\n      dup3\n        /* \"#utility.yul\":27070:27073   */\n      dup8\n        /* \"#utility.yul\":27066:27085   */\n      add\n        /* \"#utility.yul\":27060:27086   */\n      mload\n        /* \"#utility.yul\":27051:27086   */\n      swap1\n      pop\n        /* \"#utility.yul\":27023:27100   */\n    tag_537:\n        /* \"#utility.yul\":27126:27193   */\n      tag_538\n        /* \"#utility.yul\":27186:27192   */\n      dup6\n        /* \"#utility.yul\":27179:27184   */\n      dup3\n        /* \"#utility.yul\":27126:27193   */\n      tag_272\n      jump\t// in\n    tag_538:\n        /* \"#utility.yul\":27120:27124   */\n      dup7\n        /* \"#utility.yul\":27113:27194   */\n      sstore\n        /* \"#utility.yul\":26982:27204   */\n      pop\n        /* \"#utility.yul\":26317:27204   */\n      jump(tag_535)\n        /* \"#utility.yul\":26347:26965   */\n    tag_536:\n        /* \"#utility.yul\":26399:26403   */\n      0x1f\n        /* \"#utility.yul\":26395:26404   */\n      not\n        /* \"#utility.yul\":26387:26393   */\n      dup5\n        /* \"#utility.yul\":26383:26405   */\n      and\n        /* \"#utility.yul\":26433:26470   */\n      tag_539\n        /* \"#utility.yul\":26465:26469   */\n      dup7\n        /* \"#utility.yul\":26433:26470   */\n      tag_258\n      jump\t// in\n    tag_539:\n        /* \"#utility.yul\":26492:26493   */\n      0x00\n        /* \"#utility.yul\":26506:26714   */\n    tag_540:\n        /* \"#utility.yul\":26520:26527   */\n      dup3\n        /* \"#utility.yul\":26517:26518   */\n      dup2\n        /* \"#utility.yul\":26514:26528   */\n      lt\n        /* \"#utility.yul\":26506:26714   */\n      iszero\n      tag_542\n      jumpi\n        /* \"#utility.yul\":26599:26608   */\n      dup5\n        /* \"#utility.yul\":26594:26597   */\n      dup10\n        /* \"#utility.yul\":26590:26609   */\n      add\n        /* \"#utility.yul\":26584:26610   */\n      mload\n        /* \"#utility.yul\":26576:26582   */\n      dup3\n        /* \"#utility.yul\":26569:26611   */\n      sstore\n        /* \"#utility.yul\":26650:26651   */\n      0x01\n        /* \"#utility.yul\":26642:26648   */\n      dup3\n        /* \"#utility.yul\":26638:26652   */\n      add\n        /* \"#utility.yul\":26628:26652   */\n      swap2\n      pop\n        /* \"#utility.yul\":26697:26699   */\n      0x20\n        /* \"#utility.yul\":26686:26695   */\n      dup6\n        /* \"#utility.yul\":26682:26700   */\n      add\n        /* \"#utility.yul\":26669:26700   */\n      swap5\n      pop\n        /* \"#utility.yul\":26543:26547   */\n      0x20\n        /* \"#utility.yul\":26540:26541   */\n      dup2\n        /* \"#utility.yul\":26536:26548   */\n      add\n        /* \"#utility.yul\":26531:26548   */\n      swap1\n      pop\n        /* \"#utility.yul\":26506:26714   */\n      jump(tag_540)\n    tag_542:\n        /* \"#utility.yul\":26742:26748   */\n      dup7\n        /* \"#utility.yul\":26733:26740   */\n      dup4\n        /* \"#utility.yul\":26730:26749   */\n      lt\n        /* \"#utility.yul\":26727:26906   */\n      iszero\n      tag_543\n      jumpi\n        /* \"#utility.yul\":26800:26809   */\n      dup5\n        /* \"#utility.yul\":26795:26798   */\n      dup10\n        /* \"#utility.yul\":26791:26810   */\n      add\n        /* \"#utility.yul\":26785:26811   */\n      mload\n        /* \"#utility.yul\":26843:26891   */\n      tag_544\n        /* \"#utility.yul\":26885:26889   */\n      0x1f\n        /* \"#utility.yul\":26877:26883   */\n      dup10\n        /* \"#utility.yul\":26873:26890   */\n      and\n        /* \"#utility.yul\":26862:26871   */\n      dup3\n        /* \"#utility.yul\":26843:26891   */\n      tag_271\n      jump\t// in\n    tag_544:\n        /* \"#utility.yul\":26835:26841   */\n      dup4\n        /* \"#utility.yul\":26828:26892   */\n      sstore\n        /* \"#utility.yul\":26750:26906   */\n      pop\n        /* \"#utility.yul\":26727:26906   */\n    tag_543:\n        /* \"#utility.yul\":26952:26953   */\n      0x01\n        /* \"#utility.yul\":26948:26949   */\n      0x02\n        /* \"#utility.yul\":26940:26946   */\n      dup9\n        /* \"#utility.yul\":26936:26950   */\n      mul\n        /* \"#utility.yul\":26932:26954   */\n      add\n        /* \"#utility.yul\":26926:26930   */\n      dup9\n        /* \"#utility.yul\":26919:26955   */\n      sstore\n        /* \"#utility.yul\":26354:26965   */\n      pop\n      pop\n      pop\n        /* \"#utility.yul\":26317:27204   */\n    tag_535:\n      pop\n        /* \"#utility.yul\":25907:27210   */\n      pop\n      pop\n      pop\n        /* \"#utility.yul\":25815:27210   */\n      pop\n      pop\n      jump\t// out\n        /* \"#utility.yul\":27216:27860   */\n    tag_162:\n        /* \"#utility.yul\":27413:27417   */\n      0x00\n        /* \"#utility.yul\":27451:27454   */\n      0x80\n        /* \"#utility.yul\":27440:27449   */\n      dup3\n        /* \"#utility.yul\":27436:27455   */\n      add\n        /* \"#utility.yul\":27428:27455   */\n      swap1\n      pop\n        /* \"#utility.yul\":27465:27536   */\n      tag_546\n        /* \"#utility.yul\":27533:27534   */\n      0x00\n        /* \"#utility.yul\":27522:27531   */\n      dup4\n        /* \"#utility.yul\":27518:27535   */\n      add\n        /* \"#utility.yul\":27509:27515   */\n      dup8\n        /* \"#utility.yul\":27465:27536   */\n      tag_211\n      jump\t// in\n    tag_546:\n        /* \"#utility.yul\":27546:27618   */\n      tag_547\n        /* \"#utility.yul\":27614:27616   */\n      0x20\n        /* \"#utility.yul\":27603:27612   */\n      dup4\n        /* \"#utility.yul\":27599:27617   */\n      add\n        /* \"#utility.yul\":27590:27596   */\n      dup7\n        /* \"#utility.yul\":27546:27618   */\n      tag_212\n      jump\t// in\n    tag_547:\n        /* \"#utility.yul\":27665:27674   */\n      dup2\n        /* \"#utility.yul\":27659:27663   */\n      dup2\n        /* \"#utility.yul\":27655:27675   */\n      sub\n        /* \"#utility.yul\":27650:27652   */\n      0x40\n        /* \"#utility.yul\":27639:27648   */\n      dup4\n        /* \"#utility.yul\":27635:27653   */\n      add\n        /* \"#utility.yul\":27628:27676   */\n      mstore\n        /* \"#utility.yul\":27693:27771   */\n      tag_548\n        /* \"#utility.yul\":27766:27770   */\n      dup2\n        /* \"#utility.yul\":27757:27763   */\n      dup6\n        /* \"#utility.yul\":27693:27771   */\n      tag_217\n      jump\t// in\n    tag_548:\n        /* \"#utility.yul\":27685:27771   */\n      swap1\n      pop\n        /* \"#utility.yul\":27781:27853   */\n      tag_549\n        /* \"#utility.yul\":27849:27851   */\n      0x60\n        /* \"#utility.yul\":27838:27847   */\n      dup4\n        /* \"#utility.yul\":27834:27852   */\n      add\n        /* \"#utility.yul\":27825:27831   */\n      dup5\n        /* \"#utility.yul\":27781:27853   */\n      tag_211\n      jump\t// in\n    tag_549:\n        /* \"#utility.yul\":27216:27860   */\n      swap6\n      swap5\n      pop\n      pop\n      pop\n      pop\n      pop\n      jump\t// out\n        /* \"#utility.yul\":27866:28057   */\n    tag_171:\n        /* \"#utility.yul\":27906:27909   */\n      0x00\n        /* \"#utility.yul\":27925:27945   */\n      tag_551\n        /* \"#utility.yul\":27943:27944   */\n      dup3\n        /* \"#utility.yul\":27925:27945   */\n      tag_208\n      jump\t// in\n    tag_551:\n        /* \"#utility.yul\":27920:27945   */\n      swap2\n      pop\n        /* \"#utility.yul\":27959:27979   */\n      tag_552\n        /* \"#utility.yul\":27977:27978   */\n      dup4\n        /* \"#utility.yul\":27959:27979   */\n      tag_208\n      jump\t// in\n    tag_552:\n        /* \"#utility.yul\":27954:27979   */\n      swap3\n      pop\n        /* \"#utility.yul\":28002:28003   */\n      dup3\n        /* \"#utility.yul\":27999:28000   */\n      dup3\n        /* \"#utility.yul\":27995:28004   */\n      add\n        /* \"#utility.yul\":27988:28004   */\n      swap1\n      pop\n        /* \"#utility.yul\":28023:28026   */\n      dup1\n        /* \"#utility.yul\":28020:28021   */\n      dup3\n        /* \"#utility.yul\":28017:28027   */\n      gt\n        /* \"#utility.yul\":28014:28050   */\n      iszero\n      tag_553\n      jumpi\n        /* \"#utility.yul\":28030:28048   */\n      tag_554\n      tag_255\n      jump\t// in\n    tag_554:\n        /* \"#utility.yul\":28014:28050   */\n    tag_553:\n        /* \"#utility.yul\":27866:28057   */\n      swap3\n      swap2\n      pop\n      pop\n      jump\t// out\n        /* \"#utility.yul\":28063:28288   */\n    tag_273:\n        /* \"#utility.yul\":28203:28237   */\n      0x4f776e61626c653a206e6577206f776e657220697320746865207a65726f2061\n        /* \"#utility.yul\":28199:28200   */\n      0x00\n        /* \"#utility.yul\":28191:28197   */\n      dup3\n        /* \"#utility.yul\":28187:28201   */\n      add\n        /* \"#utility.yul\":28180:28238   */\n      mstore\n        /* \"#utility.yul\":28272:28280   */\n      0x6464726573730000000000000000000000000000000000000000000000000000\n        /* \"#utility.yul\":28267:28269   */\n      0x20\n        /* \"#utility.yul\":28259:28265   */\n      dup3\n        /* \"#utility.yul\":28255:28270   */\n      add\n        /* \"#utility.yul\":28248:28281   */\n      mstore\n        /* \"#utility.yul\":28063:28288   */\n      pop\n      jump\t// out\n        /* \"#utility.yul\":28294:28660   */\n    tag_274:\n        /* \"#utility.yul\":28436:28439   */\n      0x00\n        /* \"#utility.yul\":28457:28524   */\n      tag_557\n        /* \"#utility.yul\":28521:28523   */\n      0x26\n        /* \"#utility.yul\":28516:28519   */\n      dup4\n        /* \"#utility.yul\":28457:28524   */\n      tag_214\n      jump\t// in\n    tag_557:\n        /* \"#utility.yul\":28450:28524   */\n      swap2\n      pop\n        /* \"#utility.yul\":28533:28626   */\n      tag_558\n        /* \"#utility.yul\":28622:28625   */\n      dup3\n        /* \"#utility.yul\":28533:28626   */\n      tag_273\n      jump\t// in\n    tag_558:\n        /* \"#utility.yul\":28651:28653   */\n      0x40\n        /* \"#utility.yul\":28646:28649   */\n      dup3\n        /* \"#utility.yul\":28642:28654   */\n      add\n        /* \"#utility.yul\":28635:28654   */\n      swap1\n      pop\n        /* \"#utility.yul\":28294:28660   */\n      swap2\n      swap1\n      pop\n      jump\t// out\n        /* \"#utility.yul\":28666:29085   */\n    tag_190:\n        /* \"#utility.yul\":28832:28836   */\n      0x00\n        /* \"#utility.yul\":28870:28872   */\n      0x20\n        /* \"#utility.yul\":28859:28868   */\n      dup3\n        /* \"#utility.yul\":28855:28873   */\n      add\n        /* \"#utility.yul\":28847:28873   */\n      swap1\n      pop\n        /* \"#utility.yul\":28919:28928   */\n      dup2\n        /* \"#utility.yul\":28913:28917   */\n      dup2\n        /* \"#utility.yul\":28909:28929   */\n      sub\n        /* \"#utility.yul\":28905:28906   */\n      0x00\n        /* \"#utility.yul\":28894:28903   */\n      dup4\n        /* \"#utility.yul\":28890:28907   */\n      add\n        /* \"#utility.yul\":28883:28930   */\n      mstore\n        /* \"#utility.yul\":28947:29078   */\n      tag_560\n        /* \"#utility.yul\":29073:29077   */\n      dup2\n        /* \"#utility.yul\":28947:29078   */\n      tag_274\n      jump\t// in\n    tag_560:\n        /* \"#utility.yul\":28939:29078   */\n      swap1\n      pop\n        /* \"#utility.yul\":28666:29085   */\n      swap2\n      swap1\n      pop\n      jump\t// out\n        /* \"#utility.yul\":29091:29273   */\n    tag_275:\n        /* \"#utility.yul\":29231:29265   */\n      0x4f776e61626c653a2063616c6c6572206973206e6f7420746865206f776e6572\n        /* \"#utility.yul\":29227:29228   */\n      0x00\n        /* \"#utility.yul\":29219:29225   */\n      dup3\n        /* \"#utility.yul\":29215:29229   */\n      add\n        /* \"#utility.yul\":29208:29266   */\n      mstore\n        /* \"#utility.yul\":29091:29273   */\n      pop\n      jump\t// out\n        /* \"#utility.yul\":29279:29645   */\n    tag_276:\n        /* \"#utility.yul\":29421:29424   */\n      0x00\n        /* \"#utility.yul\":29442:29509   */\n      tag_563\n        /* \"#utility.yul\":29506:29508   */\n      0x20\n        /* \"#utility.yul\":29501:29504   */\n      dup4\n        /* \"#utility.yul\":29442:29509   */\n      tag_214\n      jump\t// in\n    tag_563:\n        /* \"#utility.yul\":29435:29509   */\n      swap2\n      pop\n        /* \"#utility.yul\":29518:29611   */\n      tag_564\n        /* \"#utility.yul\":29607:29610   */\n      dup3\n        /* \"#utility.yul\":29518:29611   */\n      tag_275\n      jump\t// in\n    tag_564:\n        /* \"#utility.yul\":29636:29638   */\n      0x20\n        /* \"#utility.yul\":29631:29634   */\n      dup3\n        /* \"#utility.yul\":29627:29639   */\n      add\n        /* \"#utility.yul\":29620:29639   */\n      swap1\n      pop\n        /* \"#utility.yul\":29279:29645   */\n      swap2\n      swap1\n      pop\n      jump\t// out\n        /* \"#utility.yul\":29651:30070   */\n    tag_198:\n        /* \"#utility.yul\":29817:29821   */\n      0x00\n        /* \"#utility.yul\":29855:29857   */\n      0x20\n        /* \"#utility.yul\":29844:29853   */\n      dup3\n        /* \"#utility.yul\":29840:29858   */\n      add\n        /* \"#utility.yul\":29832:29858   */\n      swap1\n      pop\n        /* \"#utility.yul\":29904:29913   */\n      dup2\n        /* \"#utility.yul\":29898:29902   */\n      dup2\n        /* \"#utility.yul\":29894:29914   */\n      sub\n        /* \"#utility.yul\":29890:29891   */\n      0x00\n        /* \"#utility.yul\":29879:29888   */\n      dup4\n        /* \"#utility.yul\":29875:29892   */\n      add\n        /* \"#utility.yul\":29868:29915   */\n      mstore\n        /* \"#utility.yul\":29932:30063   */\n      tag_566\n        /* \"#utility.yul\":30058:30062   */\n      dup2\n        /* \"#utility.yul\":29932:30063   */\n      tag_276\n      jump\t// in\n    tag_566:\n        /* \"#utility.yul\":29924:30063   */\n      swap1\n      pop\n        /* \"#utility.yul\":29651:30070   */\n      swap2\n      swap1\n      pop\n      jump\t// out\n\n    auxdata: 0xa26469706673582212200c60b050553d18207b97f1453b0dad1f3f70064a3e49c25ea452fdb7503ddcd764736f6c63430008120033\n}\n",
				"bytecode": {
					"linkReferences": {},
					"object": "6080604052610118600060146101000a81548161ffff021916908361ffff1602179055503480156200003057600080fd5b5060405162002495380380620024958339818101604052810190620000569190620001f4565b620000766200006a620000be60201b60201c565b620000c660201b60201c565b80600260006101000a81548173ffffffffffffffffffffffffffffffffffffffff021916908373ffffffffffffffffffffffffffffffffffffffff1602179055505062000226565b600033905090565b60008060009054906101000a900473ffffffffffffffffffffffffffffffffffffffff169050816000806101000a81548173ffffffffffffffffffffffffffffffffffffffff021916908373ffffffffffffffffffffffffffffffffffffffff1602179055508173ffffffffffffffffffffffffffffffffffffffff168173ffffffffffffffffffffffffffffffffffffffff167f8be0079c531659141344cd1fd0a4f28419497f9722a3daafe3b4186f6b6457e060405160405180910390a35050565b600080fd5b600073ffffffffffffffffffffffffffffffffffffffff82169050919050565b6000620001bc826200018f565b9050919050565b620001ce81620001af565b8114620001da57600080fd5b50565b600081519050620001ee81620001c3565b92915050565b6000602082840312156200020d576200020c6200018a565b5b60006200021d84828501620001dd565b91505092915050565b61225f80620002366000396000f3fe608060405234801561001057600080fd5b50600436106100b45760003560e01c8063715018a611610071578063715018a61461018f5780637c9cd2bc14610199578063820785cc146101b55780638da5cb5b146101e5578063c3ad5ecb14610203578063f2fde38b14610233576100b4565b806305a1b4a9146100b957806312e7ee1c146100ed5780633d9b569f1461011d57806358bfa4ab1461013957806363378216146101555780636eb1079714610171575b600080fd5b6100d360048036038101906100ce919061137d565b61024f565b6040516100e495949392919061146b565b60405180910390f35b610107600480360381019061010291906114c5565b61034a565b6040516101149190611692565b60405180910390f35b6101376004803603810190610132919061137d565b6104ee565b005b610153600480360381019061014e91906116ee565b610840565b005b61016f600480360381019061016a919061137d565b610868565b005b610179610b15565b604051610186919061172a565b60405180910390f35b610197610b29565b005b6101b360048036038101906101ae919061187a565b610b3d565b005b6101cf60048036038101906101ca91906114c5565b610e3e565b6040516101dc91906118c3565b60405180910390f35b6101ed610f1b565b6040516101fa91906118de565b60405180910390f35b61021d600480360381019061021891906118f9565b610f44565b60405161022a919061199c565b60405180910390f35b61024d600480360381019061024891906114c5565b6110c3565b005b6001602052816000526040600020818154811061026b57600080fd5b9060005260206000209060050201600091509150508060000154908060010160009054906101000a900473ffffffffffffffffffffffffffffffffffffffff16908060020180546102bb906119ed565b80601f01602080910402602001604051908101604052809291908181526020018280546102e7906119ed565b80156103345780601f1061030957610100808354040283529160200191610334565b820191906000526020600020905b81548152906001019060200180831161031757829003601f168201915b5050505050908060030154908060040154905085565b6060600160008373ffffffffffffffffffffffffffffffffffffffff1673ffffffffffffffffffffffffffffffffffffffff168152602001908152602001600020805480602002602001604051908101604052809291908181526020016000905b828210156104e357838290600052602060002090600502016040518060a0016040529081600082015481526020016001820160009054906101000a900473ffffffffffffffffffffffffffffffffffffffff1673ffffffffffffffffffffffffffffffffffffffff1673ffffffffffffffffffffffffffffffffffffffff16815260200160028201805461043e906119ed565b80601f016020809104026020016040519081016040528092919081815260200182805461046a906119ed565b80156104b75780601f1061048c576101008083540402835291602001916104b7565b820191906000526020600020905b81548152906001019060200180831161049a57829003601f168201915b5050505050815260200160038201548152602001600482015481525050815260200190600101906103ab565b505050509050919050565b6000600260009054906101000a900473ffffffffffffffffffffffffffffffffffffffff1673ffffffffffffffffffffffffffffffffffffffff16630f53a470336040518263ffffffff1660e01b815260040161054b91906118de565b600060405180830381865afa158015610568573d6000803e3d6000fd5b505050506040513d6000823e3d601f19601f820116820180604052508101906105919190611b20565b90506000816000015151116105db576040517f08c379a00000000000000000000000000000000000000000000000000000000081526004016105d290611bb5565b60405180910390fd5b81600160008573ffffffffffffffffffffffffffffffffffffffff1673ffffffffffffffffffffffffffffffffffffffff168152602001908152602001600020838154811061062d5761062c611bd5565b5b9060005260206000209060050201600001541461067f576040517f08c379a000000000000000000000000000000000000000000000000000000000815260040161067690611c50565b60405180910390fd5b6000600160008573ffffffffffffffffffffffffffffffffffffffff1673ffffffffffffffffffffffffffffffffffffffff16815260200190815260200160002083815481106106d2576106d1611bd5565b5b90600052602060002090600502016004015411610724576040517f08c379a000000000000000000000000000000000000000000000000000000000815260040161071b90611cbc565b60405180910390fd5b600160008473ffffffffffffffffffffffffffffffffffffffff1673ffffffffffffffffffffffffffffffffffffffff168152602001908152602001600020828154811061077557610774611bd5565b5b9060005260206000209060050201600401600081548092919061079790611d0b565b91905055507f762c2616349603ac16eba0de8e6141b79129a07ab63bd99e0a80b3a471716943338484600160008873ffffffffffffffffffffffffffffffffffffffff1673ffffffffffffffffffffffffffffffffffffffff168152602001908152602001600020868154811061081157610810611bd5565b5b9060005260206000209060050201600401546040516108339493929190611d34565b60405180910390a1505050565b610848611146565b80600060146101000a81548161ffff021916908361ffff16021790555050565b6000600260009054906101000a900473ffffffffffffffffffffffffffffffffffffffff1673ffffffffffffffffffffffffffffffffffffffff16630f53a470336040518263ffffffff1660e01b81526004016108c591906118de565b600060405180830381865afa1580156108e2573d6000803e3d6000fd5b505050506040513d6000823e3d601f19601f8201168201806040525081019061090b9190611b20565b9050600081600001515111610955576040517f08c379a000000000000000000000000000000000000000000000000000000000815260040161094c90611bb5565b60405180910390fd5b81600160008573ffffffffffffffffffffffffffffffffffffffff1673ffffffffffffffffffffffffffffffffffffffff16815260200190815260200160002083815481106109a7576109a6611bd5565b5b906000526020600020906005020160000154146109f9576040517f08c379a00000000000000000000000000000000000000000000000000000000081526004016109f090611c50565b60405180910390fd5b600160008473ffffffffffffffffffffffffffffffffffffffff1673ffffffffffffffffffffffffffffffffffffffff1681526020019081526020016000208281548110610a4a57610a49611bd5565b5b90600052602060002090600502016004016000815480929190610a6c90611d79565b91905055507fe8a76fc0f16d11a00d1e93b689b63d76cf60af914dd3d915375dc41d01a0c3c8338484600160008873ffffffffffffffffffffffffffffffffffffffff1673ffffffffffffffffffffffffffffffffffffffff1681526020019081526020016000208681548110610ae657610ae5611bd5565b5b906000526020600020906005020160040154604051610b089493929190611d34565b60405180910390a1505050565b600060149054906101000a900461ffff1681565b610b31611146565b610b3b60006111c4565b565b6000600260009054906101000a900473ffffffffffffffffffffffffffffffffffffffff1673ffffffffffffffffffffffffffffffffffffffff16630f53a470336040518263ffffffff1660e01b8152600401610b9a91906118de565b600060405180830381865afa158015610bb7573d6000803e3d6000fd5b505050506040513d6000823e3d601f19601f82011682018060405250810190610be09190611b20565b9050600081600001515111610c2a576040517f08c379a0000000000000000000000000000000000000000000000000000000008152600401610c2190611bb5565b60405180910390fd5b600060149054906101000a900461ffff1661ffff1682511115610c82576040517f08c379a0000000000000000000000000000000000000000000000000000000008152600401610c7990611e0d565b60405180910390fd5b60006040518060a00160405280600160003373ffffffffffffffffffffffffffffffffffffffff1673ffffffffffffffffffffffffffffffffffffffff1681526020019081526020016000208054905081526020013373ffffffffffffffffffffffffffffffffffffffff16815260200184815260200142815260200160008152509050600160003373ffffffffffffffffffffffffffffffffffffffff1673ffffffffffffffffffffffffffffffffffffffff1681526020019081526020016000208190806001815401808255809150506001900390600052602060002090600502016000909190919091506000820151816000015560208201518160010160006101000a81548173ffffffffffffffffffffffffffffffffffffffff021916908373ffffffffffffffffffffffffffffffffffffffff1602179055506040820151816002019081610dd59190611fd9565b50606082015181600301556080820151816004015550507f16fd3c13e9d46923e0a8bce11c7b473ec508a72e6c96cd2404b29ce972afc29e8160000151826020015183604001518460600151604051610e3194939291906120ab565b60405180910390a1505050565b60008060005b600160008573ffffffffffffffffffffffffffffffffffffffff1673ffffffffffffffffffffffffffffffffffffffff16815260200190815260200160002080549050811015610f1157600160008573ffffffffffffffffffffffffffffffffffffffff1673ffffffffffffffffffffffffffffffffffffffff1681526020019081526020016000208181548110610edf57610ede611bd5565b5b90600052602060002090600502016004015482610efc91906120f7565b91508080610f0990611d79565b915050610e44565b5080915050919050565b60008060009054906101000a900473ffffffffffffffffffffffffffffffffffffffff16905090565b610f4c611290565b600160003373ffffffffffffffffffffffffffffffffffffffff1673ffffffffffffffffffffffffffffffffffffffff1681526020019081526020016000208281548110610f9d57610f9c611bd5565b5b90600052602060002090600502016040518060a0016040529081600082015481526020016001820160009054906101000a900473ffffffffffffffffffffffffffffffffffffffff1673ffffffffffffffffffffffffffffffffffffffff1673ffffffffffffffffffffffffffffffffffffffff168152602001600282018054611026906119ed565b80601f0160208091040260200160405190810160405280929190818152602001828054611052906119ed565b801561109f5780601f106110745761010080835404028352916020019161109f565b820191906000526020600020905b81548152906001019060200180831161108257829003601f168201915b50505050508152602001600382015481526020016004820154815250509050919050565b6110cb611146565b600073ffffffffffffffffffffffffffffffffffffffff168173ffffffffffffffffffffffffffffffffffffffff160361113a576040517f08c379a00000000000000000000000000000000000000000000000000000000081526004016111319061219d565b60405180910390fd5b611143816111c4565b50565b61114e611288565b73ffffffffffffffffffffffffffffffffffffffff1661116c610f1b565b73ffffffffffffffffffffffffffffffffffffffff16146111c2576040517f08c379a00000000000000000000000000000000000000000000000000000000081526004016111b990612209565b60405180910390fd5b565b60008060009054906101000a900473ffffffffffffffffffffffffffffffffffffffff169050816000806101000a81548173ffffffffffffffffffffffffffffffffffffffff021916908373ffffffffffffffffffffffffffffffffffffffff1602179055508173ffffffffffffffffffffffffffffffffffffffff168173ffffffffffffffffffffffffffffffffffffffff167f8be0079c531659141344cd1fd0a4f28419497f9722a3daafe3b4186f6b6457e060405160405180910390a35050565b600033905090565b6040518060a0016040528060008152602001600073ffffffffffffffffffffffffffffffffffffffff1681526020016060815260200160008152602001600081525090565b6000604051905090565b600080fd5b600080fd5b600073ffffffffffffffffffffffffffffffffffffffff82169050919050565b6000611314826112e9565b9050919050565b61132481611309565b811461132f57600080fd5b50565b6000813590506113418161131b565b92915050565b6000819050919050565b61135a81611347565b811461136557600080fd5b50565b60008135905061137781611351565b92915050565b60008060408385031215611394576113936112df565b5b60006113a285828601611332565b92505060206113b385828601611368565b9150509250929050565b6113c681611347565b82525050565b6113d581611309565b82525050565b600081519050919050565b600082825260208201905092915050565b60005b838110156114155780820151818401526020810190506113fa565b60008484015250505050565b6000601f19601f8301169050919050565b600061143d826113db565b61144781856113e6565b93506114578185602086016113f7565b61146081611421565b840191505092915050565b600060a08201905061148060008301886113bd565b61148d60208301876113cc565b818103604083015261149f8186611432565b90506114ae60608301856113bd565b6114bb60808301846113bd565b9695505050505050565b6000602082840312156114db576114da6112df565b5b60006114e984828501611332565b91505092915050565b600081519050919050565b600082825260208201905092915050565b6000819050602082019050919050565b61152781611347565b82525050565b61153681611309565b82525050565b600082825260208201905092915050565b6000611558826113db565b611562818561153c565b93506115728185602086016113f7565b61157b81611421565b840191505092915050565b600060a08301600083015161159e600086018261151e565b5060208301516115b1602086018261152d565b50604083015184820360408601526115c9828261154d565b91505060608301516115de606086018261151e565b5060808301516115f1608086018261151e565b508091505092915050565b60006116088383611586565b905092915050565b6000602082019050919050565b6000611628826114f2565b61163281856114fd565b9350836020820285016116448561150e565b8060005b85811015611680578484038952815161166185826115fc565b945061166c83611610565b925060208a01995050600181019050611648565b50829750879550505050505092915050565b600060208201905081810360008301526116ac818461161d565b905092915050565b600061ffff82169050919050565b6116cb816116b4565b81146116d657600080fd5b50565b6000813590506116e8816116c2565b92915050565b600060208284031215611704576117036112df565b5b6000611712848285016116d9565b91505092915050565b611724816116b4565b82525050565b600060208201905061173f600083018461171b565b92915050565b600080fd5b600080fd5b7f4e487b7100000000000000000000000000000000000000000000000000000000600052604160045260246000fd5b61178782611421565b810181811067ffffffffffffffff821117156117a6576117a561174f565b5b80604052505050565b60006117b96112d5565b90506117c5828261177e565b919050565b600067ffffffffffffffff8211156117e5576117e461174f565b5b6117ee82611421565b9050602081019050919050565b82818337600083830152505050565b600061181d611818846117ca565b6117af565b9050828152602081018484840111156118395761183861174a565b5b6118448482856117fb565b509392505050565b600082601f83011261186157611860611745565b5b813561187184826020860161180a565b91505092915050565b6000602082840312156118905761188f6112df565b5b600082013567ffffffffffffffff8111156118ae576118ad6112e4565b5b6118ba8482850161184c565b91505092915050565b60006020820190506118d860008301846113bd565b92915050565b60006020820190506118f360008301846113cc565b92915050565b60006020828403121561190f5761190e6112df565b5b600061191d84828501611368565b91505092915050565b600060a08301600083015161193e600086018261151e565b506020830151611951602086018261152d565b5060408301518482036040860152611969828261154d565b915050606083015161197e606086018261151e565b506080830151611991608086018261151e565b508091505092915050565b600060208201905081810360008301526119b68184611926565b905092915050565b7f4e487b7100000000000000000000000000000000000000000000000000000000600052602260045260246000fd5b60006002820490506001821680611a0557607f821691505b602082108103611a1857611a176119be565b5b50919050565b600080fd5b600080fd5b6000611a3b611a36846117ca565b6117af565b905082815260208101848484011115611a5757611a5661174a565b5b611a628482856113f7565b509392505050565b600082601f830112611a7f57611a7e611745565b5b8151611a8f848260208601611a28565b91505092915050565b600060408284031215611aae57611aad611a1e565b5b611ab860406117af565b9050600082015167ffffffffffffffff811115611ad857611ad7611a23565b5b611ae484828501611a6a565b600083015250602082015167ffffffffffffffff811115611b0857611b07611a23565b5b611b1484828501611a6a565b60208301525092915050565b600060208284031215611b3657611b356112df565b5b600082015167ffffffffffffffff811115611b5457611b536112e4565b5b611b6084828501611a98565b91505092915050565b7f55534552204e4f54205245474953544552454400000000000000000000000000600082015250565b6000611b9f6013836113e6565b9150611baa82611b69565b602082019050919050565b60006020820190508181036000830152611bce81611b92565b9050919050565b7f4e487b7100000000000000000000000000000000000000000000000000000000600052603260045260246000fd5b7f545745455420444f4553204e4f54204558495354000000000000000000000000600082015250565b6000611c3a6014836113e6565b9150611c4582611c04565b602082019050919050565b60006020820190508181036000830152611c6981611c2d565b9050919050565b7f545745455420484153204e4f204c494b45530000000000000000000000000000600082015250565b6000611ca66012836113e6565b9150611cb182611c70565b602082019050919050565b60006020820190508181036000830152611cd581611c99565b9050919050565b7f4e487b7100000000000000000000000000000000000000000000000000000000600052601160045260246000fd5b6000611d1682611347565b915060008203611d2957611d28611cdc565b5b600182039050919050565b6000608082019050611d4960008301876113cc565b611d5660208301866113cc565b611d6360408301856113bd565b611d7060608301846113bd565b95945050505050565b6000611d8482611347565b91507fffffffffffffffffffffffffffffffffffffffffffffffffffffffffffffffff8203611db657611db5611cdc565b5b600182019050919050565b7f547765657420697320746f6f206c6f6e672062726f2100000000000000000000600082015250565b6000611df76016836113e6565b9150611e0282611dc1565b602082019050919050565b60006020820190508181036000830152611e2681611dea565b9050919050565b60008190508160005260206000209050919050565b60006020601f8301049050919050565b600082821b905092915050565b600060088302611e8f7fffffffffffffffffffffffffffffffffffffffffffffffffffffffffffffffff82611e52565b611e998683611e52565b95508019841693508086168417925050509392505050565b6000819050919050565b6000611ed6611ed1611ecc84611347565b611eb1565b611347565b9050919050565b6000819050919050565b611ef083611ebb565b611f04611efc82611edd565b848454611e5f565b825550505050565b600090565b611f19611f0c565b611f24818484611ee7565b505050565b5b81811015611f4857611f3d600082611f11565b600181019050611f2a565b5050565b601f821115611f8d57611f5e81611e2d565b611f6784611e42565b81016020851015611f76578190505b611f8a611f8285611e42565b830182611f29565b50505b505050565b600082821c905092915050565b6000611fb060001984600802611f92565b1980831691505092915050565b6000611fc98383611f9f565b9150826002028217905092915050565b611fe2826113db565b67ffffffffffffffff811115611ffb57611ffa61174f565b5b61200582546119ed565b612010828285611f4c565b600060209050601f8311600181146120435760008415612031578287015190505b61203b8582611fbd565b8655506120a3565b601f19841661205186611e2d565b60005b8281101561207957848901518255600182019150602085019450602081019050612054565b868310156120965784890151612092601f891682611f9f565b8355505b6001600288020188555050505b505050505050565b60006080820190506120c060008301876113bd565b6120cd60208301866113cc565b81810360408301526120df8185611432565b90506120ee60608301846113bd565b95945050505050565b600061210282611347565b915061210d83611347565b925082820190508082111561212557612124611cdc565b5b92915050565b7f4f776e61626c653a206e6577206f776e657220697320746865207a65726f206160008201527f6464726573730000000000000000000000000000000000000000000000000000602082015250565b60006121876026836113e6565b91506121928261212b565b604082019050919050565b600060208201905081810360008301526121b68161217a565b9050919050565b7f4f776e61626c653a2063616c6c6572206973206e6f7420746865206f776e6572600082015250565b60006121f36020836113e6565b91506121fe826121bd565b602082019050919050565b60006020820190508181036000830152612222816121e6565b905091905056fea26469706673582212200c60b050553d18207b97f1453b0dad1f3f70064a3e49c25ea452fdb7503ddcd764736f6c63430008120033",
					"opcodes": "PUSH1 0x80 PUSH1 0x40 MSTORE PUSH2 0x118 PUSH1 0x0 PUSH1 0x14 PUSH2 0x100 EXP DUP2 SLOAD DUP2 PUSH2 0xFFFF MUL NOT AND SWAP1 DUP4 PUSH2 0xFFFF AND MUL OR SWAP1 SSTORE POP CALLVALUE DUP1 ISZERO PUSH3 0x30 JUMPI PUSH1 0x0 DUP1 REVERT JUMPDEST POP PUSH1 0x40 MLOAD PUSH3 0x2495 CODESIZE SUB DUP1 PUSH3 0x2495 DUP4 CODECOPY DUP2 DUP2 ADD PUSH1 0x40 MSTORE DUP2 ADD SWAP1 PUSH3 0x56 SWAP2 SWAP1 PUSH3 0x1F4 JUMP JUMPDEST PUSH3 0x76 PUSH3 0x6A PUSH3 0xBE PUSH1 0x20 SHL PUSH1 0x20 SHR JUMP JUMPDEST PUSH3 0xC6 PUSH1 0x20 SHL PUSH1 0x20 SHR JUMP JUMPDEST DUP1 PUSH1 0x2 PUSH1 0x0 PUSH2 0x100 EXP DUP2 SLOAD DUP2 PUSH20 0xFFFFFFFFFFFFFFFFFFFFFFFFFFFFFFFFFFFFFFFF MUL NOT AND SWAP1 DUP4 PUSH20 0xFFFFFFFFFFFFFFFFFFFFFFFFFFFFFFFFFFFFFFFF AND MUL OR SWAP1 SSTORE POP POP PUSH3 0x226 JUMP JUMPDEST PUSH1 0x0 CALLER SWAP1 POP SWAP1 JUMP JUMPDEST PUSH1 0x0 DUP1 PUSH1 0x0 SWAP1 SLOAD SWAP1 PUSH2 0x100 EXP SWAP1 DIV PUSH20 0xFFFFFFFFFFFFFFFFFFFFFFFFFFFFFFFFFFFFFFFF AND SWAP1 POP DUP2 PUSH1 0x0 DUP1 PUSH2 0x100 EXP DUP2 SLOAD DUP2 PUSH20 0xFFFFFFFFFFFFFFFFFFFFFFFFFFFFFFFFFFFFFFFF MUL NOT AND SWAP1 DUP4 PUSH20 0xFFFFFFFFFFFFFFFFFFFFFFFFFFFFFFFFFFFFFFFF AND MUL OR SWAP1 SSTORE POP DUP2 PUSH20 0xFFFFFFFFFFFFFFFFFFFFFFFFFFFFFFFFFFFFFFFF AND DUP2 PUSH20 0xFFFFFFFFFFFFFFFFFFFFFFFFFFFFFFFFFFFFFFFF AND PUSH32 0x8BE0079C531659141344CD1FD0A4F28419497F9722A3DAAFE3B4186F6B6457E0 PUSH1 0x40 MLOAD PUSH1 0x40 MLOAD DUP1 SWAP2 SUB SWAP1 LOG3 POP POP JUMP JUMPDEST PUSH1 0x0 DUP1 REVERT JUMPDEST PUSH1 0x0 PUSH20 0xFFFFFFFFFFFFFFFFFFFFFFFFFFFFFFFFFFFFFFFF DUP3 AND SWAP1 POP SWAP2 SWAP1 POP JUMP JUMPDEST PUSH1 0x0 PUSH3 0x1BC DUP3 PUSH3 0x18F JUMP JUMPDEST SWAP1 POP SWAP2 SWAP1 POP JUMP JUMPDEST PUSH3 0x1CE DUP2 PUSH3 0x1AF JUMP JUMPDEST DUP2 EQ PUSH3 0x1DA JUMPI PUSH1 0x0 DUP1 REVERT JUMPDEST POP JUMP JUMPDEST PUSH1 0x0 DUP2 MLOAD SWAP1 POP PUSH3 0x1EE DUP2 PUSH3 0x1C3 JUMP JUMPDEST SWAP3 SWAP2 POP POP JUMP JUMPDEST PUSH1 0x0 PUSH1 0x20 DUP3 DUP5 SUB SLT ISZERO PUSH3 0x20D JUMPI PUSH3 0x20C PUSH3 0x18A JUMP JUMPDEST JUMPDEST PUSH1 0x0 PUSH3 0x21D DUP5 DUP3 DUP6 ADD PUSH3 0x1DD JUMP JUMPDEST SWAP2 POP POP SWAP3 SWAP2 POP POP JUMP JUMPDEST PUSH2 0x225F DUP1 PUSH3 0x236 PUSH1 0x0 CODECOPY PUSH1 0x0 RETURN INVALID PUSH1 0x80 PUSH1 0x40 MSTORE CALLVALUE DUP1 ISZERO PUSH2 0x10 JUMPI PUSH1 0x0 DUP1 REVERT JUMPDEST POP PUSH1 0x4 CALLDATASIZE LT PUSH2 0xB4 JUMPI PUSH1 0x0 CALLDATALOAD PUSH1 0xE0 SHR DUP1 PUSH4 0x715018A6 GT PUSH2 0x71 JUMPI DUP1 PUSH4 0x715018A6 EQ PUSH2 0x18F JUMPI DUP1 PUSH4 0x7C9CD2BC EQ PUSH2 0x199 JUMPI DUP1 PUSH4 0x820785CC EQ PUSH2 0x1B5 JUMPI DUP1 PUSH4 0x8DA5CB5B EQ PUSH2 0x1E5 JUMPI DUP1 PUSH4 0xC3AD5ECB EQ PUSH2 0x203 JUMPI DUP1 PUSH4 0xF2FDE38B EQ PUSH2 0x233 JUMPI PUSH2 0xB4 JUMP JUMPDEST DUP1 PUSH4 0x5A1B4A9 EQ PUSH2 0xB9 JUMPI DUP1 PUSH4 0x12E7EE1C EQ PUSH2 0xED JUMPI DUP1 PUSH4 0x3D9B569F EQ PUSH2 0x11D JUMPI DUP1 PUSH4 0x58BFA4AB EQ PUSH2 0x139 JUMPI DUP1 PUSH4 0x63378216 EQ PUSH2 0x155 JUMPI DUP1 PUSH4 0x6EB10797 EQ PUSH2 0x171 JUMPI JUMPDEST PUSH1 0x0 DUP1 REVERT JUMPDEST PUSH2 0xD3 PUSH1 0x4 DUP1 CALLDATASIZE SUB DUP2 ADD SWAP1 PUSH2 0xCE SWAP2 SWAP1 PUSH2 0x137D JUMP JUMPDEST PUSH2 0x24F JUMP JUMPDEST PUSH1 0x40 MLOAD PUSH2 0xE4 SWAP6 SWAP5 SWAP4 SWAP3 SWAP2 SWAP1 PUSH2 0x146B JUMP JUMPDEST PUSH1 0x40 MLOAD DUP1 SWAP2 SUB SWAP1 RETURN JUMPDEST PUSH2 0x107 PUSH1 0x4 DUP1 CALLDATASIZE SUB DUP2 ADD SWAP1 PUSH2 0x102 SWAP2 SWAP1 PUSH2 0x14C5 JUMP JUMPDEST PUSH2 0x34A JUMP JUMPDEST PUSH1 0x40 MLOAD PUSH2 0x114 SWAP2 SWAP1 PUSH2 0x1692 JUMP JUMPDEST PUSH1 0x40 MLOAD DUP1 SWAP2 SUB SWAP1 RETURN JUMPDEST PUSH2 0x137 PUSH1 0x4 DUP1 CALLDATASIZE SUB DUP2 ADD SWAP1 PUSH2 0x132 SWAP2 SWAP1 PUSH2 0x137D JUMP JUMPDEST PUSH2 0x4EE JUMP JUMPDEST STOP JUMPDEST PUSH2 0x153 PUSH1 0x4 DUP1 CALLDATASIZE SUB DUP2 ADD SWAP1 PUSH2 0x14E SWAP2 SWAP1 PUSH2 0x16EE JUMP JUMPDEST PUSH2 0x840 JUMP JUMPDEST STOP JUMPDEST PUSH2 0x16F PUSH1 0x4 DUP1 CALLDATASIZE SUB DUP2 ADD SWAP1 PUSH2 0x16A SWAP2 SWAP1 PUSH2 0x137D JUMP JUMPDEST PUSH2 0x868 JUMP JUMPDEST STOP JUMPDEST PUSH2 0x179 PUSH2 0xB15 JUMP JUMPDEST PUSH1 0x40 MLOAD PUSH2 0x186 SWAP2 SWAP1 PUSH2 0x172A JUMP JUMPDEST PUSH1 0x40 MLOAD DUP1 SWAP2 SUB SWAP1 RETURN JUMPDEST PUSH2 0x197 PUSH2 0xB29 JUMP JUMPDEST STOP JUMPDEST PUSH2 0x1B3 PUSH1 0x4 DUP1 CALLDATASIZE SUB DUP2 ADD SWAP1 PUSH2 0x1AE SWAP2 SWAP1 PUSH2 0x187A JUMP JUMPDEST PUSH2 0xB3D JUMP JUMPDEST STOP JUMPDEST PUSH2 0x1CF PUSH1 0x4 DUP1 CALLDATASIZE SUB DUP2 ADD SWAP1 PUSH2 0x1CA SWAP2 SWAP1 PUSH2 0x14C5 JUMP JUMPDEST PUSH2 0xE3E JUMP JUMPDEST PUSH1 0x40 MLOAD PUSH2 0x1DC SWAP2 SWAP1 PUSH2 0x18C3 JUMP JUMPDEST PUSH1 0x40 MLOAD DUP1 SWAP2 SUB SWAP1 RETURN JUMPDEST PUSH2 0x1ED PUSH2 0xF1B JUMP JUMPDEST PUSH1 0x40 MLOAD PUSH2 0x1FA SWAP2 SWAP1 PUSH2 0x18DE JUMP JUMPDEST PUSH1 0x40 MLOAD DUP1 SWAP2 SUB SWAP1 RETURN JUMPDEST PUSH2 0x21D PUSH1 0x4 DUP1 CALLDATASIZE SUB DUP2 ADD SWAP1 PUSH2 0x218 SWAP2 SWAP1 PUSH2 0x18F9 JUMP JUMPDEST PUSH2 0xF44 JUMP JUMPDEST PUSH1 0x40 MLOAD PUSH2 0x22A SWAP2 SWAP1 PUSH2 0x199C JUMP JUMPDEST PUSH1 0x40 MLOAD DUP1 SWAP2 SUB SWAP1 RETURN JUMPDEST PUSH2 0x24D PUSH1 0x4 DUP1 CALLDATASIZE SUB DUP2 ADD SWAP1 PUSH2 0x248 SWAP2 SWAP1 PUSH2 0x14C5 JUMP JUMPDEST PUSH2 0x10C3 JUMP JUMPDEST STOP JUMPDEST PUSH1 0x1 PUSH1 0x20 MSTORE DUP2 PUSH1 0x0 MSTORE PUSH1 0x40 PUSH1 0x0 KECCAK256 DUP2 DUP2 SLOAD DUP2 LT PUSH2 0x26B JUMPI PUSH1 0x0 DUP1 REVERT JUMPDEST SWAP1 PUSH1 0x0 MSTORE PUSH1 0x20 PUSH1 0x0 KECCAK256 SWAP1 PUSH1 0x5 MUL ADD PUSH1 0x0 SWAP2 POP SWAP2 POP POP DUP1 PUSH1 0x0 ADD SLOAD SWAP1 DUP1 PUSH1 0x1 ADD PUSH1 0x0 SWAP1 SLOAD SWAP1 PUSH2 0x100 EXP SWAP1 DIV PUSH20 0xFFFFFFFFFFFFFFFFFFFFFFFFFFFFFFFFFFFFFFFF AND SWAP1 DUP1 PUSH1 0x2 ADD DUP1 SLOAD PUSH2 0x2BB SWAP1 PUSH2 0x19ED JUMP JUMPDEST DUP1 PUSH1 0x1F ADD PUSH1 0x20 DUP1 SWAP2 DIV MUL PUSH1 0x20 ADD PUSH1 0x40 MLOAD SWAP1 DUP2 ADD PUSH1 0x40 MSTORE DUP1 SWAP3 SWAP2 SWAP1 DUP2 DUP2 MSTORE PUSH1 0x20 ADD DUP3 DUP1 SLOAD PUSH2 0x2E7 SWAP1 PUSH2 0x19ED JUMP JUMPDEST DUP1 ISZERO PUSH2 0x334 JUMPI DUP1 PUSH1 0x1F LT PUSH2 0x309 JUMPI PUSH2 0x100 DUP1 DUP4 SLOAD DIV MUL DUP4 MSTORE SWAP2 PUSH1 0x20 ADD SWAP2 PUSH2 0x334 JUMP JUMPDEST DUP3 ADD SWAP2 SWAP1 PUSH1 0x0 MSTORE PUSH1 0x20 PUSH1 0x0 KECCAK256 SWAP1 JUMPDEST DUP2 SLOAD DUP2 MSTORE SWAP1 PUSH1 0x1 ADD SWAP1 PUSH1 0x20 ADD DUP1 DUP4 GT PUSH2 0x317 JUMPI DUP3 SWAP1 SUB PUSH1 0x1F AND DUP3 ADD SWAP2 JUMPDEST POP POP POP POP POP SWAP1 DUP1 PUSH1 0x3 ADD SLOAD SWAP1 DUP1 PUSH1 0x4 ADD SLOAD SWAP1 POP DUP6 JUMP JUMPDEST PUSH1 0x60 PUSH1 0x1 PUSH1 0x0 DUP4 PUSH20 0xFFFFFFFFFFFFFFFFFFFFFFFFFFFFFFFFFFFFFFFF AND PUSH20 0xFFFFFFFFFFFFFFFFFFFFFFFFFFFFFFFFFFFFFFFF AND DUP2 MSTORE PUSH1 0x20 ADD SWAP1 DUP2 MSTORE PUSH1 0x20 ADD PUSH1 0x0 KECCAK256 DUP1 SLOAD DUP1 PUSH1 0x20 MUL PUSH1 0x20 ADD PUSH1 0x40 MLOAD SWAP1 DUP2 ADD PUSH1 0x40 MSTORE DUP1 SWAP3 SWAP2 SWAP1 DUP2 DUP2 MSTORE PUSH1 0x20 ADD PUSH1 0x0 SWAP1 JUMPDEST DUP3 DUP3 LT ISZERO PUSH2 0x4E3 JUMPI DUP4 DUP3 SWAP1 PUSH1 0x0 MSTORE PUSH1 0x20 PUSH1 0x0 KECCAK256 SWAP1 PUSH1 0x5 MUL ADD PUSH1 0x40 MLOAD DUP1 PUSH1 0xA0 ADD PUSH1 0x40 MSTORE SWAP1 DUP2 PUSH1 0x0 DUP3 ADD SLOAD DUP2 MSTORE PUSH1 0x20 ADD PUSH1 0x1 DUP3 ADD PUSH1 0x0 SWAP1 SLOAD SWAP1 PUSH2 0x100 EXP SWAP1 DIV PUSH20 0xFFFFFFFFFFFFFFFFFFFFFFFFFFFFFFFFFFFFFFFF AND PUSH20 0xFFFFFFFFFFFFFFFFFFFFFFFFFFFFFFFFFFFFFFFF AND PUSH20 0xFFFFFFFFFFFFFFFFFFFFFFFFFFFFFFFFFFFFFFFF AND DUP2 MSTORE PUSH1 0x20 ADD PUSH1 0x2 DUP3 ADD DUP1 SLOAD PUSH2 0x43E SWAP1 PUSH2 0x19ED JUMP JUMPDEST DUP1 PUSH1 0x1F ADD PUSH1 0x20 DUP1 SWAP2 DIV MUL PUSH1 0x20 ADD PUSH1 0x40 MLOAD SWAP1 DUP2 ADD PUSH1 0x40 MSTORE DUP1 SWAP3 SWAP2 SWAP1 DUP2 DUP2 MSTORE PUSH1 0x20 ADD DUP3 DUP1 SLOAD PUSH2 0x46A SWAP1 PUSH2 0x19ED JUMP JUMPDEST DUP1 ISZERO PUSH2 0x4B7 JUMPI DUP1 PUSH1 0x1F LT PUSH2 0x48C JUMPI PUSH2 0x100 DUP1 DUP4 SLOAD DIV MUL DUP4 MSTORE SWAP2 PUSH1 0x20 ADD SWAP2 PUSH2 0x4B7 JUMP JUMPDEST DUP3 ADD SWAP2 SWAP1 PUSH1 0x0 MSTORE PUSH1 0x20 PUSH1 0x0 KECCAK256 SWAP1 JUMPDEST DUP2 SLOAD DUP2 MSTORE SWAP1 PUSH1 0x1 ADD SWAP1 PUSH1 0x20 ADD DUP1 DUP4 GT PUSH2 0x49A JUMPI DUP3 SWAP1 SUB PUSH1 0x1F AND DUP3 ADD SWAP2 JUMPDEST POP POP POP POP POP DUP2 MSTORE PUSH1 0x20 ADD PUSH1 0x3 DUP3 ADD SLOAD DUP2 MSTORE PUSH1 0x20 ADD PUSH1 0x4 DUP3 ADD SLOAD DUP2 MSTORE POP POP DUP2 MSTORE PUSH1 0x20 ADD SWAP1 PUSH1 0x1 ADD SWAP1 PUSH2 0x3AB JUMP JUMPDEST POP POP POP POP SWAP1 POP SWAP2 SWAP1 POP JUMP JUMPDEST PUSH1 0x0 PUSH1 0x2 PUSH1 0x0 SWAP1 SLOAD SWAP1 PUSH2 0x100 EXP SWAP1 DIV PUSH20 0xFFFFFFFFFFFFFFFFFFFFFFFFFFFFFFFFFFFFFFFF AND PUSH20 0xFFFFFFFFFFFFFFFFFFFFFFFFFFFFFFFFFFFFFFFF AND PUSH4 0xF53A470 CALLER PUSH1 0x40 MLOAD DUP3 PUSH4 0xFFFFFFFF AND PUSH1 0xE0 SHL DUP2 MSTORE PUSH1 0x4 ADD PUSH2 0x54B SWAP2 SWAP1 PUSH2 0x18DE JUMP JUMPDEST PUSH1 0x0 PUSH1 0x40 MLOAD DUP1 DUP4 SUB DUP2 DUP7 GAS STATICCALL ISZERO DUP1 ISZERO PUSH2 0x568 JUMPI RETURNDATASIZE PUSH1 0x0 DUP1 RETURNDATACOPY RETURNDATASIZE PUSH1 0x0 REVERT JUMPDEST POP POP POP POP PUSH1 0x40 MLOAD RETURNDATASIZE PUSH1 0x0 DUP3 RETURNDATACOPY RETURNDATASIZE PUSH1 0x1F NOT PUSH1 0x1F DUP3 ADD AND DUP3 ADD DUP1 PUSH1 0x40 MSTORE POP DUP2 ADD SWAP1 PUSH2 0x591 SWAP2 SWAP1 PUSH2 0x1B20 JUMP JUMPDEST SWAP1 POP PUSH1 0x0 DUP2 PUSH1 0x0 ADD MLOAD MLOAD GT PUSH2 0x5DB JUMPI PUSH1 0x40 MLOAD PUSH32 0x8C379A000000000000000000000000000000000000000000000000000000000 DUP2 MSTORE PUSH1 0x4 ADD PUSH2 0x5D2 SWAP1 PUSH2 0x1BB5 JUMP JUMPDEST PUSH1 0x40 MLOAD DUP1 SWAP2 SUB SWAP1 REVERT JUMPDEST DUP2 PUSH1 0x1 PUSH1 0x0 DUP6 PUSH20 0xFFFFFFFFFFFFFFFFFFFFFFFFFFFFFFFFFFFFFFFF AND PUSH20 0xFFFFFFFFFFFFFFFFFFFFFFFFFFFFFFFFFFFFFFFF AND DUP2 MSTORE PUSH1 0x20 ADD SWAP1 DUP2 MSTORE PUSH1 0x20 ADD PUSH1 0x0 KECCAK256 DUP4 DUP2 SLOAD DUP2 LT PUSH2 0x62D JUMPI PUSH2 0x62C PUSH2 0x1BD5 JUMP JUMPDEST JUMPDEST SWAP1 PUSH1 0x0 MSTORE PUSH1 0x20 PUSH1 0x0 KECCAK256 SWAP1 PUSH1 0x5 MUL ADD PUSH1 0x0 ADD SLOAD EQ PUSH2 0x67F JUMPI PUSH1 0x40 MLOAD PUSH32 0x8C379A000000000000000000000000000000000000000000000000000000000 DUP2 MSTORE PUSH1 0x4 ADD PUSH2 0x676 SWAP1 PUSH2 0x1C50 JUMP JUMPDEST PUSH1 0x40 MLOAD DUP1 SWAP2 SUB SWAP1 REVERT JUMPDEST PUSH1 0x0 PUSH1 0x1 PUSH1 0x0 DUP6 PUSH20 0xFFFFFFFFFFFFFFFFFFFFFFFFFFFFFFFFFFFFFFFF AND PUSH20 0xFFFFFFFFFFFFFFFFFFFFFFFFFFFFFFFFFFFFFFFF AND DUP2 MSTORE PUSH1 0x20 ADD SWAP1 DUP2 MSTORE PUSH1 0x20 ADD PUSH1 0x0 KECCAK256 DUP4 DUP2 SLOAD DUP2 LT PUSH2 0x6D2 JUMPI PUSH2 0x6D1 PUSH2 0x1BD5 JUMP JUMPDEST JUMPDEST SWAP1 PUSH1 0x0 MSTORE PUSH1 0x20 PUSH1 0x0 KECCAK256 SWAP1 PUSH1 0x5 MUL ADD PUSH1 0x4 ADD SLOAD GT PUSH2 0x724 JUMPI PUSH1 0x40 MLOAD PUSH32 0x8C379A000000000000000000000000000000000000000000000000000000000 DUP2 MSTORE PUSH1 0x4 ADD PUSH2 0x71B SWAP1 PUSH2 0x1CBC JUMP JUMPDEST PUSH1 0x40 MLOAD DUP1 SWAP2 SUB SWAP1 REVERT JUMPDEST PUSH1 0x1 PUSH1 0x0 DUP5 PUSH20 0xFFFFFFFFFFFFFFFFFFFFFFFFFFFFFFFFFFFFFFFF AND PUSH20 0xFFFFFFFFFFFFFFFFFFFFFFFFFFFFFFFFFFFFFFFF AND DUP2 MSTORE PUSH1 0x20 ADD SWAP1 DUP2 MSTORE PUSH1 0x20 ADD PUSH1 0x0 KECCAK256 DUP3 DUP2 SLOAD DUP2 LT PUSH2 0x775 JUMPI PUSH2 0x774 PUSH2 0x1BD5 JUMP JUMPDEST JUMPDEST SWAP1 PUSH1 0x0 MSTORE PUSH1 0x20 PUSH1 0x0 KECCAK256 SWAP1 PUSH1 0x5 MUL ADD PUSH1 0x4 ADD PUSH1 0x0 DUP2 SLOAD DUP1 SWAP3 SWAP2 SWAP1 PUSH2 0x797 SWAP1 PUSH2 0x1D0B JUMP JUMPDEST SWAP2 SWAP1 POP SSTORE POP PUSH32 0x762C2616349603AC16EBA0DE8E6141B79129A07AB63BD99E0A80B3A471716943 CALLER DUP5 DUP5 PUSH1 0x1 PUSH1 0x0 DUP9 PUSH20 0xFFFFFFFFFFFFFFFFFFFFFFFFFFFFFFFFFFFFFFFF AND PUSH20 0xFFFFFFFFFFFFFFFFFFFFFFFFFFFFFFFFFFFFFFFF AND DUP2 MSTORE PUSH1 0x20 ADD SWAP1 DUP2 MSTORE PUSH1 0x20 ADD PUSH1 0x0 KECCAK256 DUP7 DUP2 SLOAD DUP2 LT PUSH2 0x811 JUMPI PUSH2 0x810 PUSH2 0x1BD5 JUMP JUMPDEST JUMPDEST SWAP1 PUSH1 0x0 MSTORE PUSH1 0x20 PUSH1 0x0 KECCAK256 SWAP1 PUSH1 0x5 MUL ADD PUSH1 0x4 ADD SLOAD PUSH1 0x40 MLOAD PUSH2 0x833 SWAP5 SWAP4 SWAP3 SWAP2 SWAP1 PUSH2 0x1D34 JUMP JUMPDEST PUSH1 0x40 MLOAD DUP1 SWAP2 SUB SWAP1 LOG1 POP POP POP JUMP JUMPDEST PUSH2 0x848 PUSH2 0x1146 JUMP JUMPDEST DUP1 PUSH1 0x0 PUSH1 0x14 PUSH2 0x100 EXP DUP2 SLOAD DUP2 PUSH2 0xFFFF MUL NOT AND SWAP1 DUP4 PUSH2 0xFFFF AND MUL OR SWAP1 SSTORE POP POP JUMP JUMPDEST PUSH1 0x0 PUSH1 0x2 PUSH1 0x0 SWAP1 SLOAD SWAP1 PUSH2 0x100 EXP SWAP1 DIV PUSH20 0xFFFFFFFFFFFFFFFFFFFFFFFFFFFFFFFFFFFFFFFF AND PUSH20 0xFFFFFFFFFFFFFFFFFFFFFFFFFFFFFFFFFFFFFFFF AND PUSH4 0xF53A470 CALLER PUSH1 0x40 MLOAD DUP3 PUSH4 0xFFFFFFFF AND PUSH1 0xE0 SHL DUP2 MSTORE PUSH1 0x4 ADD PUSH2 0x8C5 SWAP2 SWAP1 PUSH2 0x18DE JUMP JUMPDEST PUSH1 0x0 PUSH1 0x40 MLOAD DUP1 DUP4 SUB DUP2 DUP7 GAS STATICCALL ISZERO DUP1 ISZERO PUSH2 0x8E2 JUMPI RETURNDATASIZE PUSH1 0x0 DUP1 RETURNDATACOPY RETURNDATASIZE PUSH1 0x0 REVERT JUMPDEST POP POP POP POP PUSH1 0x40 MLOAD RETURNDATASIZE PUSH1 0x0 DUP3 RETURNDATACOPY RETURNDATASIZE PUSH1 0x1F NOT PUSH1 0x1F DUP3 ADD AND DUP3 ADD DUP1 PUSH1 0x40 MSTORE POP DUP2 ADD SWAP1 PUSH2 0x90B SWAP2 SWAP1 PUSH2 0x1B20 JUMP JUMPDEST SWAP1 POP PUSH1 0x0 DUP2 PUSH1 0x0 ADD MLOAD MLOAD GT PUSH2 0x955 JUMPI PUSH1 0x40 MLOAD PUSH32 0x8C379A000000000000000000000000000000000000000000000000000000000 DUP2 MSTORE PUSH1 0x4 ADD PUSH2 0x94C SWAP1 PUSH2 0x1BB5 JUMP JUMPDEST PUSH1 0x40 MLOAD DUP1 SWAP2 SUB SWAP1 REVERT JUMPDEST DUP2 PUSH1 0x1 PUSH1 0x0 DUP6 PUSH20 0xFFFFFFFFFFFFFFFFFFFFFFFFFFFFFFFFFFFFFFFF AND PUSH20 0xFFFFFFFFFFFFFFFFFFFFFFFFFFFFFFFFFFFFFFFF AND DUP2 MSTORE PUSH1 0x20 ADD SWAP1 DUP2 MSTORE PUSH1 0x20 ADD PUSH1 0x0 KECCAK256 DUP4 DUP2 SLOAD DUP2 LT PUSH2 0x9A7 JUMPI PUSH2 0x9A6 PUSH2 0x1BD5 JUMP JUMPDEST JUMPDEST SWAP1 PUSH1 0x0 MSTORE PUSH1 0x20 PUSH1 0x0 KECCAK256 SWAP1 PUSH1 0x5 MUL ADD PUSH1 0x0 ADD SLOAD EQ PUSH2 0x9F9 JUMPI PUSH1 0x40 MLOAD PUSH32 0x8C379A000000000000000000000000000000000000000000000000000000000 DUP2 MSTORE PUSH1 0x4 ADD PUSH2 0x9F0 SWAP1 PUSH2 0x1C50 JUMP JUMPDEST PUSH1 0x40 MLOAD DUP1 SWAP2 SUB SWAP1 REVERT JUMPDEST PUSH1 0x1 PUSH1 0x0 DUP5 PUSH20 0xFFFFFFFFFFFFFFFFFFFFFFFFFFFFFFFFFFFFFFFF AND PUSH20 0xFFFFFFFFFFFFFFFFFFFFFFFFFFFFFFFFFFFFFFFF AND DUP2 MSTORE PUSH1 0x20 ADD SWAP1 DUP2 MSTORE PUSH1 0x20 ADD PUSH1 0x0 KECCAK256 DUP3 DUP2 SLOAD DUP2 LT PUSH2 0xA4A JUMPI PUSH2 0xA49 PUSH2 0x1BD5 JUMP JUMPDEST JUMPDEST SWAP1 PUSH1 0x0 MSTORE PUSH1 0x20 PUSH1 0x0 KECCAK256 SWAP1 PUSH1 0x5 MUL ADD PUSH1 0x4 ADD PUSH1 0x0 DUP2 SLOAD DUP1 SWAP3 SWAP2 SWAP1 PUSH2 0xA6C SWAP1 PUSH2 0x1D79 JUMP JUMPDEST SWAP2 SWAP1 POP SSTORE POP PUSH32 0xE8A76FC0F16D11A00D1E93B689B63D76CF60AF914DD3D915375DC41D01A0C3C8 CALLER DUP5 DUP5 PUSH1 0x1 PUSH1 0x0 DUP9 PUSH20 0xFFFFFFFFFFFFFFFFFFFFFFFFFFFFFFFFFFFFFFFF AND PUSH20 0xFFFFFFFFFFFFFFFFFFFFFFFFFFFFFFFFFFFFFFFF AND DUP2 MSTORE PUSH1 0x20 ADD SWAP1 DUP2 MSTORE PUSH1 0x20 ADD PUSH1 0x0 KECCAK256 DUP7 DUP2 SLOAD DUP2 LT PUSH2 0xAE6 JUMPI PUSH2 0xAE5 PUSH2 0x1BD5 JUMP JUMPDEST JUMPDEST SWAP1 PUSH1 0x0 MSTORE PUSH1 0x20 PUSH1 0x0 KECCAK256 SWAP1 PUSH1 0x5 MUL ADD PUSH1 0x4 ADD SLOAD PUSH1 0x40 MLOAD PUSH2 0xB08 SWAP5 SWAP4 SWAP3 SWAP2 SWAP1 PUSH2 0x1D34 JUMP JUMPDEST PUSH1 0x40 MLOAD DUP1 SWAP2 SUB SWAP1 LOG1 POP POP POP JUMP JUMPDEST PUSH1 0x0 PUSH1 0x14 SWAP1 SLOAD SWAP1 PUSH2 0x100 EXP SWAP1 DIV PUSH2 0xFFFF AND DUP2 JUMP JUMPDEST PUSH2 0xB31 PUSH2 0x1146 JUMP JUMPDEST PUSH2 0xB3B PUSH1 0x0 PUSH2 0x11C4 JUMP JUMPDEST JUMP JUMPDEST PUSH1 0x0 PUSH1 0x2 PUSH1 0x0 SWAP1 SLOAD SWAP1 PUSH2 0x100 EXP SWAP1 DIV PUSH20 0xFFFFFFFFFFFFFFFFFFFFFFFFFFFFFFFFFFFFFFFF AND PUSH20 0xFFFFFFFFFFFFFFFFFFFFFFFFFFFFFFFFFFFFFFFF AND PUSH4 0xF53A470 CALLER PUSH1 0x40 MLOAD DUP3 PUSH4 0xFFFFFFFF AND PUSH1 0xE0 SHL DUP2 MSTORE PUSH1 0x4 ADD PUSH2 0xB9A SWAP2 SWAP1 PUSH2 0x18DE JUMP JUMPDEST PUSH1 0x0 PUSH1 0x40 MLOAD DUP1 DUP4 SUB DUP2 DUP7 GAS STATICCALL ISZERO DUP1 ISZERO PUSH2 0xBB7 JUMPI RETURNDATASIZE PUSH1 0x0 DUP1 RETURNDATACOPY RETURNDATASIZE PUSH1 0x0 REVERT JUMPDEST POP POP POP POP PUSH1 0x40 MLOAD RETURNDATASIZE PUSH1 0x0 DUP3 RETURNDATACOPY RETURNDATASIZE PUSH1 0x1F NOT PUSH1 0x1F DUP3 ADD AND DUP3 ADD DUP1 PUSH1 0x40 MSTORE POP DUP2 ADD SWAP1 PUSH2 0xBE0 SWAP2 SWAP1 PUSH2 0x1B20 JUMP JUMPDEST SWAP1 POP PUSH1 0x0 DUP2 PUSH1 0x0 ADD MLOAD MLOAD GT PUSH2 0xC2A JUMPI PUSH1 0x40 MLOAD PUSH32 0x8C379A000000000000000000000000000000000000000000000000000000000 DUP2 MSTORE PUSH1 0x4 ADD PUSH2 0xC21 SWAP1 PUSH2 0x1BB5 JUMP JUMPDEST PUSH1 0x40 MLOAD DUP1 SWAP2 SUB SWAP1 REVERT JUMPDEST PUSH1 0x0 PUSH1 0x14 SWAP1 SLOAD SWAP1 PUSH2 0x100 EXP SWAP1 DIV PUSH2 0xFFFF AND PUSH2 0xFFFF AND DUP3 MLOAD GT ISZERO PUSH2 0xC82 JUMPI PUSH1 0x40 MLOAD PUSH32 0x8C379A000000000000000000000000000000000000000000000000000000000 DUP2 MSTORE PUSH1 0x4 ADD PUSH2 0xC79 SWAP1 PUSH2 0x1E0D JUMP JUMPDEST PUSH1 0x40 MLOAD DUP1 SWAP2 SUB SWAP1 REVERT JUMPDEST PUSH1 0x0 PUSH1 0x40 MLOAD DUP1 PUSH1 0xA0 ADD PUSH1 0x40 MSTORE DUP1 PUSH1 0x1 PUSH1 0x0 CALLER PUSH20 0xFFFFFFFFFFFFFFFFFFFFFFFFFFFFFFFFFFFFFFFF AND PUSH20 0xFFFFFFFFFFFFFFFFFFFFFFFFFFFFFFFFFFFFFFFF AND DUP2 MSTORE PUSH1 0x20 ADD SWAP1 DUP2 MSTORE PUSH1 0x20 ADD PUSH1 0x0 KECCAK256 DUP1 SLOAD SWAP1 POP DUP2 MSTORE PUSH1 0x20 ADD CALLER PUSH20 0xFFFFFFFFFFFFFFFFFFFFFFFFFFFFFFFFFFFFFFFF AND DUP2 MSTORE PUSH1 0x20 ADD DUP5 DUP2 MSTORE PUSH1 0x20 ADD TIMESTAMP DUP2 MSTORE PUSH1 0x20 ADD PUSH1 0x0 DUP2 MSTORE POP SWAP1 POP PUSH1 0x1 PUSH1 0x0 CALLER PUSH20 0xFFFFFFFFFFFFFFFFFFFFFFFFFFFFFFFFFFFFFFFF AND PUSH20 0xFFFFFFFFFFFFFFFFFFFFFFFFFFFFFFFFFFFFFFFF AND DUP2 MSTORE PUSH1 0x20 ADD SWAP1 DUP2 MSTORE PUSH1 0x20 ADD PUSH1 0x0 KECCAK256 DUP2 SWAP1 DUP1 PUSH1 0x1 DUP2 SLOAD ADD DUP1 DUP3 SSTORE DUP1 SWAP2 POP POP PUSH1 0x1 SWAP1 SUB SWAP1 PUSH1 0x0 MSTORE PUSH1 0x20 PUSH1 0x0 KECCAK256 SWAP1 PUSH1 0x5 MUL ADD PUSH1 0x0 SWAP1 SWAP2 SWAP1 SWAP2 SWAP1 SWAP2 POP PUSH1 0x0 DUP3 ADD MLOAD DUP2 PUSH1 0x0 ADD SSTORE PUSH1 0x20 DUP3 ADD MLOAD DUP2 PUSH1 0x1 ADD PUSH1 0x0 PUSH2 0x100 EXP DUP2 SLOAD DUP2 PUSH20 0xFFFFFFFFFFFFFFFFFFFFFFFFFFFFFFFFFFFFFFFF MUL NOT AND SWAP1 DUP4 PUSH20 0xFFFFFFFFFFFFFFFFFFFFFFFFFFFFFFFFFFFFFFFF AND MUL OR SWAP1 SSTORE POP PUSH1 0x40 DUP3 ADD MLOAD DUP2 PUSH1 0x2 ADD SWAP1 DUP2 PUSH2 0xDD5 SWAP2 SWAP1 PUSH2 0x1FD9 JUMP JUMPDEST POP PUSH1 0x60 DUP3 ADD MLOAD DUP2 PUSH1 0x3 ADD SSTORE PUSH1 0x80 DUP3 ADD MLOAD DUP2 PUSH1 0x4 ADD SSTORE POP POP PUSH32 0x16FD3C13E9D46923E0A8BCE11C7B473EC508A72E6C96CD2404B29CE972AFC29E DUP2 PUSH1 0x0 ADD MLOAD DUP3 PUSH1 0x20 ADD MLOAD DUP4 PUSH1 0x40 ADD MLOAD DUP5 PUSH1 0x60 ADD MLOAD PUSH1 0x40 MLOAD PUSH2 0xE31 SWAP5 SWAP4 SWAP3 SWAP2 SWAP1 PUSH2 0x20AB JUMP JUMPDEST PUSH1 0x40 MLOAD DUP1 SWAP2 SUB SWAP1 LOG1 POP POP POP JUMP JUMPDEST PUSH1 0x0 DUP1 PUSH1 0x0 JUMPDEST PUSH1 0x1 PUSH1 0x0 DUP6 PUSH20 0xFFFFFFFFFFFFFFFFFFFFFFFFFFFFFFFFFFFFFFFF AND PUSH20 0xFFFFFFFFFFFFFFFFFFFFFFFFFFFFFFFFFFFFFFFF AND DUP2 MSTORE PUSH1 0x20 ADD SWAP1 DUP2 MSTORE PUSH1 0x20 ADD PUSH1 0x0 KECCAK256 DUP1 SLOAD SWAP1 POP DUP2 LT ISZERO PUSH2 0xF11 JUMPI PUSH1 0x1 PUSH1 0x0 DUP6 PUSH20 0xFFFFFFFFFFFFFFFFFFFFFFFFFFFFFFFFFFFFFFFF AND PUSH20 0xFFFFFFFFFFFFFFFFFFFFFFFFFFFFFFFFFFFFFFFF AND DUP2 MSTORE PUSH1 0x20 ADD SWAP1 DUP2 MSTORE PUSH1 0x20 ADD PUSH1 0x0 KECCAK256 DUP2 DUP2 SLOAD DUP2 LT PUSH2 0xEDF JUMPI PUSH2 0xEDE PUSH2 0x1BD5 JUMP JUMPDEST JUMPDEST SWAP1 PUSH1 0x0 MSTORE PUSH1 0x20 PUSH1 0x0 KECCAK256 SWAP1 PUSH1 0x5 MUL ADD PUSH1 0x4 ADD SLOAD DUP3 PUSH2 0xEFC SWAP2 SWAP1 PUSH2 0x20F7 JUMP JUMPDEST SWAP2 POP DUP1 DUP1 PUSH2 0xF09 SWAP1 PUSH2 0x1D79 JUMP JUMPDEST SWAP2 POP POP PUSH2 0xE44 JUMP JUMPDEST POP DUP1 SWAP2 POP POP SWAP2 SWAP1 POP JUMP JUMPDEST PUSH1 0x0 DUP1 PUSH1 0x0 SWAP1 SLOAD SWAP1 PUSH2 0x100 EXP SWAP1 DIV PUSH20 0xFFFFFFFFFFFFFFFFFFFFFFFFFFFFFFFFFFFFFFFF AND SWAP1 POP SWAP1 JUMP JUMPDEST PUSH2 0xF4C PUSH2 0x1290 JUMP JUMPDEST PUSH1 0x1 PUSH1 0x0 CALLER PUSH20 0xFFFFFFFFFFFFFFFFFFFFFFFFFFFFFFFFFFFFFFFF AND PUSH20 0xFFFFFFFFFFFFFFFFFFFFFFFFFFFFFFFFFFFFFFFF AND DUP2 MSTORE PUSH1 0x20 ADD SWAP1 DUP2 MSTORE PUSH1 0x20 ADD PUSH1 0x0 KECCAK256 DUP3 DUP2 SLOAD DUP2 LT PUSH2 0xF9D JUMPI PUSH2 0xF9C PUSH2 0x1BD5 JUMP JUMPDEST JUMPDEST SWAP1 PUSH1 0x0 MSTORE PUSH1 0x20 PUSH1 0x0 KECCAK256 SWAP1 PUSH1 0x5 MUL ADD PUSH1 0x40 MLOAD DUP1 PUSH1 0xA0 ADD PUSH1 0x40 MSTORE SWAP1 DUP2 PUSH1 0x0 DUP3 ADD SLOAD DUP2 MSTORE PUSH1 0x20 ADD PUSH1 0x1 DUP3 ADD PUSH1 0x0 SWAP1 SLOAD SWAP1 PUSH2 0x100 EXP SWAP1 DIV PUSH20 0xFFFFFFFFFFFFFFFFFFFFFFFFFFFFFFFFFFFFFFFF AND PUSH20 0xFFFFFFFFFFFFFFFFFFFFFFFFFFFFFFFFFFFFFFFF AND PUSH20 0xFFFFFFFFFFFFFFFFFFFFFFFFFFFFFFFFFFFFFFFF AND DUP2 MSTORE PUSH1 0x20 ADD PUSH1 0x2 DUP3 ADD DUP1 SLOAD PUSH2 0x1026 SWAP1 PUSH2 0x19ED JUMP JUMPDEST DUP1 PUSH1 0x1F ADD PUSH1 0x20 DUP1 SWAP2 DIV MUL PUSH1 0x20 ADD PUSH1 0x40 MLOAD SWAP1 DUP2 ADD PUSH1 0x40 MSTORE DUP1 SWAP3 SWAP2 SWAP1 DUP2 DUP2 MSTORE PUSH1 0x20 ADD DUP3 DUP1 SLOAD PUSH2 0x1052 SWAP1 PUSH2 0x19ED JUMP JUMPDEST DUP1 ISZERO PUSH2 0x109F JUMPI DUP1 PUSH1 0x1F LT PUSH2 0x1074 JUMPI PUSH2 0x100 DUP1 DUP4 SLOAD DIV MUL DUP4 MSTORE SWAP2 PUSH1 0x20 ADD SWAP2 PUSH2 0x109F JUMP JUMPDEST DUP3 ADD SWAP2 SWAP1 PUSH1 0x0 MSTORE PUSH1 0x20 PUSH1 0x0 KECCAK256 SWAP1 JUMPDEST DUP2 SLOAD DUP2 MSTORE SWAP1 PUSH1 0x1 ADD SWAP1 PUSH1 0x20 ADD DUP1 DUP4 GT PUSH2 0x1082 JUMPI DUP3 SWAP1 SUB PUSH1 0x1F AND DUP3 ADD SWAP2 JUMPDEST POP POP POP POP POP DUP2 MSTORE PUSH1 0x20 ADD PUSH1 0x3 DUP3 ADD SLOAD DUP2 MSTORE PUSH1 0x20 ADD PUSH1 0x4 DUP3 ADD SLOAD DUP2 MSTORE POP POP SWAP1 POP SWAP2 SWAP1 POP JUMP JUMPDEST PUSH2 0x10CB PUSH2 0x1146 JUMP JUMPDEST PUSH1 0x0 PUSH20 0xFFFFFFFFFFFFFFFFFFFFFFFFFFFFFFFFFFFFFFFF AND DUP2 PUSH20 0xFFFFFFFFFFFFFFFFFFFFFFFFFFFFFFFFFFFFFFFF AND SUB PUSH2 0x113A JUMPI PUSH1 0x40 MLOAD PUSH32 0x8C379A000000000000000000000000000000000000000000000000000000000 DUP2 MSTORE PUSH1 0x4 ADD PUSH2 0x1131 SWAP1 PUSH2 0x219D JUMP JUMPDEST PUSH1 0x40 MLOAD DUP1 SWAP2 SUB SWAP1 REVERT JUMPDEST PUSH2 0x1143 DUP2 PUSH2 0x11C4 JUMP JUMPDEST POP JUMP JUMPDEST PUSH2 0x114E PUSH2 0x1288 JUMP JUMPDEST PUSH20 0xFFFFFFFFFFFFFFFFFFFFFFFFFFFFFFFFFFFFFFFF AND PUSH2 0x116C PUSH2 0xF1B JUMP JUMPDEST PUSH20 0xFFFFFFFFFFFFFFFFFFFFFFFFFFFFFFFFFFFFFFFF AND EQ PUSH2 0x11C2 JUMPI PUSH1 0x40 MLOAD PUSH32 0x8C379A000000000000000000000000000000000000000000000000000000000 DUP2 MSTORE PUSH1 0x4 ADD PUSH2 0x11B9 SWAP1 PUSH2 0x2209 JUMP JUMPDEST PUSH1 0x40 MLOAD DUP1 SWAP2 SUB SWAP1 REVERT JUMPDEST JUMP JUMPDEST PUSH1 0x0 DUP1 PUSH1 0x0 SWAP1 SLOAD SWAP1 PUSH2 0x100 EXP SWAP1 DIV PUSH20 0xFFFFFFFFFFFFFFFFFFFFFFFFFFFFFFFFFFFFFFFF AND SWAP1 POP DUP2 PUSH1 0x0 DUP1 PUSH2 0x100 EXP DUP2 SLOAD DUP2 PUSH20 0xFFFFFFFFFFFFFFFFFFFFFFFFFFFFFFFFFFFFFFFF MUL NOT AND SWAP1 DUP4 PUSH20 0xFFFFFFFFFFFFFFFFFFFFFFFFFFFFFFFFFFFFFFFF AND MUL OR SWAP1 SSTORE POP DUP2 PUSH20 0xFFFFFFFFFFFFFFFFFFFFFFFFFFFFFFFFFFFFFFFF AND DUP2 PUSH20 0xFFFFFFFFFFFFFFFFFFFFFFFFFFFFFFFFFFFFFFFF AND PUSH32 0x8BE0079C531659141344CD1FD0A4F28419497F9722A3DAAFE3B4186F6B6457E0 PUSH1 0x40 MLOAD PUSH1 0x40 MLOAD DUP1 SWAP2 SUB SWAP1 LOG3 POP POP JUMP JUMPDEST PUSH1 0x0 CALLER SWAP1 POP SWAP1 JUMP JUMPDEST PUSH1 0x40 MLOAD DUP1 PUSH1 0xA0 ADD PUSH1 0x40 MSTORE DUP1 PUSH1 0x0 DUP2 MSTORE PUSH1 0x20 ADD PUSH1 0x0 PUSH20 0xFFFFFFFFFFFFFFFFFFFFFFFFFFFFFFFFFFFFFFFF AND DUP2 MSTORE PUSH1 0x20 ADD PUSH1 0x60 DUP2 MSTORE PUSH1 0x20 ADD PUSH1 0x0 DUP2 MSTORE PUSH1 0x20 ADD PUSH1 0x0 DUP2 MSTORE POP SWAP1 JUMP JUMPDEST PUSH1 0x0 PUSH1 0x40 MLOAD SWAP1 POP SWAP1 JUMP JUMPDEST PUSH1 0x0 DUP1 REVERT JUMPDEST PUSH1 0x0 DUP1 REVERT JUMPDEST PUSH1 0x0 PUSH20 0xFFFFFFFFFFFFFFFFFFFFFFFFFFFFFFFFFFFFFFFF DUP3 AND SWAP1 POP SWAP2 SWAP1 POP JUMP JUMPDEST PUSH1 0x0 PUSH2 0x1314 DUP3 PUSH2 0x12E9 JUMP JUMPDEST SWAP1 POP SWAP2 SWAP1 POP JUMP JUMPDEST PUSH2 0x1324 DUP2 PUSH2 0x1309 JUMP JUMPDEST DUP2 EQ PUSH2 0x132F JUMPI PUSH1 0x0 DUP1 REVERT JUMPDEST POP JUMP JUMPDEST PUSH1 0x0 DUP2 CALLDATALOAD SWAP1 POP PUSH2 0x1341 DUP2 PUSH2 0x131B JUMP JUMPDEST SWAP3 SWAP2 POP POP JUMP JUMPDEST PUSH1 0x0 DUP2 SWAP1 POP SWAP2 SWAP1 POP JUMP JUMPDEST PUSH2 0x135A DUP2 PUSH2 0x1347 JUMP JUMPDEST DUP2 EQ PUSH2 0x1365 JUMPI PUSH1 0x0 DUP1 REVERT JUMPDEST POP JUMP JUMPDEST PUSH1 0x0 DUP2 CALLDATALOAD SWAP1 POP PUSH2 0x1377 DUP2 PUSH2 0x1351 JUMP JUMPDEST SWAP3 SWAP2 POP POP JUMP JUMPDEST PUSH1 0x0 DUP1 PUSH1 0x40 DUP4 DUP6 SUB SLT ISZERO PUSH2 0x1394 JUMPI PUSH2 0x1393 PUSH2 0x12DF JUMP JUMPDEST JUMPDEST PUSH1 0x0 PUSH2 0x13A2 DUP6 DUP3 DUP7 ADD PUSH2 0x1332 JUMP JUMPDEST SWAP3 POP POP PUSH1 0x20 PUSH2 0x13B3 DUP6 DUP3 DUP7 ADD PUSH2 0x1368 JUMP JUMPDEST SWAP2 POP POP SWAP3 POP SWAP3 SWAP1 POP JUMP JUMPDEST PUSH2 0x13C6 DUP2 PUSH2 0x1347 JUMP JUMPDEST DUP3 MSTORE POP POP JUMP JUMPDEST PUSH2 0x13D5 DUP2 PUSH2 0x1309 JUMP JUMPDEST DUP3 MSTORE POP POP JUMP JUMPDEST PUSH1 0x0 DUP2 MLOAD SWAP1 POP SWAP2 SWAP1 POP JUMP JUMPDEST PUSH1 0x0 DUP3 DUP3 MSTORE PUSH1 0x20 DUP3 ADD SWAP1 POP SWAP3 SWAP2 POP POP JUMP JUMPDEST PUSH1 0x0 JUMPDEST DUP4 DUP2 LT ISZERO PUSH2 0x1415 JUMPI DUP1 DUP3 ADD MLOAD DUP2 DUP5 ADD MSTORE PUSH1 0x20 DUP2 ADD SWAP1 POP PUSH2 0x13FA JUMP JUMPDEST PUSH1 0x0 DUP5 DUP5 ADD MSTORE POP POP POP POP JUMP JUMPDEST PUSH1 0x0 PUSH1 0x1F NOT PUSH1 0x1F DUP4 ADD AND SWAP1 POP SWAP2 SWAP1 POP JUMP JUMPDEST PUSH1 0x0 PUSH2 0x143D DUP3 PUSH2 0x13DB JUMP JUMPDEST PUSH2 0x1447 DUP2 DUP6 PUSH2 0x13E6 JUMP JUMPDEST SWAP4 POP PUSH2 0x1457 DUP2 DUP6 PUSH1 0x20 DUP7 ADD PUSH2 0x13F7 JUMP JUMPDEST PUSH2 0x1460 DUP2 PUSH2 0x1421 JUMP JUMPDEST DUP5 ADD SWAP2 POP POP SWAP3 SWAP2 POP POP JUMP JUMPDEST PUSH1 0x0 PUSH1 0xA0 DUP3 ADD SWAP1 POP PUSH2 0x1480 PUSH1 0x0 DUP4 ADD DUP9 PUSH2 0x13BD JUMP JUMPDEST PUSH2 0x148D PUSH1 0x20 DUP4 ADD DUP8 PUSH2 0x13CC JUMP JUMPDEST DUP2 DUP2 SUB PUSH1 0x40 DUP4 ADD MSTORE PUSH2 0x149F DUP2 DUP7 PUSH2 0x1432 JUMP JUMPDEST SWAP1 POP PUSH2 0x14AE PUSH1 0x60 DUP4 ADD DUP6 PUSH2 0x13BD JUMP JUMPDEST PUSH2 0x14BB PUSH1 0x80 DUP4 ADD DUP5 PUSH2 0x13BD JUMP JUMPDEST SWAP7 SWAP6 POP POP POP POP POP POP JUMP JUMPDEST PUSH1 0x0 PUSH1 0x20 DUP3 DUP5 SUB SLT ISZERO PUSH2 0x14DB JUMPI PUSH2 0x14DA PUSH2 0x12DF JUMP JUMPDEST JUMPDEST PUSH1 0x0 PUSH2 0x14E9 DUP5 DUP3 DUP6 ADD PUSH2 0x1332 JUMP JUMPDEST SWAP2 POP POP SWAP3 SWAP2 POP POP JUMP JUMPDEST PUSH1 0x0 DUP2 MLOAD SWAP1 POP SWAP2 SWAP1 POP JUMP JUMPDEST PUSH1 0x0 DUP3 DUP3 MSTORE PUSH1 0x20 DUP3 ADD SWAP1 POP SWAP3 SWAP2 POP POP JUMP JUMPDEST PUSH1 0x0 DUP2 SWAP1 POP PUSH1 0x20 DUP3 ADD SWAP1 POP SWAP2 SWAP1 POP JUMP JUMPDEST PUSH2 0x1527 DUP2 PUSH2 0x1347 JUMP JUMPDEST DUP3 MSTORE POP POP JUMP JUMPDEST PUSH2 0x1536 DUP2 PUSH2 0x1309 JUMP JUMPDEST DUP3 MSTORE POP POP JUMP JUMPDEST PUSH1 0x0 DUP3 DUP3 MSTORE PUSH1 0x20 DUP3 ADD SWAP1 POP SWAP3 SWAP2 POP POP JUMP JUMPDEST PUSH1 0x0 PUSH2 0x1558 DUP3 PUSH2 0x13DB JUMP JUMPDEST PUSH2 0x1562 DUP2 DUP6 PUSH2 0x153C JUMP JUMPDEST SWAP4 POP PUSH2 0x1572 DUP2 DUP6 PUSH1 0x20 DUP7 ADD PUSH2 0x13F7 JUMP JUMPDEST PUSH2 0x157B DUP2 PUSH2 0x1421 JUMP JUMPDEST DUP5 ADD SWAP2 POP POP SWAP3 SWAP2 POP POP JUMP JUMPDEST PUSH1 0x0 PUSH1 0xA0 DUP4 ADD PUSH1 0x0 DUP4 ADD MLOAD PUSH2 0x159E PUSH1 0x0 DUP7 ADD DUP3 PUSH2 0x151E JUMP JUMPDEST POP PUSH1 0x20 DUP4 ADD MLOAD PUSH2 0x15B1 PUSH1 0x20 DUP7 ADD DUP3 PUSH2 0x152D JUMP JUMPDEST POP PUSH1 0x40 DUP4 ADD MLOAD DUP5 DUP3 SUB PUSH1 0x40 DUP7 ADD MSTORE PUSH2 0x15C9 DUP3 DUP3 PUSH2 0x154D JUMP JUMPDEST SWAP2 POP POP PUSH1 0x60 DUP4 ADD MLOAD PUSH2 0x15DE PUSH1 0x60 DUP7 ADD DUP3 PUSH2 0x151E JUMP JUMPDEST POP PUSH1 0x80 DUP4 ADD MLOAD PUSH2 0x15F1 PUSH1 0x80 DUP7 ADD DUP3 PUSH2 0x151E JUMP JUMPDEST POP DUP1 SWAP2 POP POP SWAP3 SWAP2 POP POP JUMP JUMPDEST PUSH1 0x0 PUSH2 0x1608 DUP4 DUP4 PUSH2 0x1586 JUMP JUMPDEST SWAP1 POP SWAP3 SWAP2 POP POP JUMP JUMPDEST PUSH1 0x0 PUSH1 0x20 DUP3 ADD SWAP1 POP SWAP2 SWAP1 POP JUMP JUMPDEST PUSH1 0x0 PUSH2 0x1628 DUP3 PUSH2 0x14F2 JUMP JUMPDEST PUSH2 0x1632 DUP2 DUP6 PUSH2 0x14FD JUMP JUMPDEST SWAP4 POP DUP4 PUSH1 0x20 DUP3 MUL DUP6 ADD PUSH2 0x1644 DUP6 PUSH2 0x150E JUMP JUMPDEST DUP1 PUSH1 0x0 JUMPDEST DUP6 DUP2 LT ISZERO PUSH2 0x1680 JUMPI DUP5 DUP5 SUB DUP10 MSTORE DUP2 MLOAD PUSH2 0x1661 DUP6 DUP3 PUSH2 0x15FC JUMP JUMPDEST SWAP5 POP PUSH2 0x166C DUP4 PUSH2 0x1610 JUMP JUMPDEST SWAP3 POP PUSH1 0x20 DUP11 ADD SWAP10 POP POP PUSH1 0x1 DUP2 ADD SWAP1 POP PUSH2 0x1648 JUMP JUMPDEST POP DUP3 SWAP8 POP DUP8 SWAP6 POP POP POP POP POP POP SWAP3 SWAP2 POP POP JUMP JUMPDEST PUSH1 0x0 PUSH1 0x20 DUP3 ADD SWAP1 POP DUP2 DUP2 SUB PUSH1 0x0 DUP4 ADD MSTORE PUSH2 0x16AC DUP2 DUP5 PUSH2 0x161D JUMP JUMPDEST SWAP1 POP SWAP3 SWAP2 POP POP JUMP JUMPDEST PUSH1 0x0 PUSH2 0xFFFF DUP3 AND SWAP1 POP SWAP2 SWAP1 POP JUMP JUMPDEST PUSH2 0x16CB DUP2 PUSH2 0x16B4 JUMP JUMPDEST DUP2 EQ PUSH2 0x16D6 JUMPI PUSH1 0x0 DUP1 REVERT JUMPDEST POP JUMP JUMPDEST PUSH1 0x0 DUP2 CALLDATALOAD SWAP1 POP PUSH2 0x16E8 DUP2 PUSH2 0x16C2 JUMP JUMPDEST SWAP3 SWAP2 POP POP JUMP JUMPDEST PUSH1 0x0 PUSH1 0x20 DUP3 DUP5 SUB SLT ISZERO PUSH2 0x1704 JUMPI PUSH2 0x1703 PUSH2 0x12DF JUMP JUMPDEST JUMPDEST PUSH1 0x0 PUSH2 0x1712 DUP5 DUP3 DUP6 ADD PUSH2 0x16D9 JUMP JUMPDEST SWAP2 POP POP SWAP3 SWAP2 POP POP JUMP JUMPDEST PUSH2 0x1724 DUP2 PUSH2 0x16B4 JUMP JUMPDEST DUP3 MSTORE POP POP JUMP JUMPDEST PUSH1 0x0 PUSH1 0x20 DUP3 ADD SWAP1 POP PUSH2 0x173F PUSH1 0x0 DUP4 ADD DUP5 PUSH2 0x171B JUMP JUMPDEST SWAP3 SWAP2 POP POP JUMP JUMPDEST PUSH1 0x0 DUP1 REVERT JUMPDEST PUSH1 0x0 DUP1 REVERT JUMPDEST PUSH32 0x4E487B7100000000000000000000000000000000000000000000000000000000 PUSH1 0x0 MSTORE PUSH1 0x41 PUSH1 0x4 MSTORE PUSH1 0x24 PUSH1 0x0 REVERT JUMPDEST PUSH2 0x1787 DUP3 PUSH2 0x1421 JUMP JUMPDEST DUP2 ADD DUP2 DUP2 LT PUSH8 0xFFFFFFFFFFFFFFFF DUP3 GT OR ISZERO PUSH2 0x17A6 JUMPI PUSH2 0x17A5 PUSH2 0x174F JUMP JUMPDEST JUMPDEST DUP1 PUSH1 0x40 MSTORE POP POP POP JUMP JUMPDEST PUSH1 0x0 PUSH2 0x17B9 PUSH2 0x12D5 JUMP JUMPDEST SWAP1 POP PUSH2 0x17C5 DUP3 DUP3 PUSH2 0x177E JUMP JUMPDEST SWAP2 SWAP1 POP JUMP JUMPDEST PUSH1 0x0 PUSH8 0xFFFFFFFFFFFFFFFF DUP3 GT ISZERO PUSH2 0x17E5 JUMPI PUSH2 0x17E4 PUSH2 0x174F JUMP JUMPDEST JUMPDEST PUSH2 0x17EE DUP3 PUSH2 0x1421 JUMP JUMPDEST SWAP1 POP PUSH1 0x20 DUP2 ADD SWAP1 POP SWAP2 SWAP1 POP JUMP JUMPDEST DUP3 DUP2 DUP4 CALLDATACOPY PUSH1 0x0 DUP4 DUP4 ADD MSTORE POP POP POP JUMP JUMPDEST PUSH1 0x0 PUSH2 0x181D PUSH2 0x1818 DUP5 PUSH2 0x17CA JUMP JUMPDEST PUSH2 0x17AF JUMP JUMPDEST SWAP1 POP DUP3 DUP2 MSTORE PUSH1 0x20 DUP2 ADD DUP5 DUP5 DUP5 ADD GT ISZERO PUSH2 0x1839 JUMPI PUSH2 0x1838 PUSH2 0x174A JUMP JUMPDEST JUMPDEST PUSH2 0x1844 DUP5 DUP3 DUP6 PUSH2 0x17FB JUMP JUMPDEST POP SWAP4 SWAP3 POP POP POP JUMP JUMPDEST PUSH1 0x0 DUP3 PUSH1 0x1F DUP4 ADD SLT PUSH2 0x1861 JUMPI PUSH2 0x1860 PUSH2 0x1745 JUMP JUMPDEST JUMPDEST DUP2 CALLDATALOAD PUSH2 0x1871 DUP5 DUP3 PUSH1 0x20 DUP7 ADD PUSH2 0x180A JUMP JUMPDEST SWAP2 POP POP SWAP3 SWAP2 POP POP JUMP JUMPDEST PUSH1 0x0 PUSH1 0x20 DUP3 DUP5 SUB SLT ISZERO PUSH2 0x1890 JUMPI PUSH2 0x188F PUSH2 0x12DF JUMP JUMPDEST JUMPDEST PUSH1 0x0 DUP3 ADD CALLDATALOAD PUSH8 0xFFFFFFFFFFFFFFFF DUP2 GT ISZERO PUSH2 0x18AE JUMPI PUSH2 0x18AD PUSH2 0x12E4 JUMP JUMPDEST JUMPDEST PUSH2 0x18BA DUP5 DUP3 DUP6 ADD PUSH2 0x184C JUMP JUMPDEST SWAP2 POP POP SWAP3 SWAP2 POP POP JUMP JUMPDEST PUSH1 0x0 PUSH1 0x20 DUP3 ADD SWAP1 POP PUSH2 0x18D8 PUSH1 0x0 DUP4 ADD DUP5 PUSH2 0x13BD JUMP JUMPDEST SWAP3 SWAP2 POP POP JUMP JUMPDEST PUSH1 0x0 PUSH1 0x20 DUP3 ADD SWAP1 POP PUSH2 0x18F3 PUSH1 0x0 DUP4 ADD DUP5 PUSH2 0x13CC JUMP JUMPDEST SWAP3 SWAP2 POP POP JUMP JUMPDEST PUSH1 0x0 PUSH1 0x20 DUP3 DUP5 SUB SLT ISZERO PUSH2 0x190F JUMPI PUSH2 0x190E PUSH2 0x12DF JUMP JUMPDEST JUMPDEST PUSH1 0x0 PUSH2 0x191D DUP5 DUP3 DUP6 ADD PUSH2 0x1368 JUMP JUMPDEST SWAP2 POP POP SWAP3 SWAP2 POP POP JUMP JUMPDEST PUSH1 0x0 PUSH1 0xA0 DUP4 ADD PUSH1 0x0 DUP4 ADD MLOAD PUSH2 0x193E PUSH1 0x0 DUP7 ADD DUP3 PUSH2 0x151E JUMP JUMPDEST POP PUSH1 0x20 DUP4 ADD MLOAD PUSH2 0x1951 PUSH1 0x20 DUP7 ADD DUP3 PUSH2 0x152D JUMP JUMPDEST POP PUSH1 0x40 DUP4 ADD MLOAD DUP5 DUP3 SUB PUSH1 0x40 DUP7 ADD MSTORE PUSH2 0x1969 DUP3 DUP3 PUSH2 0x154D JUMP JUMPDEST SWAP2 POP POP PUSH1 0x60 DUP4 ADD MLOAD PUSH2 0x197E PUSH1 0x60 DUP7 ADD DUP3 PUSH2 0x151E JUMP JUMPDEST POP PUSH1 0x80 DUP4 ADD MLOAD PUSH2 0x1991 PUSH1 0x80 DUP7 ADD DUP3 PUSH2 0x151E JUMP JUMPDEST POP DUP1 SWAP2 POP POP SWAP3 SWAP2 POP POP JUMP JUMPDEST PUSH1 0x0 PUSH1 0x20 DUP3 ADD SWAP1 POP DUP2 DUP2 SUB PUSH1 0x0 DUP4 ADD MSTORE PUSH2 0x19B6 DUP2 DUP5 PUSH2 0x1926 JUMP JUMPDEST SWAP1 POP SWAP3 SWAP2 POP POP JUMP JUMPDEST PUSH32 0x4E487B7100000000000000000000000000000000000000000000000000000000 PUSH1 0x0 MSTORE PUSH1 0x22 PUSH1 0x4 MSTORE PUSH1 0x24 PUSH1 0x0 REVERT JUMPDEST PUSH1 0x0 PUSH1 0x2 DUP3 DIV SWAP1 POP PUSH1 0x1 DUP3 AND DUP1 PUSH2 0x1A05 JUMPI PUSH1 0x7F DUP3 AND SWAP2 POP JUMPDEST PUSH1 0x20 DUP3 LT DUP2 SUB PUSH2 0x1A18 JUMPI PUSH2 0x1A17 PUSH2 0x19BE JUMP JUMPDEST JUMPDEST POP SWAP2 SWAP1 POP JUMP JUMPDEST PUSH1 0x0 DUP1 REVERT JUMPDEST PUSH1 0x0 DUP1 REVERT JUMPDEST PUSH1 0x0 PUSH2 0x1A3B PUSH2 0x1A36 DUP5 PUSH2 0x17CA JUMP JUMPDEST PUSH2 0x17AF JUMP JUMPDEST SWAP1 POP DUP3 DUP2 MSTORE PUSH1 0x20 DUP2 ADD DUP5 DUP5 DUP5 ADD GT ISZERO PUSH2 0x1A57 JUMPI PUSH2 0x1A56 PUSH2 0x174A JUMP JUMPDEST JUMPDEST PUSH2 0x1A62 DUP5 DUP3 DUP6 PUSH2 0x13F7 JUMP JUMPDEST POP SWAP4 SWAP3 POP POP POP JUMP JUMPDEST PUSH1 0x0 DUP3 PUSH1 0x1F DUP4 ADD SLT PUSH2 0x1A7F JUMPI PUSH2 0x1A7E PUSH2 0x1745 JUMP JUMPDEST JUMPDEST DUP2 MLOAD PUSH2 0x1A8F DUP5 DUP3 PUSH1 0x20 DUP7 ADD PUSH2 0x1A28 JUMP JUMPDEST SWAP2 POP POP SWAP3 SWAP2 POP POP JUMP JUMPDEST PUSH1 0x0 PUSH1 0x40 DUP3 DUP5 SUB SLT ISZERO PUSH2 0x1AAE JUMPI PUSH2 0x1AAD PUSH2 0x1A1E JUMP JUMPDEST JUMPDEST PUSH2 0x1AB8 PUSH1 0x40 PUSH2 0x17AF JUMP JUMPDEST SWAP1 POP PUSH1 0x0 DUP3 ADD MLOAD PUSH8 0xFFFFFFFFFFFFFFFF DUP2 GT ISZERO PUSH2 0x1AD8 JUMPI PUSH2 0x1AD7 PUSH2 0x1A23 JUMP JUMPDEST JUMPDEST PUSH2 0x1AE4 DUP5 DUP3 DUP6 ADD PUSH2 0x1A6A JUMP JUMPDEST PUSH1 0x0 DUP4 ADD MSTORE POP PUSH1 0x20 DUP3 ADD MLOAD PUSH8 0xFFFFFFFFFFFFFFFF DUP2 GT ISZERO PUSH2 0x1B08 JUMPI PUSH2 0x1B07 PUSH2 0x1A23 JUMP JUMPDEST JUMPDEST PUSH2 0x1B14 DUP5 DUP3 DUP6 ADD PUSH2 0x1A6A JUMP JUMPDEST PUSH1 0x20 DUP4 ADD MSTORE POP SWAP3 SWAP2 POP POP JUMP JUMPDEST PUSH1 0x0 PUSH1 0x20 DUP3 DUP5 SUB SLT ISZERO PUSH2 0x1B36 JUMPI PUSH2 0x1B35 PUSH2 0x12DF JUMP JUMPDEST JUMPDEST PUSH1 0x0 DUP3 ADD MLOAD PUSH8 0xFFFFFFFFFFFFFFFF DUP2 GT ISZERO PUSH2 0x1B54 JUMPI PUSH2 0x1B53 PUSH2 0x12E4 JUMP JUMPDEST JUMPDEST PUSH2 0x1B60 DUP5 DUP3 DUP6 ADD PUSH2 0x1A98 JUMP JUMPDEST SWAP2 POP POP SWAP3 SWAP2 POP POP JUMP JUMPDEST PUSH32 0x55534552204E4F54205245474953544552454400000000000000000000000000 PUSH1 0x0 DUP3 ADD MSTORE POP JUMP JUMPDEST PUSH1 0x0 PUSH2 0x1B9F PUSH1 0x13 DUP4 PUSH2 0x13E6 JUMP JUMPDEST SWAP2 POP PUSH2 0x1BAA DUP3 PUSH2 0x1B69 JUMP JUMPDEST PUSH1 0x20 DUP3 ADD SWAP1 POP SWAP2 SWAP1 POP JUMP JUMPDEST PUSH1 0x0 PUSH1 0x20 DUP3 ADD SWAP1 POP DUP2 DUP2 SUB PUSH1 0x0 DUP4 ADD MSTORE PUSH2 0x1BCE DUP2 PUSH2 0x1B92 JUMP JUMPDEST SWAP1 POP SWAP2 SWAP1 POP JUMP JUMPDEST PUSH32 0x4E487B7100000000000000000000000000000000000000000000000000000000 PUSH1 0x0 MSTORE PUSH1 0x32 PUSH1 0x4 MSTORE PUSH1 0x24 PUSH1 0x0 REVERT JUMPDEST PUSH32 0x545745455420444F4553204E4F54204558495354000000000000000000000000 PUSH1 0x0 DUP3 ADD MSTORE POP JUMP JUMPDEST PUSH1 0x0 PUSH2 0x1C3A PUSH1 0x14 DUP4 PUSH2 0x13E6 JUMP JUMPDEST SWAP2 POP PUSH2 0x1C45 DUP3 PUSH2 0x1C04 JUMP JUMPDEST PUSH1 0x20 DUP3 ADD SWAP1 POP SWAP2 SWAP1 POP JUMP JUMPDEST PUSH1 0x0 PUSH1 0x20 DUP3 ADD SWAP1 POP DUP2 DUP2 SUB PUSH1 0x0 DUP4 ADD MSTORE PUSH2 0x1C69 DUP2 PUSH2 0x1C2D JUMP JUMPDEST SWAP1 POP SWAP2 SWAP1 POP JUMP JUMPDEST PUSH32 0x545745455420484153204E4F204C494B45530000000000000000000000000000 PUSH1 0x0 DUP3 ADD MSTORE POP JUMP JUMPDEST PUSH1 0x0 PUSH2 0x1CA6 PUSH1 0x12 DUP4 PUSH2 0x13E6 JUMP JUMPDEST SWAP2 POP PUSH2 0x1CB1 DUP3 PUSH2 0x1C70 JUMP JUMPDEST PUSH1 0x20 DUP3 ADD SWAP1 POP SWAP2 SWAP1 POP JUMP JUMPDEST PUSH1 0x0 PUSH1 0x20 DUP3 ADD SWAP1 POP DUP2 DUP2 SUB PUSH1 0x0 DUP4 ADD MSTORE PUSH2 0x1CD5 DUP2 PUSH2 0x1C99 JUMP JUMPDEST SWAP1 POP SWAP2 SWAP1 POP JUMP JUMPDEST PUSH32 0x4E487B7100000000000000000000000000000000000000000000000000000000 PUSH1 0x0 MSTORE PUSH1 0x11 PUSH1 0x4 MSTORE PUSH1 0x24 PUSH1 0x0 REVERT JUMPDEST PUSH1 0x0 PUSH2 0x1D16 DUP3 PUSH2 0x1347 JUMP JUMPDEST SWAP2 POP PUSH1 0x0 DUP3 SUB PUSH2 0x1D29 JUMPI PUSH2 0x1D28 PUSH2 0x1CDC JUMP JUMPDEST JUMPDEST PUSH1 0x1 DUP3 SUB SWAP1 POP SWAP2 SWAP1 POP JUMP JUMPDEST PUSH1 0x0 PUSH1 0x80 DUP3 ADD SWAP1 POP PUSH2 0x1D49 PUSH1 0x0 DUP4 ADD DUP8 PUSH2 0x13CC JUMP JUMPDEST PUSH2 0x1D56 PUSH1 0x20 DUP4 ADD DUP7 PUSH2 0x13CC JUMP JUMPDEST PUSH2 0x1D63 PUSH1 0x40 DUP4 ADD DUP6 PUSH2 0x13BD JUMP JUMPDEST PUSH2 0x1D70 PUSH1 0x60 DUP4 ADD DUP5 PUSH2 0x13BD JUMP JUMPDEST SWAP6 SWAP5 POP POP POP POP POP JUMP JUMPDEST PUSH1 0x0 PUSH2 0x1D84 DUP3 PUSH2 0x1347 JUMP JUMPDEST SWAP2 POP PUSH32 0xFFFFFFFFFFFFFFFFFFFFFFFFFFFFFFFFFFFFFFFFFFFFFFFFFFFFFFFFFFFFFFFF DUP3 SUB PUSH2 0x1DB6 JUMPI PUSH2 0x1DB5 PUSH2 0x1CDC JUMP JUMPDEST JUMPDEST PUSH1 0x1 DUP3 ADD SWAP1 POP SWAP2 SWAP1 POP JUMP JUMPDEST PUSH32 0x547765657420697320746F6F206C6F6E672062726F2100000000000000000000 PUSH1 0x0 DUP3 ADD MSTORE POP JUMP JUMPDEST PUSH1 0x0 PUSH2 0x1DF7 PUSH1 0x16 DUP4 PUSH2 0x13E6 JUMP JUMPDEST SWAP2 POP PUSH2 0x1E02 DUP3 PUSH2 0x1DC1 JUMP JUMPDEST PUSH1 0x20 DUP3 ADD SWAP1 POP SWAP2 SWAP1 POP JUMP JUMPDEST PUSH1 0x0 PUSH1 0x20 DUP3 ADD SWAP1 POP DUP2 DUP2 SUB PUSH1 0x0 DUP4 ADD MSTORE PUSH2 0x1E26 DUP2 PUSH2 0x1DEA JUMP JUMPDEST SWAP1 POP SWAP2 SWAP1 POP JUMP JUMPDEST PUSH1 0x0 DUP2 SWAP1 POP DUP2 PUSH1 0x0 MSTORE PUSH1 0x20 PUSH1 0x0 KECCAK256 SWAP1 POP SWAP2 SWAP1 POP JUMP JUMPDEST PUSH1 0x0 PUSH1 0x20 PUSH1 0x1F DUP4 ADD DIV SWAP1 POP SWAP2 SWAP1 POP JUMP JUMPDEST PUSH1 0x0 DUP3 DUP3 SHL SWAP1 POP SWAP3 SWAP2 POP POP JUMP JUMPDEST PUSH1 0x0 PUSH1 0x8 DUP4 MUL PUSH2 0x1E8F PUSH32 0xFFFFFFFFFFFFFFFFFFFFFFFFFFFFFFFFFFFFFFFFFFFFFFFFFFFFFFFFFFFFFFFF DUP3 PUSH2 0x1E52 JUMP JUMPDEST PUSH2 0x1E99 DUP7 DUP4 PUSH2 0x1E52 JUMP JUMPDEST SWAP6 POP DUP1 NOT DUP5 AND SWAP4 POP DUP1 DUP7 AND DUP5 OR SWAP3 POP POP POP SWAP4 SWAP3 POP POP POP JUMP JUMPDEST PUSH1 0x0 DUP2 SWAP1 POP SWAP2 SWAP1 POP JUMP JUMPDEST PUSH1 0x0 PUSH2 0x1ED6 PUSH2 0x1ED1 PUSH2 0x1ECC DUP5 PUSH2 0x1347 JUMP JUMPDEST PUSH2 0x1EB1 JUMP JUMPDEST PUSH2 0x1347 JUMP JUMPDEST SWAP1 POP SWAP2 SWAP1 POP JUMP JUMPDEST PUSH1 0x0 DUP2 SWAP1 POP SWAP2 SWAP1 POP JUMP JUMPDEST PUSH2 0x1EF0 DUP4 PUSH2 0x1EBB JUMP JUMPDEST PUSH2 0x1F04 PUSH2 0x1EFC DUP3 PUSH2 0x1EDD JUMP JUMPDEST DUP5 DUP5 SLOAD PUSH2 0x1E5F JUMP JUMPDEST DUP3 SSTORE POP POP POP POP JUMP JUMPDEST PUSH1 0x0 SWAP1 JUMP JUMPDEST PUSH2 0x1F19 PUSH2 0x1F0C JUMP JUMPDEST PUSH2 0x1F24 DUP2 DUP5 DUP5 PUSH2 0x1EE7 JUMP JUMPDEST POP POP POP JUMP JUMPDEST JUMPDEST DUP2 DUP2 LT ISZERO PUSH2 0x1F48 JUMPI PUSH2 0x1F3D PUSH1 0x0 DUP3 PUSH2 0x1F11 JUMP JUMPDEST PUSH1 0x1 DUP2 ADD SWAP1 POP PUSH2 0x1F2A JUMP JUMPDEST POP POP JUMP JUMPDEST PUSH1 0x1F DUP3 GT ISZERO PUSH2 0x1F8D JUMPI PUSH2 0x1F5E DUP2 PUSH2 0x1E2D JUMP JUMPDEST PUSH2 0x1F67 DUP5 PUSH2 0x1E42 JUMP JUMPDEST DUP2 ADD PUSH1 0x20 DUP6 LT ISZERO PUSH2 0x1F76 JUMPI DUP2 SWAP1 POP JUMPDEST PUSH2 0x1F8A PUSH2 0x1F82 DUP6 PUSH2 0x1E42 JUMP JUMPDEST DUP4 ADD DUP3 PUSH2 0x1F29 JUMP JUMPDEST POP POP JUMPDEST POP POP POP JUMP JUMPDEST PUSH1 0x0 DUP3 DUP3 SHR SWAP1 POP SWAP3 SWAP2 POP POP JUMP JUMPDEST PUSH1 0x0 PUSH2 0x1FB0 PUSH1 0x0 NOT DUP5 PUSH1 0x8 MUL PUSH2 0x1F92 JUMP JUMPDEST NOT DUP1 DUP4 AND SWAP2 POP POP SWAP3 SWAP2 POP POP JUMP JUMPDEST PUSH1 0x0 PUSH2 0x1FC9 DUP4 DUP4 PUSH2 0x1F9F JUMP JUMPDEST SWAP2 POP DUP3 PUSH1 0x2 MUL DUP3 OR SWAP1 POP SWAP3 SWAP2 POP POP JUMP JUMPDEST PUSH2 0x1FE2 DUP3 PUSH2 0x13DB JUMP JUMPDEST PUSH8 0xFFFFFFFFFFFFFFFF DUP2 GT ISZERO PUSH2 0x1FFB JUMPI PUSH2 0x1FFA PUSH2 0x174F JUMP JUMPDEST JUMPDEST PUSH2 0x2005 DUP3 SLOAD PUSH2 0x19ED JUMP JUMPDEST PUSH2 0x2010 DUP3 DUP3 DUP6 PUSH2 0x1F4C JUMP JUMPDEST PUSH1 0x0 PUSH1 0x20 SWAP1 POP PUSH1 0x1F DUP4 GT PUSH1 0x1 DUP2 EQ PUSH2 0x2043 JUMPI PUSH1 0x0 DUP5 ISZERO PUSH2 0x2031 JUMPI DUP3 DUP8 ADD MLOAD SWAP1 POP JUMPDEST PUSH2 0x203B DUP6 DUP3 PUSH2 0x1FBD JUMP JUMPDEST DUP7 SSTORE POP PUSH2 0x20A3 JUMP JUMPDEST PUSH1 0x1F NOT DUP5 AND PUSH2 0x2051 DUP7 PUSH2 0x1E2D JUMP JUMPDEST PUSH1 0x0 JUMPDEST DUP3 DUP2 LT ISZERO PUSH2 0x2079 JUMPI DUP5 DUP10 ADD MLOAD DUP3 SSTORE PUSH1 0x1 DUP3 ADD SWAP2 POP PUSH1 0x20 DUP6 ADD SWAP5 POP PUSH1 0x20 DUP2 ADD SWAP1 POP PUSH2 0x2054 JUMP JUMPDEST DUP7 DUP4 LT ISZERO PUSH2 0x2096 JUMPI DUP5 DUP10 ADD MLOAD PUSH2 0x2092 PUSH1 0x1F DUP10 AND DUP3 PUSH2 0x1F9F JUMP JUMPDEST DUP4 SSTORE POP JUMPDEST PUSH1 0x1 PUSH1 0x2 DUP9 MUL ADD DUP9 SSTORE POP POP POP JUMPDEST POP POP POP POP POP POP JUMP JUMPDEST PUSH1 0x0 PUSH1 0x80 DUP3 ADD SWAP1 POP PUSH2 0x20C0 PUSH1 0x0 DUP4 ADD DUP8 PUSH2 0x13BD JUMP JUMPDEST PUSH2 0x20CD PUSH1 0x20 DUP4 ADD DUP7 PUSH2 0x13CC JUMP JUMPDEST DUP2 DUP2 SUB PUSH1 0x40 DUP4 ADD MSTORE PUSH2 0x20DF DUP2 DUP6 PUSH2 0x1432 JUMP JUMPDEST SWAP1 POP PUSH2 0x20EE PUSH1 0x60 DUP4 ADD DUP5 PUSH2 0x13BD JUMP JUMPDEST SWAP6 SWAP5 POP POP POP POP POP JUMP JUMPDEST PUSH1 0x0 PUSH2 0x2102 DUP3 PUSH2 0x1347 JUMP JUMPDEST SWAP2 POP PUSH2 0x210D DUP4 PUSH2 0x1347 JUMP JUMPDEST SWAP3 POP DUP3 DUP3 ADD SWAP1 POP DUP1 DUP3 GT ISZERO PUSH2 0x2125 JUMPI PUSH2 0x2124 PUSH2 0x1CDC JUMP JUMPDEST JUMPDEST SWAP3 SWAP2 POP POP JUMP JUMPDEST PUSH32 0x4F776E61626C653A206E6577206F776E657220697320746865207A65726F2061 PUSH1 0x0 DUP3 ADD MSTORE PUSH32 0x6464726573730000000000000000000000000000000000000000000000000000 PUSH1 0x20 DUP3 ADD MSTORE POP JUMP JUMPDEST PUSH1 0x0 PUSH2 0x2187 PUSH1 0x26 DUP4 PUSH2 0x13E6 JUMP JUMPDEST SWAP2 POP PUSH2 0x2192 DUP3 PUSH2 0x212B JUMP JUMPDEST PUSH1 0x40 DUP3 ADD SWAP1 POP SWAP2 SWAP1 POP JUMP JUMPDEST PUSH1 0x0 PUSH1 0x20 DUP3 ADD SWAP1 POP DUP2 DUP2 SUB PUSH1 0x0 DUP4 ADD MSTORE PUSH2 0x21B6 DUP2 PUSH2 0x217A JUMP JUMPDEST SWAP1 POP SWAP2 SWAP1 POP JUMP JUMPDEST PUSH32 0x4F776E61626C653A2063616C6C6572206973206E6F7420746865206F776E6572 PUSH1 0x0 DUP3 ADD MSTORE POP JUMP JUMPDEST PUSH1 0x0 PUSH2 0x21F3 PUSH1 0x20 DUP4 PUSH2 0x13E6 JUMP JUMPDEST SWAP2 POP PUSH2 0x21FE DUP3 PUSH2 0x21BD JUMP JUMPDEST PUSH1 0x20 DUP3 ADD SWAP1 POP SWAP2 SWAP1 POP JUMP JUMPDEST PUSH1 0x0 PUSH1 0x20 DUP3 ADD SWAP1 POP DUP2 DUP2 SUB PUSH1 0x0 DUP4 ADD MSTORE PUSH2 0x2222 DUP2 PUSH2 0x21E6 JUMP JUMPDEST SWAP1 POP SWAP2 SWAP1 POP JUMP INVALID LOG2 PUSH5 0x6970667358 0x22 SLT KECCAK256 0xC PUSH1 0xB0 POP SSTORE RETURNDATASIZE XOR KECCAK256 PUSH28 0x97F1453B0DAD1F3F70064A3E49C25EA452FDB7503DDCD764736F6C63 NUMBER STOP ADDMOD SLT STOP CALLER "
				},
				"gasEstimates": {
					"creation": {
						"codeDepositCost": "1759800",
						"executionCost": "infinite",
						"totalCost": "infinite"
					},
					"external": {
						"MAX_TWEET_LENGTH()": "2632",
						"changeTweetLength(uint16)": "27060",
						"createTweet(string)": "infinite",
						"getAllTweets(address)": "infinite",
						"getTotalLikes(address)": "infinite",
						"getTweet(uint256)": "infinite",
						"likeTweet(address,uint256)": "infinite",
						"owner()": "2588",
						"renounceOwnership()": "30398",
						"transferOwnership(address)": "30854",
						"tweets(address,uint256)": "infinite",
						"unlikeTweet(address,uint256)": "infinite"
					}
				},
				"methodIdentifiers": {
					"MAX_TWEET_LENGTH()": "6eb10797",
					"changeTweetLength(uint16)": "58bfa4ab",
					"createTweet(string)": "7c9cd2bc",
					"getAllTweets(address)": "12e7ee1c",
					"getTotalLikes(address)": "820785cc",
					"getTweet(uint256)": "c3ad5ecb",
					"likeTweet(address,uint256)": "63378216",
					"owner()": "8da5cb5b",
					"renounceOwnership()": "715018a6",
					"transferOwnership(address)": "f2fde38b",
					"tweets(address,uint256)": "05a1b4a9",
					"unlikeTweet(address,uint256)": "3d9b569f"
				}
			},
			"storageLayout": {
				"storage": [
					{
						"astId": 7,
						"contract": "contracts/Twitter.sol:Twitter",
						"label": "_owner",
						"offset": 0,
						"slot": "0",
						"type": "t_address"
					},
					{
						"astId": 156,
						"contract": "contracts/Twitter.sol:Twitter",
						"label": "MAX_TWEET_LENGTH",
						"offset": 20,
						"slot": "0",
						"type": "t_uint16"
					},
					{
						"astId": 173,
						"contract": "contracts/Twitter.sol:Twitter",
						"label": "tweets",
						"offset": 0,
						"slot": "1",
						"type": "t_mapping(t_address,t_array(t_struct(Tweet)167_storage)dyn_storage)"
					},
					{
						"astId": 176,
						"contract": "contracts/Twitter.sol:Twitter",
						"label": "profileContract",
						"offset": 0,
						"slot": "2",
						"type": "t_contract(IProfile)151"
					}
				],
				"types": {
					"t_address": {
						"encoding": "inplace",
						"label": "address",
						"numberOfBytes": "20"
					},
					"t_array(t_struct(Tweet)167_storage)dyn_storage": {
						"base": "t_struct(Tweet)167_storage",
						"encoding": "dynamic_array",
						"label": "struct Twitter.Tweet[]",
						"numberOfBytes": "32"
					},
					"t_contract(IProfile)151": {
						"encoding": "inplace",
						"label": "contract IProfile",
						"numberOfBytes": "20"
					},
					"t_mapping(t_address,t_array(t_struct(Tweet)167_storage)dyn_storage)": {
						"encoding": "mapping",
						"key": "t_address",
						"label": "mapping(address => struct Twitter.Tweet[])",
						"numberOfBytes": "32",
						"value": "t_array(t_struct(Tweet)167_storage)dyn_storage"
					},
					"t_string_storage": {
						"encoding": "bytes",
						"label": "string",
						"numberOfBytes": "32"
					},
					"t_struct(Tweet)167_storage": {
						"encoding": "inplace",
						"label": "struct Twitter.Tweet",
						"members": [
							{
								"astId": 158,
								"contract": "contracts/Twitter.sol:Twitter",
								"label": "id",
								"offset": 0,
								"slot": "0",
								"type": "t_uint256"
							},
							{
								"astId": 160,
								"contract": "contracts/Twitter.sol:Twitter",
								"label": "author",
								"offset": 0,
								"slot": "1",
								"type": "t_address"
							},
							{
								"astId": 162,
								"contract": "contracts/Twitter.sol:Twitter",
								"label": "content",
								"offset": 0,
								"slot": "2",
								"type": "t_string_storage"
							},
							{
								"astId": 164,
								"contract": "contracts/Twitter.sol:Twitter",
								"label": "timestamp",
								"offset": 0,
								"slot": "3",
								"type": "t_uint256"
							},
							{
								"astId": 166,
								"contract": "contracts/Twitter.sol:Twitter",
								"label": "likes",
								"offset": 0,
								"slot": "4",
								"type": "t_uint256"
							}
						],
						"numberOfBytes": "160"
					},
					"t_uint16": {
						"encoding": "inplace",
						"label": "uint16",
						"numberOfBytes": "2"
					},
					"t_uint256": {
						"encoding": "inplace",
						"label": "uint256",
						"numberOfBytes": "32"
					}
				}
			},
			"userdoc": {
				"kind": "user",
				"methods": {},
				"version": 1
			}
		}
	}
}